{
    "type": "fr.acinq.lightning.channel.fsm.ShuttingDown",
    "commitments": {
        "params": {
            "channelId": "2f7c825b61cbbf0e685aef20f8923a8cd28943346e59301b629cc89b4e27cdbd",
            "channelConfig": [
                "funding_pubkey_based_channel_keypath"
            ],
            "channelFeatures": [
                "option_support_large_channel",
                "option_static_remotekey",
                "option_anchor_outputs",
                "zero_reserve_channels",
                "zero_conf_channels"
            ],
            "localParams": {
                "nodeId": "0362b19a83930389b4468be40308efb3f352b23142ae25e6aba0465a8220f95b06",
                "fundingKeyPath": "m/795924157'/565292462/1721776665'/620103361/947451165/318257970'/1822224386/616080517'/0'",
                "dustLimit": 1000,
                "maxHtlcValueInFlightMsat": 1500000000,
                "htlcMinimum": 1000,
                "toSelfDelay": 144,
                "maxAcceptedHtlcs": 100,
                "isInitiator": false,
                "defaultFinalScriptPubKey": "001434947cfb2e8f6054ddf12daed4308cbe342580d1",
                "features": {
                    "activated": {
                        "initial_routing_sync": "Optional",
                        "option_data_loss_protect": "Optional",
                        "gossip_queries": "Optional",
                        "gossip_queries_ex": "Optional",
                        "var_onion_optin": "Mandatory",
                        "payment_secret": "Mandatory",
                        "basic_mpp": "Optional",
                        "option_support_large_channel": "Optional",
                        "option_static_remotekey": "Mandatory",
                        "option_anchor_outputs": "Mandatory",
                        "option_channel_type": "Mandatory",
                        "option_payment_metadata": "Optional",
                        "trampoline_payment_experimental": "Optional",
                        "wake_up_notification_client": "Optional",
                        "pay_to_open_client": "Optional",
                        "trusted_swap_in_client": "Optional",
                        "channel_backup_client": "Optional"
                    },
                    "unknown": [
                    ]
                }
            },
            "remoteParams": {
                "nodeId": "037108815ff0128f7ed22640485c226d9ad64a9fd6d8b41b6623565aed6b34812c",
                "dustLimit": 1100,
                "maxHtlcValueInFlightMsat": 1500000000,
                "htlcMinimum": 0,
                "toSelfDelay": 144,
                "maxAcceptedHtlcs": 100,
                "revocationBasepoint": "037d549bc475d9b2b0098e3b2f23282671646eab09b36e2f01099f39e376552864",
                "paymentBasepoint": "0368434fc548cb471f7ed8c94638433bfb07cceb97665c411450fdc23c60236409",
                "delayedPaymentBasepoint": "0399d61c09ee58f1cdc497a872f6b284cbaccd54f56bcbf7acf1f5595b577506cc",
                "htlcBasepoint": "0288fb5246c577f7ea28bc1b56f64d4c9f6c931b7075f7890bc6b4daff6253b5d6",
                "features": {
                    "activated": {
                        "option_data_loss_protect": "Optional",
                        "initial_routing_sync": "Optional",
                        "gossip_queries": "Optional",
                        "var_onion_optin": "Mandatory",
                        "gossip_queries_ex": "Optional",
                        "option_static_remotekey": "Mandatory",
                        "payment_secret": "Mandatory",
                        "basic_mpp": "Optional",
                        "option_support_large_channel": "Optional",
                        "option_anchor_outputs": "Mandatory",
                        "option_channel_type": "Mandatory",
                        "option_payment_metadata": "Optional",
                        "wake_up_notification_provider": "Optional",
                        "pay_to_open_provider": "Optional",
                        "trusted_swap_in_provider": "Optional",
                        "channel_backup_provider": "Optional",
                        "trampoline_payment_experimental": "Optional"
                    },
                    "unknown": [
                    ]
                }
            },
            "channelFlags": 0
        },
        "changes": {
            "localChanges": {
                "proposed": [
                ],
                "signed": [
                    {
                        "type": "fr.acinq.lightning.wire.UpdateFulfillHtlc",
                        "channelId": "2f7c825b61cbbf0e685aef20f8923a8cd28943346e59301b629cc89b4e27cdbd",
                        "id": 0,
                        "paymentPreimage": "2afc28d3ad7a8a83426769f6765edbcd9e320335a2e4200df95f54f22472fe3d"
                    }
                ],
                "acked": [
                ]
            },
            "remoteChanges": {
                "proposed": [
                ],
                "acked": [
                ],
                "signed": [
                ]
            },
            "localNextHtlcId": 0,
            "remoteNextHtlcId": 2
        },
        "active": [
            {
                "fundingTxIndex": 0,
                "remoteFundingPubkey": "02b6eaf304d966a6df90f3b3df7af7be6b1625854bbc096cb8b3507b2a37c2bf9c",
                "localFundingStatus": {
                    "status": "unconfirmed",
                    "txId": "bdcd274e9bc89c621b30596e344389d28c3a92f820ef5a680ebfcb615b827c2f"
                },
                "remoteFundingStatus": {
                    "status": "locked"
                },
                "localCommit": {
                    "index": 1,
                    "spec": {
                        "htlcsIn": [
                            {
                                "channelId": "2f7c825b61cbbf0e685aef20f8923a8cd28943346e59301b629cc89b4e27cdbd",
                                "id": 0,
                                "amountMsat": 300000000,
                                "paymentHash": "bb9134aefd0dcfee1bb57ab492f6d794934c2823cbc99c1b975deef3b0d67d5a",
                                "cltvExpiry": 400144,
                                "onionRoutingPacket": "<redacted>"
                            },
                            {
                                "channelId": "2f7c825b61cbbf0e685aef20f8923a8cd28943346e59301b629cc89b4e27cdbd",
                                "id": 1,
                                "amountMsat": 200000000,
                                "paymentHash": "23d0335a29f4751d39c8e5c13d79513da2ca619cbff40fa70bc618e803e1f488",
                                "cltvExpiry": 400144,
                                "onionRoutingPacket": "<redacted>"
                            }
                        ],
                        "htlcsOut": [
                        ],
                        "feerate": 5000,
                        "toLocal": 200000000,
                        "toRemote": 300000000
                    },
                    "publishableTxs": {
                        "commitTx": {
                            "input": {
                                "outPoint": "bdcd274e9bc89c621b30596e344389d28c3a92f820ef5a680ebfcb615b827c2f:0",
                                "txOut": {
                                    "amount": 1000000,
                                    "publicKeyScript": "00204ba42b50e089764e60e9e0c76c57e41d252d6beb976332f14a7b255bbb5322b8"
                                },
                                "redeemScript": "522102b6eaf304d966a6df90f3b3df7af7be6b1625854bbc096cb8b3507b2a37c2bf9c210385cfd7d8850e4cb8fcbed57310911218e5d5e1fd34f92ef5d9db14d56418caa452ae"
                            },
                            "tx": "020000000001012f7c825b61cbbf0e685aef20f8923a8cd28943346e59301b629cc89b4e27cdbd000000000000b77080064a0100000000000022002046672803839d10e21d43eafb532bc37cd21bd97dec7f9b50d45380cd1cce69654a01000000000000220020bbd7f17366848d8f624c28438128ce4dc8c72ea21deb0ccf25bee110920da032400d030000000000220020c69b2c7f0223bcc7777e7029c6aae25110a0eb82c3a1ccc5daf47230d08a34d0400d030000000000220020cbfc18dfba5112418175b4d4683d6fb064a77a230e2190fd50344d3290d6d4b2a074040000000000220020958bb43c9e6d1b985001c2f4dc38d286d7fde78bb04d7ec5a5ae44d8ebf0c40ce09304000000000022002039c8ad7d16980a6cea19c49477e44f93844c2fac06d07dcd2ad37e27d4f75071040047304402205c2b83ac40b26a2a671114830a8a6cce3c2cd9eaea2fc92004689ee58eb70ef40220082ebc49b5f6a0355fa371516f8d633da496fde6cfe4ee440aa3e41b51905ff601483045022100fa8aa60f854006c44c33fa4a4a77edf207b936704806cbd56631114cf9018040022065b9d1ae8b03f2e8a5bc552ae3ad79ce008fbc95aee2672525e45e6dfd43674f0147522102b6eaf304d966a6df90f3b3df7af7be6b1625854bbc096cb8b3507b2a37c2bf9c210385cfd7d8850e4cb8fcbed57310911218e5d5e1fd34f92ef5d9db14d56418caa452aedf99dc20"
                        },
                        "htlcTxsAndSigs": [
                            {
                                "txinfo": {
                                    "type": "fr.acinq.lightning.transactions.Transactions.TransactionWithInputInfo.HtlcTx.HtlcSuccessTx",
                                    "input": {
                                        "outPoint": "86441d0d05c27ecef1fd4bd850172890c8cee07eb0aedb272034eb36f93221be:3",
                                        "txOut": {
                                            "amount": 200000,
                                            "publicKeyScript": "0020cbfc18dfba5112418175b4d4683d6fb064a77a230e2190fd50344d3290d6d4b2"
                                        },
                                        "redeemScript": "76a914aef8f6925558b0a595971422e2bcca65b0116cef8763ac672102f846a96b1afc033efdaf605745a9ca6824d773b8d459f0d86e9a9ee5aacdd3557c8201208763a9148f93e0f27c3c23aca8fb53a150df1bc2fd6a69d788527c21032311a586e1653dd5e9b165302c08e9e3468bfbdd676f33775b8322c16e28616652ae677503101b06b175ac6851b27568"
                                    },
                                    "tx": "0200000001be2132f936eb342027dbaeb07ee0cec890281750d84bfdf1ce7ec2050d1d44860300000000010000000176ff020000000000220020c69b2c7f0223bcc7777e7029c6aae25110a0eb82c3a1ccc5daf47230d08a34d000000000",
                                    "paymentHash": "23d0335a29f4751d39c8e5c13d79513da2ca619cbff40fa70bc618e803e1f488",
                                    "htlcId": 1
                                },
                                "localSig": "3a48052a0a6d3f08cd7282532ab677841d58185b4841f7cb5ce2fa7f5fa9508e0ba1c6faab996456d1b42ad928baa8dd77ba8b96ee9f77188c56d9fd0cba46ff",
                                "remoteSig": "276855a968c96fe4ffd255fec0061e69e72d1f311b41c95616425c36da118ff27f8664a70a0379e4dbe3c47a953c9a5b1535f90c8539a205664b7d64cb2bf928"
                            },
                            {
                                "txinfo": {
                                    "type": "fr.acinq.lightning.transactions.Transactions.TransactionWithInputInfo.HtlcTx.HtlcSuccessTx",
                                    "input": {
                                        "outPoint": "86441d0d05c27ecef1fd4bd850172890c8cee07eb0aedb272034eb36f93221be:5",
                                        "txOut": {
                                            "amount": 300000,
                                            "publicKeyScript": "002039c8ad7d16980a6cea19c49477e44f93844c2fac06d07dcd2ad37e27d4f75071"
                                        },
                                        "redeemScript": "76a914aef8f6925558b0a595971422e2bcca65b0116cef8763ac672102f846a96b1afc033efdaf605745a9ca6824d773b8d459f0d86e9a9ee5aacdd3557c8201208763a9145108735b412dc599563a3cda98629158bd4c649188527c21032311a586e1653dd5e9b165302c08e9e3468bfbdd676f33775b8322c16e28616652ae677503101b06b175ac6851b27568"
                                    },
                                    "tx": "0200000001be2132f936eb342027dbaeb07ee0cec890281750d84bfdf1ce7ec2050d1d4486050000000001000000011686040000000000220020c69b2c7f0223bcc7777e7029c6aae25110a0eb82c3a1ccc5daf47230d08a34d000000000",
                                    "paymentHash": "bb9134aefd0dcfee1bb57ab492f6d794934c2823cbc99c1b975deef3b0d67d5a",
                                    "htlcId": 0
                                },
                                "localSig": "c8e46340d683b21b765bc27db5c3fffa3742d6f131a22a9d131781e13d218d7932b4c3c79b4a30a2e5b6079e0e8ead81bb5528eb4ee2c7c502cae01f789bf552",
                                "remoteSig": "0d0a30d748b1953bcd6c1c4a24d681089de79146cdc098578ffd4cca4ae92fd94c0c3e2c72c9619f2dec8d9a4a8fa91d7546c3095e20d9a1329e0d74bff533f4"
                            }
                        ]
                    }
                },
                "remoteCommit": {
                    "index": 1,
                    "spec": {
                        "htlcsIn": [
                        ],
                        "htlcsOut": [
                            {
                                "channelId": "2f7c825b61cbbf0e685aef20f8923a8cd28943346e59301b629cc89b4e27cdbd",
                                "id": 0,
                                "amountMsat": 300000000,
                                "paymentHash": "bb9134aefd0dcfee1bb57ab492f6d794934c2823cbc99c1b975deef3b0d67d5a",
                                "cltvExpiry": 400144,
                                "onionRoutingPacket": "<redacted>"
                            },
                            {
                                "channelId": "2f7c825b61cbbf0e685aef20f8923a8cd28943346e59301b629cc89b4e27cdbd",
                                "id": 1,
                                "amountMsat": 200000000,
                                "paymentHash": "23d0335a29f4751d39c8e5c13d79513da2ca619cbff40fa70bc618e803e1f488",
                                "cltvExpiry": 400144,
                                "onionRoutingPacket": "<redacted>"
                            }
                        ],
                        "feerate": 5000,
                        "toLocal": 300000000,
                        "toRemote": 200000000
                    },
                    "txid": "24237f2dafcc072f634bc4ffc74b34157a827567ed32e8adc85bf72b54b9a07a",
                    "remotePerCommitmentPoint": "0234ea3e3929ca115acc645d07c40eada7a98d86017614c3fa466d7e19760917e4"
                },
                "nextRemoteCommit": {
                    "sig": {
                        "channelId": "2f7c825b61cbbf0e685aef20f8923a8cd28943346e59301b629cc89b4e27cdbd",
                        "signature": "76471ff891395937899d320fe60649024ff8a3fc5c849da066c246f8f5011c46775610a8b9483c8b8cc0e542326265590c56a3496245bbdc37724ba9c516f449",
                        "htlcSignatures": [
                            "c81afe7a07d66af6c99b38151f167f74672b15434282b46c625396f99fdde972667386e57cb1c4d1d473e098cb2fdefbab4497cf845d02c6e9da8de7f287e24b"
                        ]
                    },
                    "commit": {
                        "index": 2,
                        "spec": {
                            "htlcsIn": [
                            ],
                            "htlcsOut": [
                                {
                                    "channelId": "2f7c825b61cbbf0e685aef20f8923a8cd28943346e59301b629cc89b4e27cdbd",
                                    "id": 1,
                                    "amountMsat": 200000000,
                                    "paymentHash": "23d0335a29f4751d39c8e5c13d79513da2ca619cbff40fa70bc618e803e1f488",
                                    "cltvExpiry": 400144,
                                    "onionRoutingPacket": "<redacted>"
                                }
                            ],
                            "feerate": 5000,
                            "toLocal": 300000000,
                            "toRemote": 500000000
                        },
                        "txid": "9cc11d9e60703e915ff4d2f7c4844685161e46042af4a0a42312f18abf8d0cdd",
                        "remotePerCommitmentPoint": "03574dea18e57e2450dc92c992e7d6b8f966251f6e8d202bb737a4e28d45feb3c4"
                    }
                }
            }
        ],
        "inactive": [
        ],
        "payments": {
        },
        "remoteNextCommitInfo": {
            "left": {
                "sentAfterLocalCommitIndex": 1
            },
            "right": null
        },
        "remotePerCommitmentSecrets": "<redacted>"
    },
    "localShutdown": {
        "channelId": "2f7c825b61cbbf0e685aef20f8923a8cd28943346e59301b629cc89b4e27cdbd",
        "scriptPubKey": "001434947cfb2e8f6054ddf12daed4308cbe342580d1"
    },
    "remoteShutdown": {
        "channelId": "2f7c825b61cbbf0e685aef20f8923a8cd28943346e59301b629cc89b4e27cdbd",
        "scriptPubKey": "001405e0104aa726e34ff5cd3a6320d05c0862b5b01c"
    },
    "closingFeerates": null
}