{
    "type": "fr.acinq.lightning.channel.states.Closing",
    "commitments": {
        "params": {
            "channelId": "2f7c825b61cbbf0e685aef20f8923a8cd28943346e59301b629cc89b4e27cdbd",
            "channelConfig": [
                "funding_pubkey_based_channel_keypath"
            ],
            "channelFeatures": [
                "option_support_large_channel",
                "option_static_remotekey",
                "option_anchor_outputs",
                "zero_reserve_channels",
                "zero_conf_channels"
            ],
            "localParams": {
                "nodeId": "037108815ff0128f7ed22640485c226d9ad64a9fd6d8b41b6623565aed6b34812c",
                "fundingKeyPath": "m/385048399/1977025879/604622566/184658546/776346346/949304342'/277944247'/2049339775'/1'",
                "dustLimit": 1100,
                "maxHtlcValueInFlightMsat": 1500000000,
                "htlcMinimum": 0,
                "toSelfDelay": 144,
                "maxAcceptedHtlcs": 100,
                "isChannelOpener": true,
                "payCommitTxFees": true,
                "defaultFinalScriptPubKey": "001405e0104aa726e34ff5cd3a6320d05c0862b5b01c",
                "features": {
                    "activated": {
                        "initial_routing_sync": "Optional",
                        "option_data_loss_protect": "Optional",
                        "gossip_queries": "Optional",
                        "gossip_queries_ex": "Optional",
                        "var_onion_optin": "Mandatory",
                        "payment_secret": "Mandatory",
                        "basic_mpp": "Optional",
                        "option_support_large_channel": "Optional",
                        "option_static_remotekey": "Mandatory",
                        "option_anchor_outputs": "Mandatory",
                        "option_channel_type": "Mandatory",
                        "option_payment_metadata": "Optional",
                        "trampoline_payment_experimental": "Optional",
                        "wake_up_notification_provider": "Optional",
                        "pay_to_open_provider": "Optional",
                        "trusted_swap_in_provider": "Optional",
                        "channel_backup_provider": "Optional"
                    },
                    "unknown": [
                    ]
                }
            },
            "remoteParams": {
                "nodeId": "0362b19a83930389b4468be40308efb3f352b23142ae25e6aba0465a8220f95b06",
                "dustLimit": 1000,
                "maxHtlcValueInFlightMsat": 1500000000,
                "htlcMinimum": 1000,
                "toSelfDelay": 144,
                "maxAcceptedHtlcs": 100,
                "revocationBasepoint": "03a42aef6d1c860caffa6c71a6f8ac2b16eec25bab0c3950cdb1fad7fb38a5f2a5",
                "paymentBasepoint": "02508e1845b8bbe0773f6bf8f3f04f59a5896426765c7b6b23e6e466c95381182b",
                "delayedPaymentBasepoint": "02d62233b7c33f8fd0911922461a651007f1de09d8c474029caa8f2c229c10de26",
                "htlcBasepoint": "03d05c8245bdc12efd8b070b22b276e7db4254f4693e22b3f7c978c08e67b36236",
                "features": {
                    "activated": {
                        "option_data_loss_protect": "Optional",
                        "initial_routing_sync": "Optional",
                        "gossip_queries": "Optional",
                        "var_onion_optin": "Mandatory",
                        "gossip_queries_ex": "Optional",
                        "option_static_remotekey": "Mandatory",
                        "payment_secret": "Mandatory",
                        "basic_mpp": "Optional",
                        "option_support_large_channel": "Optional",
                        "option_anchor_outputs": "Mandatory",
                        "option_channel_type": "Mandatory",
                        "option_payment_metadata": "Optional",
                        "wake_up_notification_client": "Optional",
                        "pay_to_open_client": "Optional",
                        "trusted_swap_in_client": "Optional",
                        "channel_backup_client": "Optional",
                        "trampoline_payment_experimental": "Optional"
                    },
                    "unknown": [
                    ]
                }
            },
            "channelFlags": {
                "announceChannel": false,
                "nonInitiatorPaysCommitFees": false
            }
        },
        "changes": {
            "localChanges": {
                "proposed": [
                ],
                "signed": [
                ],
                "acked": [
                ]
            },
            "remoteChanges": {
                "proposed": [
                ],
                "acked": [
                ],
                "signed": [
                ]
            },
            "localNextHtlcId": 0,
            "remoteNextHtlcId": 0
        },
        "active": [
            {
                "fundingTxIndex": 0,
                "remoteFundingPubkey": "0385cfd7d8850e4cb8fcbed57310911218e5d5e1fd34f92ef5d9db14d56418caa4",
                "localFundingStatus": {
                    "status": "unconfirmed",
                    "txId": "bdcd274e9bc89c621b30596e344389d28c3a92f820ef5a680ebfcb615b827c2f"
                },
                "remoteFundingStatus": {
                    "status": "locked"
                },
                "localCommit": {
                    "index": 0,
                    "spec": {
                        "htlcsIn": [
                        ],
                        "htlcsOut": [
                        ],
                        "feerate": 5000,
                        "toLocal": 800000000,
                        "toRemote": 200000000
                    },
                    "publishableTxs": {
                        "commitTx": {
                            "input": {
                                "outPoint": "bdcd274e9bc89c621b30596e344389d28c3a92f820ef5a680ebfcb615b827c2f:0",
                                "txOut": {
                                    "amount": 1000000,
                                    "publicKeyScript": "00204ba42b50e089764e60e9e0c76c57e41d252d6beb976332f14a7b255bbb5322b8"
                                },
                                "redeemScript": "522102b6eaf304d966a6df90f3b3df7af7be6b1625854bbc096cb8b3507b2a37c2bf9c210385cfd7d8850e4cb8fcbed57310911218e5d5e1fd34f92ef5d9db14d56418caa452ae"
                            },
                            "tx": "020000000001012f7c825b61cbbf0e685aef20f8923a8cd28943346e59301b629cc89b4e27cdbd000000000000b77080044a0100000000000022002046672803839d10e21d43eafb532bc37cd21bd97dec7f9b50d45380cd1cce69654a01000000000000220020bbd7f17366848d8f624c28438128ce4dc8c72ea21deb0ccf25bee110920da032400d030000000000220020cb93e3adb8d213704e9a07ea2a6ce91dca51a9b76fcb6bef3cc9b5b7e10a7990781c0c00000000002200202f0860cd1fe361a1aaf5708f75b6511c92cd5a51bdaaccfbda77aead550d875104004730440220672323ca34b85c2a43e3e93ac8a642a8293b1483392f531736db975d05f3ad3c022019f7b5044cd2a230dc49484c219fd96485f98d21c6add317566f4b21816a2fb101483045022100956b481822da569bc75c1f7ab6ec34c0a1e14dd5b4701ea8473e5bfe6b6ad41702202b1a987850611c0f52cccbb6016c735a08572f61fe03616a186ca39a8b2e07970147522102b6eaf304d966a6df90f3b3df7af7be6b1625854bbc096cb8b3507b2a37c2bf9c210385cfd7d8850e4cb8fcbed57310911218e5d5e1fd34f92ef5d9db14d56418caa452aede99dc20"
                        },
                        "htlcTxsAndSigs": [
                        ]
                    }
                },
                "remoteCommit": {
                    "index": 0,
                    "spec": {
                        "htlcsIn": [
                        ],
                        "htlcsOut": [
                        ],
                        "feerate": 5000,
                        "toLocal": 200000000,
                        "toRemote": 800000000
                    },
                    "txid": "6498095b8d064f46673e7c0d919636e1dff0c0a76ed61dd96938a178253ea4cb",
                    "remotePerCommitmentPoint": "02365f9a5e4822956750faa46230f54e47d4b6ef9d58eb8c488d80a5efed938d5b"
                },
                "nextRemoteCommit": null
            }
        ],
        "inactive": [
        ],
        "payments": {
        },
        "remoteNextCommitInfo": {
            "left": null,
            "right": "03c57839fd412868a398bea05d01678a752661126a2d1357a0f7cb6f0c60311125"
        },
        "remotePerCommitmentSecrets": "<redacted>",
        "remoteChannelData": {
            "data": "56ac7d2006dabb7b7e26a032ac384ce15362f230e007a713e45ee0a514aef433db46a55d4650585517be36dc68babddf369cbfa743e9ad976640545119c378548729fd5750f0772ae26e1ac80a288f3baa7ae2416e9ea796403fe0b2111a919370021aba83cc9c3abd6671ddb7e2c54eaa64701b86d5b70ac2a44f723e399c449ff1b9ccb8e20481ea1ab6b9a752b38601fb202f4cf960cfdf3c77c91829747fbff494ab3701148abfb09bdee3bffe1bc46d157ae16e9d701764532db299530a3679b6ecce62fab88a75a8524b1b7484faf08b9347e1e3e92623286b98a27f8236f9d94831c489c9b66846d2e65b4c75a2850bf30b3268a3122589a58223265e5d62df74cf77ab3e781c3c1612142810b30c5e45775c70e6f17b3829688d69b5ed8769bd70018bc19de67fce65240ed94f1179087e74ca49212edd8d735f015a077e5cf6328d426d69e31898c0aafafe6d21b5784bf337508ba33a13c88a34a2d04e9f48e0f3ce7ad704524b9360adbf70d91b7900ccd2a53ce4da6f7b66226c860936f5549c7065f572e9e6debcec7560d5f2ec49bd257cd23a0da2dab7b72cc3118ee72826c15cc033bced6d35187d955019d1988549be9712ce4561ca1247497a6e60b506cb7f21dea80205fc66d2e13382998538a5c0dae806d18b8fce515a7538a881c5a12f67bc11e838b1154901f4fc84eb3165477f4bdf02dcf3d8ab42ba2ade55ee22cdf07bacf2b561cf05ebd3f8eca283c451ec09f0a8cd7b3ecbb83d17157e9830bb3d85d7143ebab10306544820b3811e89b7ce013d96db368bd9eff243e575dc10b2e7c576b9df66ad6c7379e6dda3423bde90a564d9995ade0a72842816996bbdbfaae0946ed2747c3247904fafae4bbe792bbba66ca29b1f9b0179a4093bb363dd3abbc6478441528b28daf1797d2d8fd3f200f0a6fdb8bfd4dfb02506bb16d4db103531d6f13d9c46613d4f03b84be135e19c4ede30717613efc50d6f28b6a36b5e61839ccd7a36a0d8ad6e81691f0772cff88f0e800bb9539e71ea3f1a52f281a9ba7c469fa917dbc75d8b7dc9e702c6a70d5d46b453804771adb6bc8cf85476ac31657776e674b632358f1e49ac1a9a4934736830224a136d76be62cf925af87746be07ef128b11a06d798ac7780843d46a2a5d3dd12eac27ef1af0a12581ec423df8be05aa0473b7cc30e55cf77d7255d1b2f9d0223e3dea9912552aee6fc1c9d3266d69266d40c8b85730e1a4327c956a51e06705e8b3f47463ab4bac168253ae55583523ed4220d97908932efc57616b4977e2418f26eb1077a4320386abf788ff8456bf044f5b95821520f8985f734a97dbcd5ad21d66d1b870a73f5bba1c4f382d369a3c8ebff86ce0b7fa29cd589053f1fbdc1fc392ccac7d548f11326ccc22cf641b7f10afa5d79c1b2015b768bda455fe573bd15001259a9ef3a0c47e3e4937065a4712d2d8d49c989bd59e3d8c130913fef431d954fd34b09947d40dce38a6301602ef65bcd1d874ae23bde4436cd0c0c2d8c671f0f73b42ee20fe083de4ce2380b4a33568eee72b82e6bf157dcee288091f9ffcc0837ae75ab3aba9eb7e081a5e491239a19e778dca132b958ee845a8de97876721766507191e74dd6b5ed4c08ba9b9547525fc0b809c46a4a7dc529df6f9b33f27905f355043c31f4a32cf2d1f7086a6af0455fc424da920ec2906a7464823b9f8bab0d693c8ea8a55317df43e6c6bda79015814558da1fc2c92ed6c80863544788dac519f418349a7707d59a1dcd160ea4867a562dd04c780c954d3e43bff6c8186eb4b80359ed267e216c96b0ef3d57fd3d39a99cc7e034afd2d3f6c62cfcdea85eec1f2ef1f2fc5f272a6117034b6c8b5085a1d02892d942b952a17fef041d4082296a0fc800497b86760d89b7eaf03a90c5482fe5304fe81fd4bda06a8a333a03a819b3341ab9335f12dcdb8fbdb27c235d80ee0d41844c564f9c84de48c198064a9111d236e6c3e60f36e3c656216c191097f17b285fba088391f5b65a430e92eeaae792b243fe05c88887bc9d52480bc63628e5a1e4821a977e1411dd22d343aca4aebe1b9b6efd23197bb3701fcbbbab1d5f2f426b85601c5ff37d79377f41dd8ebd16af52ae50ed0b45d4db319b1d6789cd2b6c3fa2e1ba2abb2a00d1267e0fe7467aa2be5a76af028c15f9ce9f5edb31c1aea177795ee1ccee5b667bac787f6115659a264fd5be27cd77e4eab64c4ac30a57eec78bcf3b13a0119ea60a0e8953d2f955c10295a5b0ffe4e653042deed40473a143e6201a1f64052f0d6edaa5796a4956e477745b0e00805f4cf4e0e3300ce338d8f27e8bd6c3fb626222f3e09ce38ac076bb49726e31aa4e48372f3638e7ddb66451496387e4a8c9d0ed3268f368455c3a055e70edb94bcf7961a51c740c9e1de1cbbc70c189dd48c1208a86b0fc85264659597bcd3c0980c87146446d6d2edee022b91573f8f734d2d8e21b6b1b78873c39ec34dad9b90d9b6214c33dec5dc087c108c9c8a70de64b6e5cb794cc35f581af2416831968d0021ce6e7d56e4880c34481e99cc6ac41a36619fc0de2628196f4d6f4b10ac82ff810302bab14cd58b6c10143a758f93a4bc99893d6d0a6391c5a4cd9c90ca2ce6e8310d4293305548a618cd0a5d4477dbb7911ce5bf92fc8810d549cb440ff9d5607811ecc5a0e878b780c51814fda3826dc4f108f63ac9e2a74cc0a375a5be4c9eed9dc836dfd3761f966f58a6eb60ca6d8102d34d5640cab6c253b7fbb6a17e0eece493f2541dbb9c43b6ea618deecb816cc5af8ad9b1914d445d622656cbfe9e5e22aa341412fdfb0b59b6baee4c56a9fe1ae146e47e7d3aa3f9b2eec7492e6ec1d01eb9ecdf1c9488c3c8a02b5582e145256cc6df17bd3947e4528941e358a83bc32802a047d7c3564e8c8f4f3869a5d66a34421efdc67dde9cafc5fbe685be01d0c420f764d3a7f027225d9b3ac980a7b3af4536b7bf89abbce5d9a4474f461240097ec5d81e21d969a41065b3818b7936231d28f208b066c272641d011c2412e0ecff7115feeca6bf137068a0da8d88360e9741fd1c9147208355b0eb466dc00b48e1845868834dcdc21d2719eea5e0f40df5e04dbb45a87ef473212f0ffd2ea97f82487938a25893eb834ca6b9c27b1910c9e3a4fa57d7c453e25bb9a193d3b71df314f93f10b7ee2dbc0498e16dff70aa79cb61c2b22cf471014f4046f71358ed17082dd0a797c8e4a624bf79d774ef1892232c7f2fb8cb9958b3912d120e84adab1f4f9c943311212f9f006870741dd47d109fde5de7f3973aad517bafb3b83c9249c7283e5e8b977488068e6f7a90418b87824b55abb62e045d3605cfe8271339a0e6d5090629d33882c9339533ec4ae2436d6e0fd48e853c56d68744cec5b5acb0c3246c301d5dbc96db9f8bc38adb66fb9e5d8712f3f6761abaaea03a57a57a9dd8c4fdab4969770fd3f3afe8545e7f12152d01eada01133a0578391a2ff9a57d828dbfeb558cfba31dafdba1b629dd497352b8f92d630aa20ce9e95d416f5d65ce95efec6bc62fa3822127b19285e9a3420a48227bac6dcda6d3531ce57f401250cf581fa8bba6f1c23fc3269d6b01a347369225619a784f08f9a84b03a2b2d44874fe943712811555898f4812f4c9cb622dc2a9cd49996d086d6a7df33eb0436746ff3180d408e19aea960f4beb0ca12170549e874c23fdf27654fd870708bde5ff98f26d26defdfdf5d2dab2e29db10d53579a6913a1ea31c49d0bc6aaca7ec0babff6e5c251d72198adbd5b1192c33d756ecd4fe4b1e35a2d43dcd4a3ed292cb4a26b236d986d83cca36b4e31ed3d1cb1409b3dff0f437b2b3897300cb8de1672e6b878a7bfff9dd75e01e16b6bff56d06b392c0349cd85b99de6cfffdf9e93c3ecb2f688d3b2b7442dd257b0893572cfbf348b2f28989eba7b8579384884b0352a77207af3d5c18d9acb09f944e6881d9deb9a1a9248c4b9f74f341982122777e95da9667cd0f1f09dcad04de4899aa0cc6bd2ee428ef3a4224c37e911c202328262192ec8180d0cd8329e569caf9bfb515819872e65066433b92ec6ee289f278e8fde4eba02a6c09e695643ff3f439687dbb3a20e7cc4d99ccc54727bc19f831ff28efb29717036dbf78465ca8b63e2d1154d6629b4f4c576bd967f9a5cc554862728fd2a7bd7ac9c1f9b628b3542acf023013baf6a8002feb051e2d2ac8ca66c97d428026cea6e428aa72d96b7ef53bb185360a3ac0f079e9e9d11f51829262eb18b1682d48bfc5024e65fd7af0f94f5b940c5e7b2760ff841def1506855cf85e679cb904dcf829687aede7fb70840e9ad6d9b7ad7b27ffb6def8a840f40d11f794bde4bbced2b5b63fc2c263461ade7f02fee63a4e0907a7f1b44a0e3656c8e4ccc6f00731972e9b1337dbe72d70fe715b93ee4e106ca3c330356a5983e74dec3a5e75d20b5e5fad7e51f28ce38f966bf83a44bb83a6a9ec694a2d61d71f536f6bb3da3c787f2c763cc2045067d56d2600aa0f4f24bfaf43b37fb8fece78d91ec511fcce7680bbda8684cdb0e9a619cd9888321bbd3d60ebec5ce4787b9ce687ffcd136db1f2a2877143c7dcb17bcbbdc7c8b5e3850097e7a12691211b4e607361a4834bf6f8f73575c3009a0dc6f2fc257c23404fc293933e3b1c31d0975968da2d4e54ac082289ab76c725f38913d0480cb61c6bff80b3f30b25662a39459619417d820cd25b34265bea62809d9e52b57a7e1c604ee4390e39d6185f6391dbd46f514dd6af3978de827adf594da0f0d430a5f9e216a003f128533bf40377b5c0c5bcd391f77c9e3e9aed8994a514c21ab5e38ca0176c8427d742e66db449d5657a05266d96f4fa3f2adefcafed21bc955c9b26cffe1f98e3a17b002387c14eddd1cc3ddda603e1076669bd0d6eda1079c9fc976437cd999c37b655ae612587c74b7cd00ae658e54572818be38c62f9c2ac0c97cae81c4eddfe4940ba79a545e54b0cfb439b81336e7d8f191b5885d19138c3d57badcaec8a1320715304bccd54c7f04a0577a80f0c600a92719982844f27130cee8932577e5b237c8432fcbf80e0c1dc97e5ae31a9eb4027964465cbf531cc9ebe8fd1750d681bfb1590265801bf7c8bbb876b17daa008876961fc7db1a7e4d896075248d845035817e1aafa68ce8f4a6cb1f344d11056ecbe423f3df6b2c9d22db72f9cb35860c096d3c6a960012420b4133c6b567"
        }
    },
    "waitingSinceBlock": 400000,
    "mutualCloseProposed": [
        {
            "input": {
                "outPoint": "bdcd274e9bc89c621b30596e344389d28c3a92f820ef5a680ebfcb615b827c2f:0",
                "txOut": {
                    "amount": 1000000,
                    "publicKeyScript": "00204ba42b50e089764e60e9e0c76c57e41d252d6beb976332f14a7b255bbb5322b8"
                },
                "redeemScript": "522102b6eaf304d966a6df90f3b3df7af7be6b1625854bbc096cb8b3507b2a37c2bf9c210385cfd7d8850e4cb8fcbed57310911218e5d5e1fd34f92ef5d9db14d56418caa452ae"
            },
            "tx": "02000000012f7c825b61cbbf0e685aef20f8923a8cd28943346e59301b629cc89b4e27cdbd0000000000ffffffff02400d03000000000016001434947cfb2e8f6054ddf12daed4308cbe342580d1ac1a0c000000000016001405e0104aa726e34ff5cd3a6320d05c0862b5b01c00000000",
            "toLocalIndex": 1
        }
    ],
    "mutualClosePublished": [
        {
            "input": {
                "outPoint": "bdcd274e9bc89c621b30596e344389d28c3a92f820ef5a680ebfcb615b827c2f:0",
                "txOut": {
                    "amount": 1000000,
                    "publicKeyScript": "00204ba42b50e089764e60e9e0c76c57e41d252d6beb976332f14a7b255bbb5322b8"
                },
                "redeemScript": "522102b6eaf304d966a6df90f3b3df7af7be6b1625854bbc096cb8b3507b2a37c2bf9c210385cfd7d8850e4cb8fcbed57310911218e5d5e1fd34f92ef5d9db14d56418caa452ae"
            },
            "tx": "020000000001012f7c825b61cbbf0e685aef20f8923a8cd28943346e59301b629cc89b4e27cdbd0000000000ffffffff02400d03000000000016001434947cfb2e8f6054ddf12daed4308cbe342580d1ac1a0c000000000016001405e0104aa726e34ff5cd3a6320d05c0862b5b01c040047304402205e4ef0fd74758f4f135643e1262a61a31a6a138f983403eaec65b33007233dea0220644c96dca0e4dd8a9e20e065b6997269f1890c7d9ac1c61da8eb013faca61d310147304402200cf81fcb257c98cff6cacef2c8abebb75ae00a5ad6fc1d82a2939f470ba8544002202e247d5e1a46d1a21f575381c297ceb8e60b3225ab52f71832bf66a9b9dacb7a0147522102b6eaf304d966a6df90f3b3df7af7be6b1625854bbc096cb8b3507b2a37c2bf9c210385cfd7d8850e4cb8fcbed57310911218e5d5e1fd34f92ef5d9db14d56418caa452ae00000000",
            "toLocalIndex": 1
        }
    ]
}