{
    "type": "fr.acinq.lightning.channel.states.LegacyWaitForFundingConfirmed",
    "commitments": {
        "params": {
            "channelId": "2f7c825b61cbbf0e685aef20f8923a8cd28943346e59301b629cc89b4e27cdbd",
            "channelConfig": [
                "funding_pubkey_based_channel_keypath"
            ],
            "channelFeatures": [
                "option_support_large_channel",
                "option_static_remotekey",
                "option_anchor_outputs",
                "zero_reserve_channels",
                "zero_conf_channels"
            ],
            "localParams": {
                "nodeId": "0362b19a83930389b4468be40308efb3f352b23142ae25e6aba0465a8220f95b06",
                "fundingKeyPath": "m/795924157'/565292462/1721776665'/620103361/947451165/318257970'/1822224386/616080517'/0'",
                "dustLimit": 1000,
                "maxHtlcValueInFlightMsat": 1500000000,
                "htlcMinimum": 1000,
                "toSelfDelay": 144,
                "maxAcceptedHtlcs": 100,
                "isChannelOpener": false,
                "payCommitTxFees": false,
                "defaultFinalScriptPubKey": "001434947cfb2e8f6054ddf12daed4308cbe342580d1",
                "features": {
                    "activated": {
                        "initial_routing_sync": "Optional",
                        "option_data_loss_protect": "Optional",
                        "gossip_queries": "Optional",
                        "gossip_queries_ex": "Optional",
                        "var_onion_optin": "Mandatory",
                        "payment_secret": "Mandatory",
                        "basic_mpp": "Optional",
                        "option_support_large_channel": "Optional",
                        "option_static_remotekey": "Mandatory",
                        "option_anchor_outputs": "Mandatory",
                        "option_channel_type": "Mandatory",
                        "option_payment_metadata": "Optional",
                        "trampoline_payment_experimental": "Optional",
                        "wake_up_notification_client": "Optional",
                        "pay_to_open_client": "Optional",
                        "trusted_swap_in_client": "Optional",
                        "channel_backup_client": "Optional"
                    },
                    "unknown": [
                    ]
                }
            },
            "remoteParams": {
                "nodeId": "037108815ff0128f7ed22640485c226d9ad64a9fd6d8b41b6623565aed6b34812c",
                "dustLimit": 1100,
                "maxHtlcValueInFlightMsat": 1500000000,
                "htlcMinimum": 0,
                "toSelfDelay": 144,
                "maxAcceptedHtlcs": 100,
                "revocationBasepoint": "037d549bc475d9b2b0098e3b2f23282671646eab09b36e2f01099f39e376552864",
                "paymentBasepoint": "0368434fc548cb471f7ed8c94638433bfb07cceb97665c411450fdc23c60236409",
                "delayedPaymentBasepoint": "0399d61c09ee58f1cdc497a872f6b284cbaccd54f56bcbf7acf1f5595b577506cc",
                "htlcBasepoint": "0288fb5246c577f7ea28bc1b56f64d4c9f6c931b7075f7890bc6b4daff6253b5d6",
                "features": {
                    "activated": {
                        "option_data_loss_protect": "Optional",
                        "initial_routing_sync": "Optional",
                        "gossip_queries": "Optional",
                        "var_onion_optin": "Mandatory",
                        "gossip_queries_ex": "Optional",
                        "option_static_remotekey": "Mandatory",
                        "payment_secret": "Mandatory",
                        "basic_mpp": "Optional",
                        "option_support_large_channel": "Optional",
                        "option_anchor_outputs": "Mandatory",
                        "option_channel_type": "Mandatory",
                        "option_payment_metadata": "Optional",
                        "wake_up_notification_provider": "Optional",
                        "pay_to_open_provider": "Optional",
                        "trusted_swap_in_provider": "Optional",
                        "channel_backup_provider": "Optional",
                        "trampoline_payment_experimental": "Optional"
                    },
                    "unknown": [
                    ]
                }
            },
            "channelFlags": {
                "announceChannel": false,
                "nonInitiatorPaysCommitFees": false
            }
        },
        "changes": {
            "localChanges": {
                "proposed": [
                ],
                "signed": [
                ],
                "acked": [
                ]
            },
            "remoteChanges": {
                "proposed": [
                ],
                "acked": [
                ],
                "signed": [
                ]
            },
            "localNextHtlcId": 0,
            "remoteNextHtlcId": 0
        },
        "active": [
            {
                "fundingTxIndex": 0,
                "remoteFundingPubkey": "02b6eaf304d966a6df90f3b3df7af7be6b1625854bbc096cb8b3507b2a37c2bf9c",
                "localFundingStatus": {
                    "status": "unconfirmed",
                    "txId": "bdcd274e9bc89c621b30596e344389d28c3a92f820ef5a680ebfcb615b827c2f"
                },
                "remoteFundingStatus": {
                    "status": "locked"
                },
                "localCommit": {
                    "index": 0,
                    "spec": {
                        "htlcsIn": [
                        ],
                        "htlcsOut": [
                        ],
                        "feerate": 5000,
                        "toLocal": 200000000,
                        "toRemote": 800000000
                    },
                    "publishableTxs": {
                        "commitTx": {
                            "input": {
                                "outPoint": "bdcd274e9bc89c621b30596e344389d28c3a92f820ef5a680ebfcb615b827c2f:0",
                                "txOut": {
                                    "amount": 1000000,
                                    "publicKeyScript": "00204ba42b50e089764e60e9e0c76c57e41d252d6beb976332f14a7b255bbb5322b8"
                                },
                                "redeemScript": "522102b6eaf304d966a6df90f3b3df7af7be6b1625854bbc096cb8b3507b2a37c2bf9c210385cfd7d8850e4cb8fcbed57310911218e5d5e1fd34f92ef5d9db14d56418caa452ae"
                            },
                            "tx": "020000000001012f7c825b61cbbf0e685aef20f8923a8cd28943346e59301b629cc89b4e27cdbd000000000000b77080044a0100000000000022002046672803839d10e21d43eafb532bc37cd21bd97dec7f9b50d45380cd1cce69654a01000000000000220020bbd7f17366848d8f624c28438128ce4dc8c72ea21deb0ccf25bee110920da032400d03000000000022002031dbc67ef6930d0825de6c23bd311eb93d40430d543c0555aa0f15b7aaab0cbc781c0c0000000000220020958bb43c9e6d1b985001c2f4dc38d286d7fde78bb04d7ec5a5ae44d8ebf0c40c040047304402201991b61ae8ef7bf6bd03f6f965552294e7941fce3fc91a024094cbd9b3464dd202206068ef64671e59b5825408e58462613a6ad0edfc7aa23853aea36187298c493901483045022100cca233f9a14605a7adab49f959c5b42260a55156282cbc802397fc934d5e537c02203504b82653044526706d76d3ddf0f083ea77a16f6cc13c93add344069a55cb940147522102b6eaf304d966a6df90f3b3df7af7be6b1625854bbc096cb8b3507b2a37c2bf9c210385cfd7d8850e4cb8fcbed57310911218e5d5e1fd34f92ef5d9db14d56418caa452aede99dc20"
                        },
                        "htlcTxsAndSigs": [
                        ]
                    }
                },
                "remoteCommit": {
                    "index": 0,
                    "spec": {
                        "htlcsIn": [
                        ],
                        "htlcsOut": [
                        ],
                        "feerate": 5000,
                        "toLocal": 800000000,
                        "toRemote": 200000000
                    },
                    "txid": "51487720c64eaa73a972e2e240f5fe4b1cc1c46d9a76854a11c62ab969222a29",
                    "remotePerCommitmentPoint": "0332dcde49bbcc222f9e793771bca07d28b08c2d6e12992ebe5398c20194f26722"
                },
                "nextRemoteCommit": null
            }
        ],
        "inactive": [
        ],
        "payments": {
        },
        "remoteNextCommitInfo": {
            "left": null,
            "right": "0322de78372f8cc69c1bb97cce09072d84a4daf9cc77715ee429fb5153f2a292f2"
        },
        "remotePerCommitmentSecrets": "<redacted>"
    },
    "fundingTx": null,
    "waitingSinceBlock": 0,
    "deferred": null,
    "lastSent": {
        "left": null,
        "right": {
            "channelId": "2f7c825b61cbbf0e685aef20f8923a8cd28943346e59301b629cc89b4e27cdbd",
            "signature": "956b481822da569bc75c1f7ab6ec34c0a1e14dd5b4701ea8473e5bfe6b6ad4172b1a987850611c0f52cccbb6016c735a08572f61fe03616a186ca39a8b2e0797"
        }
    }
}