{
    "type": "fr.acinq.lightning.channel.states.Closing",
    "commitments": {
        "params": {
            "channelId": "7586b3458997d0776aa1de435d23fe659dbabc7b4fe1ebf3efaa7b6f253ef797",
            "channelConfig": [
                "funding_pubkey_based_channel_keypath"
            ],
            "channelFeatures": [
                "option_static_remotekey",
                "option_anchor_outputs",
                "option_dual_fund"
            ],
            "localParams": {
                "nodeId": "037108815ff0128f7ed22640485c226d9ad64a9fd6d8b41b6623565aed6b34812c",
                "fundingKeyPath": "m/917204307'/1843072245/1110453303/1285396001'/1746678994/772884323'/1589666567'/681064086'/1'",
                "dustLimit": 1100,
                "maxHtlcValueInFlightMsat": 1500000000,
                "htlcMinimum": 0,
                "toSelfDelay": 144,
                "maxAcceptedHtlcs": 100,
                "isChannelOpener": true,
                "paysCommitTxFees": false,
                "defaultFinalScriptPubKey": "001405e0104aa726e34ff5cd3a6320d05c0862b5b01c",
                "features": {
                    "activated": {
                        "option_data_loss_protect": "Optional",
                        "var_onion_optin": "Mandatory",
                        "option_static_remotekey": "Mandatory",
                        "payment_secret": "Mandatory",
                        "basic_mpp": "Optional",
                        "option_support_large_channel": "Optional",
                        "option_anchor_outputs": "Mandatory",
                        "option_route_blinding": "Optional",
                        "option_dual_fund": "Mandatory",
                        "option_channel_type": "Mandatory",
                        "wake_up_notification_provider": "Optional",
                        "channel_backup_provider": "Optional"
                    },
                    "unknown": [
                        139,
                        149
                    ]
                }
            },
            "remoteParams": {
                "nodeId": "0362b19a83930389b4468be40308efb3f352b23142ae25e6aba0465a8220f95b06",
                "dustLimit": 1000,
                "maxHtlcValueInFlightMsat": 1500000000,
                "htlcMinimum": 1000,
                "toSelfDelay": 144,
                "maxAcceptedHtlcs": 100,
                "revocationBasepoint": "02ae827a31dd89c6b3b03f79e7d5a1c607d5abc40831c40b7957840eed4eae07c6",
                "paymentBasepoint": "0375a040260f0129d1e0cd48c2a97393d9d1c7947bcdec77be2a525ff47b17a7a1",
                "delayedPaymentBasepoint": "02943dc0608ef409f4ed82a6c5a8a9d3c5692862e1eea8eebc53ea06e9f0a2d343",
                "htlcBasepoint": "02182080422467f20321508b0cc825d3fb1caa0e3155e0dcfcb8e2f8b14724a497",
                "features": {
                    "activated": {
                        "option_data_loss_protect": "Optional",
                        "var_onion_optin": "Mandatory",
                        "option_static_remotekey": "Mandatory",
                        "payment_secret": "Mandatory",
                        "basic_mpp": "Optional",
                        "option_support_large_channel": "Optional",
                        "option_anchor_outputs": "Optional",
                        "option_route_blinding": "Optional",
                        "option_shutdown_anysegwit": "Mandatory",
                        "option_dual_fund": "Mandatory",
                        "option_quiescence": "Mandatory",
                        "option_channel_type": "Mandatory",
                        "zero_reserve_channels": "Optional",
                        "wake_up_notification_client": "Optional",
                        "channel_backup_client": "Optional",
                        "splice_experimental": "Optional"
                    },
                    "unknown": [
                        137,
                        149
                    ]
                }
            },
            "channelFlags": {
                "announceChannel": false,
                "nonInitiatorPaysCommitFees": false
            }
        },
        "changes": {
            "localChanges": {
                "proposed": [],
                "signed": [],
                "acked": []
            },
            "remoteChanges": {
                "proposed": [],
                "acked": [],
                "signed": []
            },
            "localNextHtlcId": 3,
            "remoteNextHtlcId": 0
        },
        "active": [
            {
                "fundingTxIndex": 0,
                "remoteFundingPubkey": "024d0f54a8ff41d13f936150158788115fe19868b592623b60be6c82eb561b30e6",
                "localFundingStatus": {
                    "status": "confirmed",
                    "txId": "f57bf9405340cc20cb8528d32541419fe7c1814757ae8de987a9205a416249d0"
                },
                "remoteFundingStatus": {
                    "status": "not-locked"
                },
                "localCommit": {
                    "index": 1,
                    "spec": {
                        "htlcsIn": [],
                        "htlcsOut": [
                            {
                                "channelId": "7586b3458997d0776aa1de435d23fe659dbabc7b4fe1ebf3efaa7b6f253ef797",
                                "id": 0,
                                "amountMsat": 30000000,
                                "paymentHash": "d4e1717f1a83fde317e2bc6a0e25cf7ec2611a9572eeb4568fa245f09ac7ad64",
                                "cltvExpiry": 400144,
                                "onionRoutingPacket": "<redacted>"
                            },
                            {
                                "channelId": "7586b3458997d0776aa1de435d23fe659dbabc7b4fe1ebf3efaa7b6f253ef797",
                                "id": 1,
                                "amountMsat": 25000000,
                                "paymentHash": "d4e1717f1a83fde317e2bc6a0e25cf7ec2611a9572eeb4568fa245f09ac7ad64",
                                "cltvExpiry": 400144,
                                "onionRoutingPacket": "<redacted>"
                            },
                            {
                                "channelId": "7586b3458997d0776aa1de435d23fe659dbabc7b4fe1ebf3efaa7b6f253ef797",
                                "id": 2,
                                "amountMsat": 20000000,
                                "paymentHash": "d4e1717f1a83fde317e2bc6a0e25cf7ec2611a9572eeb4568fa245f09ac7ad64",
                                "cltvExpiry": 400143,
                                "onionRoutingPacket": "<redacted>"
                            }
                        ],
                        "feerate": 5000,
                        "toLocal": 725000000,
                        "toRemote": 200000000
                    },
                    "publishableTxs": {
                        "commitTx": {
                            "input": {
                                "outPoint": "f57bf9405340cc20cb8528d32541419fe7c1814757ae8de987a9205a416249d0:0",
                                "txOut": {
                                    "amount": 1000000,
                                    "publicKeyScript": "002006e284d14b0f9788c0badf23c52f2ea218bc3a57c63d8f85bf79a678949fba92"
                                },
                                "redeemScript": "5221024d0f54a8ff41d13f936150158788115fe19868b592623b60be6c82eb561b30e62103cab05a7938caac126f86783c68fed9ab90062bc323db580e555f4af79dae0c6952ae"
                            },
                            "tx": "02000000000101d04962415a20a987e98dae574781c1e79f414125d32885cb20cc405340f97bf50000000000cdb6f080074a01000000000000220020a92010dbbc2b70b39d2c9d1911ee2e5da1f294196338c06ede340c87f4923f714a01000000000000220020b1e710db2b94f2557d1f9e446ff57980fc978f77403b49f3103432b82264ad9d204e00000000000022002077fd42515fc3e36f9e7eb7f9cb4daa64439e3337eaeadce4072312355c039fb1a86100000000000022002077fd42515fc3e36f9e7eb7f9cb4daa64439e3337eaeadce4072312355c039fb1307500000000000022002077fd42515fc3e36f9e7eb7f9cb4daa64439e3337eaeadce4072312355c039fb1400d03000000000022002014e113c73d2ca978e2b1f9643608c0bded0bb02851557a678a07a2fb41eec3516ced0a000000000022002086e17ba679d2568559974707e9eff99981d5fd7d8a9fae29b68a8f9a14ed883604004730440220125de9d83e8005bd73a01e24aadf5f387d15c4cc40990a3d5ccc42dc446461d102201ce47aa07dc35658cca00f1c092c8f8273e6b11eca8f40e360b4f9ee0955f74a0148304502210086875271a6242cf86f5d3b0f0e35ad49925e811380b1fd50336dc07067d3f95e0220550f1169a157b996cc944041255075549e5981839f5dc5d507b08aa83f2e129e01475221024d0f54a8ff41d13f936150158788115fe19868b592623b60be6c82eb561b30e62103cab05a7938caac126f86783c68fed9ab90062bc323db580e555f4af79dae0c6952aeeeca3f20"
                        },
                        "htlcTxsAndSigs": [
                            {
                                "txinfo": {
                                    "type": "fr.acinq.lightning.transactions.Transactions.TransactionWithInputInfo.HtlcTx.HtlcTimeoutTx",
                                    "input": {
                                        "outPoint": "fed55c7986d149ca8432c171cd163ab78658e4e0a7b70234218ee74644015f2a:2",
                                        "txOut": {
                                            "amount": 20000,
                                            "publicKeyScript": "002077fd42515fc3e36f9e7eb7f9cb4daa64439e3337eaeadce4072312355c039fb1"
                                        },
                                        "redeemScript": "76a914a644af4571f92ffba15fb2d36c089b405c1f05a58763ac672102bf0b1a0d169ea9e1a9aac4b0cbb66386aae755c935bf137cf621b708bfd1f4a97c820120876475527c2102ae57e0cbcb6d0a3734244a5090396a5f8aba51f1c288a9da84b2f3daaa887aa852ae67a914ed8f56a1a95950080a822f6e68d7d99ff4ad6a7688ac6851b27568"
                                    },
                                    "tx": "02000000012a5f014446e78e213402b7a7e0e45886b73a16cd71c13284ca49d186795cd5fe020000000001000000011e4100000000000022002086e17ba679d2568559974707e9eff99981d5fd7d8a9fae29b68a8f9a14ed88360f1b0600",
                                    "htlcId": 2
                                },
                                "localSig": "8ea6861abecb3b5cc37b9b8dfa44899557e315ff75a9524dacaed1f7a5ba6f8d77deef3c7846c07c1b0982ef3447727eb4ee6cab710d7cc35feb8805f55731de",
                                "remoteSig": "e8f3c941cc5ec88b6f03ea64085742d99d8c1403f0fc78fc67d56271c07ef6e42776b1100b32062a087cf86acaeb7cd280676e792986dd6fb5b640f64d22694e"
                            },
                            {
                                "txinfo": {
                                    "type": "fr.acinq.lightning.transactions.Transactions.TransactionWithInputInfo.HtlcTx.HtlcTimeoutTx",
                                    "input": {
                                        "outPoint": "fed55c7986d149ca8432c171cd163ab78658e4e0a7b70234218ee74644015f2a:3",
                                        "txOut": {
                                            "amount": 25000,
                                            "publicKeyScript": "002077fd42515fc3e36f9e7eb7f9cb4daa64439e3337eaeadce4072312355c039fb1"
                                        },
                                        "redeemScript": "76a914a644af4571f92ffba15fb2d36c089b405c1f05a58763ac672102bf0b1a0d169ea9e1a9aac4b0cbb66386aae755c935bf137cf621b708bfd1f4a97c820120876475527c2102ae57e0cbcb6d0a3734244a5090396a5f8aba51f1c288a9da84b2f3daaa887aa852ae67a914ed8f56a1a95950080a822f6e68d7d99ff4ad6a7688ac6851b27568"
                                    },
                                    "tx": "02000000012a5f014446e78e213402b7a7e0e45886b73a16cd71c13284ca49d186795cd5fe03000000000100000001a65400000000000022002086e17ba679d2568559974707e9eff99981d5fd7d8a9fae29b68a8f9a14ed8836101b0600",
                                    "htlcId": 1
                                },
                                "localSig": "a06d47536c7bce2fca67a1af4e3257835de0014761d9a437eae47c9d5daa36c91a00573297c1176e742d3d2372c41d3a1b3a27a991351b575a17f158b5c29a02",
                                "remoteSig": "59adae2c05ac5834aa4eaae067126c977fb30d17c80f6b65a29b575b8f82149f4f62d7f6ba04673ae8172d4dd865d9f83837a16c624d8c659743bd6e9c701489"
                            },
                            {
                                "txinfo": {
                                    "type": "fr.acinq.lightning.transactions.Transactions.TransactionWithInputInfo.HtlcTx.HtlcTimeoutTx",
                                    "input": {
                                        "outPoint": "fed55c7986d149ca8432c171cd163ab78658e4e0a7b70234218ee74644015f2a:4",
                                        "txOut": {
                                            "amount": 30000,
                                            "publicKeyScript": "002077fd42515fc3e36f9e7eb7f9cb4daa64439e3337eaeadce4072312355c039fb1"
                                        },
                                        "redeemScript": "76a914a644af4571f92ffba15fb2d36c089b405c1f05a58763ac672102bf0b1a0d169ea9e1a9aac4b0cbb66386aae755c935bf137cf621b708bfd1f4a97c820120876475527c2102ae57e0cbcb6d0a3734244a5090396a5f8aba51f1c288a9da84b2f3daaa887aa852ae67a914ed8f56a1a95950080a822f6e68d7d99ff4ad6a7688ac6851b27568"
                                    },
                                    "tx": "02000000012a5f014446e78e213402b7a7e0e45886b73a16cd71c13284ca49d186795cd5fe040000000001000000012e6800000000000022002086e17ba679d2568559974707e9eff99981d5fd7d8a9fae29b68a8f9a14ed8836101b0600",
                                    "htlcId": 0
                                },
                                "localSig": "a876af2b2a5220aca6cbe62b8af321daade068c913872833fe070db1674ccb3b621bdc987ff9482cffde7b0152116ec148e7371342c18415ab538e888caef24e",
                                "remoteSig": "df656b2cd059046b55cb29df2b91232738254f6200230dd1f40c1cf69b6dc64f10ddb9ff6a543b8e25cc189d6c458c482ff18f8e1766f619748aa883bc974258"
                            }
                        ]
                    }
                },
                "remoteCommit": {
                    "index": 1,
                    "spec": {
                        "htlcsIn": [
                            {
                                "channelId": "7586b3458997d0776aa1de435d23fe659dbabc7b4fe1ebf3efaa7b6f253ef797",
                                "id": 0,
                                "amountMsat": 30000000,
                                "paymentHash": "d4e1717f1a83fde317e2bc6a0e25cf7ec2611a9572eeb4568fa245f09ac7ad64",
                                "cltvExpiry": 400144,
                                "onionRoutingPacket": "<redacted>"
                            },
                            {
                                "channelId": "7586b3458997d0776aa1de435d23fe659dbabc7b4fe1ebf3efaa7b6f253ef797",
                                "id": 1,
                                "amountMsat": 25000000,
                                "paymentHash": "d4e1717f1a83fde317e2bc6a0e25cf7ec2611a9572eeb4568fa245f09ac7ad64",
                                "cltvExpiry": 400144,
                                "onionRoutingPacket": "<redacted>"
                            },
                            {
                                "channelId": "7586b3458997d0776aa1de435d23fe659dbabc7b4fe1ebf3efaa7b6f253ef797",
                                "id": 2,
                                "amountMsat": 20000000,
                                "paymentHash": "d4e1717f1a83fde317e2bc6a0e25cf7ec2611a9572eeb4568fa245f09ac7ad64",
                                "cltvExpiry": 400143,
                                "onionRoutingPacket": "<redacted>"
                            }
                        ],
                        "htlcsOut": [],
                        "feerate": 5000,
                        "toLocal": 200000000,
                        "toRemote": 725000000
                    },
                    "txid": "d90e8d71cb18b54f28c8b59005e58d26ef7abd469dd4773665e7361bb20b1f4e",
                    "remotePerCommitmentPoint": "02e3c4e381598eb9bcccc0173e798963f7e6e0ed2250359d2f5381c08f4798072d"
                },
                "nextRemoteCommit": null
            }
        ],
        "inactive": [],
        "payments": {
            "0": "245c4c6f-4372-4128-8243-13757975e2dc",
            "1": "28725bed-ce0c-4822-acdd-0d251f003dd6",
            "2": "1dc0909c-4e8f-4239-926f-941e709c3a63"
        },
        "remoteNextCommitInfo": {
            "left": null,
            "right": "033ee703283e04d301724d8db5e140bd71ff6bc76d96da48626e03c1c0c266229a"
        },
        "remotePerCommitmentSecrets": "<redacted>",
        "remoteChannelData": {
            "data": "04027f6d5b48f617d013b7b6169e76718de00232c513a8e1073cad45bddfe8b2cdaf0f87f888b2ae45aa046ccb211179ffc27ea4d6bac1029f4dfa35d7180443978d1893b5f8cd0e73ce1f3f2b71fbbb0c80c5f8d7e56748ea34759067fef757a6a0b1245de304e7ca658510caf4442b2ab26f9ddfc1eaa5de2c3ebee8202f6e0dd30e4578ea15512235ece51cabb08d7cb77672e4624505636262ee291f68d672b84d06c495877a4d357b4216ea24f92c6889d3eaa5105fa691973afa0da6027fb93a2743c2633edd3854e045720f19a9cf17e67edfd813b2a0beee5a957f4f92a11136cd36e6a473502ea384368bce627848529b9c054a9ccbfcd26c5ec502ee9b3d9e9646e89b4952f29a048a7a57013d7373621e49e6bae06d9582f8b1373f4068b932e9e9685e9334d5a96bf1fcca3fb06c7e73b9afb13f88dfe9b56e3eab40f0922150ac63b6472f7c8618f9b5d7ffffbe416678205eeac2d1039ae3fc60147e12365a94288568bd6d5fe142e0ceeba425b89d34d8e7f5d7508b03859f28c246db6530a56d61ac10f9f13f71b1f32b37169b28d23fd50b11dfba6707e4059837a76300593ca4a29ba3d9747d5a4ab35fb3218685fc5fa585c08d01e2c2a91a1e4687fdfc07607413b1f0a40b083fb8fb61169568b41097c10d4bc08cbcbdd07de25de7bd64d0e8f95dfa60e8d40c1e3d80a1e98164d5ad25f1abf71e71adf51a6f3838224fa601a3c6ba8632ed94fab673f39712274cdbd18a81e79553c7fbe40b552c8ee664749b702fb6442f4a5a4b3a02fcd6235ea63f4a041c5255a8d40028ec51a6111e9ac92de1a7499c185cfc74773b6fc5a0fe5939bab14695985b1d1c0951c3678462e78d86dea68d65c661577d6edc378a8f50e033fbe2b4d8d9f5a008327455704a189617d10ebd0f3e7039e3567648a21d37fb6aae30c8a41460e553b372eedf3e0689d74e4a5f393afb1dc95d8329eddd5fa17753b8928112429cbb61378b8300770a44d677afc3dce01e6d6e513d2e964fe48b351ae3bc50712353ee300ced14643e0014a96d7595a9127b28c7f69de656fcab87e473a0e3a7bab4c7a201137faae7f844a6c1667a48065b65bb175334278e5bb69bfd3e797371ec1ff97b29a4578aab0a95b8134c95fc863e39b0d96eb9433a7bded7b10c0f92c78fe0c1a95c73bab2c816f28b205e5242639613e1400343da7c09591d0e7fe753adea93540d451705e81e49eccb243a6399126c3245c97a1603ce0d779c5165f8edded311507b1e6364fd8a47af8454b1ffd99820c75446e7199065edd2fde37ce6a533edc49f4ad3acb563813d234807a777560c1bffcfc01ae4023837172413689bf4de19f3dcd0fa548f00705e9f889f61597f74c4cdb218b0ac6c42f6ae687429ea86647408803c2a15fbee3f4a4fc6ced1b409b723157da9e4e59aa74ce905cefdf1fc5cd815c97f1016e5b7e029f591a46a0b29592d70527489ec84768609902273f111bf283e227d7d4c94765e15c530bc1402b907e28ebd6e60cc787e3599294581e48ecd8d2fbac5c93f8533d2f12e0109aece724fcbe196d5c9fc0140725b2b1fa47127b52c6f902443b9917ad7a21423763059eaab1c9833ad095ab510f8b024931d609da89dbfdafc10f34baa9c92b51e1fd8b9d0cfb9a18a9069fa396c70a29539b10627740ffa2c00a11a469b120f66b92b05d0db1f78fb120d3a6708dac8e258df6d99e0cfcb3799353bef41cd851ac4694e520b7e8f51d49c4e8f4b3a70c9047fe09da1f01968114174e816f713627ad1123df76ff3dc4c2c9ebc6b2d36490e950e7145e7725a1aa74b0edf44032c686ccf32e11608db44bdaa7cad531368093802d772fd5954f54f887982dfcd4768b518fc7f91d7c61c7bc2a1273bbb5514b62dc066f791b1a25570c8b69740c0c9a76c1e0c5e52b2f0a2abd37fa0d151e4e31387ac6c464de578e06fb30a9c602c69d1bf601c56ee40565e6ed71b453dd20f765155cb5faf31fc0cf55a058688cde3b755225a1581dffea1e4f6db9d5f8d7cfde3613cd3debec40dfc2c653d90d563556954c2bf1c5d7f1c775cd82a4d2ad06dbfcab58573a44b9e4425ad14460dae6235901431a39ebc42406c0ddd7d89622a5cb64dc8db97463a4bc9e4040075ad27293af3bc551549c43eabacc8ab4b3158b9d139f038bcee6c0189a0020ee864bd0b85b1b1d36085c36c95101d62757db52568d120eccc347fbf8b6d206cc3c391ba6dea04b21b35e2e9bd4f7504ce5ea59004f2db3323a4345dbd3a0e3a0e344828cedfd8ce3b45a7b02b5142c0c0e2e962856cd36243955389516e62267ce1dc3b5c4f40914718c25490dbcbf0a6db27c78d730a4cd457828b71dcf01a27cf76163a2c6047ea29330e0594a81da462c92a389ff47e32195a378944c9ca12945b287fe34e211abe6b0d28ead1fd0f089d35cf6790c9582648f05be8dd8672c8e403699b491b4d7a050f83e959dd595f41ebf1d9cdf9e85b41b7d215dfedae98a422aa276ed9e95de26cfbe9c27c49a65680bd88b82c20d08d11e7272fe95743087d45349172978a01c55c25addf65dbe838add3e19ae9ba9f99de16b9fe12444f318df7d08ceefe1f52ee9c0bb142e7882af99a1fc5ba6864b4dbde57e5952068eabd490a3446b0069dd1175863f0ed768c896c5e973df7b17c82f3a68790d1edb607441655e1ac72e1ba818964b67a6b6b0b919b7f5f5eacd021c5d5df223d9ce4dae283260f3f27bcd1ecd065e688f14f187f97c5f8818807b53efb71a6c7e768af05723406b557b30adf6c184413a88f3eeaf51ebac362a51d1ca71fdba5916f155fc84a01589a1d8be5c3aee03191af423e0937bf9c20fbf8726779ec8b5b72d702ca34e952526a1c4e6392988c1d74a4a7e196039d3d61f1446a6c7d2470b87d549df5e7d47de497ae4fb4c0e45fdeec2cfc5aa956e2abae64be0a2564ffe21910ea984f7f814b68ab0025a7e6db5503e5bb626ccecc20ab6f809df3b87ca4ee4063b7690f4b3cec626dcd9483515bfeedb035da09e57af562ab5fca432f84d6bea49d9e14e82197d502db2d52b6d2f1e6b22465cf50244fdd675aa837fc3daa0a53cd230e8d2b66c7dda1d299ad63209417f5db2d0f5561c0c2c856038db1a3743a516975e74d60d9bb01eceb25801faf7b29a033c1cdbaab2b64b2c657233eda8cb21c9f176ff5ab10ecb796b434bc456299ff52fc41780b0b629a35aacb366a188c4a2a63123838f4f4b8a98d25613c9c6c26dd5128a14a2fab599d793ff7fda0578b2ff881334f50c0c06e008318b6cd3333deb64f14c817d48fd8d64eb36f05dabc6fb53e63ff9fee30fe105bd20ad7028a8efc363e037e0249105b0beb8b9a370bc1528f0d651f8408281c2746af24be0c101efefd5a2e9615c4173b8dcc42b3f1c96cd15d7ef28b75952109a7558ab9e5a7c9cfc502ecfc4599549f16d595c7ca05f50994522dd6c02975a8a34b88945b0e90a258e0a8471f4b90a43be64b9614f2d2f610ecf0516ab5547c121c754f28a435478556343e269cf1740622e8b1858b56e8e9ec8a1c4f48dd94ff2988143e9267ac47e340d9a6521cb2a5fef07ddb7d142c76065633eca1bdf3d971deca064dde2999ca2ace334e6fdd170712be99baac24c1865d9c447c04f979ac928fe1ff6da379e13eb62814b2fd7ce1d68e3f59290f6e9d929b0c67d2a736cdb327ad6482a2d47b823329e6a3048f5333a0bf17b056bd2204914a2c45aaf4fb22a16b5c7687fecafc7053b63cbec69e80400770e190ffa6ccb0ca4c2aff3f6f20f08759d31552ff1a1eae00297d5fc0efbe83f9c4714b2a2dedff9a46cf6c6512bb1b3a9499175cbb8cda5266f5b69ca58fbd59e48dd08330a3e3e2524372c654c6113b8e407f2f294b261437d2348516aa434aa6fbff9d1dec890241a9066b14734b203bc7afe1d48bb96765cf8e9790c760e2f60d1332271df0732a3f21c8184363ae7e3d07a37eb20dfc4c540d9762f1492557b2783ae00e696c77400670cf2c42601a3eb80e4255c42e77612cbcdfa5478d83a2ebd4eaad25bf3ae7ab1ea6add1b600190e5d3c531250a992c6a9a8cebc2fcf467c4a552e8a6c4ec5adc6e5257873142cfae60e7360bafec74bcd0b2164bd671222424dd3df02f71267c4707a4db865335a31edea5255fcc15df7767300516feaca285f3f6cb8b5c640e4799f6deb1857261274d57dbf77833e4264c648731a748aed9841e04dddbb61fd5b12bd4c9018baf4e17d6b85e5c587493bad1ee4226453114ad4a4798901e0dd7da54dfe2727d6745a0113d4b42ac0c77b885bc8014bc018dc1da2615e6eb8bcbceaa52f7a4507e15c60c04876e2c4df83bf779753d6093583080b7072b19be2bc401e7562a006e70a3b8a20f851c8ca056742e4e2e9d993854100449f63649be52bd5f347d684b8d0a2bf694e8ad3c2c196f118b06dd4301bd82e1a46cd1d63c30df636ab5529916f83f30a63c06738488c593e4a39d5d8523a1951786aec7d5c47118877abb1a54726f685939806558d807ae7f32ab40ebbadfef68b18b1a34bb62c75964a258ae67573d62597209963561f6f95bad5237c4bfcc5af167964222d614faa44ea6db933efe6a908db09e765d74ac98ebea93db6bea72a0ae8f374925a9b6b8a6ee73049d11b578ae3b94cf0a1c4d42b986937acfad9b0f9b6a68c711e07615f5158b8590ad77fc73cbb7fa4bf88ae9df7c440cb5e4ff7f4e6a9e9765af671ab6a645ce642881c60314e23868c6c6386eba91d498de345698adb8531fe4d9a11123713afa7085183b60725ed5cc6a04c753702bbf1c9b6cb5c470eef75eabfdc071bfb555d9c6f2cc9d6e6e5532d50480b021d027e29f502ea94b54580fce4b2e96fd1701bff85a0d7d2a1e71013c554c64bc0751114ad371e234985c2701fff2416e4136b08280065fdeaf41f54ddf9490a28047d7dffeec9c53579257c7df41a264d6a6d83c2560e329b3a90afb7030fb09becc8f2371c1e8481d21a889c3d906352258689b44acf40822b923ed29e00e31c65d97bc1885721c757a5c16983b9b1a6fda4abbaed122ab4010ab8d695e54dc9b2eec412f402a50c2bf7760a4ffa2d03baf87925023f1647a01012b15f5f8b958c3b6ff6572eee86f70772721c41a64f7765e521cc42311c031c2e0af7867f5af1a44833cecb48f05540e9ff5cf73278acf3eb2cf82c360ee3115eab702cfd6c896c349b57c15b4409e539d5efbe8115de5a1dff519a5ca5cfd84bb99f47156b6d09fb1a009dd67f626eece25563f46adc5765504bbe178fc86033113510746be11726d9922d46c5fe03d4498549162fda6ff67fc254dad175dadd6984c3ac6091a4e9aef50b71570690c349da20957005882ce9cd85cd6376225165b50d614137e65a346ee7f37e965204c4fcf043fd2c54b87e041b46f81972e47898d97110da25a73260e3b5570cb16ad05b6726a46e975ae1abae50fe9b3b9a33d2fbc0478888cf8097ded2d9188bb6b00cb15fadda78b7a3921b0e63ed34dc4f8e0b55d5d61ab3921bbbaee1a01539f77e026015dd324d72fdba21ebe79679c9ce0e6d1aaa6c0d28203187558a129584c733d8470aaa0549c925628a25cef185b94e4bd028cfb70c24698435fea7774883a21f572a17d1d969649524ceca4dfaad3478ab884da6a322a37a6644c76e02a213be99906a14caff94b209e2b6e484511c28d5a9e2a07f63b71a866e0c51e174e2c704892d95928dd7e005f46c57d036e67f47de2dd4f624b5efd26c7917d4ec8efb1a4572243fd14530db89296429c10ec044e3fee0cbeb77412c7dfc075dff4f96680c3c5cce89d5296c191f6b8ad4f3c29ab5ab315aaa645966e20dee8201b80cf2087bd0158f98cba18cf0bbdbc364bb6fc574f3e1f4d7acc140bc11f7307af5e2666902b807b220a4cb5b5d2e8ce97ec55fb7601c79a8cc57df6c4f15cc338b51e0bb262e29c37f04f11f799fecfb117525ea93dfc826042bc3b1f7ead7232e5b26bcc78b9f929b3675faf481c550175cb7151e0a311280240f612e6b020a92911e4cbae86e9bb73d8185e320ffc3c0d505d5587de762a43c0fb028b659041e555ef4441e80011ba65f68a59a404a5f5057e3d15a76764dc0a662ceea88f4661c5ee5adc894c1c09b31c9333830d4548ea31faf645eed6276531c5c1ce7012ac4b029fca0c33d68559901150aad3781d6854f80272cf2765bd34f0ab00240b50001f57f54a208c534cf356028ff03819c6df32bbbd5ac3f2b89983aa92db6c366225db4972daccc1d0abe06d4f4fad9593256ecaa0aab5174c6e69ac72fdcd5b7f8c5bfdb54d32b12780c76fa10c6b802757cf6efccd5f02ff6fda49b4dbbdfd551cdc8a5495b4a24204d52764a4034c98288c8731c3f831620f3e7f5ff6e613ab6fe0139097c37eb517fe958a6f86e877354cfc212a17b523f4db0d89a1adacd2aca0f9b7b48527c734f61c35113ba2e188d4bb3c2c5cc797b472050550551f3cfcb423d68ffba0e48c3e728edbd70a02ed338bc101bf85ba230ffa122c92839ed27de365ffa8cbb6f4d2f2e98eab587370e94fa666b8aa279c3bfb2a1417e732e563fdba19486a56c520e7c478f9aade8293fd67284c53c500ec91475ca1e0bce9ea339339c51e2dffca22a9d2a296f6149ba30a40d7d02514aaed884450702c099e1bf180545b1d7d00aced5a9fee5cd63a731bad63640aae424d4c941e034bf30c932f895aa51bdb88aff4dcfd34b0d5afc18f44294c07c12e07f26de52aa407201cdb35f339a7ce4f2d6bb8dfe3461242c1cc7c72bb5fc46ebf49e5f0490caac75ef13bfdc1e4e605cbe5fd12dcbe719234ca32befca48b032b18302327a2c811dee2f43b059c5cba6ca810c46285db370681261f9f6fdcc307e81a846550774a0200f22d5cb780435ee46641a80397afa1c5e9f29872fd3226a3eb3aadfe1051f86a6250f2d90a1b20c4b981c9634a6c1a79baad5eca241bce0907243bf61676c37a85c3db2bb5658a8dea0ddfb894975ce19f624fb3c211e712fcb160683408bd877190e33359bd1223a252b7a5623f55695f2d0c1af19b392b7a810dcab9af3cc9438fc8bb2ff99fc13aa837dd3cef07b5ab9c23cad8566b8ef91bdca5eafe5b364bc46a72e25d24b49737dc219c56b487725402669bad783311d454d9a54a0b8bb07537f59a8b0a9a6e1948a8e9c4e003872b8e8bb86a449c44a9ec11942d1e3847157a42aa7dfd40d6a8418e0c45d87beb96f2caf9b185d0eb26c88415ee9357d696824dd390dcdba194c2749dfbe2c1a41e2125cce5db17b07a1e0bf26a64500266c4675fb2c1a6153c72fbc31feb5ed6c82c1080477d3acda51697303c50d5ff257e206705e4144539e0e69ee7138b26b3f299c280b73a9d6ab6ea37c08ad12ad03670184946ccb53ce044777560793ea19ee2dfca520dd86bdd1eb3d050515d74bd4d9c420698ec2427315d05789c751d188f8292768adeaddbf3e421211330397bba24c8f6b2c1fe0f141cd8b6fe72723d63e01dd30ada05879e68f0610fc84621f9469ace1194364c3fcdaaa8217ce702107958062238839545dfb36041f537e87d247bc85e5d2eed2d378093b6c7f59b94697521f41261cd04098c953072da5ba445e428d524cf7b5b84f2bf6035e52b65da3c4e5a6e4cafb1f4447553df038ed72a65a4d7e3a8afbd3baf82fdbaec5f13ef4a8bb114d47ed93a9356cf7c54c53d65e1e15feabac5af7555273511ccc8ef2eb2924e117c972b288a17d44f7294e1e02f7b316a103a1eb46d5a07cdff62e06ca4168adc25345040c99fad0809dd52f419b54226bab769325764caaa961868b2eea58697887e4b3a31a00609e4184bee288460279530a1f5be7741b075da657893d821368824f7a2ca998c67923f64ee73f16068e0c272193872719c2ff85c4f89866626ae2648514749563652915fe16c21fbfa15579594580be5435f4a839a1b71d031717fdc1c9a21be645f26c7df7b9de929bf57e3140b0ec788caf553dd1a122fc8a4ddfd826a3b047bc9636c6febc051cc9bc045fae963ef89e3eca9461d45ed1d34e2268d94c00441aa5a0508de4da2eaf4ce617a305cb7266e3602380209d86132b28f7c3527fb6384b991373f9a384625114191fe19737020f3b6533273ebb7b7d8e79fedeb5cd7e0c3703d4a4820ffe89cdbabe4afd38198b0cf7d35e80a9843a78e9f0dc12c8b0c9f098fd83cee3c7b5dc89e877de931ef730423b6a0cbe3d9db8c15c8f9d6d9fa707045b031ce6073f8dc202bc673437cd88c3cf812b03d0163923443934ec396ea896debc5cfca434cb5ef508706e6fb5ff3fd93f26642a9720a0f4973316bb5a86403c05e8560564e982a4d079aab63aa36481847a2baeb0595c2abde2cfd3e1c162f3adf441e63151d850d26187f7d29e6903ef218bf3764ba55c3963a037d6ebaeb10ee2c1814145435ac41a3c7a4c419618b1f4f98003ab1c42feb2e2b8ff9f0728bc3d46039c8c1f6f3e1fe855080e45515121e68ec1acc8ba6ac5ef7d31afd5590230be60b51c6e1df35528d67e59cbcd0da53b1522b3f85043fd11ea6f48e7e9fc5846dc170bab7098d353927470c81f8324670b91898287f2126aadce5dd5131e7dabb08494f92ac1aa91d96861959f08e6224ea34592db3bd1154d10f5990b183cacb7db52f27d9d17ae6e77dbd2a3e5f02d7f9a960341d9d00365c22324f076a622298dbe58ac76ee3fd02b96e9a9225c82fa72bb8fc2908bf6413c0c4b44ca935a16ac5d87c72c66f58a2aaba4d92e956d340409215295edc2679fece2491a4fbdacabd85ed88369bc4ec02a01f317e2ba6e2c2bdfcdfba6d2d3637c5efd312a049888d109f16143bf43ad3acabfd30ff8882e3ec9af76867a88a105578a47f558f277b289b7f4d5d9d69162b36eb403a751492ab5d5c03fb9d28123341cfe3e68d6741d937d710f7b4c2a0e580024467798f99f38a26c196b32948685833f3d34839d2593dac95a8b6ee894620f83a9f7769607b11fb6239f0c5bb5ce957198c29cd81bf09d70c8c3f1f8a71f315651c1bff60d0c28706c3ff55ca712ffc34462913bc47a06f982bb46414fb5457c9ad22d3616f82e3f56c1cf6714529553b6a4c289808b2ca23d0feb2e347bde020c49b7f5b8b83cfec222a660ea995478139d94a679657405bb2b2c0b4e930ac78ca6b5e6ec88194e00a6c9e4ab1bae4a88083f609275babb89e5d66e8d92aafb7930262e62570dcb262f4a571d4e5eca100620cfd69b672b5907c1938afe5215e26d2a51737c37beb42543268432a69901588a7d3715027acb38b457c4c7e84fb953913cf600b91c1973c07d8ed3be3c34d03a04e7ef088d6c8eaf8169ffd83c6e0dd90171c58fd5156647c1710118cdb9e70c5e0262ce295482030785e219aaab5fd6e4c8cb738c329d1a45e727312032c1eab1d7db49c2c3be34db09661981a13937adfaf8477d144fc47fd38880f343f3ce12e8c620897af924c45e12ecdece952e24bb9f6a33f4ce1a9c5aea2f0757864703350d3857bd0b1d780c322d997d0cb038303a5423c13eb72ae26a53ee905af125e9a5a87f90ff2b9aace70d004137a002944149fde5846177d2ae735520a888fcbd196b5ea2b1a62e679e305d6c5839314b7818323e707e5c537a577efb49800869dc80afab0d32544fa2da36ab63efbfd9726ed76a99c9249e9d4826b87b3899a33345f5804e8ce24341f513bc9cb23754a1f2050b5133e0df71051b132e910ba9bda96d5810ad7787692b68183660031b7c996db0720fd27969b0f5f18d204dbfdc8d870d7d2e41ed31675e012ebd5db1d016993e2648be31dfc07cd0c6dcdbdc850150a79ccc5516312f5d736bd3f4c0bf56bc042e3a7bc765ce72e71b818a6f83699d35d895bf7539ca1305d2bfaf4aaacf26a24f4148ed400a990d4c70ed6760e1a41425702d31903cb7a7389d8f2338cb3128fb9a4acd921ec9317d0701cf8a00d87319bb457d531c9e79843bbb92407a061ad413a83454fdf9b6a08c5a55c2faa4443ffe9abcf598bf4b36c86e76992b9eabb0c964840eed1e32f6384afcd1c6df12cfe31b2cebf89fd097c947bd27ac2cf1817cb773d3b464d1ea90749b21237d2a16e74bd22496b2f8f4fddd9df68e4d9ca6b3a6a07fe73909d68f07bf7c27d4d767357a6839499eff8cc322d2121eab41b2fda5b512cc4d044ef25a9ef957a79d9da86197dea4a10f472b1cb6a2c9ede6abf5ec22c4d241ab587f8f62df478b862238dde361ac8a3ee9392cda1d300ccc285f36db7eb5563c9635f72ae1d7c3cab2c7be55a0c040ba774bd9d9bedd5028083b5d50f921bc1c3c36a73f5ce5c92b7be5a65ec1448b1d811a65c620715960178bd2dd71cb3feb5696d6118b38da0a970561c2f0decad611a3ab47da53b4617fc819ddfc67cca0b8963d3e4ef704b4de0cb377c51859232ebc7242c5f26a5276a9a6b87ac252d3651c35f6f9c741fd9c1c60d63a341facd41b724e71709ced528f2e7ec818550682a348c9e6e850a33157921389689585a0575f84a7240d97ca22766695c58928be0ff1ea0eb98906bd262921f2dadbfbf5269c0328d05a884591298d822b3dfd132a41fc3c4a42b8782e3ebb34fede2a1a0bde11119923799eb6a6f3d48d1434e6eab983b17e59e5b9c8835582064e620a8c4c5a8e5bd4643eb027db52004687cbc7810a78cc292ba329e89781ce3cfcd99f64edc1271c1464df52b266d2606e513fe30604948016e5684caecd21980734306aee821fc5038d63fa8e3fe919191f2de58d481af05727efb838e1e30219c442eeb5316109965323bf506e8dd9c020aa4e5c50f6fcb28abc63b3bae975e8ff4fd8fb2e23e0ab656f37ca17c7040d0e49ac1c773295a44b652ebc1c06a91aea420146e34e3b7cf92c2a6ff0cb253cee81133a6ccbc87fee5c55b62ece8978fcf373e2eb610a315cececd8456bac96ac7e7edfe87250cd94841bd698aebc6bdbc9ba8cbfe8f96181c97651a2029abb7adfd0e2e33be12d937934adc39285536f1dd9e4fec6a811c1745531e2bb8bacde3e5f25b12cce465dc55fc3962121d2081ec7c4c7be741f377dbadc23575ee7de7baa559a947188300cdf8586b83ad4b1bbaebe2c5b82542e7eb5d0895441a5a9e8702fe71138b291d5cbaae309b1a84102756f1db0c6e74efeebc967ae6c94774865628bd1b5da3d5546030ed37f3bea8702d01c32127683db57c144d25299be6a5fc096808d4e826b97d8a4a8a4f55254d072fa8165c51fe374e55a8c6d55afc6154efe085c505c717ed8ee8cb4527aa00105e3ecc43de53e72e3c537f67151d2dd04f5dfca8521812bb7a9d226585fa9b15ab4be7d1c4286a4c907105eeced2fe62f511a01e828dd3b6ffcf18e48ceba39cd7fe8dca85641a9df34f4810f60356bdf72c20024c62f055de8f92f1d394bbf87346cff19320f9abdb489a213c9e228e3b3c95f766169b795ce5eb7eb08dca83e39824d7743ec65ef050aee6c465bf62c68d2e5cfde0eed67bbc03d3a90c56da7f4aa9a9f75738d251897848e01f9a712c52cf4553061a3592df7ea374b870a28d09487f444ee207cf7d1d9e0b7928271658a3f52347744639aba77ed1af475e9fb33643ce002094ed92eea6666af702fdf86123fbcb01081fd7bf431a0738a69b2ca6970aee5610a91e79a6f2f71804ae0a882308683390a6d9a43acd605ed2c78f942fd2eaa271f1067e20cb2bc3c2af69a2c668c362f41759056540b8eb57853f85cd577048ff6ded446ed3633271174d1b08c998aa67943a0e88296c9b032e3399cecad19033e9d48af2d22de21bedc38efb880b06ad7d9b1f55fd08b3f60f18c117a6c0de318851d034730bedc88eeb124276d06ef046f608613317c73e8f1f965ffd214021faff0c819f7c678bd67bed8608a913ded1c5bb92e191fea55af4eee99f9e84a0d00bab724019cc0804826c0fa91ae5b7e3447dbe7554f9541075dd4687bbb9e770c64a9110689094da8579b7f2e3319465fe8e06c5f1c9751fc646a68c95b420fc8e72beb4ca3ea7486a9cbef22704960e7cdd6378f60edf4a03e290e2fb483887d7b3aac55c664b49caf20230a8a3c56f02e464e70dcfc20b4c3ee90890a42fc5ecce3a22419f623955b4c1ff18fd6e11b9b200d421c2a857fd509851c1eabfa958d52890b9b432a6aa8a18fd22ebd488f92eb91098b919fb4f3748a28138bc012219119ea9a0c2370470f5166514b9d6b207e59082ac74815abaf2bbf96466ce375cf284e398aa5bbe213337bc5c293c1a0a416b46a85fe0b303b068f6be5ddae9edf0dfb13f5b0f5b9392bbebc6fbeae21f2769a3dd6de0d5c0fa7db98cd39581b0ea2e580ec861216e4d93b89550e8c7a87e312cf0c942d1f7efa098370d8bae1acb3a66d4f0f29681c1d0e531ac2b3319ffb5abef958b7f48a5c08b4c06dd8911fcfc21b37ed247c9a35f256c67266a229405bb38a7fff7cbe41044aeda63da9f4c11543ee200679b19d447333ae80f5efd7ca83b68d83bfe175d98c94f178d9b5a03208bbae47ff850787ada96eecbc07152749f7d512b72fe3fa22401865baec386e185f48f618bd5a893d713c59840ded91e2b0114367af14945b4ba3b5cca4cdf3a9ada5740b6f6ff792682eec672578ab4fbb4ff405fff7a66fe67db1db5257cd79d40d8dcd51efae3621826777e876d973981eb494be3d9388c3fa2e70f1d39455367480c2c5c28728cc95d8f20b4e031a98ce40bbdf555bb689f5345b5532074a771338b0d029239a73b9c4f97a719c5126b22caf787942831491a69bf37615da8f54d497f753269b731b939cf2827f1ebac92651908e053dbf7c2825b727df25b1943aa5fb7f2a1f406381fc49476d0f35a303766b8455382b8ed6fb73d807b097dde6912b32d8bdeb793c4a98ecd55ed8f317d0dbec3d844b15196dfa15e7e3b38f5a517dd18b34e6ee34f9625aef23d6192babf882f7ead91fd227b41f73189d19ff51693fbae6b3083a2d53996d118b5ede4baf64ba27707a928402a866f1be82fe105541fadb4516a8fd1b2c1f3f350a3728ddd332c5e92dd785370c35d012999853daf0cfce87f19ea1e0e2d09bc2f382ab13e42c8a8ed9655e5842525f60f3cb1cce7b92b805a7e414f696d35e8f144aacc1c178404eb883f30c42469e843823c574260d87265995d32cfca74808ae115957d886bdaade23c6a30d96f7b8264381b58706b98bcf5f1b386dc180501f9dcab595de44d7c419592c5b1bdf791204cf0b69f28d73ed10b104fbd07b5cffcfd5c64c212a0da5061649f9f23fd4f78bc2a55dd5b09a3332eeb50284e1a8cff01ae5f6ced9ca021f4d5f9a4196e0ef481388cbbc10eaccc32cc2d7bf3475a93a2deb2044cd172bcb1b6312d22f15130e3ee149e063ae08cd34ca5a530e7d76fa2e28ca0f9d8e7119e5096fcac3fa77f347e59636f616605a5a37722f250f21c6967bdd5fb53127d44f6af52cee3bf4e8d6c0a5b2877c29463b17a8170fc92837217d2b833acf6bfceb40eceb6fb6a1253b708520aa9232b18156b8997e135cba283bfb4d9d37655c3bcb9d26491d708e0c7e9a27d067a9214dc40c5b8933202f3d2ed81fd880f313cb695ce1802ec4c1a79e725c54bf80feb212a7ed92b48c8294fa780d860c08994929107f4d86b5af96dc8549e1ffa6d8af1ddd174e7736680cdb1d4c54587b175c4c20f9fc0999a54f0ec353d0dca011f7455bf621ced751775ed4da3c41e7020cedb83ca5ca5b71bbd6406068b69e6ea28eaa1590c183ed22e3eba54a7b8d5dfdb11ab8180b583ed2a186af35873571953dd73b7854fe1875282d7fcb072ad96b696cf900562820485a86a44193fef4cb0612df9391d6ce71effbe29c4e85d25f932e2bfcecf381c790e7fa83397e63e7cb6dc0cef298705e5622606a7a6f59ec86e18a78ebcd8cf062ec5e55266a071e76c30fc12d929c920f37cbc40eb4cb4aa9aca9f3cb897b738e7073630b40f27d6dc62d0cd721659babd1b9d173486f858ef95030fa8af7c9bf823ec55b4c915d355d418fb379818eda8b2c146e37f9c44e0b591e29b0c06d07d42dc144d0b17268bbb048205cc3db2f178b17a712c3832c6c22ec77f743e8b21e04bc1f345340e5ac06d95fc7ea4a9fd7a084201ed59b3c7ade0da913ed01000069851cc06a3b0ed589405f045cb8a700d1585f07b74d3c709206a1eddfa57d05cd3d8d0580c7418fd0946965cfae511f6161146113bc9828d34bd984ed71e6e74736f4baf1cf177cef9095d48d6b4f599a2a7b63840f390eb293f9f56f4dcd7e0f5a660ca6ca7a407ee39ea43b2f129fdc7692fdac63a9657eaea554d5ad22148e59c0eae5fa281b0a7600fb857ec89967e0b322e5e75dba5ff01b30ab84ed698678c6aee7475fba40974e171f20aeb4f74fd45c79c7cdc1a2be9939665e0c34308a7a73629fec1f586b62cb00093edcc5003f5ddbd3962e047a8eaf29faa99f0ffe93a1598a2ebb2b2860e40244e7754b2255e10a921e2c0f709409d3b8e49864b4af88bcb772d550551643fa6575adc82af2d6815c991ab2ebc912ed82fed209c1fc09ad0d49676b2c7581a86096bb5253b0a3f67fec45089ae108246f99f6cc0412d4fd78d372e2b0724586f39d4f9d89d1ac74c56462045c85bd70a0e22d378809417e69e42370b8f7046f67acd4f7dcf2ed8f57b46ede16093cd419e10f50a5c0aa3ea2065846b4c84ce0431673b487a0032c827eef97f55ce81a1728d7e25aa97a19dcbd8a61da01759a49eddfbcde3e745c1702c97be4549106ed1f5b368b22dadf173b1c0b1eb90cf0fb07b47ee6b19cce41dbea01fcd8449cc6e5d5d58e659e3c8809743cb6a4b6542cbd139b6a32cbbc65c617f44a02463e98ca02f0a60327c2a2435684c00b61d593b1132b5b05cb2cce4cff7a6201a8b7f4b11e7cb500f01aa9e9c8b3b2b765dbd7d327d0cc3eda90fb03acb90fcc6f4da328ecb65d3a8fbe4ffb4bcef01abdc0e667c7cf1b61762ab42fc3f9115c64aec921847c1d4f6697968630126d67dc4ac26c6763bb6dc7acbf403248b6e76d81ee4f899b9d3444b485b4b67282f9d24aaa4dcf6643c2af07dec10a71b4ef3926db837e81a95990af3f65fe41b3c753f4af79a052aa2d4e748d3659e1ad492d20e62f4716074d63c1eed438ddb2d1e188af6be4aadd10804857aadd4bfd1bf07ca183cef26c21034a2b2473b560c9bb9522a3efd85bf737de48922608ebd4d66e1aa9b4423402d8f9bb7266517b67341c44e1101df993ef5438f3c9b8843fe1314cee0ae8615453fd3fe7976651bc9d9bcc2f54350e1965c9a6f9a2c5d0c1a44842b883f86f7d16a83055722af43ad455dc2aac805ae6647e588c3cf2f1e8df8322a9a10b1ca24116c1f3e2a496bd9c392bbfb2e533413e13b574f48013855b9735fda646ddd72626c153460cee58dc66331b6465abd10f3efb417ddc72a31b5248802588edbb3168b54295c1585b8d638b504f7931a92098c4e551a4aa1ed962910256a8552df4b51794c8c1b86ab6917e25f3a7e3895e765a6a105adb93840cf9ca44d05103180293560e47ba5cefa66a746125810137c7609c44395d3de9fa61109c3bd5e70ddd873601dbefbe0c161721be055b30edbf57256442e5adb4e558bbb094145e4923c4a31cc7f23ab4b19424fc6d3fc4399c383d1fd0f158f7196ccbe36ce1bd5b4710b9809a9195fa1626b75d021c8ae9ec758a6edd784eb2ef513fd590bbce19235164fd3e61c3c145162049a2ab2fcbfcc6063c9fdd8415528c8252184992afbb7ac889c401c4e3db5d5a6057ffb8e8461634b6cf30b539344a948e2d7319fc0b8f13f69d2059a1d1ded7b439e3aa73862f254fc424be13e7479520bd4176965936c5d4e5534e280401a417cbda0ef9174ad605022b87c30aa633c1e68740b0467641b445ec2ad087db599d1f82949e8590f48b83e92bdecc9dd3348bd5a787c5d7a16ef46b0fffe9d4531f6fff97222122aad537042f4cb7857a410e36f03faa59cb7fbfee7f8ff801b391e2927c131a4d17e96df528b02f129e417d3d583e86bbdb118f461cbbff6056a0fc5d675d7a78062f7e5d12c685ad556b731983bddf379645fcca5665502a7c01412a9abacf9441fe214d16dd49c6086e8dde9bcf3656762c44f5a751f21821f0af15b1a88f541fccfb5db3bc2b4ab075d94a0213ea0cbc3e6f727ab39668c775878b5ae86ff1016b5154befdafbf42c47febf5e93503eabc1ccde4c8479536e8246bd4b6b16ac7d0f4e83225d8f3b933edd74a08475f31cc36bd9b08b4343c030f1e5be1ff44fa8f6ce0f0d8e2469533b931ca627fe0bf6a0a4c0be6bb319766b4bde45abda5991ee4d46eaf05cdf00f99568c13c46334d44e7aa48a0b0823f5bc915a8c331ccd8cd5927e14a743bfdb78b4087cafd4b2c8caabb151c04dd77241f89e371a77e34605a78fc2a198523ac23ae2fa571ddd380903ac076f7ffc1c5c8b0d574189373bae4d4a84aed78944fcdf79d4a2e405e70b0259b49f06c5fa325892c52a3312146955aa438d96243d1fa83531665bb64c9245a779d2e43a1525741e2be4628a8a14c088a16e787bfbbf854476d833506d19ec008e654c5aad2e627ee47e629b220c94f5656cc6aaf255608e322ee412c49ec05ac99b75fc39877c0e1c57e642762a9b3f412182912af50b7c593401223511ef1312c4ce98f44713bd99afb374e35ceb28b8fd2c10820c6cffd80f09b875f2253fa71249d1e8dfb4ddb7e921e8598d85570e659803bc9993d10e4c585b4180d70a641cfba3c12bf230f37f44cead8b8df467fd5ddf131ddb0b5341a651aa62f168f76191d593ec90eb1f04507011f46f25a1106ed9ccc2c02ed85d2a91c5ce365ad67a1af26ffe629e61f7536cef6bca4b2812f13daba130204420a3471527b7d362bef29bea919616e042cf05acb7d155728167a1b65b9d8a34ab5489dcddb33de518364d35ec6d984f721d3b7a2ecf965c023665960c60f2be0f48d2303e2bb6578b5207aa8718a6ad53fcc709415ecf1b906b5f67ab00d260f9126e00892b242ace2ad5b895dc09a08a3cfb7dbc8035548a46ce3273dab2d36882883ff6391e0c0e6ade0a8571f66fb6df4fec5743c414646e7525418d3869980f6d06670335373bc364fa6732fc112fc00346f9fa0df925b62e89a398055bdd38419f4a317c7935bb7b24175a83c08f444e40d7c4712d2da01c7703a5bee999c4be0415e7f0a3180ae516fe5e8d01a1aef9b08418344519570d86861e0a1e2f13062ae3b892782f8f74cf4abd9afc47ad39222f6e8ab157131f25e292213f84ac438094d26a6f11a0a4fae9844084f231789f9c7ad0631afc3e7088e60a87131775800b23eaf82860b9f15d45d8338b09ed0d9f4e8117970ab473ea2a8d364d19b3b378e03a200407936c1e0cf7dbd1c184c20853c11699b2cc1c661411bc41e12da48228a705e012dc77bd5b1f4fb82f5c34fadbaca7fe90c7f444fcbeaebc0a4e12d45e330f03eefdd68929ac8516484920347580074b8cf56a1d5c42165412b7bfa2f0b482e8eccb1def010249867fbb776af72c073fa008861c4ceb8f836674e1ccc8b62f37f244eb5ce86c131e8af3eae5a4b4233947ad2f559036b9fcd64fc18d565b53ca019ff3fee790bacb4a961cdbe1b5c81cf21ab5e064582c5b8057c0573948d1a86624255564092649a8d905d4e3f23ad3b91628e760598b90cac28badc776365e86b062cbd35ae1357ca2885d3f1e187225c6ea47b333e7290d64784b6d8682328e2c2bead5715c34c7dd2fa35dd7676800"
        }
    },
    "waitingSinceBlock": 400000,
    "remoteCommitPublished": {
        "commitTx": "02000000000101d04962415a20a987e98dae574781c1e79f414125d32885cb20cc405340f97bf50000000000cdb6f080074a01000000000000220020a92010dbbc2b70b39d2c9d1911ee2e5da1f294196338c06ede340c87f4923f714a01000000000000220020b1e710db2b94f2557d1f9e446ff57980fc978f77403b49f3103432b82264ad9d204e0000000000002200209afe5ca4059c0ff9742b405583beab6a037e28af41ed9a09ca17aef40444e3f0a86100000000000022002030e1b25c30802faa6380c3a0bc8a9aee6aa20bba145ae0dc57c17799611aa828307500000000000022002030e1b25c30802faa6380c3a0bc8a9aee6aa20bba145ae0dc57c17799611aa828400d030000000000220020a967531f63bc31478dd0bef66b2a562e60315884aba98fec7ec93ad5f765801c6ced0a00000000002200205550759c1f7f8d8dbb21260139b729dc80f8b68177ab34fc781c85c7c0b1649c040047304402204975adf09a929cd238dac6950784c04609f64e1051bc624e4adb3744fe1d4f7c0220018d03f708d5630eb5761d8a6ee300ecf62ce64fd1f7f7b8c3d876c3859203220147304402206b695adf0d2e788d5db9ff730c9647713bcae4c0d5ba8776639e317500b400a90220315bfa720c5135cfe70bf2323bdf71405bd667482aaf065fa61933800e69c7c801475221024d0f54a8ff41d13f936150158788115fe19868b592623b60be6c82eb561b30e62103cab05a7938caac126f86783c68fed9ab90062bc323db580e555f4af79dae0c6952aeeeca3f20",
        "claimMainOutputTx": {
            "type": "fr.acinq.lightning.transactions.Transactions.TransactionWithInputInfo.ClaimRemoteCommitMainOutputTx.ClaimRemoteDelayedOutputTx",
            "input": {
                "outPoint": "d90e8d71cb18b54f28c8b59005e58d26ef7abd469dd4773665e7361bb20b1f4e:6",
                "txOut": {
                    "amount": 716140,
                    "publicKeyScript": "00205550759c1f7f8d8dbb21260139b729dc80f8b68177ab34fc781c85c7c0b1649c"
                },
                "redeemScript": "21020e0b6762b23d995a4dbdd8bb91e42269c56926686939edc499a3fc63593cf286ad51b2"
            },
            "tx": "020000000001014e1f0bb21b36e7653677d49d46bd7aef268de50590b5c8284fb518cb718d0ed906000000000100000001cae40a000000000016001405e0104aa726e34ff5cd3a6320d05c0862b5b01c0247304402202588c1131fe0bf10d2cd950033d8c40406a33b9637c1fd15a20506b499881141022068e7d7846dfec8e101416e639d2293882a1301eda3ab9053d010f3aa5db67d04012521020e0b6762b23d995a4dbdd8bb91e42269c56926686939edc499a3fc63593cf286ad51b200000000"
        },
        "claimHtlcTxs": {
            "d90e8d71cb18b54f28c8b59005e58d26ef7abd469dd4773665e7361bb20b1f4e:4": {
                "type": "fr.acinq.lightning.transactions.Transactions.TransactionWithInputInfo.ClaimHtlcTx.ClaimHtlcTimeoutTx",
                "input": {
                    "outPoint": "d90e8d71cb18b54f28c8b59005e58d26ef7abd469dd4773665e7361bb20b1f4e:4",
                    "txOut": {
                        "amount": 30000,
                        "publicKeyScript": "002030e1b25c30802faa6380c3a0bc8a9aee6aa20bba145ae0dc57c17799611aa828"
                    },
                    "redeemScript": "76a91460ae1185fcc4b87b10a117b5d3bc9f73af9fcd408763ac6721028d935b11d497d0d4555afaf1da310f1823d1c5263fdceb9a372bee1fd93b35557c8201208763a914ed8f56a1a95950080a822f6e68d7d99ff4ad6a7688527c21023e075e0e994a87f2dee45697ee98ca259f95d6f524b2314b6c5195d4c850365852ae677503101b06b175ac6851b27568"
                },
                "tx": "020000000001014e1f0bb21b36e7653677d49d46bd7aef268de50590b5c8284fb518cb718d0ed9040000000001000000017c6a00000000000016001405e0104aa726e34ff5cd3a6320d05c0862b5b01c03483045022100c215676aca76b1efceb8198a435859c6a8b97f3c1be41889138e346d884495590220628f64cf3a9306fd504e94604f0e5a027e8bb26b26d12204f2e319a6ba2bb88901008e76a91460ae1185fcc4b87b10a117b5d3bc9f73af9fcd408763ac6721028d935b11d497d0d4555afaf1da310f1823d1c5263fdceb9a372bee1fd93b35557c8201208763a914ed8f56a1a95950080a822f6e68d7d99ff4ad6a7688527c21023e075e0e994a87f2dee45697ee98ca259f95d6f524b2314b6c5195d4c850365852ae677503101b06b175ac6851b27568101b0600",
                "htlcId": 0
            },
            "d90e8d71cb18b54f28c8b59005e58d26ef7abd469dd4773665e7361bb20b1f4e:3": {
                "type": "fr.acinq.lightning.transactions.Transactions.TransactionWithInputInfo.ClaimHtlcTx.ClaimHtlcTimeoutTx",
                "input": {
                    "outPoint": "d90e8d71cb18b54f28c8b59005e58d26ef7abd469dd4773665e7361bb20b1f4e:3",
                    "txOut": {
                        "amount": 25000,
                        "publicKeyScript": "002030e1b25c30802faa6380c3a0bc8a9aee6aa20bba145ae0dc57c17799611aa828"
                    },
                    "redeemScript": "76a91460ae1185fcc4b87b10a117b5d3bc9f73af9fcd408763ac6721028d935b11d497d0d4555afaf1da310f1823d1c5263fdceb9a372bee1fd93b35557c8201208763a914ed8f56a1a95950080a822f6e68d7d99ff4ad6a7688527c21023e075e0e994a87f2dee45697ee98ca259f95d6f524b2314b6c5195d4c850365852ae677503101b06b175ac6851b27568"
                },
                "tx": "020000000001014e1f0bb21b36e7653677d49d46bd7aef268de50590b5c8284fb518cb718d0ed903000000000100000001f45600000000000016001405e0104aa726e34ff5cd3a6320d05c0862b5b01c0347304402201f6a2fbba5f10ab041f1f9bbb5dd546e56d7bebdd1f7bf18834b7d6df1bb93bc022009c313c1dec146590efb89d848995026ca56791b104a6478b985630d0e14de4a01008e76a91460ae1185fcc4b87b10a117b5d3bc9f73af9fcd408763ac6721028d935b11d497d0d4555afaf1da310f1823d1c5263fdceb9a372bee1fd93b35557c8201208763a914ed8f56a1a95950080a822f6e68d7d99ff4ad6a7688527c21023e075e0e994a87f2dee45697ee98ca259f95d6f524b2314b6c5195d4c850365852ae677503101b06b175ac6851b27568101b0600",
                "htlcId": 1
            },
            "d90e8d71cb18b54f28c8b59005e58d26ef7abd469dd4773665e7361bb20b1f4e:2": {
                "type": "fr.acinq.lightning.transactions.Transactions.TransactionWithInputInfo.ClaimHtlcTx.ClaimHtlcTimeoutTx",
                "input": {
                    "outPoint": "d90e8d71cb18b54f28c8b59005e58d26ef7abd469dd4773665e7361bb20b1f4e:2",
                    "txOut": {
                        "amount": 20000,
                        "publicKeyScript": "00209afe5ca4059c0ff9742b405583beab6a037e28af41ed9a09ca17aef40444e3f0"
                    },
                    "redeemScript": "76a91460ae1185fcc4b87b10a117b5d3bc9f73af9fcd408763ac6721028d935b11d497d0d4555afaf1da310f1823d1c5263fdceb9a372bee1fd93b35557c8201208763a914ed8f56a1a95950080a822f6e68d7d99ff4ad6a7688527c21023e075e0e994a87f2dee45697ee98ca259f95d6f524b2314b6c5195d4c850365852ae6775030f1b06b175ac6851b27568"
                },
                "tx": "020000000001014e1f0bb21b36e7653677d49d46bd7aef268de50590b5c8284fb518cb718d0ed9020000000001000000016c4300000000000016001405e0104aa726e34ff5cd3a6320d05c0862b5b01c034730440220641d3771a1f18ad80bb371684db8a502d37b67a7ad8b8f09511c08968ddff9af0220691b14a463bd42d39b21116dc7dab25443c844758932e866deb8b89fa495297801008e76a91460ae1185fcc4b87b10a117b5d3bc9f73af9fcd408763ac6721028d935b11d497d0d4555afaf1da310f1823d1c5263fdceb9a372bee1fd93b35557c8201208763a914ed8f56a1a95950080a822f6e68d7d99ff4ad6a7688527c21023e075e0e994a87f2dee45697ee98ca259f95d6f524b2314b6c5195d4c850365852ae6775030f1b06b175ac6851b275680f1b0600",
                "htlcId": 2
            }
        }
    }
}