{
    "type": "fr.acinq.lightning.channel.states.Closing",
    "commitments": {
        "channelParams": {
            "channelId": "7586b3458997d0776aa1de435d23fe659dbabc7b4fe1ebf3efaa7b6f253ef797",
            "channelConfig": [
                "funding_pubkey_based_channel_keypath"
            ],
            "channelFeatures": [
                "option_static_remotekey",
                "option_anchor_outputs",
                "option_dual_fund"
            ],
            "localParams": {
                "nodeId": "037108815ff0128f7ed22640485c226d9ad64a9fd6d8b41b6623565aed6b34812c",
                "fundingKeyPath": "m/917204307'/1843072245/1110453303/1285396001'/1746678994/772884323'/1589666567'/681064086'/1'",
                "isChannelOpener": true,
                "paysCommitTxFees": false,
                "defaultFinalScriptPubKey": "001405e0104aa726e34ff5cd3a6320d05c0862b5b01c",
                "features": {
                    "activated": {
                        "option_data_loss_protect": "Optional",
                        "var_onion_optin": "Mandatory",
                        "option_static_remotekey": "Mandatory",
                        "payment_secret": "Mandatory",
                        "basic_mpp": "Optional",
                        "option_support_large_channel": "Optional",
                        "option_anchor_outputs": "Mandatory",
                        "option_route_blinding": "Optional",
                        "option_dual_fund": "Mandatory",
                        "option_channel_type": "Mandatory",
                        "wake_up_notification_provider": "Optional",
                        "trampoline_payment_experimental": "Optional"
                    },
                    "unknown": [
                        139,
                        147
                    ]
                }
            },
            "remoteParams": {
                "nodeId": "0362b19a83930389b4468be40308efb3f352b23142ae25e6aba0465a8220f95b06",
                "revocationBasepoint": "02ae827a31dd89c6b3b03f79e7d5a1c607d5abc40831c40b7957840eed4eae07c6",
                "paymentBasepoint": "0375a040260f0129d1e0cd48c2a97393d9d1c7947bcdec77be2a525ff47b17a7a1",
                "delayedPaymentBasepoint": "02943dc0608ef409f4ed82a6c5a8a9d3c5692862e1eea8eebc53ea06e9f0a2d343",
                "htlcBasepoint": "02182080422467f20321508b0cc825d3fb1caa0e3155e0dcfcb8e2f8b14724a497",
                "features": {
                    "activated": {
                        "option_data_loss_protect": "Optional",
                        "var_onion_optin": "Mandatory",
                        "option_static_remotekey": "Mandatory",
                        "payment_secret": "Mandatory",
                        "basic_mpp": "Optional",
                        "option_support_large_channel": "Optional",
                        "option_anchor_outputs": "Optional",
                        "option_route_blinding": "Optional",
                        "option_shutdown_anysegwit": "Mandatory",
                        "option_dual_fund": "Mandatory",
                        "option_quiescence": "Mandatory",
                        "option_channel_type": "Mandatory",
                        "zero_reserve_channels": "Optional",
                        "wake_up_notification_client": "Optional",
                        "trampoline_payment_experimental": "Optional",
                        "splice_experimental": "Optional"
                    },
                    "unknown": [
                        137,
                        145
                    ]
                }
            },
            "channelFlags": {
                "announceChannel": false,
                "nonInitiatorPaysCommitFees": false
            }
        },
        "changes": {
            "localChanges": {
                "proposed": [],
                "signed": [],
                "acked": []
            },
            "remoteChanges": {
                "proposed": [],
                "acked": [],
                "signed": []
            },
            "localNextHtlcId": 3,
            "remoteNextHtlcId": 0
        },
        "active": [
            {
                "fundingTxIndex": 0,
                "fundingInput": "f57bf9405340cc20cb8528d32541419fe7c1814757ae8de987a9205a416249d0:0",
                "fundingAmount": 1000000,
                "remoteFundingPubkey": "024d0f54a8ff41d13f936150158788115fe19868b592623b60be6c82eb561b30e6",
                "localFundingStatus": {
                    "status": "confirmed",
                    "txId": "f57bf9405340cc20cb8528d32541419fe7c1814757ae8de987a9205a416249d0"
                },
                "remoteFundingStatus": {
                    "status": "not-locked"
                },
                "commitmentFormat": {
                    "rfcName": "anchor_outputs"
                },
                "localCommitParams": {
                    "dustLimit": 1100,
                    "maxHtlcValueInFlightMsat": 1500000000,
                    "htlcMinimum": 0,
                    "toSelfDelay": 144,
                    "maxAcceptedHtlcs": 100
                },
                "localCommit": {
                    "index": 1,
                    "spec": {
                        "htlcsIn": [],
                        "htlcsOut": [
                            {
                                "channelId": "7586b3458997d0776aa1de435d23fe659dbabc7b4fe1ebf3efaa7b6f253ef797",
                                "id": 0,
                                "amountMsat": 30000000,
                                "paymentHash": "d4e1717f1a83fde317e2bc6a0e25cf7ec2611a9572eeb4568fa245f09ac7ad64",
                                "cltvExpiry": 400144,
                                "onionRoutingPacket": "<redacted>"
                            },
                            {
                                "channelId": "7586b3458997d0776aa1de435d23fe659dbabc7b4fe1ebf3efaa7b6f253ef797",
                                "id": 1,
                                "amountMsat": 25000000,
                                "paymentHash": "d4e1717f1a83fde317e2bc6a0e25cf7ec2611a9572eeb4568fa245f09ac7ad64",
                                "cltvExpiry": 400144,
                                "onionRoutingPacket": "<redacted>"
                            },
                            {
                                "channelId": "7586b3458997d0776aa1de435d23fe659dbabc7b4fe1ebf3efaa7b6f253ef797",
                                "id": 2,
                                "amountMsat": 20000000,
                                "paymentHash": "d4e1717f1a83fde317e2bc6a0e25cf7ec2611a9572eeb4568fa245f09ac7ad64",
                                "cltvExpiry": 400143,
                                "onionRoutingPacket": "<redacted>"
                            }
                        ],
                        "feerate": 5000,
                        "toLocal": 725000000,
                        "toRemote": 200000000
                    },
                    "txId": "fed55c7986d149ca8432c171cd163ab78658e4e0a7b70234218ee74644015f2a",
                    "remoteSig": {
                        "sig": "125de9d83e8005bd73a01e24aadf5f387d15c4cc40990a3d5ccc42dc446461d11ce47aa07dc35658cca00f1c092c8f8273e6b11eca8f40e360b4f9ee0955f74a"
                    },
                    "htlcRemoteSigs": [
                        "e8f3c941cc5ec88b6f03ea64085742d99d8c1403f0fc78fc67d56271c07ef6e42776b1100b32062a087cf86acaeb7cd280676e792986dd6fb5b640f64d22694e",
                        "59adae2c05ac5834aa4eaae067126c977fb30d17c80f6b65a29b575b8f82149f4f62d7f6ba04673ae8172d4dd865d9f83837a16c624d8c659743bd6e9c701489",
                        "df656b2cd059046b55cb29df2b91232738254f6200230dd1f40c1cf69b6dc64f10ddb9ff6a543b8e25cc189d6c458c482ff18f8e1766f619748aa883bc974258"
                    ]
                },
                "remoteCommitParams": {
                    "dustLimit": 1000,
                    "maxHtlcValueInFlightMsat": 1500000000,
                    "htlcMinimum": 1000,
                    "toSelfDelay": 144,
                    "maxAcceptedHtlcs": 100
                },
                "remoteCommit": {
                    "index": 1,
                    "spec": {
                        "htlcsIn": [
                            {
                                "channelId": "7586b3458997d0776aa1de435d23fe659dbabc7b4fe1ebf3efaa7b6f253ef797",
                                "id": 0,
                                "amountMsat": 30000000,
                                "paymentHash": "d4e1717f1a83fde317e2bc6a0e25cf7ec2611a9572eeb4568fa245f09ac7ad64",
                                "cltvExpiry": 400144,
                                "onionRoutingPacket": "<redacted>"
                            },
                            {
                                "channelId": "7586b3458997d0776aa1de435d23fe659dbabc7b4fe1ebf3efaa7b6f253ef797",
                                "id": 1,
                                "amountMsat": 25000000,
                                "paymentHash": "d4e1717f1a83fde317e2bc6a0e25cf7ec2611a9572eeb4568fa245f09ac7ad64",
                                "cltvExpiry": 400144,
                                "onionRoutingPacket": "<redacted>"
                            },
                            {
                                "channelId": "7586b3458997d0776aa1de435d23fe659dbabc7b4fe1ebf3efaa7b6f253ef797",
                                "id": 2,
                                "amountMsat": 20000000,
                                "paymentHash": "d4e1717f1a83fde317e2bc6a0e25cf7ec2611a9572eeb4568fa245f09ac7ad64",
                                "cltvExpiry": 400143,
                                "onionRoutingPacket": "<redacted>"
                            }
                        ],
                        "htlcsOut": [],
                        "feerate": 5000,
                        "toLocal": 200000000,
                        "toRemote": 725000000
                    },
                    "txid": "d90e8d71cb18b54f28c8b59005e58d26ef7abd469dd4773665e7361bb20b1f4e",
                    "remotePerCommitmentPoint": "02e3c4e381598eb9bcccc0173e798963f7e6e0ed2250359d2f5381c08f4798072d"
                },
                "nextRemoteCommit": null
            }
        ],
        "inactive": [],
        "payments": {
            "0": "245c4c6f-4372-4128-8243-13757975e2dc",
            "1": "28725bed-ce0c-4822-acdd-0d251f003dd6",
            "2": "1dc0909c-4e8f-4239-926f-941e709c3a63"
        },
        "remoteNextCommitInfo": {
            "left": null,
            "right": "033ee703283e04d301724d8db5e140bd71ff6bc76d96da48626e03c1c0c266229a"
        },
        "remotePerCommitmentSecrets": "<redacted>"
    },
    "waitingSinceBlock": 400000,
    "remoteCommitPublished": {
        "commitTx": "02000000000101d04962415a20a987e98dae574781c1e79f414125d32885cb20cc405340f97bf50000000000cdb6f080074a01000000000000220020a92010dbbc2b70b39d2c9d1911ee2e5da1f294196338c06ede340c87f4923f714a01000000000000220020b1e710db2b94f2557d1f9e446ff57980fc978f77403b49f3103432b82264ad9d204e0000000000002200209afe5ca4059c0ff9742b405583beab6a037e28af41ed9a09ca17aef40444e3f0a86100000000000022002030e1b25c30802faa6380c3a0bc8a9aee6aa20bba145ae0dc57c17799611aa828307500000000000022002030e1b25c30802faa6380c3a0bc8a9aee6aa20bba145ae0dc57c17799611aa828400d030000000000220020a967531f63bc31478dd0bef66b2a562e60315884aba98fec7ec93ad5f765801c6ced0a00000000002200205550759c1f7f8d8dbb21260139b729dc80f8b68177ab34fc781c85c7c0b1649c040047304402204975adf09a929cd238dac6950784c04609f64e1051bc624e4adb3744fe1d4f7c0220018d03f708d5630eb5761d8a6ee300ecf62ce64fd1f7f7b8c3d876c3859203220147304402206b695adf0d2e788d5db9ff730c9647713bcae4c0d5ba8776639e317500b400a90220315bfa720c5135cfe70bf2323bdf71405bd667482aaf065fa61933800e69c7c801475221024d0f54a8ff41d13f936150158788115fe19868b592623b60be6c82eb561b30e62103cab05a7938caac126f86783c68fed9ab90062bc323db580e555f4af79dae0c6952aeeeca3f20",
        "localOutput": "d90e8d71cb18b54f28c8b59005e58d26ef7abd469dd4773665e7361bb20b1f4e:6",
        "anchorOutput": null,
        "incomingHtlcs": {},
        "outgoingHtlcs": {
            "d90e8d71cb18b54f28c8b59005e58d26ef7abd469dd4773665e7361bb20b1f4e:4": 0,
            "d90e8d71cb18b54f28c8b59005e58d26ef7abd469dd4773665e7361bb20b1f4e:3": 1,
            "d90e8d71cb18b54f28c8b59005e58d26ef7abd469dd4773665e7361bb20b1f4e:2": 2
        },
        "irrevocablySpent": {}
    }
}