{
    "type": "fr.acinq.lightning.channel.states.Closing",
    "commitments": {
        "params": {
            "channelId": "2f7c825b61cbbf0e685aef20f8923a8cd28943346e59301b629cc89b4e27cdbd",
            "channelConfig": [
                "funding_pubkey_based_channel_keypath"
            ],
            "channelFeatures": [
                "option_support_large_channel",
                "option_static_remotekey",
                "option_anchor_outputs",
                "zero_reserve_channels",
                "zero_conf_channels"
            ],
            "localParams": {
                "nodeId": "037108815ff0128f7ed22640485c226d9ad64a9fd6d8b41b6623565aed6b34812c",
                "fundingKeyPath": "m/385048399/1977025879/604622566/184658546/776346346/949304342'/277944247'/2049339775'/1'",
                "dustLimit": 1100,
                "maxHtlcValueInFlightMsat": 1500000000,
                "htlcMinimum": 0,
                "toSelfDelay": 144,
                "maxAcceptedHtlcs": 100,
                "isChannelOpener": true,
                "paysCommitTxFees": true,
                "defaultFinalScriptPubKey": "001405e0104aa726e34ff5cd3a6320d05c0862b5b01c",
                "features": {
                    "activated": {
                        "initial_routing_sync": "Optional",
                        "option_data_loss_protect": "Optional",
                        "gossip_queries": "Optional",
                        "gossip_queries_ex": "Optional",
                        "var_onion_optin": "Mandatory",
                        "payment_secret": "Mandatory",
                        "basic_mpp": "Optional",
                        "option_support_large_channel": "Optional",
                        "option_static_remotekey": "Mandatory",
                        "option_anchor_outputs": "Mandatory",
                        "option_channel_type": "Mandatory",
                        "option_payment_metadata": "Optional",
                        "trampoline_payment_experimental": "Optional",
                        "wake_up_notification_provider": "Optional",
                        "pay_to_open_provider": "Optional",
                        "trusted_swap_in_provider": "Optional",
                        "channel_backup_provider": "Optional"
                    },
                    "unknown": []
                }
            },
            "remoteParams": {
                "nodeId": "0362b19a83930389b4468be40308efb3f352b23142ae25e6aba0465a8220f95b06",
                "dustLimit": 1000,
                "maxHtlcValueInFlightMsat": 1500000000,
                "htlcMinimum": 1000,
                "toSelfDelay": 144,
                "maxAcceptedHtlcs": 100,
                "revocationBasepoint": "03a42aef6d1c860caffa6c71a6f8ac2b16eec25bab0c3950cdb1fad7fb38a5f2a5",
                "paymentBasepoint": "02508e1845b8bbe0773f6bf8f3f04f59a5896426765c7b6b23e6e466c95381182b",
                "delayedPaymentBasepoint": "02d62233b7c33f8fd0911922461a651007f1de09d8c474029caa8f2c229c10de26",
                "htlcBasepoint": "03d05c8245bdc12efd8b070b22b276e7db4254f4693e22b3f7c978c08e67b36236",
                "features": {
                    "activated": {
                        "option_data_loss_protect": "Optional",
                        "initial_routing_sync": "Optional",
                        "gossip_queries": "Optional",
                        "var_onion_optin": "Mandatory",
                        "gossip_queries_ex": "Optional",
                        "option_static_remotekey": "Mandatory",
                        "payment_secret": "Mandatory",
                        "basic_mpp": "Optional",
                        "option_support_large_channel": "Optional",
                        "option_anchor_outputs": "Mandatory",
                        "option_channel_type": "Mandatory",
                        "option_payment_metadata": "Optional",
                        "wake_up_notification_client": "Optional",
                        "pay_to_open_client": "Optional",
                        "trusted_swap_in_client": "Optional",
                        "channel_backup_client": "Optional",
                        "trampoline_payment_experimental": "Optional"
                    },
                    "unknown": []
                }
            },
            "channelFlags": {
                "announceChannel": false,
                "nonInitiatorPaysCommitFees": false
            }
        },
        "changes": {
            "localChanges": {
                "proposed": [
                    {
                        "type": "fr.acinq.lightning.wire.UpdateFulfillHtlc",
                        "channelId": "2f7c825b61cbbf0e685aef20f8923a8cd28943346e59301b629cc89b4e27cdbd",
                        "id": 0,
                        "paymentPreimage": "470394f1ea93ed652ed8fba12c00dcfe8212c4fd3295f7413f7a927e002ea4eb"
                    }
                ],
                "signed": [],
                "acked": []
            },
            "remoteChanges": {
                "proposed": [],
                "acked": [],
                "signed": []
            },
            "localNextHtlcId": 1,
            "remoteNextHtlcId": 1
        },
        "active": [
            {
                "fundingTxIndex": 0,
                "remoteFundingPubkey": "0385cfd7d8850e4cb8fcbed57310911218e5d5e1fd34f92ef5d9db14d56418caa4",
                "localFundingStatus": {
                    "status": "unconfirmed",
                    "txId": "bdcd274e9bc89c621b30596e344389d28c3a92f820ef5a680ebfcb615b827c2f"
                },
                "remoteFundingStatus": {
                    "status": "locked"
                },
                "localCommit": {
                    "index": 1,
                    "spec": {
                        "htlcsIn": [
                            {
                                "channelId": "2f7c825b61cbbf0e685aef20f8923a8cd28943346e59301b629cc89b4e27cdbd",
                                "id": 0,
                                "amountMsat": 110000000,
                                "paymentHash": "8402e76bc62b9de41e92cfd8375016737d985d5d73d4d3dfba46b855f8370b49",
                                "cltvExpiry": 400144,
                                "onionRoutingPacket": "<redacted>"
                            }
                        ],
                        "htlcsOut": [
                            {
                                "channelId": "2f7c825b61cbbf0e685aef20f8923a8cd28943346e59301b629cc89b4e27cdbd",
                                "id": 0,
                                "amountMsat": 95000000,
                                "paymentHash": "070fb40232bd54297d485a2303b042cbdd51011f34fd509f4bae3ee0c62f6fe4",
                                "cltvExpiry": 400144,
                                "onionRoutingPacket": "<redacted>"
                            }
                        ],
                        "feerate": 5000,
                        "toLocal": 705000000,
                        "toRemote": 90000000
                    },
                    "publishableTxs": {
                        "commitTx": {
                            "input": {
                                "outPoint": "bdcd274e9bc89c621b30596e344389d28c3a92f820ef5a680ebfcb615b827c2f:0",
                                "txOut": {
                                    "amount": 1000000,
                                    "publicKeyScript": "00204ba42b50e089764e60e9e0c76c57e41d252d6beb976332f14a7b255bbb5322b8"
                                },
                                "redeemScript": "522102b6eaf304d966a6df90f3b3df7af7be6b1625854bbc096cb8b3507b2a37c2bf9c210385cfd7d8850e4cb8fcbed57310911218e5d5e1fd34f92ef5d9db14d56418caa452ae"
                            },
                            "tx": "020000000001012f7c825b61cbbf0e685aef20f8923a8cd28943346e59301b629cc89b4e27cdbd000000000000b77080064a0100000000000022002046672803839d10e21d43eafb532bc37cd21bd97dec7f9b50d45380cd1cce69654a01000000000000220020bbd7f17366848d8f624c28438128ce4dc8c72ea21deb0ccf25bee110920da032905f010000000000220020cb93e3adb8d213704e9a07ea2a6ce91dca51a9b76fcb6bef3cc9b5b7e10a799018730100000000002200202228f1681cff3adf3524363fad7481c1aad6aa344b223cd97b4fb09a667f5e2db0ad01000000000022002028eee5bc7a7219b098d1f27ee035b83a6870d2be541097068097ab8a8d2568fba8a20a00000000002200206aae960776a0a9f526c5ea6841c28baa16a7ae997313ed417dbc55e38fe1c1730400473044022069b2ce78c6eb6728db4296f6a88b65af682c81dc613985ecf6c23d14cfad3b6602205af6b39cf883448ac1769495c029f230c18d1c4b70292bec6cafad220b74bb5801473044022043cd8250bf3125c454dbe9d7389a3000d6198e35ad82ddd767d2fb770d4e00000220740dd54ac489715d33c6730ee78ee3df4e00f875f67c93b005235d5d637334e40147522102b6eaf304d966a6df90f3b3df7af7be6b1625854bbc096cb8b3507b2a37c2bf9c210385cfd7d8850e4cb8fcbed57310911218e5d5e1fd34f92ef5d9db14d56418caa452aedf99dc20"
                        },
                        "htlcTxsAndSigs": [
                            {
                                "txinfo": {
                                    "type": "fr.acinq.lightning.transactions.Transactions.TransactionWithInputInfo.HtlcTx.HtlcTimeoutTx",
                                    "input": {
                                        "outPoint": "9601ac0b3a2c26b11effb0690a37b4f86b10b144f1751ad6d64f5e58d40c78b8:3",
                                        "txOut": {
                                            "amount": 95000,
                                            "publicKeyScript": "00202228f1681cff3adf3524363fad7481c1aad6aa344b223cd97b4fb09a667f5e2d"
                                        },
                                        "redeemScript": "76a9149166a758c8ce2d9f0c36df15d8624a3c2d0e01b08763ac67210212f485e05882dc6abe5ca535a3880a1c8b2fb10261ba27c56110d926775d73fc7c820120876475527c210202381f64b9573d9410b135c8f3e9ec876233af900152d2e42211a6aa73835ad952ae67a914e563f0bce1d82759c3702437ce10cf2d7545b5a288ac6851b27568"
                                    },
                                    "tx": "0200000001b8780cd4585e4fd6d61a75f144b1106bf8b4370a69b0ff1eb1262c3a0bac01960300000000010000000116660100000000002200206aae960776a0a9f526c5ea6841c28baa16a7ae997313ed417dbc55e38fe1c173101b0600",
                                    "htlcId": 0
                                },
                                "localSig": "6e4452d82c90fed66b3764557999d611cf78e5f32acac0af83839aa65f5ee66c33d859c48572a8f06228d226ca5cd80610d970d9abd0d50edf58186eade21d84",
                                "remoteSig": "3dc75b272417d1deb5afabc3cdb5f9615f0e1a98b5e85bc661e3e2ef4a4346d84e587321dbf824e3d121ddbd0dc6098c062ab04b1879562b1c6f8ca6048e8edf"
                            },
                            {
                                "txinfo": {
                                    "type": "fr.acinq.lightning.transactions.Transactions.TransactionWithInputInfo.HtlcTx.HtlcSuccessTx",
                                    "input": {
                                        "outPoint": "9601ac0b3a2c26b11effb0690a37b4f86b10b144f1751ad6d64f5e58d40c78b8:4",
                                        "txOut": {
                                            "amount": 110000,
                                            "publicKeyScript": "002028eee5bc7a7219b098d1f27ee035b83a6870d2be541097068097ab8a8d2568fb"
                                        },
                                        "redeemScript": "76a9149166a758c8ce2d9f0c36df15d8624a3c2d0e01b08763ac67210212f485e05882dc6abe5ca535a3880a1c8b2fb10261ba27c56110d926775d73fc7c8201208763a9141156a3cd8369ffb3b15e9151e98e1d039a674cfc88527c210202381f64b9573d9410b135c8f3e9ec876233af900152d2e42211a6aa73835ad952ae677503101b06b175ac6851b27568"
                                    },
                                    "tx": "0200000001b8780cd4585e4fd6d61a75f144b1106bf8b4370a69b0ff1eb1262c3a0bac019604000000000100000001e69f0100000000002200206aae960776a0a9f526c5ea6841c28baa16a7ae997313ed417dbc55e38fe1c17300000000",
                                    "paymentHash": "8402e76bc62b9de41e92cfd8375016737d985d5d73d4d3dfba46b855f8370b49",
                                    "htlcId": 0
                                },
                                "localSig": "6c2c84ab6ddd5e0b576ddbd190b90a04f421c87cd7c0bf58f21b77014debcd36187e78df2604d1d3b90e7a8ebc547fed179c53e83b6030212cf0efb9f6f73afb",
                                "remoteSig": "08d988b910001b302c708db95aabdd1b11a02a7d6c549b78715b2894070feec1557f5cd291b5559f866cc9f8352d17631f28eeb0764408f6f503442c636e3729"
                            }
                        ]
                    }
                },
                "remoteCommit": {
                    "index": 2,
                    "spec": {
                        "htlcsIn": [
                            {
                                "channelId": "2f7c825b61cbbf0e685aef20f8923a8cd28943346e59301b629cc89b4e27cdbd",
                                "id": 0,
                                "amountMsat": 95000000,
                                "paymentHash": "070fb40232bd54297d485a2303b042cbdd51011f34fd509f4bae3ee0c62f6fe4",
                                "cltvExpiry": 400144,
                                "onionRoutingPacket": "<redacted>"
                            }
                        ],
                        "htlcsOut": [
                            {
                                "channelId": "2f7c825b61cbbf0e685aef20f8923a8cd28943346e59301b629cc89b4e27cdbd",
                                "id": 0,
                                "amountMsat": 110000000,
                                "paymentHash": "8402e76bc62b9de41e92cfd8375016737d985d5d73d4d3dfba46b855f8370b49",
                                "cltvExpiry": 400144,
                                "onionRoutingPacket": "<redacted>"
                            }
                        ],
                        "feerate": 5000,
                        "toLocal": 90000000,
                        "toRemote": 705000000
                    },
                    "txid": "6552be7d50bfd1711e327a88449299c0cdac58c180f781d5a1d97908bbf5bf04",
                    "remotePerCommitmentPoint": "026c604452e1a154575f1fd5966389c2c686c0b4b72370da0b33764c66b5a8f40e"
                },
                "nextRemoteCommit": null
            }
        ],
        "inactive": [],
        "payments": {
            "0": "a63c8f54-772a-4912-9b2a-055f7f64ce56"
        },
        "remoteNextCommitInfo": {
            "left": null,
            "right": "0312a332a6afe99e14c9dc4ab0512448441be3c4c369be8b7d37c5086682b33799"
        },
        "remotePerCommitmentSecrets": "<redacted>"
    },
    "waitingSinceBlock": 400000,
    "localCommitPublished": {
        "commitTx": "020000000001012f7c825b61cbbf0e685aef20f8923a8cd28943346e59301b629cc89b4e27cdbd000000000000b77080064a0100000000000022002046672803839d10e21d43eafb532bc37cd21bd97dec7f9b50d45380cd1cce69654a01000000000000220020bbd7f17366848d8f624c28438128ce4dc8c72ea21deb0ccf25bee110920da032905f010000000000220020cb93e3adb8d213704e9a07ea2a6ce91dca51a9b76fcb6bef3cc9b5b7e10a799018730100000000002200202228f1681cff3adf3524363fad7481c1aad6aa344b223cd97b4fb09a667f5e2db0ad01000000000022002028eee5bc7a7219b098d1f27ee035b83a6870d2be541097068097ab8a8d2568fba8a20a00000000002200206aae960776a0a9f526c5ea6841c28baa16a7ae997313ed417dbc55e38fe1c1730400473044022069b2ce78c6eb6728db4296f6a88b65af682c81dc613985ecf6c23d14cfad3b6602205af6b39cf883448ac1769495c029f230c18d1c4b70292bec6cafad220b74bb5801473044022043cd8250bf3125c454dbe9d7389a3000d6198e35ad82ddd767d2fb770d4e00000220740dd54ac489715d33c6730ee78ee3df4e00f875f67c93b005235d5d637334e40147522102b6eaf304d966a6df90f3b3df7af7be6b1625854bbc096cb8b3507b2a37c2bf9c210385cfd7d8850e4cb8fcbed57310911218e5d5e1fd34f92ef5d9db14d56418caa452aedf99dc20",
        "claimMainDelayedOutputTx": {
            "input": {
                "outPoint": "9601ac0b3a2c26b11effb0690a37b4f86b10b144f1751ad6d64f5e58d40c78b8:5",
                "txOut": {
                    "amount": 697000,
                    "publicKeyScript": "00206aae960776a0a9f526c5ea6841c28baa16a7ae997313ed417dbc55e38fe1c173"
                },
                "redeemScript": "63210295302e2b809b7a863066ad3e0410c0264593311d378e338da35a6c439683199367029000b27521039da7091f1df93fe6a35d16c522ade781f34b86d5fb3a124f5da0ccbbce653a7a68ac"
            },
            "tx": "02000000000101b8780cd4585e4fd6d61a75f144b1106bf8b4370a69b0ff1eb1262c3a0bac019605000000009000000001ca8f0a000000000016001405e0104aa726e34ff5cd3a6320d05c0862b5b01c03483045022100a0fab58723f5b670490d26f3f46053080354e9155db44770bdcdfb3c46fe3a0002201e69a3053587cee9cdd43b43ee6c8b5a840e62148935fcb5ce4bb58b9d6bb04101004d63210295302e2b809b7a863066ad3e0410c0264593311d378e338da35a6c439683199367029000b27521039da7091f1df93fe6a35d16c522ade781f34b86d5fb3a124f5da0ccbbce653a7a68ac00000000"
        },
        "htlcTxs": {
            "9601ac0b3a2c26b11effb0690a37b4f86b10b144f1751ad6d64f5e58d40c78b8:3": {
                "type": "fr.acinq.lightning.transactions.Transactions.TransactionWithInputInfo.HtlcTx.HtlcTimeoutTx",
                "input": {
                    "outPoint": "9601ac0b3a2c26b11effb0690a37b4f86b10b144f1751ad6d64f5e58d40c78b8:3",
                    "txOut": {
                        "amount": 95000,
                        "publicKeyScript": "00202228f1681cff3adf3524363fad7481c1aad6aa344b223cd97b4fb09a667f5e2d"
                    },
                    "redeemScript": "76a9149166a758c8ce2d9f0c36df15d8624a3c2d0e01b08763ac67210212f485e05882dc6abe5ca535a3880a1c8b2fb10261ba27c56110d926775d73fc7c820120876475527c210202381f64b9573d9410b135c8f3e9ec876233af900152d2e42211a6aa73835ad952ae67a914e563f0bce1d82759c3702437ce10cf2d7545b5a288ac6851b27568"
                },
                "tx": "02000000000101b8780cd4585e4fd6d61a75f144b1106bf8b4370a69b0ff1eb1262c3a0bac01960300000000010000000116660100000000002200206aae960776a0a9f526c5ea6841c28baa16a7ae997313ed417dbc55e38fe1c173050047304402203dc75b272417d1deb5afabc3cdb5f9615f0e1a98b5e85bc661e3e2ef4a4346d802204e587321dbf824e3d121ddbd0dc6098c062ab04b1879562b1c6f8ca6048e8edf8347304402206e4452d82c90fed66b3764557999d611cf78e5f32acac0af83839aa65f5ee66c022033d859c48572a8f06228d226ca5cd80610d970d9abd0d50edf58186eade21d8401008876a9149166a758c8ce2d9f0c36df15d8624a3c2d0e01b08763ac67210212f485e05882dc6abe5ca535a3880a1c8b2fb10261ba27c56110d926775d73fc7c820120876475527c210202381f64b9573d9410b135c8f3e9ec876233af900152d2e42211a6aa73835ad952ae67a914e563f0bce1d82759c3702437ce10cf2d7545b5a288ac6851b27568101b0600",
                "htlcId": 0
            },
            "9601ac0b3a2c26b11effb0690a37b4f86b10b144f1751ad6d64f5e58d40c78b8:4": {
                "type": "fr.acinq.lightning.transactions.Transactions.TransactionWithInputInfo.HtlcTx.HtlcSuccessTx",
                "input": {
                    "outPoint": "9601ac0b3a2c26b11effb0690a37b4f86b10b144f1751ad6d64f5e58d40c78b8:4",
                    "txOut": {
                        "amount": 110000,
                        "publicKeyScript": "002028eee5bc7a7219b098d1f27ee035b83a6870d2be541097068097ab8a8d2568fb"
                    },
                    "redeemScript": "76a9149166a758c8ce2d9f0c36df15d8624a3c2d0e01b08763ac67210212f485e05882dc6abe5ca535a3880a1c8b2fb10261ba27c56110d926775d73fc7c8201208763a9141156a3cd8369ffb3b15e9151e98e1d039a674cfc88527c210202381f64b9573d9410b135c8f3e9ec876233af900152d2e42211a6aa73835ad952ae677503101b06b175ac6851b27568"
                },
                "tx": "02000000000101b8780cd4585e4fd6d61a75f144b1106bf8b4370a69b0ff1eb1262c3a0bac019604000000000100000001e69f0100000000002200206aae960776a0a9f526c5ea6841c28baa16a7ae997313ed417dbc55e38fe1c1730500473044022008d988b910001b302c708db95aabdd1b11a02a7d6c549b78715b2894070feec10220557f5cd291b5559f866cc9f8352d17631f28eeb0764408f6f503442c636e37298347304402206c2c84ab6ddd5e0b576ddbd190b90a04f421c87cd7c0bf58f21b77014debcd360220187e78df2604d1d3b90e7a8ebc547fed179c53e83b6030212cf0efb9f6f73afb0120470394f1ea93ed652ed8fba12c00dcfe8212c4fd3295f7413f7a927e002ea4eb8e76a9149166a758c8ce2d9f0c36df15d8624a3c2d0e01b08763ac67210212f485e05882dc6abe5ca535a3880a1c8b2fb10261ba27c56110d926775d73fc7c8201208763a9141156a3cd8369ffb3b15e9151e98e1d039a674cfc88527c210202381f64b9573d9410b135c8f3e9ec876233af900152d2e42211a6aa73835ad952ae677503101b06b175ac6851b2756800000000",
                "paymentHash": "8402e76bc62b9de41e92cfd8375016737d985d5d73d4d3dfba46b855f8370b49",
                "htlcId": 0
            }
        },
        "claimHtlcDelayedTxs": [
            {
                "input": {
                    "outPoint": "65e1efd0ab984bc9fadaa395864df708584c8939af593bfe77b262673fb8fa04:0",
                    "txOut": {
                        "amount": 91670,
                        "publicKeyScript": "00206aae960776a0a9f526c5ea6841c28baa16a7ae997313ed417dbc55e38fe1c173"
                    },
                    "redeemScript": "63210295302e2b809b7a863066ad3e0410c0264593311d378e338da35a6c439683199367029000b27521039da7091f1df93fe6a35d16c522ade781f34b86d5fb3a124f5da0ccbbce653a7a68ac"
                },
                "tx": "0200000000010104fab83f6762b277fe3b59af39894c5808f74d8695a3dafac94b98abd0efe16500000000009000000001385301000000000016001405e0104aa726e34ff5cd3a6320d05c0862b5b01c03473044022022618d396c76b211f160d5bef7e028ae492dbaa37d67db935f54e5a13818c9e402205a2a045a701eba79e76aa8184c01dc5d624c814a9dbfef94227824b5e3426a3301004d63210295302e2b809b7a863066ad3e0410c0264593311d378e338da35a6c439683199367029000b27521039da7091f1df93fe6a35d16c522ade781f34b86d5fb3a124f5da0ccbbce653a7a68ac00000000"
            },
            {
                "input": {
                    "outPoint": "4030163c4fb5c9aa83454c1fa8dc5cf9ed9f6fbbb7e1be85dbc90e40ef1f6474:0",
                    "txOut": {
                        "amount": 106470,
                        "publicKeyScript": "00206aae960776a0a9f526c5ea6841c28baa16a7ae997313ed417dbc55e38fe1c173"
                    },
                    "redeemScript": "63210295302e2b809b7a863066ad3e0410c0264593311d378e338da35a6c439683199367029000b27521039da7091f1df93fe6a35d16c522ade781f34b86d5fb3a124f5da0ccbbce653a7a68ac"
                },
                "tx": "0200000000010174641fef400ec9db85bee1b7bb6f9fedf95cdca81f4c4583aac9b54f3c16304000000000009000000001088d01000000000016001405e0104aa726e34ff5cd3a6320d05c0862b5b01c034730440220173ce3df55a920df20583b5f761d658f06e7b7170abbe3b8b915b11d2f64d9fe0220298b801bfa33265706ac68815feb8ac2191e3a53326bc48f58b7fbae2fa58a5301004d63210295302e2b809b7a863066ad3e0410c0264593311d378e338da35a6c439683199367029000b27521039da7091f1df93fe6a35d16c522ade781f34b86d5fb3a124f5da0ccbbce653a7a68ac00000000"
            }
        ],
        "irrevocablySpent": {
            "bdcd274e9bc89c621b30596e344389d28c3a92f820ef5a680ebfcb615b827c2f:0": "020000000001012f7c825b61cbbf0e685aef20f8923a8cd28943346e59301b629cc89b4e27cdbd000000000000b77080064a0100000000000022002046672803839d10e21d43eafb532bc37cd21bd97dec7f9b50d45380cd1cce69654a01000000000000220020bbd7f17366848d8f624c28438128ce4dc8c72ea21deb0ccf25bee110920da032905f010000000000220020cb93e3adb8d213704e9a07ea2a6ce91dca51a9b76fcb6bef3cc9b5b7e10a799018730100000000002200202228f1681cff3adf3524363fad7481c1aad6aa344b223cd97b4fb09a667f5e2db0ad01000000000022002028eee5bc7a7219b098d1f27ee035b83a6870d2be541097068097ab8a8d2568fba8a20a00000000002200206aae960776a0a9f526c5ea6841c28baa16a7ae997313ed417dbc55e38fe1c1730400473044022069b2ce78c6eb6728db4296f6a88b65af682c81dc613985ecf6c23d14cfad3b6602205af6b39cf883448ac1769495c029f230c18d1c4b70292bec6cafad220b74bb5801473044022043cd8250bf3125c454dbe9d7389a3000d6198e35ad82ddd767d2fb770d4e00000220740dd54ac489715d33c6730ee78ee3df4e00f875f67c93b005235d5d637334e40147522102b6eaf304d966a6df90f3b3df7af7be6b1625854bbc096cb8b3507b2a37c2bf9c210385cfd7d8850e4cb8fcbed57310911218e5d5e1fd34f92ef5d9db14d56418caa452aedf99dc20",
            "9601ac0b3a2c26b11effb0690a37b4f86b10b144f1751ad6d64f5e58d40c78b8:3": "02000000000101b8780cd4585e4fd6d61a75f144b1106bf8b4370a69b0ff1eb1262c3a0bac01960300000000010000000116660100000000002200206aae960776a0a9f526c5ea6841c28baa16a7ae997313ed417dbc55e38fe1c173050047304402203dc75b272417d1deb5afabc3cdb5f9615f0e1a98b5e85bc661e3e2ef4a4346d802204e587321dbf824e3d121ddbd0dc6098c062ab04b1879562b1c6f8ca6048e8edf8347304402206e4452d82c90fed66b3764557999d611cf78e5f32acac0af83839aa65f5ee66c022033d859c48572a8f06228d226ca5cd80610d970d9abd0d50edf58186eade21d8401008876a9149166a758c8ce2d9f0c36df15d8624a3c2d0e01b08763ac67210212f485e05882dc6abe5ca535a3880a1c8b2fb10261ba27c56110d926775d73fc7c820120876475527c210202381f64b9573d9410b135c8f3e9ec876233af900152d2e42211a6aa73835ad952ae67a914e563f0bce1d82759c3702437ce10cf2d7545b5a288ac6851b27568101b0600"
        }
    }
}