{
    "type": "fr.acinq.lightning.channel.states.WaitForFundingConfirmed",
    "commitments": {
        "params": {
            "channelId": "51ee5f023fe753dd69f932686a367e48cf877a5bff430cb2fd7abfc4df8fc281",
            "channelConfig": [
                "funding_pubkey_based_channel_keypath"
            ],
            "channelFeatures": [
                "option_static_remotekey",
                "option_anchor_outputs",
                "option_dual_fund"
            ],
            "localParams": {
                "nodeId": "037108815ff0128f7ed22640485c226d9ad64a9fd6d8b41b6623565aed6b34812c",
                "fundingKeyPath": "m/1289039035/278062849'/1288770781/98157120/721088765/2136974067/467297755'/1966802405'/1'",
                "dustLimit": 1100,
                "maxHtlcValueInFlightMsat": 1500000000,
                "htlcMinimum": 0,
                "toSelfDelay": 144,
                "maxAcceptedHtlcs": 100,
                "isChannelOpener": true,
                "paysCommitTxFees": false,
                "defaultFinalScriptPubKey": "001405e0104aa726e34ff5cd3a6320d05c0862b5b01c",
                "features": {
                    "activated": {
                        "option_data_loss_protect": "Optional",
                        "var_onion_optin": "Mandatory",
                        "option_static_remotekey": "Mandatory",
                        "payment_secret": "Mandatory",
                        "basic_mpp": "Optional",
                        "option_support_large_channel": "Optional",
                        "option_anchor_outputs": "Mandatory",
                        "option_route_blinding": "Optional",
                        "option_dual_fund": "Mandatory",
                        "option_channel_type": "Mandatory",
                        "wake_up_notification_provider": "Optional",
                        "channel_backup_provider": "Optional"
                    },
                    "unknown": [
                        139,
                        149
                    ]
                }
            },
            "remoteParams": {
                "nodeId": "0362b19a83930389b4468be40308efb3f352b23142ae25e6aba0465a8220f95b06",
                "dustLimit": 1000,
                "maxHtlcValueInFlightMsat": 1500000000,
                "htlcMinimum": 1000,
                "toSelfDelay": 144,
                "maxAcceptedHtlcs": 100,
                "revocationBasepoint": "027eb05f73db115006cbd4bde4384e868444c1a977bfc22a19326a8a5a59403a90",
                "paymentBasepoint": "03ebdb7cbfd3edea62f6d96a5915471c3953508acc00569747ed698d024c2e5677",
                "delayedPaymentBasepoint": "02f6fc3a29544edd2759bd5c20388095b80ac16b1b8d60d19ee255c275476e837e",
                "htlcBasepoint": "035d1637983bcc10fcc0b55c79839137e49b56f9bb10e605f54593aa28f0c5b97c",
                "features": {
                    "activated": {
                        "option_data_loss_protect": "Optional",
                        "var_onion_optin": "Mandatory",
                        "option_static_remotekey": "Mandatory",
                        "payment_secret": "Mandatory",
                        "basic_mpp": "Optional",
                        "option_support_large_channel": "Optional",
                        "option_anchor_outputs": "Optional",
                        "option_route_blinding": "Optional",
                        "option_shutdown_anysegwit": "Mandatory",
                        "option_dual_fund": "Mandatory",
                        "option_quiescence": "Mandatory",
                        "option_channel_type": "Mandatory",
                        "zero_reserve_channels": "Optional",
                        "wake_up_notification_client": "Optional",
                        "channel_backup_client": "Optional",
                        "splice_experimental": "Optional"
                    },
                    "unknown": [
                        137,
                        149
                    ]
                }
            },
            "channelFlags": {
                "announceChannel": false,
                "nonInitiatorPaysCommitFees": false
            }
        },
        "changes": {
            "localChanges": {
                "proposed": [],
                "signed": [],
                "acked": []
            },
            "remoteChanges": {
                "proposed": [],
                "acked": [],
                "signed": []
            },
            "localNextHtlcId": 0,
            "remoteNextHtlcId": 0
        },
        "active": [
            {
                "fundingTxIndex": 0,
                "remoteFundingPubkey": "03465c57b20b02734b25b7a3d952a7789b4c3dbe66dd6f1ceccb3650c9f93446da",
                "localFundingStatus": {
                    "status": "unconfirmed",
                    "txId": "ba9724aacac661788715739a0b2d128e6718ca62b662387ef95bc65b649f1040"
                },
                "remoteFundingStatus": {
                    "status": "not-locked"
                },
                "localCommit": {
                    "index": 0,
                    "spec": {
                        "htlcsIn": [],
                        "htlcsOut": [],
                        "feerate": 5000,
                        "toLocal": 820000000,
                        "toRemote": 200000000
                    },
                    "publishableTxs": {
                        "commitTx": {
                            "input": {
                                "outPoint": "ba9724aacac661788715739a0b2d128e6718ca62b662387ef95bc65b649f1040:0",
                                "txOut": {
                                    "amount": 1020000,
                                    "publicKeyScript": "0020b2ab94f587307d948ef47152555d11ab80d20e951cd0cf77644c635143eb5058"
                                },
                                "redeemScript": "522103465c57b20b02734b25b7a3d952a7789b4c3dbe66dd6f1ceccb3650c9f93446da2103cf769fbcd74f1bf0d60f03be73044522f94e9a421eab227264e9bd1f33ae792652ae"
                            },
                            "tx": "0200000000010140109f645bc65bf97e3862b662ca18678e122d0b9a7315877861c6caaa2497ba0000000000693bc980044a0100000000000022002014fbcf1243e8919019a3fc560860b0802d9720905ab0bdc533e4ae891dd54c8a4a0100000000000022002073c054678dde4a07ebf59a95de109f10490a25a46942fa41b40c2871d6a8f02f400d030000000000220020bf57cfdb52b17af30d6abd45510b396c7736d56b71efa1b78c21cdf1c502b160986a0c0000000000220020ad33b192a9b2239befc1816385937dbd2aed828a1604c7364edb26f01a3fdad20400483045022100a977b141679c8ad33bac87572fb44ad0cef9e23f6bf141ee933018f69a6efaff022000c242528b826259425db423903e6c6039d87d35df055c1514ae5fc1d4baf56301483045022100b475ba6aba8c453e8d4f7b8fdfd2cc65601bd99f61189ffeca99cd60ffc340b402204708aef3296d13002769d59b2ad0cbabeacc7ae2715eb9fa1f51f3eb03ddf60d0147522103465c57b20b02734b25b7a3d952a7789b4c3dbe66dd6f1ceccb3650c9f93446da2103cf769fbcd74f1bf0d60f03be73044522f94e9a421eab227264e9bd1f33ae792652ae52ab2f20"
                        },
                        "htlcTxsAndSigs": []
                    }
                },
                "remoteCommit": {
                    "index": 0,
                    "spec": {
                        "htlcsIn": [],
                        "htlcsOut": [],
                        "feerate": 5000,
                        "toLocal": 200000000,
                        "toRemote": 820000000
                    },
                    "txid": "7723e7b753c72a3ee49ae544a7b2c61debd27fb528681a2163e796a62ae7ae36",
                    "remotePerCommitmentPoint": "029a3c1ea71f2d620d6dead929ac01a0ee92d42106dc14b196b8c8eb51a3603816"
                },
                "nextRemoteCommit": null
            },
            {
                "fundingTxIndex": 0,
                "remoteFundingPubkey": "03465c57b20b02734b25b7a3d952a7789b4c3dbe66dd6f1ceccb3650c9f93446da",
                "localFundingStatus": {
                    "status": "unconfirmed",
                    "txId": "7a8c5144823c411684e404ce0c2f93fe6efe9a535de6f9a02a00202971a377ce"
                },
                "remoteFundingStatus": {
                    "status": "not-locked"
                },
                "localCommit": {
                    "index": 0,
                    "spec": {
                        "htlcsIn": [],
                        "htlcsOut": [],
                        "feerate": 5000,
                        "toLocal": 800000000,
                        "toRemote": 200000000
                    },
                    "publishableTxs": {
                        "commitTx": {
                            "input": {
                                "outPoint": "7a8c5144823c411684e404ce0c2f93fe6efe9a535de6f9a02a00202971a377ce:0",
                                "txOut": {
                                    "amount": 1000000,
                                    "publicKeyScript": "0020b2ab94f587307d948ef47152555d11ab80d20e951cd0cf77644c635143eb5058"
                                },
                                "redeemScript": "522103465c57b20b02734b25b7a3d952a7789b4c3dbe66dd6f1ceccb3650c9f93446da2103cf769fbcd74f1bf0d60f03be73044522f94e9a421eab227264e9bd1f33ae792652ae"
                            },
                            "tx": "02000000000101ce77a3712920002aa0f9e65d539afe6efe932f0cce04e48416413c8244518c7a0000000000693bc980044a0100000000000022002014fbcf1243e8919019a3fc560860b0802d9720905ab0bdc533e4ae891dd54c8a4a0100000000000022002073c054678dde4a07ebf59a95de109f10490a25a46942fa41b40c2871d6a8f02f400d030000000000220020bf57cfdb52b17af30d6abd45510b396c7736d56b71efa1b78c21cdf1c502b160781c0c0000000000220020ad33b192a9b2239befc1816385937dbd2aed828a1604c7364edb26f01a3fdad2040047304402207656be97e85f5bb43e6db59f0cc2febbd582a5d67d81d6b3bc9b06679fd165610220175344633770a1be6ed8f3a709ed812e21f34c4de9a9e1ef5d5b21a3acad64d601483045022100aedccd367ed5a1d02d86ab0c3084dde6ae4d2604af47abda2d0e907c5dec51330220502eed8b6cf82f31aa1ec2a25e4da25d04ac6c37628218dc6c1a101404b640880147522103465c57b20b02734b25b7a3d952a7789b4c3dbe66dd6f1ceccb3650c9f93446da2103cf769fbcd74f1bf0d60f03be73044522f94e9a421eab227264e9bd1f33ae792652ae52ab2f20"
                        },
                        "htlcTxsAndSigs": []
                    }
                },
                "remoteCommit": {
                    "index": 0,
                    "spec": {
                        "htlcsIn": [],
                        "htlcsOut": [],
                        "feerate": 5000,
                        "toLocal": 200000000,
                        "toRemote": 800000000
                    },
                    "txid": "2c0cbd95600308646c7cea0631358620250bcabf8b7a9c24980e6a9a28232af7",
                    "remotePerCommitmentPoint": "029a3c1ea71f2d620d6dead929ac01a0ee92d42106dc14b196b8c8eb51a3603816"
                },
                "nextRemoteCommit": null
            }
        ],
        "inactive": [],
        "payments": {},
        "remoteNextCommitInfo": {
            "left": null,
            "right": "021039229b0568fa80aa4ee09e24e6f8e70b60ac83a8df04e0806fa6c4cba16745"
        },
        "remotePerCommitmentSecrets": "<redacted>",
        "remoteChannelData": {
            "data": "040000fcf5d1c8742a22b3e5a7a51e2e8d195cb86ca5af75300d3aa01e60c03a0a8215be710b161b6100e7c02a9892367aecef483ed4c18260eb23c833df28640dfe63cae5900c99b458aad4cef00200c49b9affd88421cd0bad279c6ae61e386e3bbe3fb3a8e9cb706d9d2eafa241385a6e185834b27f1532d71e6e8f483fe095932d121b3662968fb7c1d4930811d9c2294607c9ac16ff4c0699aeacf80d1c7170d7b2036965a3d3a3e2ed1161f8acb92eee465b0ed45d192a1937f2c9944f7e38bad0f389faea0ca12073c4cddde42f30ec6294ff81a2acdf9de0e13198f94224fcd4a020248e7e044879d8396bcf5531007796ebf7d7e9ed6e3dc86b3b32f286ec4ad2d7af5dc00891c202e7cf9c5c31ea456a88806ccef54fab0af9f4830337127bf692719315ed6e2391add5c014abc8fcc62865318725337f71c32b21914c2430d705a2f1209d73604b67936e0334733fb382a523b8922c77f9c155276791bd87305e5d988cf6da60d9255feab2ffe3a0174f1684ed3b5e69148fe57e43d2a4247af112cce42ede7d129c742495b2da624dccc56c08becfccca2f19ef7cb46b7400d3a38f4348476e2f4dadcf85a79e13d15b71a737c7c2b42f0d81d20f9e6c358a7a77cef2a6bd9d80e2f714a87f62e8862f66417c51c27e52d8ca9d0e40cad8cf9c7b995babf1b8cbad6b0af2ad6dd60d0dd69d9ddb20be9859f736d47fba5fb0002848f6b26b65c4d95319e0209f353ebf2ad7623524bc1bb34fa07a90748e1c92fd9b727f1eedd3717f42a262869b7bf2606f47636a50c401d99c76502ed54ba35ef8231d4d91b2189f099589fc499eb0405ded7e9aa6faaeadbd8eb349d12ffbf876ae1e60c7be7053504b4f2ce2e7beb7ea859863d172f9daecdb47bafc5da4da2dcdcc1d3feb5027f8c890469de0fbb0660d5d065be1577d0f6c62eb3a1241220d4cb69c0344afeba62f1aeac66299f0845d23c766c1aadac8048dc7e7fd0a6a3b5490d7524890207802d7ee48f2289cc667f92496ff80445067e2f8a2a742007023c944a26f158b0b3d42214096dd6eb3675f2bfa23ac618d5f47d994e6528b33ec299a75277ff6e11f66873e49b52eeaf99b177a6e7465a13ab45e8b5121d2edb29db0809c130d2e514df2dcc95492f4c9f3e0738b14cd866fa20553126b8edeea25242f1421d90328c8e78f8b91366c315e96bbccdd1a3ec6fdd938686eefb90de65ed5b95286c615aab1ae2a2b3f9bb727d1047c2cff2cad29b6762433d8276d81b6fa0162450ea000578dab894b734227e8481611abf8be40ad44ecdad7b89db4b20b05878d9248abee060ad4686cb6584b4bd160898a8455719516578093741bb93cea311d5aa3ae5f9c9598bb97c8242c469d803605cad731b4784d9c89e805b3ba6f04c1157df417e9765b606d3d6af3c945b1bba1737128e3ec0691a26579cdd5e03503eda9ed99d9648dba7fff7f369429d42f66e66bfb6d6ecb18466068d6fc15e97b29d4d1eba0abd979e2384d3c54995182d2247097f1b995e1710da4f8caf9d42863e4d7093626d3f91245b55d7387d93167f47df6687ee2b59d25cfa60abd1f5fc4496be1e4fa5cb8484f27a79d25e82c8dd226628bab76d5979b9a1bceb841234254cfcc4c7cec7cda3e25192be531c967088d1e530a4319ce7fcd912814368e44af2360f2375bedf9af3d80909fac261fd47a0ddacebe32e666b0a0e516ac68006ac5c609ab5ba36838488855e433545e9c22a661fde4c2e5b2e6c9d37988ba095a811cbabfc4086a0b1b9981d8c7703f5ca47d76f3c74f8b561e9e59c12d24984f80d93dfce5404c4f7126a941e1a4dc954afd27668d0c7806c296d4129174a40c3b6850d9a55d44aabbf6465d6b4b305d3765a0b764aba7ce3d79e034d155023cd14d2bafc17ba13647276618c3ffc46b19698111d939582f9914a5c229ec29a00d4d4172ec21a74c4e1b2c089767bbc047a2d1289f87f0e778b05c954cb4e408cdd9401683bdb08adcdd4da1bf9e6a31611f5bd5472c18ddf84e69aa1f24fde4aee6a085fbb19c7aba061951a42606f2e249fbcd97bd1c4a739411f6623f1abf0e53dcae9027fdda4f843f73d6fce950b1dbd39e26e5da75f07bc08f3deb33f42adac6c6a107b8d353a14955670cd6e3520548c03ac8423fdfe558e0d36636d442dcea11dec947dcee3ccefb89ba483697c7a0c5c6f5234fbd9fd1ed85f83e3ebf7c21dbd60618594e16630465215990e0859b0220d337651ec3a02b153dcb83bbd311b9a2bb525945918447aa4dbcc670c7960e514cf2d22aee60a413d01b3902e1c0111151d456796f9ff217590c8739f97b74ad7080e7013a959ba11576eabcec4a4a5472c21c3115e8c3669c2684331e05c4110dc5f864bdf398b2bf0dde3643d144a0e8a86634c26048368e4b84fbdce5895a0b6b4bbbdbf2731d0b89a31fa0f9d8e9c7ab61a70acfa537a9630dfea63224da5352fbda34ac702555bb6614c731312e78738524303951bf29583f64da6c40d9e8dea2b17a6c9f311bbf5ed15e7677b8e901e809b9b185cecc815989b9e60664a330dae14b3b608d160f3d4d58f032de724065086e13fc78d92aa37949dc8b6a3cfc2e777c7c41174acb2149133f35e48ce094e459c3593c446647aa629858367713521a73f8a8cf2b9f7f65a3a4e64af1b72d264aeb5b2c296f829fccfc447194f73d33314582d2820782dd8726de2b3c94b39344f09736c993fa0342485ac6cb4eaaf57c0534188908f7511b6bd69321c3bda908170b21db7206bb6bd7eb5a996b1835e449175fc141fc9569363462fe1dbcade894578a997ba5b4ce8ef167799e74076acebc92f8c044fe1ca79189f4c7e8f04bc450ffe3e7be60c8cd8e9fdf088a64a24eacc0b7ad9dd6cb896be27e7fbfebc80f1adf75c79e4ed0052e4925677bde09b12d11a85fdcef2cd4fc563537d6ad61a0b8c89570865f913dd3d2756445b45ddbb906d375e0da0c7fdafa83d7f6fbc3a36db3b9fa737d94e2f9a762717a7324b8ec4f743c20c98246811475d8496767e80bd423b3a1f2ddc7a208e41be659ef468e0bd9278220505d4dd7b1342c2b2f644d1c2935f35e46421fdf4049c835de68b4d5768feaf93ebe12b53d48229402ac741f64c1f481abac52ec9bcea158fe3b32e136e39767ccdd2bdc752f5262e2e1a51cc6ca111d84feff7e0dd36c31e4662e1c8cdb79bd622dcb53a5ae29265329ce386a74c694765dce13d2a2a9950d0ae5aecf40f1d20f6524ce3f504eda65c7203699dbcb33564ccfae69f9f0596990c8bb25f4337c9159ff61c754c044b8c45e4284d002826b22d068ec2e7f14ab2cd742903f62745fa85c2f076024ee365528a907a6c958f1fb371665287e9380407fffa4799181c1649c3a2f6e841a780f2f51fe80b0601e199417203af6743a5a5c73ffcde2bd2b7191734e3785690680839d78663e31573a526358a37bea32ba07356d4deaf0e24515388a25a6e41e73a08bf8fb80dd594ff63d697bb6223e38705f95b9b5694d1b9f0fdd710bbcf941c0369f54dca47fad7f16efafe7d9d9661c1050c8f797e56458f13ff56c5b85e1bf0cf1b525cf8ae007af8a686f9be33efca1317befcd37be19d170df4f453022da193582e052c2ca352a82eef452d9245867289f5bdbffcc863d0568bd33d98cf5bc9a5bd260eb8b56faa4ae001a2ac6f97d55fd160b20dd25ba401ada90834668e3d34f49f4af39b05cb86ebb78168cdd5b74000cc47dfa1adf6c9d766b546599c1845f214c1b76422cd5d52db24ce51ce7e8099213edef2eadbc02b12aedcd28a9b2bd91b326a836679fb6ec4d6692c6fc2584e2605de3776d0b2ae196e0463bd93a7548be2d4dde8e80c5fae7feb4821407c6bf8a99190f172ec693bed2fb8667b63689c31d64053aeac3a57dea5e57e89112259622b9a76efd4227379a553c89f34685e48f9f5ab6e39dbc9b279a428fa7af1aa2dc88f097e69599d586a96ae09af4ee7d64eca91aedce04075a1b2a72e9bd832c412989e554c4baddd9ef25ddd9fa9185ba83ba8c76b440e3b96b7143838eb16e5ed638eb8d637f83ba065491d749d201fa8198dedbf122f92179f961dba7f85b7b88254a7dbbc601a9cf3aa879d0018789ec31a398560edb92195aa9f9616a0c4afd5410c50dab7d3f5b7ed0a7c6cb53637de29c9644c670eb69e24795568e17fe0e38e77ff23c51c07ecbb3ef33bf585b22ff406ba21f63f3cd274ded92060022253d84fcf5d58838ec28921a0d30ff5b61c06f5292e9a11be3ec7ab70b8d7d7b3bc797ef578d764df3760fd3d1dedb64c460016f39fa5060252034c382c263bef60ec6644946a23dfb9e8d21f884d995cf551cfd3d4d057db30ec869f6a90f03fbc3867400992bdc77040301b48d35d0f2bcd926adfa640decaa2df53e733f17093cabee17a9d5ca2539df4bbc5d0a399018f893aa0be28848cbda7bd77f00eb731bba06cb993883dcbd59f1b9db09b80cff50a4a14aa549aa112453448e90c11eae6f73ad1c1cbf47f8a3a8df5dc36ef1ef91f25dd2760ff987460941849b51d7db5b8fe128922de6b9e9297df15c53e5c3f5346ed2a7d538c950332213aca8cdb5fa8ff91b6a7e7f828085cda0790eef9e002637f4af2afaa3d71de8e5d1b83e774caf162293c92f044fd0104c8913aaa2cd8a6a3a6bbc1f4b93c86fc4214bf04590409dd8f1cef709b2cef6a14584662ece50b60410ee52a8e252f16affd80bb48bf424bf66821ba526e46b914c008e72c1c4164250ac299977437bd9a1f2cba835430388f551a9be885e631500562ef99377f81a7a93a03783ab02f42a3816b7d2f698c003132f571e585b0e9b7d961387f1eccb3716c408a4f6c6e479004324c416bed1b53976882afd6b0a2291769d5644c423ddb3bbbfd194d7dc294ed57ba16a29790e2b0f9234076a5b4a207ee9870f1e5f0dbdc218e8c52ac0b7300320938a3a18061cb9ad50dae69a2fa2ef3ad2be079f5f2158428a9270edf9b0df117171c7e82f7232ec4bf770ee70e18e16dafed0c38e91d1fadd6075501e404bbcdab51e7a3d8e582557ded0fac9034e6f371f94584111676245387fa25af70c7a8eb6c2986b6a8464ced7ac081619f8b4457e437c59305d09f1a8012ba12fced75d9bc9d7de3703a46602461c8fb21b0c2dd57715482e7d950257db884d99df68bdd787bf27ea24a944f9ecc80dd2d4777fb2df5517e2d67d427247ffc21af7ed966d6b39015e6adffe76d928399ae07a81d0e2eea3c773543a804dc53648126d7e34fd44303ac7c47d1ddb6fe76a8bc2544380ecefdc31988dd89e32157bbaffbce8235da0d996d7da99f6969479fbf7f8fa658bcb46dccd760247592f7883e1a29673f238659bf697083cc8e2bad5da71c0ac73b7c9466cf46d2b6c36bc7d395e8e3f77ff5dd058f272294d70218539a712346dad17f577790bf81449bad5a6c66d13b055d99b328e7b4a4e433a4a3fa89e16a7b818c5518ade93586c77849959ffce4d10f8791d2fd998d17ff25d438a96469b2bd3bccc262f9d2300f6256189fa2169d0965d57a5d75439269dce09d7fab21280f31dae0f00347186df84a53e6f4363aa45cb949fba45a222df23f59c940424acb96c8372a7ad8ee2b22158ce924dccc80f6d0d32768239ed589b7ec2b04e9b3a3c2e201e8621e14424f7da9c11dd89d8ea39f3520e50e6f52a389a37fbaf38c238a0c340c2b1b83f70dd4f70f6d5dc2253f05b811ca297c5e7a9d3e93b4fa06071cc1be8024e8993a918b70f08f5ebcb3091e8dcdc577cddd015fe0094e482980cc3c567608fdab3fcf7d59d56bc0447d77e92a28c8a299d34d04df1037b7e09ed989dc2d35237c890fc4190149c63edee213f8e194148328cb4a3eda75b5deac17b3ac0fa919a8228136e55017be56f8233d2c11d23351900a761400b7d6c109d7aa9b8e6619df5f88c5c1e1690c72758b46111d76055ed03ba42d553f2540628545bb251ca45d55a1dc38c8c025c299136cb02f45b333df52f0eec5d0cc14c1b1b599a4cfee6791379559cbaa941b7aaae3a5ec3c6517d845c1e8c99b5208d2cdb0ba8000b4921615112f3e7a06add502dbb3110b56dabda8946df09fc5b9ed8a7f4b38637ede37d9244b7ebbb7e7af7b171c32e27bea6182495928e8089da3199daa7bcfda4644446411eea21aac4a239d2a7b7a8bb3664c3c6a58f0bfbdbd5a9e99914c870d83dce07051b0c4d6a36e12fd4734f4fc6c8febcfd65b03cab7ff8f03c358466557213dc57cb421fff45a87564d41f52"
        }
    },
    "waitingSinceBlock": 400000,
    "deferred": null,
    "rbfStatus": {}
}