{
    "type": "fr.acinq.lightning.channel.fsm.Closing",
    "commitments": {
        "params": {
            "channelId": "2f7c825b61cbbf0e685aef20f8923a8cd28943346e59301b629cc89b4e27cdbd",
            "channelConfig": [
                "funding_pubkey_based_channel_keypath"
            ],
            "channelFeatures": [
                "option_static_remotekey",
                "option_support_large_channel",
                "option_anchor_outputs"
            ],
            "localParams": {
                "nodeId": "037108815ff0128f7ed22640485c226d9ad64a9fd6d8b41b6623565aed6b34812c",
                "fundingKeyPath": "m/385048399/1977025879/604622566/184658546/776346346/949304342'/277944247'/2049339775'/1'",
                "dustLimit": 1100,
                "maxHtlcValueInFlightMsat": 1500000000,
                "htlcMinimum": 0,
                "toSelfDelay": 144,
                "maxAcceptedHtlcs": 100,
                "isInitiator": true,
                "defaultFinalScriptPubKey": "001405e0104aa726e34ff5cd3a6320d05c0862b5b01c",
                "features": {
                    "activated": {
                        "initial_routing_sync": "Optional",
                        "option_data_loss_protect": "Optional",
                        "gossip_queries": "Optional",
                        "gossip_queries_ex": "Optional",
                        "var_onion_optin": "Mandatory",
                        "payment_secret": "Mandatory",
                        "basic_mpp": "Optional",
                        "option_support_large_channel": "Optional",
                        "option_static_remotekey": "Mandatory",
                        "option_anchor_outputs": "Mandatory",
                        "option_channel_type": "Mandatory",
                        "option_payment_metadata": "Optional",
                        "trampoline_payment_experimental": "Optional",
                        "wake_up_notification_provider": "Optional",
                        "pay_to_open_provider": "Optional",
                        "trusted_swap_in_provider": "Optional",
                        "channel_backup_provider": "Optional"
                    },
                    "unknown": [
                    ]
                }
            },
            "remoteParams": {
                "nodeId": "0362b19a83930389b4468be40308efb3f352b23142ae25e6aba0465a8220f95b06",
                "dustLimit": 1000,
                "maxHtlcValueInFlightMsat": 1500000000,
                "htlcMinimum": 1000,
                "toSelfDelay": 144,
                "maxAcceptedHtlcs": 100,
                "revocationBasepoint": "03a42aef6d1c860caffa6c71a6f8ac2b16eec25bab0c3950cdb1fad7fb38a5f2a5",
                "paymentBasepoint": "02508e1845b8bbe0773f6bf8f3f04f59a5896426765c7b6b23e6e466c95381182b",
                "delayedPaymentBasepoint": "02d62233b7c33f8fd0911922461a651007f1de09d8c474029caa8f2c229c10de26",
                "htlcBasepoint": "03d05c8245bdc12efd8b070b22b276e7db4254f4693e22b3f7c978c08e67b36236",
                "features": {
                    "activated": {
                        "option_data_loss_protect": "Optional",
                        "initial_routing_sync": "Optional",
                        "gossip_queries": "Optional",
                        "var_onion_optin": "Mandatory",
                        "gossip_queries_ex": "Optional",
                        "option_static_remotekey": "Mandatory",
                        "payment_secret": "Mandatory",
                        "basic_mpp": "Optional",
                        "option_support_large_channel": "Optional",
                        "option_anchor_outputs": "Mandatory",
                        "option_channel_type": "Mandatory",
                        "option_payment_metadata": "Optional",
                        "wake_up_notification_client": "Optional",
                        "pay_to_open_client": "Optional",
                        "trusted_swap_in_client": "Optional",
                        "channel_backup_client": "Optional",
                        "trampoline_payment_experimental": "Optional"
                    },
                    "unknown": [
                    ]
                }
            },
            "channelFlags": 0
        },
        "changes": {
            "localChanges": {
                "proposed": [
                    {
                        "type": "fr.acinq.lightning.wire.UpdateFulfillHtlc",
                        "channelId": "2f7c825b61cbbf0e685aef20f8923a8cd28943346e59301b629cc89b4e27cdbd",
                        "id": 0,
                        "paymentPreimage": "ece8429c09332ef2f819c5886b71cc500b21956b3faa6f3ab3f9005010c9655a"
                    }
                ],
                "signed": [
                ],
                "acked": [
                ]
            },
            "remoteChanges": {
                "proposed": [
                ],
                "acked": [
                ],
                "signed": [
                ]
            },
            "localNextHtlcId": 1,
            "remoteNextHtlcId": 1
        },
        "active": [
            {
                "fundingTxIndex": 0,
                "remoteFundingPubkey": "0385cfd7d8850e4cb8fcbed57310911218e5d5e1fd34f92ef5d9db14d56418caa4",
                "localFundingStatus": {
                    "status": "unconfirmed",
                    "txId": "bdcd274e9bc89c621b30596e344389d28c3a92f820ef5a680ebfcb615b827c2f"
                },
                "remoteFundingStatus": {
                    "status": "locked"
                },
                "localCommit": {
                    "index": 1,
                    "spec": {
                        "htlcsIn": [
                            {
                                "channelId": "2f7c825b61cbbf0e685aef20f8923a8cd28943346e59301b629cc89b4e27cdbd",
                                "id": 0,
                                "amountMsat": 110000000,
                                "paymentHash": "c5be461cf5d852e51d0843a02669daa2c6bdb5936c50dd16a2eed74fb2695f2c",
                                "cltvExpiry": 400144,
                                "onionRoutingPacket": "<redacted>"
                            }
                        ],
                        "htlcsOut": [
                            {
                                "channelId": "2f7c825b61cbbf0e685aef20f8923a8cd28943346e59301b629cc89b4e27cdbd",
                                "id": 0,
                                "amountMsat": 95000000,
                                "paymentHash": "b3c444a354a0e80f8560756fb5e02aa1e8ea09eb8fefccbc2ffc778fbe1ea0fb",
                                "cltvExpiry": 400144,
                                "onionRoutingPacket": "<redacted>"
                            }
                        ],
                        "feerate": 5000,
                        "toLocal": 705000000,
                        "toRemote": 90000000
                    },
                    "publishableTxs": {
                        "commitTx": {
                            "input": {
                                "outPoint": "bdcd274e9bc89c621b30596e344389d28c3a92f820ef5a680ebfcb615b827c2f:0",
                                "txOut": {
                                    "amount": 1000000,
                                    "publicKeyScript": "00204ba42b50e089764e60e9e0c76c57e41d252d6beb976332f14a7b255bbb5322b8"
                                },
                                "redeemScript": "522102b6eaf304d966a6df90f3b3df7af7be6b1625854bbc096cb8b3507b2a37c2bf9c210385cfd7d8850e4cb8fcbed57310911218e5d5e1fd34f92ef5d9db14d56418caa452ae"
                            },
                            "tx": "020000000001012f7c825b61cbbf0e685aef20f8923a8cd28943346e59301b629cc89b4e27cdbd000000000000b77080064a0100000000000022002046672803839d10e21d43eafb532bc37cd21bd97dec7f9b50d45380cd1cce69654a01000000000000220020bbd7f17366848d8f624c28438128ce4dc8c72ea21deb0ccf25bee110920da032905f010000000000220020cb93e3adb8d213704e9a07ea2a6ce91dca51a9b76fcb6bef3cc9b5b7e10a79901873010000000000220020b5abcef667acd30c1793157728653afaf2ea391a4039bc875b6ad468cc2f603ab0ad010000000000220020c24f3aaf87264753868abbf958e8e7dc70352378c068e4c47b02fefc0acd114fa8a20a00000000002200206aae960776a0a9f526c5ea6841c28baa16a7ae997313ed417dbc55e38fe1c173040047304402202aad97bec2048a0ccb1d0b1d38083d49b1de4ea238f29c60e9a181fc120df0cb02205ca4257086803c52b273570ba6475ccf8b7ac02616f58531575f9215388c9f6301483045022100c35d93b87bb3187e29e181821f4f718c3b6faf853159937093a4430e8db8d20302200ce7aec5b5560eee2b27de3d43686c6b0ba3de5d98a939c0c5a2ee06ad51c17d0147522102b6eaf304d966a6df90f3b3df7af7be6b1625854bbc096cb8b3507b2a37c2bf9c210385cfd7d8850e4cb8fcbed57310911218e5d5e1fd34f92ef5d9db14d56418caa452aedf99dc20"
                        },
                        "htlcTxsAndSigs": [
                            {
                                "txinfo": {
                                    "type": "fr.acinq.lightning.transactions.Transactions.TransactionWithInputInfo.HtlcTx.HtlcTimeoutTx",
                                    "input": {
                                        "outPoint": "735ca47f5592a678bb13ba5ef0c27b9acf0181dbeef2073f5668022077e05d38:3",
                                        "txOut": {
                                            "amount": 95000,
                                            "publicKeyScript": "0020b5abcef667acd30c1793157728653afaf2ea391a4039bc875b6ad468cc2f603a"
                                        },
                                        "redeemScript": "76a9149166a758c8ce2d9f0c36df15d8624a3c2d0e01b08763ac67210212f485e05882dc6abe5ca535a3880a1c8b2fb10261ba27c56110d926775d73fc7c820120876475527c210202381f64b9573d9410b135c8f3e9ec876233af900152d2e42211a6aa73835ad952ae67a914f335537767c2b929f665f48046b4de72ae6e999e88ac6851b27568"
                                    },
                                    "tx": "0200000001385de077200268563f07f2eedb8101cf9a7bc2f05eba13bb78a692557fa45c730300000000010000000116660100000000002200206aae960776a0a9f526c5ea6841c28baa16a7ae997313ed417dbc55e38fe1c173101b0600",
                                    "htlcId": 0
                                },
                                "localSig": "3003b8f3d670387a33f4e443c5ad73480d15d36289a0c97a30cb188cc5c365e97d71373dd570ccad910648e1dcca5a9c814b824a4813ca1f283a9adbeef7f4b0",
                                "remoteSig": "bbc0bb252d2e03dbfefaa3fc3d50cf7bc2fef26ad8a4f3efe2a00a1a356c74382c716ce5b8e6469bbca5cbf50e403c098ea389320ad8aed4d9bf4acce2058d4a"
                            },
                            {
                                "txinfo": {
                                    "type": "fr.acinq.lightning.transactions.Transactions.TransactionWithInputInfo.HtlcTx.HtlcSuccessTx",
                                    "input": {
                                        "outPoint": "735ca47f5592a678bb13ba5ef0c27b9acf0181dbeef2073f5668022077e05d38:4",
                                        "txOut": {
                                            "amount": 110000,
                                            "publicKeyScript": "0020c24f3aaf87264753868abbf958e8e7dc70352378c068e4c47b02fefc0acd114f"
                                        },
                                        "redeemScript": "76a9149166a758c8ce2d9f0c36df15d8624a3c2d0e01b08763ac67210212f485e05882dc6abe5ca535a3880a1c8b2fb10261ba27c56110d926775d73fc7c8201208763a9140a2c4c072a7bbaf35ef47956a1f8e7c132af7f6f88527c210202381f64b9573d9410b135c8f3e9ec876233af900152d2e42211a6aa73835ad952ae677503101b06b175ac6851b27568"
                                    },
                                    "tx": "0200000001385de077200268563f07f2eedb8101cf9a7bc2f05eba13bb78a692557fa45c7304000000000100000001e69f0100000000002200206aae960776a0a9f526c5ea6841c28baa16a7ae997313ed417dbc55e38fe1c17300000000",
                                    "paymentHash": "c5be461cf5d852e51d0843a02669daa2c6bdb5936c50dd16a2eed74fb2695f2c",
                                    "htlcId": 0
                                },
                                "localSig": "49dcb8f0605d4dcecd56a23e6821f0cf9cddfbfbfef92d018fbe996c7fa2908909a53e3c36da331164c5a3763ac4332708768bfcc6936cf64c5746254e18d6f6",
                                "remoteSig": "19b2c53f5ae64336a2d6aa51500944fd3e4418be72efbc0529de32e3b1bec5e1315cc9cd535a243a6426bf482dca8cb983a8ac1441d1c7ff4c03c7194fe7c878"
                            }
                        ]
                    }
                },
                "remoteCommit": {
                    "index": 2,
                    "spec": {
                        "htlcsIn": [
                            {
                                "channelId": "2f7c825b61cbbf0e685aef20f8923a8cd28943346e59301b629cc89b4e27cdbd",
                                "id": 0,
                                "amountMsat": 95000000,
                                "paymentHash": "b3c444a354a0e80f8560756fb5e02aa1e8ea09eb8fefccbc2ffc778fbe1ea0fb",
                                "cltvExpiry": 400144,
                                "onionRoutingPacket": "<redacted>"
                            }
                        ],
                        "htlcsOut": [
                            {
                                "channelId": "2f7c825b61cbbf0e685aef20f8923a8cd28943346e59301b629cc89b4e27cdbd",
                                "id": 0,
                                "amountMsat": 110000000,
                                "paymentHash": "c5be461cf5d852e51d0843a02669daa2c6bdb5936c50dd16a2eed74fb2695f2c",
                                "cltvExpiry": 400144,
                                "onionRoutingPacket": "<redacted>"
                            }
                        ],
                        "feerate": 5000,
                        "toLocal": 90000000,
                        "toRemote": 705000000
                    },
                    "txid": "d4756e4280b3178aa6e35eb9937681a6dded4098af1f93d055c9a693686f922c",
                    "remotePerCommitmentPoint": "026c604452e1a154575f1fd5966389c2c686c0b4b72370da0b33764c66b5a8f40e"
                },
                "nextRemoteCommit": null
            }
        ],
        "inactive": [
        ],
        "payments": {
            "0": "c88282fa-5e7b-43d5-b72c-883708000c69"
        },
        "remoteNextCommitInfo": {
            "left": null,
            "right": "0312a332a6afe99e14c9dc4ab0512448441be3c4c369be8b7d37c5086682b33799"
        },
        "remotePerCommitmentSecrets": "<redacted>",
        "remoteChannelData": {
            "data": "e9be61fb16d68c464063d2c5d88736c677c9bd37b43da36ca6d66bb79d653b7b1b8ad94e7945bb46923d3ef877cceea88ce8af842c73ee0aff520db045a8b581ab19aee9837951dece8f1d6eff19f2375855135c8a517a4d6d2e9e6bccfcb4cdc90779c577b1a75cf4d9b6ff53a7b89978f5cc239c3b11bf999549151efd5f3c1a7d751276079f3eb3741b63d263b6dea7c9bc71380e88b6650f9008633f6bfeb0055932dc97f6d1fee22f24811a44cdd249c53495c2be7dbada65f67dacf95bd4812c4cb144de96459dc52612b82c8d5d57400f02a478e7411868d2ea375f27905c7c44f99f999cd4853c5d1222b8250861cd2bf18b15508e4fed4da0c9175fc56e6a79b4d386f33dc26d793cd696295bd1b7bc42d2a3ff5cecbcd59eca1861760886f762979a987d0d3b34716bf87cc7f6f5e11e894b8a69e24fe3940cb2d63431aef3994ccce6f9ab40cd1d1ca000d3d4cd261033e94458d61811b5b1d95ab485462f2c912258f134249f60eb20c66445e7f084907f787fe62053007afcf47dd225b90a8fa419cfbf94385046d6ab6932651f3d343091e41d463fd57c98383949421ab62f0ffbbea3809ecb7807703843525c29aca6265d5d156b1594e3dd6c05443303a9529429908c1a97476ffec7c1ed84f3f1ca523526c6baf7f6be3818d3f55ead9cd20062faabc6cb5d2f7653590e617cef291f46250805f9031f79bde194af796d942b67f91cce1b198d2fc44ca284fd9c56d1de1e97f8766648e7b116a2d8c0b7fc3e8d9b700d2a7376d053299a79fd70735d41d43d92421b3579063eb5cf96804e9593c598f461035f43a56a282402f0c1f10799b3c918cb93465ee33f2d153a55fc74e35ea989f4da7b8eaa27243a4f2c6e526620180b224abbaf42bb2e8d3da5600334385a3503b318e745a2e80ded0696808634c1f3bd4c1515d07dd943a31f005790a439f4737ec85be41b635a0a88f71c3333a5ef7ce68046cdc2c320ce4d55eff0f82b863ee7ee68c1a284b6bb5337330106e0845436f26d5c33f3bb63cd962100e7761399f575f2b88ef56f3b74c1f41a68badf476a3f9097c8f96a975fc16aaec9eccc5800b280c1aa73b5a2cbc036302ee374d703b963399af99872f8b15316a19915ff877c901110b253cd7bbf7c4c1caa6f5ddfe168e930e75a6547022b4931a134055183d2758689f6d2b94548718b6c870ee4748b0654a53bd68f52cd597798513e529283ead26adf043ae816f8eefc9de704bd30d612b0f421d1d7f600eb0500d5d67120ed87244c1cd07d130461aa057e6305be01dbdbc3c3aec4a8d1b188d20e2ba3493a77622f27f54652f028fc7c23694e4c1b3cbd77d5b2c362daed5b406ba5ceb9b674ce29a8a36871eb1ccecfede3f28be0e0f3bf74aef50ac240c07209e4a19aa79279c7a6d0ee04c15191292ed407775e48acfb8b47e12eedbdb94295007ad0b916fae7d4c06fb7e0beae95fa440027d35a9bc3568f0817e29674314a1397fde8f23f569a05bc231c1ab6d81dbf585e483e5f1e3a2331fd316f5232c03286caad7b3f2d8dab725c3248a6d1e092f0b95cc321c9d420d815fa78e552d4c0359a72b43068fcc195c3df93316f0a62f1844d405e510940b03c4f376b7e88059331249f97e7aea7d39397ea0947c771b18bc065f9c1b79617a340989080e5b3548493ef73670930c06bae8654eb2673f57271add34599728cddcf4a189a5ab0a10a439694e5afba886d046301756e7a155a30550a7e8bcec333efd81dfa0fd0724aad420961c94912ba8b2466d6500ace9aab7e78a31f6b8836766f788bc1be8cd6b337f49620d09c07e9519d41fa78d0d1e397cabbab03a7356c7bb271d2aa2e7c83f48527b393bcd03c18c558fd1dacfd9d2610ac779e5dd30fdf3b363480c45dc1d41fde4e2a988322525e48a756360ce7813f118fa5ae72367494d74198ac974793a9bdb5867bf5ba9be4d6df57e2ed27c85d3973a91fec28162fb2ed4b664582857e289cdafd850d8ff9071e51ca17e4f369aa5385de5579233c3ab7a1106a623272ba76ca95b53ff56054a28309419d46af37ffd0371516da829a0c6331bf1412d2c6fe3c0b467bdd16a4b74c8d5085a3af756cc8b4a6214ad7c3f3c16ab718d6bdc04812703e87c91cd19bb046d1a4053e72d5e5db028044f900edc6c780bc1dd9ac3240195ac765fd72b078248a2efffcbb6b2570633a84a8022ec1ca908f12c3990fe1667baac6a2e92d991c5538839b3614d42c642e414f0c319f9068f526bb8f46578c8cfccabbb2120ec4c6f85e618a37fa02e342011187d2074649caa3a56945ef64a64958e794fae707a9ad1d8db01be8fce080ffb14069e90afb800599867f7ffe3f3448ee35ef58519d1f537a4343f370997e5c1d6a5c24893ec2554fed73cbc205dc6a6c73142c8ecb78638edd9f9b78c35e6464c8daa73ad43ad0df80c06c9692281a522cbe9d72820f567944cf7cd98e79acf9da6ce8d2ec079cdd5a064ec378356a27160b974eb0c93f0a1eed874c6dd9c75133428bb048ea5133c1da0c2945e1dbcd1d22858550914b30510458cc45a9c518e7ee1ffddba061dae72a2f203105a14f55d8296b7969c5af6fac7d4eff9bb0c740c3840befebcc1285bf250ca009a40cbd5a07ddeaac43ebe1b3cd6a715e3540e0c589c5b1ba40638cbfa9660bd58522268c2c480bd8aefe4de0a0e23d828d7039197b5976fedecad3b1114fb56d9222111f430bc2fda7ccf415c15296fbd0142ff6da4bcbe1b2a922bd77f78a7616431e271968692ad63ca590d2b37de714c94ac00f2d7d2d017f0746d3604c35f445d186151305862a769aa67841fecf5c0569179191d3014a1977971d6f6af3155a562a66c7b7f3b0567b8fae708a401231f7fd240a458a0df3c64c3ed3b75ac2914252d5fe2078a6f73cf358e3cc63e1b8e2295f6a5421693cce2d2b75cf96ce9047bbcb6510fc493ae3dc7b351b6ea0d48fb9fc4608c43bc37ed6a2169be3821fd5e10cba97c6052329965a149007ea9c4a2b65b269acbe72373fa092b607a17a1b39e1df438459a179011a718eb6e60c2926ace34c8c9ff70d29f389de90ae6ec95a12fbc179bd4cd010e7f5fb4048db92c7168513f2a2ddc2e6047d9bedb25bd35caac540b4e7f22fcf0c8acd0b7bc97b4d719accf3126f06473d1a892c7c60ae989332abf4ed47785b63809db98b65c94556bbda9eff2dbd21fde24b24fdd6f30a1bf0cac372fac580a0aed482fa331ba4f8cde993bb8b3c85f960e9a98f4c0ee386cc520785ace7e26671640e1a6dbfbd2aa35e0f1eccd12a041bf2bce62d114048f2dc7109ebd182debe8ada5be4025993f31f208acf6acb8bd99050441ca57047898061f3fc2d0239535f6b990ae133e9723e0b95522078765352b37c3d3f24237ab003c42c33c211a968b38ed8f01ea3f5072af95a5cac8457299734ed6bafb14f5d76df8aeaf8f134b19a4a886e5fed2b17074a43f8e9657375c4fd285c36268532e9eb6609e110107539c61a86cbc59fb4594874d9eeeaa36f4f3326afb214dc408e6adf9fa7d161fcb2112f865052263b1a46d38caa6ee5084a3ab4dd00c54336a0131c344b59028cf7dcb6f5f8bd36482301585cce7996f86d30878050b12cd8813ffd5771211185d1349caa7b2c727921158ba9f3daa870708c1b8e0cb7d63089b7aff76ef473f42c981dd2f4566031299f5445e66eca2fac24430f6ad15b039567d2078831328f89854ae898e1b3357c5f747eda1847af70bf653448c9cb7bb4df8679a8a55911b049164a6526bb8bb727d0901b19dd7460d69710e1bd507a308f114afae0bc53d342e4428387b1bf40c4964ae8fc02f91744d99ef8f11e9cbeddb48fd9e4c7ee004dfb8dd02e03c7989cc9cef5822ae2564dab46d09b123390a6783033f244510852bb3daac5e6160ce87e23247b2c8ce2ab8f80f8801f2d8767d3b13b7fc831c8ccdad6b06dd93df07495e7b3bcab93f3948cd5a25221b4138dd648e5f92ddc1f4fb82aa7eb043b610c92ca1c6727a668591a21e24c8c9624101e63d5c3721ec5b1ac2a681940ca9852dd22f274c566693d911c81035327730f547cf5ddf4167c7c1a19accf53e874fbea5c377cb512eca084499c5619110e50108fe96b4803871b70947487e7d3c2d6cf2ffc5413f50e294e65efa98a893d4730cf7ebaf8316fa21e912f3a13122dbf4672f51d0f5b7e0c2e369a6195b7c7acd78a12c31eac9cfcb4b4292f9f3b6187b8bb9c09713daa4f7fd44a8136e65314c594c0578e5397f4d7b357e8c4525e62c445bbe8787187f663b8c965ca8dc285d5cd8fcdf4c6abb6077195bfc91d0111fc230a294d299ef6e6a92be63a1391d4a3f78115fbd62e4baf7f7ec6f44043b7ccfd19b7c91f18de11c97ff4fab4b107da0ee971546ad4b506217422f97a6680f3907c7658038e4136795bd34d4679372bf14ac98d871f0c70f488d6514320dcb94723ab8c40de45431f6b1396feefc87b2f444fe6419ca4e135d9243c1879dd46f17207176afa9eed87c31bc1822455b427e6190df6f1d3d8c38ace10e93e1695b1eef13b43a17b1aff27f723d203bcaf5b60762bacb24b6369f2e724895a06c05257a5ab644180e701df34bc0a5b188f849c623533106ac6f6ccea8661b9fe18b627394acd4d6380bc125d833920083257b0849843e00b0f719740738d08d08e77975fc2f5c900cd27c1c07a301f7dd23a34de19f18a0e58f98af08c305cce74285ccc1ae97ffe557a9a7428d4991825004a4bf388a1931725905472f0ae800679a4172441377e6c0916c0459a896b496c0db738fedeb557188e83ec9f20b1d8ea8adfb24127e65a174e3ed331a5bca2a2bd3e0bf967c073437070a5e24afcebaad9cfcfd2fa1bfa03e7707da8aa815d7d3b880460199507fa489330e62a678ff976f74a822d77265ded6e8a672fe141e41a856b02183444ee5708d62b4719d257c091762d9da8f07d5c69027710e9d672393a576c766fe4808932c4349cf0d80ee6479ee3ac64da259cf23b588456e7aa6de6857801f3c4d6ef1d631367e547d837560bd69af5cda7cb3592910a279361b039abba970e5aba31d1c3ada4a67fb400a56d8d697da736a8001bf5083103682ceccd6c360058bdefb41c85d02704812a2102016649399f8dc69db1b7930049ba43dcc6cd9ba208b19f0a1efa3b5a968f2b7f"
        }
    },
    "waitingSinceBlock": 400000,
    "remoteCommitPublished": {
        "commitTx": "020000000001012f7c825b61cbbf0e685aef20f8923a8cd28943346e59301b629cc89b4e27cdbd000000000000b77080064a0100000000000022002046672803839d10e21d43eafb532bc37cd21bd97dec7f9b50d45380cd1cce69654a01000000000000220020bbd7f17366848d8f624c28438128ce4dc8c72ea21deb0ccf25bee110920da032905f010000000000220020d0b9e19e805ad1211c8395712a4225729e443223fbb3444537b6c93f5fa36839187301000000000022002018f3224d69b1cc3fbb44bd3779eb2bb07c6c5dc9722fd99f9cd6da90c4f9bd45b0ad0100000000002200206c71102142c7c3090165e8d136f64fda559496481a26e89019fc7964812fdfada8a20a0000000000220020958bb43c9e6d1b985001c2f4dc38d286d7fde78bb04d7ec5a5ae44d8ebf0c40c04004730440220784da0cd9f8ec26ce8562955e4be1585ed1e1a2d5374f45dc1ce16f7ca7a663502202f1ab8222f0500c42b0f5d18e0beb3c321cce581f3ad6acc6a6b2a0bed81b20a01473044022001ab716f317e3f7faad7f3fbe85931ae091ac4d4377dd57f9ab3997172ea87d5022003296e024cd0183d506e35b7c53afa7927aa096792f8b148b4d14442f40c70c50147522102b6eaf304d966a6df90f3b3df7af7be6b1625854bbc096cb8b3507b2a37c2bf9c210385cfd7d8850e4cb8fcbed57310911218e5d5e1fd34f92ef5d9db14d56418caa452aedc99dc20",
        "claimMainOutputTx": {
            "type": "fr.acinq.lightning.transactions.Transactions.TransactionWithInputInfo.ClaimRemoteCommitMainOutputTx.ClaimRemoteDelayedOutputTx",
            "input": {
                "outPoint": "d4756e4280b3178aa6e35eb9937681a6dded4098af1f93d055c9a693686f922c:5",
                "txOut": {
                    "amount": 697000,
                    "publicKeyScript": "0020958bb43c9e6d1b985001c2f4dc38d286d7fde78bb04d7ec5a5ae44d8ebf0c40c"
                },
                "redeemScript": "210368434fc548cb471f7ed8c94638433bfb07cceb97665c411450fdc23c60236409ad51b2"
            },
            "tx": "020000000001012c926f6893a6c955d0931faf9840eddda6817693b95ee3a68a17b380426e75d40500000000010000000164910a000000000016001405e0104aa726e34ff5cd3a6320d05c0862b5b01c0247304402205bb72a4fd8e914e7aba520619a54d0cd779ec9647ba72c54fdab0e54c1da11bc022063ffa6b8076065342fc47c93b798bd994bf49310e104da4eb59b49b6a2dc978d0125210368434fc548cb471f7ed8c94638433bfb07cceb97665c411450fdc23c60236409ad51b200000000"
        },
        "claimHtlcTxs": {
            "d4756e4280b3178aa6e35eb9937681a6dded4098af1f93d055c9a693686f922c:3": {
                "type": "fr.acinq.lightning.transactions.Transactions.TransactionWithInputInfo.ClaimHtlcTx.ClaimHtlcTimeoutTx",
                "input": {
                    "outPoint": "d4756e4280b3178aa6e35eb9937681a6dded4098af1f93d055c9a693686f922c:3",
                    "txOut": {
                        "amount": 95000,
                        "publicKeyScript": "002018f3224d69b1cc3fbb44bd3779eb2bb07c6c5dc9722fd99f9cd6da90c4f9bd45"
                    },
                    "redeemScript": "76a9144bc82f683182df0dfb7441eebf776d306e4a24b18763ac672102237b0ff4c7cebfe68597200ca321c1f9b22abb87abb410a17b5fd2761a4834ee7c8201208763a914f335537767c2b929f665f48046b4de72ae6e999e88527c210315c10c4284a807e9391607a2ae007537b038beab2cd21e942e134a0e352778a852ae677503101b06b175ac6851b27568"
                },
                "tx": "020000000001012c926f6893a6c955d0931faf9840eddda6817693b95ee3a68a17b380426e75d403000000000100000001b05d01000000000016001405e0104aa726e34ff5cd3a6320d05c0862b5b01c034730440220692f6fb2a23fc5b854b316f4d194611b22e6d53b93f66e14e8775641e4055301022049ac0d4d7152c7f9d47646ebdadf774728fc05707c98981c27723e11617cd5bb01008e76a9144bc82f683182df0dfb7441eebf776d306e4a24b18763ac672102237b0ff4c7cebfe68597200ca321c1f9b22abb87abb410a17b5fd2761a4834ee7c8201208763a914f335537767c2b929f665f48046b4de72ae6e999e88527c210315c10c4284a807e9391607a2ae007537b038beab2cd21e942e134a0e352778a852ae677503101b06b175ac6851b27568101b0600",
                "htlcId": 0
            },
            "d4756e4280b3178aa6e35eb9937681a6dded4098af1f93d055c9a693686f922c:4": {
                "type": "fr.acinq.lightning.transactions.Transactions.TransactionWithInputInfo.ClaimHtlcTx.ClaimHtlcSuccessTx",
                "input": {
                    "outPoint": "d4756e4280b3178aa6e35eb9937681a6dded4098af1f93d055c9a693686f922c:4",
                    "txOut": {
                        "amount": 110000,
                        "publicKeyScript": "00206c71102142c7c3090165e8d136f64fda559496481a26e89019fc7964812fdfad"
                    },
                    "redeemScript": "76a9144bc82f683182df0dfb7441eebf776d306e4a24b18763ac672102237b0ff4c7cebfe68597200ca321c1f9b22abb87abb410a17b5fd2761a4834ee7c820120876475527c210315c10c4284a807e9391607a2ae007537b038beab2cd21e942e134a0e352778a852ae67a9140a2c4c072a7bbaf35ef47956a1f8e7c132af7f6f88ac6851b27568"
                },
                "tx": "020000000001012c926f6893a6c955d0931faf9840eddda6817693b95ee3a68a17b380426e75d404000000000100000001449701000000000016001405e0104aa726e34ff5cd3a6320d05c0862b5b01c034730440220222ca89b2d89b86f84a652b29911e4f0e31b1ee78c51a000b257eadbf727e1670220666d80ae4d33bdca1fe0ca79e65f413acf2faa21ea92515b4e9c3c66a89ec9a50120ece8429c09332ef2f819c5886b71cc500b21956b3faa6f3ab3f9005010c9655a8876a9144bc82f683182df0dfb7441eebf776d306e4a24b18763ac672102237b0ff4c7cebfe68597200ca321c1f9b22abb87abb410a17b5fd2761a4834ee7c820120876475527c210315c10c4284a807e9391607a2ae007537b038beab2cd21e942e134a0e352778a852ae67a9140a2c4c072a7bbaf35ef47956a1f8e7c132af7f6f88ac6851b27568101b0600",
                "htlcId": 0
            }
        },
        "irrevocablySpent": {
            "bdcd274e9bc89c621b30596e344389d28c3a92f820ef5a680ebfcb615b827c2f:0": "020000000001012f7c825b61cbbf0e685aef20f8923a8cd28943346e59301b629cc89b4e27cdbd000000000000b77080064a0100000000000022002046672803839d10e21d43eafb532bc37cd21bd97dec7f9b50d45380cd1cce69654a01000000000000220020bbd7f17366848d8f624c28438128ce4dc8c72ea21deb0ccf25bee110920da032905f010000000000220020d0b9e19e805ad1211c8395712a4225729e443223fbb3444537b6c93f5fa36839187301000000000022002018f3224d69b1cc3fbb44bd3779eb2bb07c6c5dc9722fd99f9cd6da90c4f9bd45b0ad0100000000002200206c71102142c7c3090165e8d136f64fda559496481a26e89019fc7964812fdfada8a20a0000000000220020958bb43c9e6d1b985001c2f4dc38d286d7fde78bb04d7ec5a5ae44d8ebf0c40c04004730440220784da0cd9f8ec26ce8562955e4be1585ed1e1a2d5374f45dc1ce16f7ca7a663502202f1ab8222f0500c42b0f5d18e0beb3c321cce581f3ad6acc6a6b2a0bed81b20a01473044022001ab716f317e3f7faad7f3fbe85931ae091ac4d4377dd57f9ab3997172ea87d5022003296e024cd0183d506e35b7c53afa7927aa096792f8b148b4d14442f40c70c50147522102b6eaf304d966a6df90f3b3df7af7be6b1625854bbc096cb8b3507b2a37c2bf9c210385cfd7d8850e4cb8fcbed57310911218e5d5e1fd34f92ef5d9db14d56418caa452aedc99dc20",
            "d4756e4280b3178aa6e35eb9937681a6dded4098af1f93d055c9a693686f922c:3": "020000000001012c926f6893a6c955d0931faf9840eddda6817693b95ee3a68a17b380426e75d403000000000100000001b05d01000000000016001405e0104aa726e34ff5cd3a6320d05c0862b5b01c034730440220692f6fb2a23fc5b854b316f4d194611b22e6d53b93f66e14e8775641e4055301022049ac0d4d7152c7f9d47646ebdadf774728fc05707c98981c27723e11617cd5bb01008e76a9144bc82f683182df0dfb7441eebf776d306e4a24b18763ac672102237b0ff4c7cebfe68597200ca321c1f9b22abb87abb410a17b5fd2761a4834ee7c8201208763a914f335537767c2b929f665f48046b4de72ae6e999e88527c210315c10c4284a807e9391607a2ae007537b038beab2cd21e942e134a0e352778a852ae677503101b06b175ac6851b27568101b0600",
            "d4756e4280b3178aa6e35eb9937681a6dded4098af1f93d055c9a693686f922c:4": "020000000001012c926f6893a6c955d0931faf9840eddda6817693b95ee3a68a17b380426e75d404000000000100000001449701000000000016001405e0104aa726e34ff5cd3a6320d05c0862b5b01c034730440220222ca89b2d89b86f84a652b29911e4f0e31b1ee78c51a000b257eadbf727e1670220666d80ae4d33bdca1fe0ca79e65f413acf2faa21ea92515b4e9c3c66a89ec9a50120ece8429c09332ef2f819c5886b71cc500b21956b3faa6f3ab3f9005010c9655a8876a9144bc82f683182df0dfb7441eebf776d306e4a24b18763ac672102237b0ff4c7cebfe68597200ca321c1f9b22abb87abb410a17b5fd2761a4834ee7c820120876475527c210315c10c4284a807e9391607a2ae007537b038beab2cd21e942e134a0e352778a852ae67a9140a2c4c072a7bbaf35ef47956a1f8e7c132af7f6f88ac6851b27568101b0600"
        }
    }
}