{
    "type": "fr.acinq.lightning.channel.states.Closing",
    "commitments": {
        "params": {
            "channelId": "2f7c825b61cbbf0e685aef20f8923a8cd28943346e59301b629cc89b4e27cdbd",
            "channelConfig": [
                "funding_pubkey_based_channel_keypath"
            ],
            "channelFeatures": [
                "option_support_large_channel",
                "option_static_remotekey",
                "option_anchor_outputs",
                "zero_reserve_channels",
                "zero_conf_channels"
            ],
            "localParams": {
                "nodeId": "037108815ff0128f7ed22640485c226d9ad64a9fd6d8b41b6623565aed6b34812c",
                "fundingKeyPath": "m/385048399/1977025879/604622566/184658546/776346346/949304342'/277944247'/2049339775'/1'",
                "dustLimit": 1100,
                "maxHtlcValueInFlightMsat": 1500000000,
                "htlcMinimum": 0,
                "toSelfDelay": 144,
                "maxAcceptedHtlcs": 100,
                "isInitiator": true,
                "defaultFinalScriptPubKey": "001405e0104aa726e34ff5cd3a6320d05c0862b5b01c",
                "features": {
                    "activated": {
                        "initial_routing_sync": "Optional",
                        "option_data_loss_protect": "Optional",
                        "gossip_queries": "Optional",
                        "gossip_queries_ex": "Optional",
                        "var_onion_optin": "Mandatory",
                        "payment_secret": "Mandatory",
                        "basic_mpp": "Optional",
                        "option_support_large_channel": "Optional",
                        "option_static_remotekey": "Mandatory",
                        "option_anchor_outputs": "Mandatory",
                        "option_channel_type": "Mandatory",
                        "option_payment_metadata": "Optional",
                        "trampoline_payment_experimental": "Optional",
                        "wake_up_notification_provider": "Optional",
                        "pay_to_open_provider": "Optional",
                        "trusted_swap_in_provider": "Optional",
                        "channel_backup_provider": "Optional"
                    },
                    "unknown": [
                    ]
                }
            },
            "remoteParams": {
                "nodeId": "0362b19a83930389b4468be40308efb3f352b23142ae25e6aba0465a8220f95b06",
                "dustLimit": 1000,
                "maxHtlcValueInFlightMsat": 1500000000,
                "htlcMinimum": 1000,
                "toSelfDelay": 144,
                "maxAcceptedHtlcs": 100,
                "revocationBasepoint": "03a42aef6d1c860caffa6c71a6f8ac2b16eec25bab0c3950cdb1fad7fb38a5f2a5",
                "paymentBasepoint": "02508e1845b8bbe0773f6bf8f3f04f59a5896426765c7b6b23e6e466c95381182b",
                "delayedPaymentBasepoint": "02d62233b7c33f8fd0911922461a651007f1de09d8c474029caa8f2c229c10de26",
                "htlcBasepoint": "03d05c8245bdc12efd8b070b22b276e7db4254f4693e22b3f7c978c08e67b36236",
                "features": {
                    "activated": {
                        "option_data_loss_protect": "Optional",
                        "initial_routing_sync": "Optional",
                        "gossip_queries": "Optional",
                        "var_onion_optin": "Mandatory",
                        "gossip_queries_ex": "Optional",
                        "option_static_remotekey": "Mandatory",
                        "payment_secret": "Mandatory",
                        "basic_mpp": "Optional",
                        "option_support_large_channel": "Optional",
                        "option_anchor_outputs": "Mandatory",
                        "option_channel_type": "Mandatory",
                        "option_payment_metadata": "Optional",
                        "wake_up_notification_client": "Optional",
                        "pay_to_open_client": "Optional",
                        "trusted_swap_in_client": "Optional",
                        "channel_backup_client": "Optional",
                        "trampoline_payment_experimental": "Optional"
                    },
                    "unknown": [
                    ]
                }
            },
            "channelFlags": 0
        },
        "changes": {
            "localChanges": {
                "proposed": [
                    {
                        "type": "fr.acinq.lightning.wire.UpdateFulfillHtlc",
                        "channelId": "2f7c825b61cbbf0e685aef20f8923a8cd28943346e59301b629cc89b4e27cdbd",
                        "id": 0,
                        "paymentPreimage": "0a0b4fd37634872e99533be8219b7b69fad29b55f562427c198841fe448a3fa4"
                    },
                    {
                        "type": "fr.acinq.lightning.wire.UpdateFulfillHtlc",
                        "channelId": "2f7c825b61cbbf0e685aef20f8923a8cd28943346e59301b629cc89b4e27cdbd",
                        "id": 1,
                        "paymentPreimage": "c2e300bc51b0df81a16d4271a1bb291f5e46a52001de84d20dbe60572bfcbbab"
                    }
                ],
                "signed": [
                    {
                        "type": "fr.acinq.lightning.wire.UpdateAddHtlc",
                        "channelId": "2f7c825b61cbbf0e685aef20f8923a8cd28943346e59301b629cc89b4e27cdbd",
                        "id": 2,
                        "amountMsat": 20000000,
                        "paymentHash": "fd25b31fd47f9633be82bf51dacf048b9592b42ed1ffb3c9c2ddd37351697413",
                        "cltvExpiry": 400144,
                        "onionRoutingPacket": "<redacted>"
                    }
                ],
                "acked": [
                ]
            },
            "remoteChanges": {
                "proposed": [
                ],
                "acked": [
                ],
                "signed": [
                ]
            },
            "localNextHtlcId": 3,
            "remoteNextHtlcId": 2
        },
        "active": [
            {
                "fundingTxIndex": 0,
                "remoteFundingPubkey": "0385cfd7d8850e4cb8fcbed57310911218e5d5e1fd34f92ef5d9db14d56418caa4",
                "localFundingStatus": {
                    "status": "unconfirmed",
                    "txId": "bdcd274e9bc89c621b30596e344389d28c3a92f820ef5a680ebfcb615b827c2f"
                },
                "remoteFundingStatus": {
                    "status": "locked"
                },
                "localCommit": {
                    "index": 1,
                    "spec": {
                        "htlcsIn": [
                            {
                                "channelId": "2f7c825b61cbbf0e685aef20f8923a8cd28943346e59301b629cc89b4e27cdbd",
                                "id": 0,
                                "amountMsat": 10000000,
                                "paymentHash": "d28cb22a6271c5710811d244e75a0d1ab476dc35db269a6c9d1d8da364224d47",
                                "cltvExpiry": 400144,
                                "onionRoutingPacket": "<redacted>"
                            },
                            {
                                "channelId": "2f7c825b61cbbf0e685aef20f8923a8cd28943346e59301b629cc89b4e27cdbd",
                                "id": 1,
                                "amountMsat": 12000000,
                                "paymentHash": "a70d3a78c0aebb9a797a3be74f45f8a092c2a15c01a45b482f61b2ae560d0e6f",
                                "cltvExpiry": 400144,
                                "onionRoutingPacket": "<redacted>"
                            }
                        ],
                        "htlcsOut": [
                            {
                                "channelId": "2f7c825b61cbbf0e685aef20f8923a8cd28943346e59301b629cc89b4e27cdbd",
                                "id": 0,
                                "amountMsat": 20000000,
                                "paymentHash": "a7eefe6395b2fef677cdc493f4a6a21d57c0fc0bf96250c327d5b92f32d9b2d2",
                                "cltvExpiry": 400144,
                                "onionRoutingPacket": "<redacted>"
                            },
                            {
                                "channelId": "2f7c825b61cbbf0e685aef20f8923a8cd28943346e59301b629cc89b4e27cdbd",
                                "id": 1,
                                "amountMsat": 15000000,
                                "paymentHash": "69414f76b2028ea1577739f22315fdbe7e55cde1d5290879c11180a4129c95ab",
                                "cltvExpiry": 400144,
                                "onionRoutingPacket": "<redacted>"
                            }
                        ],
                        "feerate": 5000,
                        "toLocal": 765000000,
                        "toRemote": 178000000
                    },
                    "publishableTxs": {
                        "commitTx": {
                            "input": {
                                "outPoint": "bdcd274e9bc89c621b30596e344389d28c3a92f820ef5a680ebfcb615b827c2f:0",
                                "txOut": {
                                    "amount": 1000000,
                                    "publicKeyScript": "00204ba42b50e089764e60e9e0c76c57e41d252d6beb976332f14a7b255bbb5322b8"
                                },
                                "redeemScript": "522102b6eaf304d966a6df90f3b3df7af7be6b1625854bbc096cb8b3507b2a37c2bf9c210385cfd7d8850e4cb8fcbed57310911218e5d5e1fd34f92ef5d9db14d56418caa452ae"
                            },
                            "tx": "020000000001012f7c825b61cbbf0e685aef20f8923a8cd28943346e59301b629cc89b4e27cdbd000000000000b77080084a0100000000000022002046672803839d10e21d43eafb532bc37cd21bd97dec7f9b50d45380cd1cce69654a01000000000000220020bbd7f17366848d8f624c28438128ce4dc8c72ea21deb0ccf25bee110920da0321027000000000000220020dcb30d6a2f2d4b21e5b65464e8254696ac36e858a51001f7b201cc8b5f9fd053e02e0000000000002200206f05b50d227c1925ee599a7b9e0542268b0eab9c09b44f4abd0a04cd8429ec54983a000000000000220020459e3a42f3cb4ee61f1bc037be0a0678a13ba76f81bcf8cb3c73405f29912fab204e0000000000002200200a26b988cc1f9a5e2be56a122b9409031c24ebb5aaacf58d84f9f8cb97d3291050b7020000000000220020cb93e3adb8d213704e9a07ea2a6ce91dca51a9b76fcb6bef3cc9b5b7e10a799050860b00000000002200206aae960776a0a9f526c5ea6841c28baa16a7ae997313ed417dbc55e38fe1c1730400483045022100cd5fde20faa1d444078842ae26b3b18e49d96204484963cb94e1b88aa720364d02202c33211d63ab514cdefae2683503790741a5cb0939be9a8252e41bb34dff36f701483045022100c25c87388e91e411355e9059292e858928b03c331fa6f8420a90cc8482237d5802207d6764430cc881811b8b5d48d6c3e64906458ee09ce55c61af58dfa57e598c400147522102b6eaf304d966a6df90f3b3df7af7be6b1625854bbc096cb8b3507b2a37c2bf9c210385cfd7d8850e4cb8fcbed57310911218e5d5e1fd34f92ef5d9db14d56418caa452aedf99dc20"
                        },
                        "htlcTxsAndSigs": [
                            {
                                "txinfo": {
                                    "type": "fr.acinq.lightning.transactions.Transactions.TransactionWithInputInfo.HtlcTx.HtlcSuccessTx",
                                    "input": {
                                        "outPoint": "5def32053e7f13610e4f8ada9cbfd6212f2aeb6d44cf85098586d9e1a7a8ef2d:2",
                                        "txOut": {
                                            "amount": 10000,
                                            "publicKeyScript": "0020dcb30d6a2f2d4b21e5b65464e8254696ac36e858a51001f7b201cc8b5f9fd053"
                                        },
                                        "redeemScript": "76a9149166a758c8ce2d9f0c36df15d8624a3c2d0e01b08763ac67210212f485e05882dc6abe5ca535a3880a1c8b2fb10261ba27c56110d926775d73fc7c8201208763a9143eaae3985730c9fa1e2c7a9973fa6c2dde566e2588527c210202381f64b9573d9410b135c8f3e9ec876233af900152d2e42211a6aa73835ad952ae677503101b06b175ac6851b27568"
                                    },
                                    "tx": "02000000012defa8a7e1d986850985cf446deb2a2f21d6bf9cda8a4f0e61137f3e0532ef5d0200000000010000000146190000000000002200206aae960776a0a9f526c5ea6841c28baa16a7ae997313ed417dbc55e38fe1c17300000000",
                                    "paymentHash": "d28cb22a6271c5710811d244e75a0d1ab476dc35db269a6c9d1d8da364224d47",
                                    "htlcId": 0
                                },
                                "localSig": "2bfdc6c19d76f92c8ed4dd7342b67b395ce60c3b8860e19cbefcabc61d1e18d8243cc251c1f1372cbdcbfb7c1aa3a8112500685e8eb5fbd7f23787e9771c2761",
                                "remoteSig": "771ab44a415de64e1ed488009d4d595ca38a2351510111795ec8bb868a7d128467432d124feea54f9028534ae6adc7c004df25162f3a92c50c981595241b3abc"
                            },
                            {
                                "txinfo": {
                                    "type": "fr.acinq.lightning.transactions.Transactions.TransactionWithInputInfo.HtlcTx.HtlcSuccessTx",
                                    "input": {
                                        "outPoint": "5def32053e7f13610e4f8ada9cbfd6212f2aeb6d44cf85098586d9e1a7a8ef2d:3",
                                        "txOut": {
                                            "amount": 12000,
                                            "publicKeyScript": "00206f05b50d227c1925ee599a7b9e0542268b0eab9c09b44f4abd0a04cd8429ec54"
                                        },
                                        "redeemScript": "76a9149166a758c8ce2d9f0c36df15d8624a3c2d0e01b08763ac67210212f485e05882dc6abe5ca535a3880a1c8b2fb10261ba27c56110d926775d73fc7c8201208763a9145e40a45bfc495659019ffa2aeb7bf19ad857bb4988527c210202381f64b9573d9410b135c8f3e9ec876233af900152d2e42211a6aa73835ad952ae677503101b06b175ac6851b27568"
                                    },
                                    "tx": "02000000012defa8a7e1d986850985cf446deb2a2f21d6bf9cda8a4f0e61137f3e0532ef5d0300000000010000000116210000000000002200206aae960776a0a9f526c5ea6841c28baa16a7ae997313ed417dbc55e38fe1c17300000000",
                                    "paymentHash": "a70d3a78c0aebb9a797a3be74f45f8a092c2a15c01a45b482f61b2ae560d0e6f",
                                    "htlcId": 1
                                },
                                "localSig": "1db6634af7b83589a82f042d7844c92427918fc14f5a07fd481cb5e7627494563edfa79579a297feda39d0c1dadf1e5474a8ed6dab3b09cd24d7e1bdce6fbfac",
                                "remoteSig": "fc468edafeb689124f65503d2a5342174bc3e353c4660ac4c2a6db739a0d9aa964b6654b2e7e3bc1636862ae0711d1382009634dc597cba8f80de891bf8c8976"
                            },
                            {
                                "txinfo": {
                                    "type": "fr.acinq.lightning.transactions.Transactions.TransactionWithInputInfo.HtlcTx.HtlcTimeoutTx",
                                    "input": {
                                        "outPoint": "5def32053e7f13610e4f8ada9cbfd6212f2aeb6d44cf85098586d9e1a7a8ef2d:4",
                                        "txOut": {
                                            "amount": 15000,
                                            "publicKeyScript": "0020459e3a42f3cb4ee61f1bc037be0a0678a13ba76f81bcf8cb3c73405f29912fab"
                                        },
                                        "redeemScript": "76a9149166a758c8ce2d9f0c36df15d8624a3c2d0e01b08763ac67210212f485e05882dc6abe5ca535a3880a1c8b2fb10261ba27c56110d926775d73fc7c820120876475527c210202381f64b9573d9410b135c8f3e9ec876233af900152d2e42211a6aa73835ad952ae67a9149c58316bb601fd2f51936625aff0a885dd097f6088ac6851b27568"
                                    },
                                    "tx": "02000000012defa8a7e1d986850985cf446deb2a2f21d6bf9cda8a4f0e61137f3e0532ef5d04000000000100000001962d0000000000002200206aae960776a0a9f526c5ea6841c28baa16a7ae997313ed417dbc55e38fe1c173101b0600",
                                    "htlcId": 1
                                },
                                "localSig": "b67d1331000323ad99608f63bda251954d6e9db835de6b35cb1986692bca8d853218ef903983c7b715bb6782c9e970088942461acf0d9fa88f52e27966225604",
                                "remoteSig": "08b9fe1bb40e54da35e2f3db2dfd177b4b17ce43a17fc2500b97ed6237bdaa45371000da3cd262057d7e604221ed01c94107933f31c168c21056994faebb57e7"
                            },
                            {
                                "txinfo": {
                                    "type": "fr.acinq.lightning.transactions.Transactions.TransactionWithInputInfo.HtlcTx.HtlcTimeoutTx",
                                    "input": {
                                        "outPoint": "5def32053e7f13610e4f8ada9cbfd6212f2aeb6d44cf85098586d9e1a7a8ef2d:5",
                                        "txOut": {
                                            "amount": 20000,
                                            "publicKeyScript": "00200a26b988cc1f9a5e2be56a122b9409031c24ebb5aaacf58d84f9f8cb97d32910"
                                        },
                                        "redeemScript": "76a9149166a758c8ce2d9f0c36df15d8624a3c2d0e01b08763ac67210212f485e05882dc6abe5ca535a3880a1c8b2fb10261ba27c56110d926775d73fc7c820120876475527c210202381f64b9573d9410b135c8f3e9ec876233af900152d2e42211a6aa73835ad952ae67a91406e01cab66017410c68d1dcb19e9ba6be598d48788ac6851b27568"
                                    },
                                    "tx": "02000000012defa8a7e1d986850985cf446deb2a2f21d6bf9cda8a4f0e61137f3e0532ef5d050000000001000000011e410000000000002200206aae960776a0a9f526c5ea6841c28baa16a7ae997313ed417dbc55e38fe1c173101b0600",
                                    "htlcId": 0
                                },
                                "localSig": "6a37e38305a929a5348626ab6e770e84e84b8ecd15252b0902850fc30882d81a0577b451be8a02637a03b7fe1fc5f581a547628d4672ccd235feaced0a2ff395",
                                "remoteSig": "84050fd4025857a84b82b2f1dc8e9f8ba7f67bd8933409c33fe1869f5c821b6d07b962b5c72050d1c70108550aebee20c427fd6cd924ae85a7d069ec612e06fa"
                            }
                        ]
                    }
                },
                "remoteCommit": {
                    "index": 2,
                    "spec": {
                        "htlcsIn": [
                            {
                                "channelId": "2f7c825b61cbbf0e685aef20f8923a8cd28943346e59301b629cc89b4e27cdbd",
                                "id": 0,
                                "amountMsat": 20000000,
                                "paymentHash": "a7eefe6395b2fef677cdc493f4a6a21d57c0fc0bf96250c327d5b92f32d9b2d2",
                                "cltvExpiry": 400144,
                                "onionRoutingPacket": "<redacted>"
                            },
                            {
                                "channelId": "2f7c825b61cbbf0e685aef20f8923a8cd28943346e59301b629cc89b4e27cdbd",
                                "id": 1,
                                "amountMsat": 15000000,
                                "paymentHash": "69414f76b2028ea1577739f22315fdbe7e55cde1d5290879c11180a4129c95ab",
                                "cltvExpiry": 400144,
                                "onionRoutingPacket": "<redacted>"
                            }
                        ],
                        "htlcsOut": [
                            {
                                "channelId": "2f7c825b61cbbf0e685aef20f8923a8cd28943346e59301b629cc89b4e27cdbd",
                                "id": 0,
                                "amountMsat": 10000000,
                                "paymentHash": "d28cb22a6271c5710811d244e75a0d1ab476dc35db269a6c9d1d8da364224d47",
                                "cltvExpiry": 400144,
                                "onionRoutingPacket": "<redacted>"
                            },
                            {
                                "channelId": "2f7c825b61cbbf0e685aef20f8923a8cd28943346e59301b629cc89b4e27cdbd",
                                "id": 1,
                                "amountMsat": 12000000,
                                "paymentHash": "a70d3a78c0aebb9a797a3be74f45f8a092c2a15c01a45b482f61b2ae560d0e6f",
                                "cltvExpiry": 400144,
                                "onionRoutingPacket": "<redacted>"
                            }
                        ],
                        "feerate": 5000,
                        "toLocal": 178000000,
                        "toRemote": 765000000
                    },
                    "txid": "22753caa57b8ea006edfce1f75ed9be27612ee63ae3e50785ea12fab69263611",
                    "remotePerCommitmentPoint": "026c604452e1a154575f1fd5966389c2c686c0b4b72370da0b33764c66b5a8f40e"
                },
                "nextRemoteCommit": {
                    "sig": {
                        "channelId": "2f7c825b61cbbf0e685aef20f8923a8cd28943346e59301b629cc89b4e27cdbd",
                        "signature": "84ef9f5b45f000d2f7c87e40544c65ec97fcef4abc29046bbeeecc97ab28cce36d464c8bbea53b0e640c64d796c4c0d73f6bb8f3cfed13d5126c0e29035c71bf",
                        "htlcSignatures": [
                            "0337cc94c39b6749a5a21f629ed3b78373e4859cd4bcc48ec71ffdabb37049a403a333590962cecf60086d59eb9cf88fb0b46636377d27b834cee867dea40e9d",
                            "7be9546168fdc1e6440491cf4086b0642badcea85f5144fa5156c526ec723bcb4791fbfcae5cb3d12ffa30f641046fe7411688d577da18a11a0a938ede92556e",
                            "a81f03e68e8934681867f19e02a5af39bc05af7a32f38a4fa4ccb8d3e018d0e54995b229bad4cda7ec1592047fc9b1c2e6acc2b48628961c89c3a50854f584ad",
                            "2762983e8939f33273c2bdcaac4d9437a9f8f748140b0a0c30ffd6fadf216f5c4f4d9531b1bc5e27b4ee6937465067c86c91b3cdf75a14b10556d84577e1c6f6",
                            "b88daf0ff21e84739d7842fd4b2c645f63dcfa41bf75d967e906730404aa02ea49de08ab115779c2959a5169fac6038e77b79f92ff843ffaa7c5fac38fc49ee9"
                        ]
                    },
                    "commit": {
                        "index": 3,
                        "spec": {
                            "htlcsIn": [
                                {
                                    "channelId": "2f7c825b61cbbf0e685aef20f8923a8cd28943346e59301b629cc89b4e27cdbd",
                                    "id": 0,
                                    "amountMsat": 20000000,
                                    "paymentHash": "a7eefe6395b2fef677cdc493f4a6a21d57c0fc0bf96250c327d5b92f32d9b2d2",
                                    "cltvExpiry": 400144,
                                    "onionRoutingPacket": "<redacted>"
                                },
                                {
                                    "channelId": "2f7c825b61cbbf0e685aef20f8923a8cd28943346e59301b629cc89b4e27cdbd",
                                    "id": 1,
                                    "amountMsat": 15000000,
                                    "paymentHash": "69414f76b2028ea1577739f22315fdbe7e55cde1d5290879c11180a4129c95ab",
                                    "cltvExpiry": 400144,
                                    "onionRoutingPacket": "<redacted>"
                                },
                                {
                                    "channelId": "2f7c825b61cbbf0e685aef20f8923a8cd28943346e59301b629cc89b4e27cdbd",
                                    "id": 2,
                                    "amountMsat": 20000000,
                                    "paymentHash": "fd25b31fd47f9633be82bf51dacf048b9592b42ed1ffb3c9c2ddd37351697413",
                                    "cltvExpiry": 400144,
                                    "onionRoutingPacket": "<redacted>"
                                }
                            ],
                            "htlcsOut": [
                                {
                                    "channelId": "2f7c825b61cbbf0e685aef20f8923a8cd28943346e59301b629cc89b4e27cdbd",
                                    "id": 0,
                                    "amountMsat": 10000000,
                                    "paymentHash": "d28cb22a6271c5710811d244e75a0d1ab476dc35db269a6c9d1d8da364224d47",
                                    "cltvExpiry": 400144,
                                    "onionRoutingPacket": "<redacted>"
                                },
                                {
                                    "channelId": "2f7c825b61cbbf0e685aef20f8923a8cd28943346e59301b629cc89b4e27cdbd",
                                    "id": 1,
                                    "amountMsat": 12000000,
                                    "paymentHash": "a70d3a78c0aebb9a797a3be74f45f8a092c2a15c01a45b482f61b2ae560d0e6f",
                                    "cltvExpiry": 400144,
                                    "onionRoutingPacket": "<redacted>"
                                }
                            ],
                            "feerate": 5000,
                            "toLocal": 178000000,
                            "toRemote": 745000000
                        },
                        "txid": "9269a688c278f4d86b79a545287703dd31e28f2099ad99f54a38f2292f8cc82c",
                        "remotePerCommitmentPoint": "0312a332a6afe99e14c9dc4ab0512448441be3c4c369be8b7d37c5086682b33799"
                    }
                }
            }
        ],
        "inactive": [
        ],
        "payments": {
            "0": "d6ad5565-c4cb-454a-a05f-398ed8d8127b",
            "1": "cb0ca39b-c603-4952-a45b-70f119c594c3",
            "2": "3a7ed472-a671-4ee4-9659-47818a48b3e3"
        },
        "remoteNextCommitInfo": {
            "left": {
                "sentAfterLocalCommitIndex": 1
            },
            "right": null
        },
        "remotePerCommitmentSecrets": "<redacted>",
        "remoteChannelData": {
            "data": "3ebc7e07fd1b8f9867602ebb7f28ca9e58ad885cc8f9fbd46d6763a170c3298e795f4d66cbd379de86e5ec4477eaf84b6b37fe10ad1ea371a9098007d7b0ce89e9d899f7c06af85bba8edaacd4b0979a78aa5eadb44a4796de8d7f4891cdbebdbf1c9e39225821fcde020711899cd535d5bc4c65c1883d9e242158d51097051cf5af8fee1844b2078e598dc8361e22351898e494963fadfd2bd4f7abab133043646172ef05949d4e34aa330ecffad25ab616ac4160b6811f77559c822f767d7249e91040b2123bbdd6f1d090f75e939ab89c35d2b0d0379f0c63bf9e45bdfcb87a0308b81e2301f213f7a785daf2da042a5ae048900026db6392d8468d3f060b83e2152d052f998559682bb7e41e0b8e453d1943392e1c3e2a15c92547901d41025b1581bf99c7ef254b0143f4f94f6ef72a08e8ba5a1f05b7130e33cebde1401013555611d24bc85d5a370568ca4d6c5c0abf36e1c9e0c79dfbc6c3954da9f6f9ef8292199582112d1b702976bb06a7042306c61a2766c69e913e7e40b21120a44c12db60a6b79fa94c5c9162d1db369b679babd2cfd8963c14b98fd314bafaf1fd45b4f88fda28d8039466b59f9cd9e1ed182ad9643d9611de15b3bfa4eab92aa0925c68745872fd4d23bc53a9fd5229604b431ff019757f8a6e96531b780001af81b14b6f8d11e138d323ba2aa0ea46fb4f7b06c9521943e56425199dfdcafccee05b2aad74f881f9e25073e7cc8709100d4ef1ac51b363ffbf2a3587337f13d3ec93711a93b273bc24dd0281f6ee53fd35336e39a99c5a01e337345bf72a6e9af8760d805a6bfaaacbe62772e06cd78b051f1bcb62d420e51dfdbbf860889f87191178a28408c6049cd94439d47ea25ee95e5a930970831e02200871ddfe525a334240236b5f5c8e2212ff3c1206f66e5610fbd8581d0fc4bf35939f6e643c627b298ac9e483b276c89e6fb0516d02b2680e9cd18122877a8df4d888e8323711ea433476d1e50ab83c65f6c7660a4b7679e55f9b7fbd06eced16cb56d4ba9b3ba2a49e8c3d7df98b34136bb9748799053c4ba112c29413a8c97ff599123bae383901f40b9016b4dcc930fbc9a9399d1cd98e8f711ab15fee118ba4d4f446adb97dfddddf1b4f50329aa8c76e1ff6fc66d6b780b7d36320bf6ca0265047cc0d9ed4f94939f57809792f99933587c7090b4a9946ca1e7cde98d95ce04ef40c1dd6511f477dff5ad3142e0eac2945e13d030fb25cb850ac47d35b3bb4f0be1c6edbff695e593ddba1b875942359a9f6d4ae8b1396a4f81aadbbad371c826d5e3a1cf0e6f0ba5cd2ab011f974de4e45dcdfd471721ce7ce6a26d09a22f78a7b9688a344d7fe75f5c9ad945b033e357079598b5fae7860957cf2fe53be7698efb4929418eaf5fc29ebd82fb97a19ee210340b85f2cea0c7281b3dd9b31115f18b41b6908e27a88540fcd176001e258022979ec18d269037b345fa6ba34bcad72af9559b95afb85429f58ceda03189b2baf28a8787c634b8c4b3779e05a045d98a22aca6b31fdc13d60aff2b0b11426a4d0376b1d1dd8b79f403123bbd92dc65b85aab7ca8e72555f390d149f4b0441aaece4eccace4a553c0587ff7cdb4e9b6be120de0b086f08928b0704575618d917ba7aac4e99f17f779f29c324c40cd99f52b73fd22b9baefd2b764c363250dbd151748067f390389a3f4fdb6cb7d5e03ec5170850a0a5254d5fc04a705f33c37b8414ca349e2c04429e6a816e1d1cf6a1eaa9125f34ea3eba3dab66a3bea64374b33ea50ed259edefc028e2c2aa0b2deb365b7cf6769fb13edc5cbf81cac1e9053c8fccc469c7f0ce783d636e8751fd5daad83048acaef83c09ecbb70e856e09ff42e5992d7c690cd855eb83ef00af41f8b22201dbedd0f22034b9b275a4936e1c8c9d5313e32bef3622eff2818726e179e514e5497ef8272263c0e5ede9a1932142d86217f395b64ef85ffbe267f2f369386c82dcbef705a63cb60b6b1466f9671263dace21063d7f9895eedcc627ec10f2b9974ea3c3b67ff6b88744ce015e124efabad9328e7949ac41cb509eb5319ab3c2299cdebc349be011ad152d44cb37577e1e3e3ae63ca0c9d295be661e7e518767a435a79ec995621c128cbffe9f45c2d0a32ca30d2ba0d548e1f0e09b2b34940f09401f14752da945fcb00e152d38feb5038bceee6c6bd9ea84be96262d611293b235a0b81f94d562364c08de25c7483a4b8613d0f88b44560d814fd8bca53fa2b97f099efd498d15f4d7ba9220689dd1717c3504ed3be2d57558c3fbab2d44556b3eecc09e2d5207b7da9f8e6713f3e2e05d71b705e7933ebf32718cf477c73318c691ee89c88fae55c90f3455326cc02c0ad35b7466ab72e61d1ccbc10cf4406d42b8c6adaf0c1539641d6718ed12b2c68200673768a281210edaed7205e282f723fbfdb7154c1cc3d0d0d8a8fad1c7e72478971f901b4e48265303abd3d6643c63cc5dca1b18e97755dca4ad96c7e46309be99e8ce527ee67213498ea5a8a6f24d26a170798b295d7d8b33d57d46410c45db148101468e34ae50703e8f07035fafdd96fc422994787ff3af23ca48068edcb423eaa21d5c84774bf8b39eb9eaa03f5207ec582184859f1d7cca53361f909b8f347940cf90c0a3f203ab43701b0a4908becf26ccaab822c0a288fead67f0e42bb6469320a7eed448e78275a5a43a84805abc18f0888bd1237fa52418a8cb54743437eb24d2662e211962165d4eb227a2d18473878b8cf3e13ea93021c8ec90ef7499cb6fc5fb4344c6eeccaf87b42d0d8e74b66d0061b75f18cc7849687550b1392abd36a4ec4ec8e6ec597c4b4221517f43611cee2158e2cc3809dc08ac517e676774479c9985680b95108be4ef1a9bbf691c3975bcc16a90b7bf02c8933dab05e33454e91256176e6021381e9b234a003877990488b0eb4894e650a558f48adc85907f7fb6c6a599540947ccc10c98ac8683b65d875811c1251092395bb39f7f7f14db38885122c6138fc9cd5f9968424efaa0fe836fb3365af5b8d567025752746deb64ff4b01f4a5cfe8fb6fde3bc7aa8b1e5ccd080fbab1d7fc1611d2c8a41f3fc045903b6a2d3e3867580b1b556c209bc31175a83c2d08e7956ed34e6d2cc27fd35b408b346046474167bfad3573e68b7ddc9cc43d9f2fba79bc32e9f744dfdc9dac599929f915bd66546c2d11c95d25b3c01f4ea32c43baa7bbcbcd74e814655548791be3e270925c6253634b0483d5e173871854c43469351195ddaaf979ccf27d2f66c2daec40d43c4ceac176cc288af03ba9ea22e455b3780976e856dc97375a2d221d75072f0a6a06fb6000a6665920b927c16bf1ab634025232e4b9367d508bdd820695ae42547ffcb259cedb6b08614a8888e689d4f1d67a761c46750476a0a2bd27c0727c522c8c18dd36a5327b416d44011b879d2ca123e5bb28158d214469e84d83e7fc17b36b653a88b0c24fea35fb093ce6dcc2dbeb21ec5b07c3564cd5c76327dd0cd7de00bc335fe2d381d7adb1611f21c761001595912776b0d234ae3c50048ce48ed8a09211991ba76ecbf6d6c5cb421c1ea0da50ea08bb60c4ede8c6e954568a854ce749bdce255ebe6bb42a5a82081cf86a888dfbe73d6a5d1b0b5cf72c5962cf668904349eead8c90d35fe65090e427e89d592f86ed789c5c0a89b2fb3d598f46b1d0cd20da0d68d2a516469ebaad5e720b58129518fd4563920230ac5cfb2324574d535fe3dc2a7fc5918d5a8618642f49a662bb47ae777d83985ff056c93129c9824b9d695ae5ea4ea7206ac9a81593509779225b6ed672bacc016a29256931364ac9df106abec4b1f5b873de86b754ee6d4a19d46e1a2688078a41f43d9bb442457542d20382e9a8b5380fb2b125dc7711de44ea6b52b386cddb6a88df25fa844b7a99c3d3f7024d1ef0f2af016d9bd8e227cd29d8de66982a229a05d50139e5f7c07efca97af92169175f1627b15da635177ec7fb3a2944ff0b22c0cf49fbcfa4c386d849411435e8ca216a07e09a544af117c2dda6aebd29e0c681ddf628c76875b3c2b8479d42bacb1c7d04aaed235d8d68ae96e07d47e900571e0491f59a274f3060dfa214d51e492c7cfc6ed2f6f031e7ac40f1cbc841f51961e00cd96dfc7f54237302cc21c5c5bf1b90d10743d1706781fa814dcb26cf153809c9ef03ace017949fd9abb8e0b90abc4dcd62dc9c9ee1960ef25aba359bb3e5f5dabc4f2a17b1f4f81b59b9db227adfd3adaec80e19565ff7f8edaafb4dbb6db1bebfb5c17897fc131d3e08dfd861b8a08fb5cbeb5e4a3a20b8761e79c783e9983e63527692ab97ff60ffc476d2bef1b13f66b9959e78843de25e0f829ab1ad814a67bb332d161ce3097c182d7f8cd5fcaaf4bb2ec626ea02826e2cf422731cf895d4c1f5d311d3c597e56be118c421c0593352b3deab77c88b718b32eb85aae3e2f017e97f391b5f5b1cc918d5149753735a2b51353dfb8b83be0169b79079d18dd806db4ca6be007def35573db4ff4c2c8dd904fe0c97462ed6b171dc0b1b53aacaefa79f4925d7946aff85c97886bae218d2a17a2dc666925bf81f694ac2cf6869b6878cf9d0c8b6e74e53d0a387040b585fa2462b517e63aafbb95c12ce892b12b3d73d5d97412e98d94728fb8aef96f3c31b1ee46cbccd202222bc28bde5dffee3ba83932ad8b20e1a3fc93a97ac059e8287a1686eee5ff5ac375becbf8f7e1d3c34cce14b2cfb12a35fde9a840802a0cd121fc4b544c4c94dd9fc2251749b4efd64f26aa3ba46fc9c39f66f4ec2e9a3de5d8c43341ddac0c2fed83d01a7d5356af924ae47169eb46676580270a1e4429624db6c630d2acb02260946082c45fcfd16fb6f618dfbbe1f0d14b804facf2bac2ae43f515c04d2cf4cc1103e6323037b6b0c74e5ab3e6cbeeaeb6fda9e9c21ced7db1d94aaedbaee4246555a4fbcc0ae6f0713d9100a1d04de3bed37cccf78af8bb427c89b113c52fc7032629fb37fe802d8c7e3961d5a7b6183be5475a5a53a1ef520895c284cfeafda109c23e0705d39d978b997868a3b91ef3930685b6e406f98ec9952c35bdb144b8e5a172367b4dd6428a69b4b1020bf4e4dee1413114807582a6347240ac26b374bb0b4edb9c29f0cd6d08c997df10558d97efb5b09a8648b0b0ffd367ed9a25af40e98a6f2a965ce0fcc138571a0c488273ba8fc935f16dd4a97f8"
        }
    },
    "waitingSinceBlock": 400000,
    "nextRemoteCommitPublished": {
        "commitTx": "020000000001012f7c825b61cbbf0e685aef20f8923a8cd28943346e59301b629cc89b4e27cdbd000000000000b77080094a0100000000000022002046672803839d10e21d43eafb532bc37cd21bd97dec7f9b50d45380cd1cce69654a01000000000000220020bbd7f17366848d8f624c28438128ce4dc8c72ea21deb0ccf25bee110920da032102700000000000022002035aa4e20460bedda8259e3e8177fa8411ccf6b5bd97495e8b24be8a926f41f04e02e000000000000220020b7432d935669b861b9e52afa2d907114a16a8f59183f9c9deca804564102a28c983a000000000000220020e73823f9a60b72c99746e99ddb4497d8a7413f40f0f82b51b28b4988208e0bbc204e00000000000022002046d508b9c29eeebaf3644440c7b7ca5eb51ee3e8017527b6c38c99f324d206fc204e0000000000002200204a034388d897e59aff4a04944803ed4248a6ce7c65d868f4b4318022be79e2c050b70200000000002200208c57ba9667b49d1f0fca9594b3f034b4df9269218a3725fe5995ae844f5c4fabd4340b0000000000220020958bb43c9e6d1b985001c2f4dc38d286d7fde78bb04d7ec5a5ae44d8ebf0c40c040048304502210084ef9f5b45f000d2f7c87e40544c65ec97fcef4abc29046bbeeecc97ab28cce302206d464c8bbea53b0e640c64d796c4c0d73f6bb8f3cfed13d5126c0e29035c71bf0147304402207319270dd7bcc7141dae5b2221e74800adc377a38cb4ac2754dd1c5e568d84f902202e2cc92a2fd5775789cb4b4868466316b4235378d79c987231de0e35ab1d794e0147522102b6eaf304d966a6df90f3b3df7af7be6b1625854bbc096cb8b3507b2a37c2bf9c210385cfd7d8850e4cb8fcbed57310911218e5d5e1fd34f92ef5d9db14d56418caa452aedd99dc20",
        "claimMainOutputTx": {
            "type": "fr.acinq.lightning.transactions.Transactions.TransactionWithInputInfo.ClaimRemoteCommitMainOutputTx.ClaimRemoteDelayedOutputTx",
            "input": {
                "outPoint": "9269a688c278f4d86b79a545287703dd31e28f2099ad99f54a38f2292f8cc82c:8",
                "txOut": {
                    "amount": 734420,
                    "publicKeyScript": "0020958bb43c9e6d1b985001c2f4dc38d286d7fde78bb04d7ec5a5ae44d8ebf0c40c"
                },
                "redeemScript": "210368434fc548cb471f7ed8c94638433bfb07cceb97665c411450fdc23c60236409ad51b2"
            },
            "tx": "020000000001012cc88c2f29f2384af599ad99208fe231dd03772845a5796bd8f478c288a669920800000000010000000190230b000000000016001405e0104aa726e34ff5cd3a6320d05c0862b5b01c02483045022100f439377db1480ff124f91aeba0b60e733de570aa72b32f7a6de4446a8cfa74230220666ef424d2c96fa10e0cef8003d79c4c6bc9aba6b9ce14774a56c2b150d315280125210368434fc548cb471f7ed8c94638433bfb07cceb97665c411450fdc23c60236409ad51b200000000"
        },
        "claimHtlcTxs": {
            "9269a688c278f4d86b79a545287703dd31e28f2099ad99f54a38f2292f8cc82c:5": {
                "type": "fr.acinq.lightning.transactions.Transactions.TransactionWithInputInfo.ClaimHtlcTx.ClaimHtlcTimeoutTx",
                "input": {
                    "outPoint": "9269a688c278f4d86b79a545287703dd31e28f2099ad99f54a38f2292f8cc82c:5",
                    "txOut": {
                        "amount": 20000,
                        "publicKeyScript": "002046d508b9c29eeebaf3644440c7b7ca5eb51ee3e8017527b6c38c99f324d206fc"
                    },
                    "redeemScript": "76a914345461a3a21432ea61f48bea4412057dc24b272a8763ac6721031dc1f1516d613673de288ff136eac49e8fa290d2a90d624b185e5cea77c34a247c8201208763a91406e01cab66017410c68d1dcb19e9ba6be598d48788527c2102de3a59784d9da6e7609e2059372f4f8500f4a76f4d479b38c0b0ab02064e39a952ae677503101b06b175ac6851b27568"
                },
                "tx": "020000000001012cc88c2f29f2384af599ad99208fe231dd03772845a5796bd8f478c288a6699205000000000100000001b83800000000000016001405e0104aa726e34ff5cd3a6320d05c0862b5b01c03473044022008bde06cf61f275fd694e276f88330bf9cf3a698668b92decfde18fd38a6b8e702207d76b7a69beb3f1db60d755cc0b0c972c82163d0761a84d6027953504c01ad7c01008e76a914345461a3a21432ea61f48bea4412057dc24b272a8763ac6721031dc1f1516d613673de288ff136eac49e8fa290d2a90d624b185e5cea77c34a247c8201208763a91406e01cab66017410c68d1dcb19e9ba6be598d48788527c2102de3a59784d9da6e7609e2059372f4f8500f4a76f4d479b38c0b0ab02064e39a952ae677503101b06b175ac6851b27568101b0600",
                "htlcId": 0
            },
            "9269a688c278f4d86b79a545287703dd31e28f2099ad99f54a38f2292f8cc82c:4": {
                "type": "fr.acinq.lightning.transactions.Transactions.TransactionWithInputInfo.ClaimHtlcTx.ClaimHtlcTimeoutTx",
                "input": {
                    "outPoint": "9269a688c278f4d86b79a545287703dd31e28f2099ad99f54a38f2292f8cc82c:4",
                    "txOut": {
                        "amount": 15000,
                        "publicKeyScript": "0020e73823f9a60b72c99746e99ddb4497d8a7413f40f0f82b51b28b4988208e0bbc"
                    },
                    "redeemScript": "76a914345461a3a21432ea61f48bea4412057dc24b272a8763ac6721031dc1f1516d613673de288ff136eac49e8fa290d2a90d624b185e5cea77c34a247c8201208763a9149c58316bb601fd2f51936625aff0a885dd097f6088527c2102de3a59784d9da6e7609e2059372f4f8500f4a76f4d479b38c0b0ab02064e39a952ae677503101b06b175ac6851b27568"
                },
                "tx": "020000000001012cc88c2f29f2384af599ad99208fe231dd03772845a5796bd8f478c288a6699204000000000100000001302500000000000016001405e0104aa726e34ff5cd3a6320d05c0862b5b01c0347304402200f3081e0e90f220107b802f8dfde0c048425311d536fcd8bddadfc7fc5faf08e02200899bd1a3998148e0f65b3febf1e75978df2677fd2746530b544efdfec6528b401008e76a914345461a3a21432ea61f48bea4412057dc24b272a8763ac6721031dc1f1516d613673de288ff136eac49e8fa290d2a90d624b185e5cea77c34a247c8201208763a9149c58316bb601fd2f51936625aff0a885dd097f6088527c2102de3a59784d9da6e7609e2059372f4f8500f4a76f4d479b38c0b0ab02064e39a952ae677503101b06b175ac6851b27568101b0600",
                "htlcId": 1
            },
            "9269a688c278f4d86b79a545287703dd31e28f2099ad99f54a38f2292f8cc82c:2": {
                "type": "fr.acinq.lightning.transactions.Transactions.TransactionWithInputInfo.ClaimHtlcTx.ClaimHtlcSuccessTx",
                "input": {
                    "outPoint": "9269a688c278f4d86b79a545287703dd31e28f2099ad99f54a38f2292f8cc82c:2",
                    "txOut": {
                        "amount": 10000,
                        "publicKeyScript": "002035aa4e20460bedda8259e3e8177fa8411ccf6b5bd97495e8b24be8a926f41f04"
                    },
                    "redeemScript": "76a914345461a3a21432ea61f48bea4412057dc24b272a8763ac6721031dc1f1516d613673de288ff136eac49e8fa290d2a90d624b185e5cea77c34a247c820120876475527c2102de3a59784d9da6e7609e2059372f4f8500f4a76f4d479b38c0b0ab02064e39a952ae67a9143eaae3985730c9fa1e2c7a9973fa6c2dde566e2588ac6851b27568"
                },
                "tx": "020000000001012cc88c2f29f2384af599ad99208fe231dd03772845a5796bd8f478c288a6699202000000000100000001a41000000000000016001405e0104aa726e34ff5cd3a6320d05c0862b5b01c0347304402202ee3b2d4cb607970e67ac26f9a00c4df1f7778587010b8c15df6e05f8cafb96f022071a2ed05fc74859c4f26c49917bbbe9fe2d05c87e68cda07cd27e4af365362d901200a0b4fd37634872e99533be8219b7b69fad29b55f562427c198841fe448a3fa48876a914345461a3a21432ea61f48bea4412057dc24b272a8763ac6721031dc1f1516d613673de288ff136eac49e8fa290d2a90d624b185e5cea77c34a247c820120876475527c2102de3a59784d9da6e7609e2059372f4f8500f4a76f4d479b38c0b0ab02064e39a952ae67a9143eaae3985730c9fa1e2c7a9973fa6c2dde566e2588ac6851b27568101b0600",
                "htlcId": 0
            },
            "9269a688c278f4d86b79a545287703dd31e28f2099ad99f54a38f2292f8cc82c:3": {
                "type": "fr.acinq.lightning.transactions.Transactions.TransactionWithInputInfo.ClaimHtlcTx.ClaimHtlcSuccessTx",
                "input": {
                    "outPoint": "9269a688c278f4d86b79a545287703dd31e28f2099ad99f54a38f2292f8cc82c:3",
                    "txOut": {
                        "amount": 12000,
                        "publicKeyScript": "0020b7432d935669b861b9e52afa2d907114a16a8f59183f9c9deca804564102a28c"
                    },
                    "redeemScript": "76a914345461a3a21432ea61f48bea4412057dc24b272a8763ac6721031dc1f1516d613673de288ff136eac49e8fa290d2a90d624b185e5cea77c34a247c820120876475527c2102de3a59784d9da6e7609e2059372f4f8500f4a76f4d479b38c0b0ab02064e39a952ae67a9145e40a45bfc495659019ffa2aeb7bf19ad857bb4988ac6851b27568"
                },
                "tx": "020000000001012cc88c2f29f2384af599ad99208fe231dd03772845a5796bd8f478c288a6699203000000000100000001741800000000000016001405e0104aa726e34ff5cd3a6320d05c0862b5b01c03483045022100aa83855f4054f44aebd59c7dcdb703e64bb7a494120b90b9cc33069a6927302c02201450f8a3a8bddef00f124d31c88ea551f886fc0da6c98a20100487c33f454bd10120c2e300bc51b0df81a16d4271a1bb291f5e46a52001de84d20dbe60572bfcbbab8876a914345461a3a21432ea61f48bea4412057dc24b272a8763ac6721031dc1f1516d613673de288ff136eac49e8fa290d2a90d624b185e5cea77c34a247c820120876475527c2102de3a59784d9da6e7609e2059372f4f8500f4a76f4d479b38c0b0ab02064e39a952ae67a9145e40a45bfc495659019ffa2aeb7bf19ad857bb4988ac6851b27568101b0600",
                "htlcId": 1
            },
            "9269a688c278f4d86b79a545287703dd31e28f2099ad99f54a38f2292f8cc82c:6": {
                "type": "fr.acinq.lightning.transactions.Transactions.TransactionWithInputInfo.ClaimHtlcTx.ClaimHtlcTimeoutTx",
                "input": {
                    "outPoint": "9269a688c278f4d86b79a545287703dd31e28f2099ad99f54a38f2292f8cc82c:6",
                    "txOut": {
                        "amount": 20000,
                        "publicKeyScript": "00204a034388d897e59aff4a04944803ed4248a6ce7c65d868f4b4318022be79e2c0"
                    },
                    "redeemScript": "76a914345461a3a21432ea61f48bea4412057dc24b272a8763ac6721031dc1f1516d613673de288ff136eac49e8fa290d2a90d624b185e5cea77c34a247c8201208763a914417c810a4161766ced32d0b7c63d632934dd99d988527c2102de3a59784d9da6e7609e2059372f4f8500f4a76f4d479b38c0b0ab02064e39a952ae677503101b06b175ac6851b27568"
                },
                "tx": "020000000001012cc88c2f29f2384af599ad99208fe231dd03772845a5796bd8f478c288a6699206000000000100000001b83800000000000016001405e0104aa726e34ff5cd3a6320d05c0862b5b01c034830450221009ddbb24a6dd09fa829ae2810eb69b646afff1a7bb4aa834621b78ee768141b4b02201c117e8577dccc35c3d0a02b3d1ba3810b13e30fcf75cc9213c2a4305ba068ce01008e76a914345461a3a21432ea61f48bea4412057dc24b272a8763ac6721031dc1f1516d613673de288ff136eac49e8fa290d2a90d624b185e5cea77c34a247c8201208763a914417c810a4161766ced32d0b7c63d632934dd99d988527c2102de3a59784d9da6e7609e2059372f4f8500f4a76f4d479b38c0b0ab02064e39a952ae677503101b06b175ac6851b27568101b0600",
                "htlcId": 2
            }
        },
        "irrevocablySpent": {
            "9269a688c278f4d86b79a545287703dd31e28f2099ad99f54a38f2292f8cc82c:5": "02000000012cc88c2f29f2384af599ad99208fe231dd03772845a5796bd8f478c288a669920500000000000000000000000000",
            "bdcd274e9bc89c621b30596e344389d28c3a92f820ef5a680ebfcb615b827c2f:0": "020000000001012f7c825b61cbbf0e685aef20f8923a8cd28943346e59301b629cc89b4e27cdbd000000000000b77080094a0100000000000022002046672803839d10e21d43eafb532bc37cd21bd97dec7f9b50d45380cd1cce69654a01000000000000220020bbd7f17366848d8f624c28438128ce4dc8c72ea21deb0ccf25bee110920da032102700000000000022002035aa4e20460bedda8259e3e8177fa8411ccf6b5bd97495e8b24be8a926f41f04e02e000000000000220020b7432d935669b861b9e52afa2d907114a16a8f59183f9c9deca804564102a28c983a000000000000220020e73823f9a60b72c99746e99ddb4497d8a7413f40f0f82b51b28b4988208e0bbc204e00000000000022002046d508b9c29eeebaf3644440c7b7ca5eb51ee3e8017527b6c38c99f324d206fc204e0000000000002200204a034388d897e59aff4a04944803ed4248a6ce7c65d868f4b4318022be79e2c050b70200000000002200208c57ba9667b49d1f0fca9594b3f034b4df9269218a3725fe5995ae844f5c4fabd4340b0000000000220020958bb43c9e6d1b985001c2f4dc38d286d7fde78bb04d7ec5a5ae44d8ebf0c40c040048304502210084ef9f5b45f000d2f7c87e40544c65ec97fcef4abc29046bbeeecc97ab28cce302206d464c8bbea53b0e640c64d796c4c0d73f6bb8f3cfed13d5126c0e29035c71bf0147304402207319270dd7bcc7141dae5b2221e74800adc377a38cb4ac2754dd1c5e568d84f902202e2cc92a2fd5775789cb4b4868466316b4235378d79c987231de0e35ab1d794e0147522102b6eaf304d966a6df90f3b3df7af7be6b1625854bbc096cb8b3507b2a37c2bf9c210385cfd7d8850e4cb8fcbed57310911218e5d5e1fd34f92ef5d9db14d56418caa452aedd99dc20"
        }
    }
}