{
    "type": "fr.acinq.lightning.channel.states.Negotiating",
    "commitments": {
        "params": {
            "channelId": "2f7c825b61cbbf0e685aef20f8923a8cd28943346e59301b629cc89b4e27cdbd",
            "channelConfig": [
                "funding_pubkey_based_channel_keypath"
            ],
            "channelFeatures": [
                "option_support_large_channel",
                "option_static_remotekey",
                "option_anchor_outputs",
                "zero_reserve_channels",
                "zero_conf_channels"
            ],
            "localParams": {
                "nodeId": "037108815ff0128f7ed22640485c226d9ad64a9fd6d8b41b6623565aed6b34812c",
                "fundingKeyPath": "m/385048399/1977025879/604622566/184658546/776346346/949304342'/277944247'/2049339775'/1'",
                "dustLimit": 1100,
                "maxHtlcValueInFlightMsat": 1500000000,
                "htlcMinimum": 0,
                "toSelfDelay": 144,
                "maxAcceptedHtlcs": 100,
                "isChannelOpener": true,
                "paysCommitTxFees": true,
                "defaultFinalScriptPubKey": "001405e0104aa726e34ff5cd3a6320d05c0862b5b01c",
                "features": {
                    "activated": {
                        "initial_routing_sync": "Optional",
                        "option_data_loss_protect": "Optional",
                        "gossip_queries": "Optional",
                        "gossip_queries_ex": "Optional",
                        "var_onion_optin": "Mandatory",
                        "payment_secret": "Mandatory",
                        "basic_mpp": "Optional",
                        "option_support_large_channel": "Optional",
                        "option_static_remotekey": "Mandatory",
                        "option_anchor_outputs": "Mandatory",
                        "option_channel_type": "Mandatory",
                        "option_payment_metadata": "Optional",
                        "trampoline_payment_experimental": "Optional",
                        "wake_up_notification_provider": "Optional",
                        "pay_to_open_provider": "Optional",
                        "trusted_swap_in_provider": "Optional",
                        "channel_backup_provider": "Optional"
                    },
                    "unknown": []
                }
            },
            "remoteParams": {
                "nodeId": "0362b19a83930389b4468be40308efb3f352b23142ae25e6aba0465a8220f95b06",
                "dustLimit": 1000,
                "maxHtlcValueInFlightMsat": 1500000000,
                "htlcMinimum": 1000,
                "toSelfDelay": 144,
                "maxAcceptedHtlcs": 100,
                "revocationBasepoint": "03a42aef6d1c860caffa6c71a6f8ac2b16eec25bab0c3950cdb1fad7fb38a5f2a5",
                "paymentBasepoint": "02508e1845b8bbe0773f6bf8f3f04f59a5896426765c7b6b23e6e466c95381182b",
                "delayedPaymentBasepoint": "02d62233b7c33f8fd0911922461a651007f1de09d8c474029caa8f2c229c10de26",
                "htlcBasepoint": "03d05c8245bdc12efd8b070b22b276e7db4254f4693e22b3f7c978c08e67b36236",
                "features": {
                    "activated": {
                        "option_data_loss_protect": "Optional",
                        "initial_routing_sync": "Optional",
                        "gossip_queries": "Optional",
                        "var_onion_optin": "Mandatory",
                        "gossip_queries_ex": "Optional",
                        "option_static_remotekey": "Mandatory",
                        "payment_secret": "Mandatory",
                        "basic_mpp": "Optional",
                        "option_support_large_channel": "Optional",
                        "option_anchor_outputs": "Mandatory",
                        "option_channel_type": "Mandatory",
                        "option_payment_metadata": "Optional",
                        "wake_up_notification_client": "Optional",
                        "pay_to_open_client": "Optional",
                        "trusted_swap_in_client": "Optional",
                        "channel_backup_client": "Optional",
                        "trampoline_payment_experimental": "Optional"
                    },
                    "unknown": []
                }
            },
            "channelFlags": {
                "announceChannel": false,
                "nonInitiatorPaysCommitFees": false
            }
        },
        "changes": {
            "localChanges": {
                "proposed": [],
                "signed": [],
                "acked": []
            },
            "remoteChanges": {
                "proposed": [],
                "acked": [],
                "signed": []
            },
            "localNextHtlcId": 0,
            "remoteNextHtlcId": 0
        },
        "active": [
            {
                "fundingTxIndex": 0,
                "remoteFundingPubkey": "0385cfd7d8850e4cb8fcbed57310911218e5d5e1fd34f92ef5d9db14d56418caa4",
                "localFundingStatus": {
                    "status": "unconfirmed",
                    "txId": "bdcd274e9bc89c621b30596e344389d28c3a92f820ef5a680ebfcb615b827c2f"
                },
                "remoteFundingStatus": {
                    "status": "locked"
                },
                "localCommit": {
                    "index": 0,
                    "spec": {
                        "htlcsIn": [],
                        "htlcsOut": [],
                        "feerate": 5000,
                        "toLocal": 800000000,
                        "toRemote": 200000000
                    },
                    "publishableTxs": {
                        "commitTx": {
                            "input": {
                                "outPoint": "bdcd274e9bc89c621b30596e344389d28c3a92f820ef5a680ebfcb615b827c2f:0",
                                "txOut": {
                                    "amount": 1000000,
                                    "publicKeyScript": "00204ba42b50e089764e60e9e0c76c57e41d252d6beb976332f14a7b255bbb5322b8"
                                },
                                "redeemScript": "522102b6eaf304d966a6df90f3b3df7af7be6b1625854bbc096cb8b3507b2a37c2bf9c210385cfd7d8850e4cb8fcbed57310911218e5d5e1fd34f92ef5d9db14d56418caa452ae"
                            },
                            "tx": "020000000001012f7c825b61cbbf0e685aef20f8923a8cd28943346e59301b629cc89b4e27cdbd000000000000b77080044a0100000000000022002046672803839d10e21d43eafb532bc37cd21bd97dec7f9b50d45380cd1cce69654a01000000000000220020bbd7f17366848d8f624c28438128ce4dc8c72ea21deb0ccf25bee110920da032400d030000000000220020cb93e3adb8d213704e9a07ea2a6ce91dca51a9b76fcb6bef3cc9b5b7e10a7990781c0c00000000002200202f0860cd1fe361a1aaf5708f75b6511c92cd5a51bdaaccfbda77aead550d875104004730440220672323ca34b85c2a43e3e93ac8a642a8293b1483392f531736db975d05f3ad3c022019f7b5044cd2a230dc49484c219fd96485f98d21c6add317566f4b21816a2fb101483045022100956b481822da569bc75c1f7ab6ec34c0a1e14dd5b4701ea8473e5bfe6b6ad41702202b1a987850611c0f52cccbb6016c735a08572f61fe03616a186ca39a8b2e07970147522102b6eaf304d966a6df90f3b3df7af7be6b1625854bbc096cb8b3507b2a37c2bf9c210385cfd7d8850e4cb8fcbed57310911218e5d5e1fd34f92ef5d9db14d56418caa452aede99dc20"
                        },
                        "htlcTxsAndSigs": []
                    }
                },
                "remoteCommit": {
                    "index": 0,
                    "spec": {
                        "htlcsIn": [],
                        "htlcsOut": [],
                        "feerate": 5000,
                        "toLocal": 200000000,
                        "toRemote": 800000000
                    },
                    "txid": "6498095b8d064f46673e7c0d919636e1dff0c0a76ed61dd96938a178253ea4cb",
                    "remotePerCommitmentPoint": "02365f9a5e4822956750faa46230f54e47d4b6ef9d58eb8c488d80a5efed938d5b"
                },
                "nextRemoteCommit": null
            }
        ],
        "inactive": [],
        "payments": {},
        "remoteNextCommitInfo": {
            "left": null,
            "right": "03c57839fd412868a398bea05d01678a752661126a2d1357a0f7cb6f0c60311125"
        },
        "remotePerCommitmentSecrets": "<redacted>",
        "remoteChannelData": {
            "data": "8c0ca0219d38704b18133d3e9c6f2fff5fcba2fa4d7ddca7cd38361c62d91123930e013d96e802c4ef5e6c9cb1f101aa956ff6fd3375a525dd9a1483c4e39135fc8d732b2109b7965a03f4acb1a4b0c3e9de40ec5d0b075f0b9a6d7ee71f6fba369ba60c5de117d04338216a29a4034ab7a3fe6b162d2fffd8d8ffb1a1e120aba163590a45add7b0cb61a56acd91fa206fadece0959b20d127e7b64ee0a2dfd945bcd9b31cade08fb9dc778e101f6de98b23d805c82415b48f72bad94058c651a9bf017a75c518d7cd8975e2ee114691aab5c05c5178273744408ecbdb20119eb638019cabb65baf2f379bdabeba39fab76c027b7ef802c5561cc9d80675621aef1cc1a60d27ede5b54c40a92e71ea7579376480583bd18be60875b4789f59197c4647eb0581a6b777d0e0cbef26166cd73a501a39133f9f7d529b8cd7a67356c9509f0d0254edb193434b72e34235adddec1bb43ad0605fe92651d3f68499a96e788aed0d641e15a166eb45c181d3a71f87bd92fbd3a309026534da87120a24c8b0a87ec13bd4eae6954085b8d1b3a0b1316f8602974a2949d0daf65b915ed77c78a67d78c49d1538a2365e50da0931237df3ea18613f3dedc1ed6d73686528b7fba8a84270a88d715879630e7bf2bcfcbc26e3d02ea691aa23f7cb9db872933aed347c86068f422111c22f2d91a509792304771274dd8c34dbd645bc319ef17ebacdc42dcba613105bab6e0f520869dcab50e7591fe803a4dc1301997af79983481b803b71800d3f552ea3401dfb93e9019c4e566d7112aab6169f05e0017f522776942a2b26114fa11969daf6a761933d1650a75f1d645943e85bb0be8338721bd43671c5e6d18052420dcbff9c28ed02888e8e5bb89bbd45f3d043887289ab36bc311621a62e5c874cc333e28cc275cc4242f4e524c0ddb9f5ea9199eedb0668f21048b11f486c5ba712d5edcbea80e85148e4a51a3a1c84842ed7db02b88c121d0426335183ee62e6a20ceb1040a658e769fc261e27eafed669d7c6bd8bb58111325a8e5c1faf44ed32ceb1791a8b1d2a482a6353beb4e7a4bded388408c1bbb72823e846a16a5e65612d412dbf9a0d6c21545fb965f3d43f4e16b9a1daa885433a4dbcb45cf25e5cf8e43bfadc4c6663061fee3894da75582ed83201a1e171271c638057a9c3d8faed7036c4f7e2a6bb45ab87f102803f4b9d0ebfe6342740c5082367dc5257652edb933f96a90113775e738bcd22e97730596f3d1631bf0ef05d96c8579f1f6a503631dc79c8238cdfd1e6ba4ebdbc1a6884f455f1048d66d275fa4deeff73bea7f6611e100f7e7ec94276fb85b8fb1f47cb08b2e09e97e744f64c0733e8f9e340f2e6e2d75adf7693692de5f4360aa5f666707db1488ad6be41312689ae6e8d6f7f1113c757f9aeb690a3545493c6a26b6f01926efd9da9747d444c11d60f3da935de3007c8bf7538e696663c8aa98b1b58881f666ba00d7c619747d385e59e3f5885d6a4d1ddc70df9ca2d6c871cb6143647a194bd4ada7baf8f3421faa74dd7e18ee66d57e9281f9235e749a09ccca9b15e0a5bcc2bc49ee8aa7d9b9321e173863d40e3625412f1d0bd115e9dc07fa3addc5e6df48e3464c09b06c2fc02929fafb6b848f17e0d0f234c27280412754f651763caaa55fbf90e911b2bb64a69b1d2c79b4430bbde2f07630e635f7937d827686bcb622f287049c607944af8a3aacceaf74a7d709fecd909d99722486654d097c63781ac283347ab4f37d8d9d15f5638ae3f2780930752a8d1c19f25b904e59837464680b57901d7d09dd029bc3d0201d0929616ba5e7c7d967618678885c05da4abb1df78cbf3def8a5c7c1497a78266a62670471da7eeb65c1127275b9f534e4162bd33f4d77036a0823b0f53fb33bb6ff41f419379e4b21723feaa0d627a693625af1b1030a5436bb487fc4b8f8dda4bf513a58d44637df3901751f006e560cd8e53bf46e1512b7c449a79638bb14624af9b1409bcf301d32d4dcbf9078f2efdf356af11cdcee29fff984134de2003898cb60117ada37c2c20c963bfd337cb2c9c70b78efa746b6137fe70140aae2c7cb30697e54a5baa2a5ab4188b7ac8f4910a53f195537965e5229a41511c0a02b046a2f7b92acb0dfea2c2ab34209c04f5b92296fc4214c2644536ccf9495a79da81a53688f86a2b070f727b39e0dfa1d379c4bbaebe0d9f0c907fa90cb43383dbb033bb859e4dcb43efbcc388f1a235eb40979ef295a3bc1099aa0cf9788f776fca622dd8589079d20fd2c265e3b4d6812588ad226dfb61efb00eac0536409cb9b51d46a838dc347b8c1b9c521204f3cf99157e892ccad0a046a6c8bffebb810ef374cd7bd31d390706d53f983ade51bc920c5fbe8625fed4b34304207964e8ad12bd78c4b4590ed4d224e7f8b366bf1af81e0000b9a2543ac84a57a64d04d8be82e7888974dc4bfdc64772402952f0e0b42d4857aa7081c54f93313c74b5a5abe10615086458815ed93d226a80528383d9336dc21f8d5d40ec40c1cd954be32d8a31c777a96eef4e36bd9acedaa1fe1d806a73623e31c19992c741018f876da5b88dc8c3fffa82363273cf10952444f53308d2e6f40f52cff30b68c7dc38b56763aef19c29bb742bdf5d7b60b59a7c50075a258c9a8ab3ebb04eb7080555b5a114fb9e7ce9760f819a72217fd52b27c7beabb14a2ab837e73dbe64e31fae6b1051bb50df8d7866d38de6b119eb37bc7036f8896c096efd3b453cb9658eb72431cecb54a9c487e52ee32416a08784fae535df25a2518244d19abb78e3cc8485b5c89123c0f1cb5eca8ad96c95c6539ea14440e5d9f299bd8bba6259481b7b0401b3b5b26d0e755c996da5f9668ddc76ab96c61f83233e24b3fa6b27114799f3ac0d17951883cb1cdad6ab72384a1f821d9ffffb728aa288d6aaacb93558bfba2ec59e67fc67ecf278eb11ac844894f67aa4bc4799da7bd39644096fe737b81d6adc69dbc06f4a153b5b6c3e57e544fec36deeffdc9e24a194a8e1abed5a361f5131c38d6e0cf05b86886a217283c865aca2919a6d46886ece53bd43cc5af069619fb12c812f92c007df3b504c66e7f10a593fdd8d3c4e6a8c743ced232732ad438a667df097bac7566de7fdc85225845545b189d85a83b18d4053f3c6fc2105fbba0e254c2a5c753b97d1791045630527672f82eadeaec0db03c3f880377de04e1b7cbf09fbf87c04def97cd8dee544581e877788f21b7567a955dfd7a06a816dc7ac11529400acb16abf4e7730f16c3312ac43a84b62e9aed266134ef2ee0db3bf2aedbc12f838eec6d0f1427defe77bdb650aa5398dd4989b94b9236a70e68d48c2e4f5bab36312fd1f1e4593cd9995878fd6a2b12515c0d41c9f0aeaac69fb77a013d8d4704ab4a173574d595edc90882c1bf947e9fdbe0ab1d680e3b4ec6e497cdd6a8e00e8dc9bca52066997d1c973ba27aadbe36876f1011dc11d6835acbbe5c7cfd6c3204b2a44dbf89b9715fd4797cf4200a4ca858705f624a1b48d75e166a1cb0c68e8dc0c994d69e199835e9f62f9b24167f28781f2f35ea1149f53bbda63bcb27b74f0e3e4704026e84e873306de2300488e9a182d2e85e46ac04b89c94277bc1f883a7047f62d117e45055bba398612091e9fcd4bbdd0d15e4b41c97898d9acdf904aa6cf144ef62ef7dd26f755c2fe353ed5eff1aef005ab99b7e355111a9ba5c5d03874914526e0356bc78f09543d6419e87be1df37d34393b12f87c676f49556a6ae5c91c194bbecf27936a91f3688a501c2ccb9a32fea57e195d3b0e0fd0b4640840400ec086678ee67ba0bd774de3c111979708409207e4d4bd1dce2321b77ccc71127be8318fe92e6ec730a47112bd069c9cad37361f693d07a90b0a37e5875938b06d6370d1f1c1c280bfd83fc5e2d0b803e467eacfd37c48ca37721193859cd499653f5dfd78c26e4b181e82b5005cac0e9bd55fb2850dd4c70cc1e3fe5c81167336f36839fce30f245061191282585ff911c9e4af395ad4cf77b6e4f17d389ae8fbd61a3a3a4e73ccae0716507afa7ac4d0f2349c3aa56f47b6aa78806d7c20b50e125ee329921ffe96f8123d3e4be8be89b2318b6e016c385728b7a02f7dbb14552e2863453c33e3854047e6d8f84fe9f56c9200962025182d418580a294a0d09e9740e187e3be88236f62542b56bf08f72a859ae8a809e78a90e86b9b2cde799f9cca6049d5f49e97365744bede14be8cf680175cca275444e37327ea04d624faed898e0fc7751f1ac7d6241d93472c2d6ee8925fedc9169539799701174a81d3d6e00a9ac9647286d08b6c982c6baf86810d1e9f91c581f0c755273009389019bcb68a7ffbb4f0bc7de1ec45004c93f1a04a8c4cb60490654f616250c14bb54e9fe1fa1ad866830451afe98559d3e0e85073c2950d181feeb935c6cb69962a644ba8736535c11e7a9efbc17e9669b1c232985e9c5eaad29618ad9f461f1438d8c35c691d3d3bf80642a11f57cbf19ec1a7e63b2289d7c0e178052b6b344267d99e018c3f724f44ac465097ddea64d35e36c78736cfe6488991c4469d25b132db3560744e418be6ef3452ab5a73f66205e1ba67944cf1a556e60b037fb9ec6579f8638be744e075e0fc99722bcfc40efaf603c00e16b714ada2b7390cf2e9867df6c5961d96cb63298037df5f20e69b3b4bd2d2a24f68c48e02538fc1b2723fff9b52f18012d2024c40bfefb202b6292065b2cafb67aa1539e9d8b96ca039cc08e232fbb44cb46d7ce5017b14cd7f4e4e1675c2bd0b8d74958ac3c1232134d91dd02d701eef4ab953237b548f289f7e9ff902e7b39c40226596037271dd3296865618fd62a0abe228adb4286217b6049d157bd3a91b8997730fb29f0b086c9a0cd56f7f0ad198eedf098c86371570db86a7e2e972d58c8baee2e9e7aa34534e3f11e210d21ab8bb9de9517910e67d24881c8d2a72baa26b440bcdba17aa1c0d3448e3b78c62ad09bdf8a686af48107386c8a2fe1e8b575f9be0780a642305e9e9147f93fbc71447780dda6bc865d3412e5aecf0e842603bf65f059c9a3c3515ed949152e68d386415aaad1e8048be59bef3e4bab26d9cdc15a81a84f51dad584db81558c2c12c0728b0a028ea4729b6f032585d45feae6bc12e237febab2bef1117c366380078d163de200e03fa31640e9e927737f2679c8104f74b7ac4d36e32bd4a7d84632a2cf95e161fb3b5fa81321d5afe02467f059d13f440a03592a3f2b2ee93f667e2ed66559ef53cd734bed10b16062d6581be18e4717cf8837443653a5ffe6da47a73883210b7129bd1543b745f5ada684a84003f8955ae9150126f22397d5e38c814899b67"
        }
    },
    "localScript": "001405e0104aa726e34ff5cd3a6320d05c0862b5b01c",
    "remoteScript": "76a9143a52c0fc59997d1e53009d607e3d93ca56b1014c88ac",
    "proposedClosingTxs": [],
    "publishedClosingTxs": [],
    "waitingSinceBlock": 0,
    "closeCommand": null
}