{
    "type": "fr.acinq.lightning.channel.states.Closing",
    "commitments": {
        "params": {
            "channelId": "2f7c825b61cbbf0e685aef20f8923a8cd28943346e59301b629cc89b4e27cdbd",
            "channelConfig": [
                "funding_pubkey_based_channel_keypath"
            ],
            "channelFeatures": [
                "option_static_remotekey",
                "option_support_large_channel",
                "option_anchor_outputs"
            ],
            "localParams": {
                "nodeId": "037108815ff0128f7ed22640485c226d9ad64a9fd6d8b41b6623565aed6b34812c",
                "fundingKeyPath": "m/385048399/1977025879/604622566/184658546/776346346/949304342'/277944247'/2049339775'/1'",
                "dustLimit": 1100,
                "maxHtlcValueInFlightMsat": 1500000000,
                "htlcMinimum": 0,
                "toSelfDelay": 144,
                "maxAcceptedHtlcs": 100,
                "isChannelOpener": true,
                "payCommitTxFees": true,
                "defaultFinalScriptPubKey": "001405e0104aa726e34ff5cd3a6320d05c0862b5b01c",
                "features": {
                    "activated": {
                        "initial_routing_sync": "Optional",
                        "option_data_loss_protect": "Optional",
                        "gossip_queries": "Optional",
                        "gossip_queries_ex": "Optional",
                        "var_onion_optin": "Mandatory",
                        "payment_secret": "Mandatory",
                        "basic_mpp": "Optional",
                        "option_support_large_channel": "Optional",
                        "option_static_remotekey": "Mandatory",
                        "option_anchor_outputs": "Mandatory",
                        "option_channel_type": "Mandatory",
                        "option_payment_metadata": "Optional",
                        "trampoline_payment_experimental": "Optional",
                        "wake_up_notification_provider": "Optional",
                        "pay_to_open_provider": "Optional",
                        "trusted_swap_in_provider": "Optional",
                        "channel_backup_provider": "Optional"
                    },
                    "unknown": [
                    ]
                }
            },
            "remoteParams": {
                "nodeId": "0362b19a83930389b4468be40308efb3f352b23142ae25e6aba0465a8220f95b06",
                "dustLimit": 1000,
                "maxHtlcValueInFlightMsat": 1500000000,
                "htlcMinimum": 1000,
                "toSelfDelay": 144,
                "maxAcceptedHtlcs": 100,
                "revocationBasepoint": "03a42aef6d1c860caffa6c71a6f8ac2b16eec25bab0c3950cdb1fad7fb38a5f2a5",
                "paymentBasepoint": "02508e1845b8bbe0773f6bf8f3f04f59a5896426765c7b6b23e6e466c95381182b",
                "delayedPaymentBasepoint": "02d62233b7c33f8fd0911922461a651007f1de09d8c474029caa8f2c229c10de26",
                "htlcBasepoint": "03d05c8245bdc12efd8b070b22b276e7db4254f4693e22b3f7c978c08e67b36236",
                "features": {
                    "activated": {
                        "option_data_loss_protect": "Optional",
                        "initial_routing_sync": "Optional",
                        "gossip_queries": "Optional",
                        "var_onion_optin": "Mandatory",
                        "gossip_queries_ex": "Optional",
                        "option_static_remotekey": "Mandatory",
                        "payment_secret": "Mandatory",
                        "basic_mpp": "Optional",
                        "option_support_large_channel": "Optional",
                        "option_anchor_outputs": "Mandatory",
                        "option_channel_type": "Mandatory",
                        "option_payment_metadata": "Optional",
                        "wake_up_notification_client": "Optional",
                        "pay_to_open_client": "Optional",
                        "trusted_swap_in_client": "Optional",
                        "channel_backup_client": "Optional",
                        "trampoline_payment_experimental": "Optional"
                    },
                    "unknown": [
                    ]
                }
            },
            "channelFlags": {
                "announceChannel": false,
                "nonInitiatorPaysCommitFees": false
            }
        },
        "changes": {
            "localChanges": {
                "proposed": [
                    {
                        "type": "fr.acinq.lightning.wire.UpdateFulfillHtlc",
                        "channelId": "2f7c825b61cbbf0e685aef20f8923a8cd28943346e59301b629cc89b4e27cdbd",
                        "id": 0,
                        "paymentPreimage": "470394f1ea93ed652ed8fba12c00dcfe8212c4fd3295f7413f7a927e002ea4eb"
                    }
                ],
                "signed": [
                ],
                "acked": [
                ]
            },
            "remoteChanges": {
                "proposed": [
                ],
                "acked": [
                ],
                "signed": [
                ]
            },
            "localNextHtlcId": 1,
            "remoteNextHtlcId": 1
        },
        "active": [
            {
                "fundingTxIndex": 0,
                "remoteFundingPubkey": "0385cfd7d8850e4cb8fcbed57310911218e5d5e1fd34f92ef5d9db14d56418caa4",
                "localFundingStatus": {
                    "status": "unconfirmed",
                    "txId": "bdcd274e9bc89c621b30596e344389d28c3a92f820ef5a680ebfcb615b827c2f"
                },
                "remoteFundingStatus": {
                    "status": "locked"
                },
                "localCommit": {
                    "index": 1,
                    "spec": {
                        "htlcsIn": [
                            {
                                "channelId": "2f7c825b61cbbf0e685aef20f8923a8cd28943346e59301b629cc89b4e27cdbd",
                                "id": 0,
                                "amountMsat": 110000000,
                                "paymentHash": "8402e76bc62b9de41e92cfd8375016737d985d5d73d4d3dfba46b855f8370b49",
                                "cltvExpiry": 400144,
                                "onionRoutingPacket": "<redacted>"
                            }
                        ],
                        "htlcsOut": [
                            {
                                "channelId": "2f7c825b61cbbf0e685aef20f8923a8cd28943346e59301b629cc89b4e27cdbd",
                                "id": 0,
                                "amountMsat": 95000000,
                                "paymentHash": "070fb40232bd54297d485a2303b042cbdd51011f34fd509f4bae3ee0c62f6fe4",
                                "cltvExpiry": 400144,
                                "onionRoutingPacket": "<redacted>"
                            }
                        ],
                        "feerate": 5000,
                        "toLocal": 705000000,
                        "toRemote": 90000000
                    },
                    "publishableTxs": {
                        "commitTx": {
                            "input": {
                                "outPoint": "bdcd274e9bc89c621b30596e344389d28c3a92f820ef5a680ebfcb615b827c2f:0",
                                "txOut": {
                                    "amount": 1000000,
                                    "publicKeyScript": "00204ba42b50e089764e60e9e0c76c57e41d252d6beb976332f14a7b255bbb5322b8"
                                },
                                "redeemScript": "522102b6eaf304d966a6df90f3b3df7af7be6b1625854bbc096cb8b3507b2a37c2bf9c210385cfd7d8850e4cb8fcbed57310911218e5d5e1fd34f92ef5d9db14d56418caa452ae"
                            },
                            "tx": "020000000001012f7c825b61cbbf0e685aef20f8923a8cd28943346e59301b629cc89b4e27cdbd000000000000b77080064a0100000000000022002046672803839d10e21d43eafb532bc37cd21bd97dec7f9b50d45380cd1cce69654a01000000000000220020bbd7f17366848d8f624c28438128ce4dc8c72ea21deb0ccf25bee110920da032905f010000000000220020cb93e3adb8d213704e9a07ea2a6ce91dca51a9b76fcb6bef3cc9b5b7e10a799018730100000000002200202228f1681cff3adf3524363fad7481c1aad6aa344b223cd97b4fb09a667f5e2db0ad01000000000022002028eee5bc7a7219b098d1f27ee035b83a6870d2be541097068097ab8a8d2568fba8a20a00000000002200206aae960776a0a9f526c5ea6841c28baa16a7ae997313ed417dbc55e38fe1c1730400473044022069b2ce78c6eb6728db4296f6a88b65af682c81dc613985ecf6c23d14cfad3b6602205af6b39cf883448ac1769495c029f230c18d1c4b70292bec6cafad220b74bb5801473044022043cd8250bf3125c454dbe9d7389a3000d6198e35ad82ddd767d2fb770d4e00000220740dd54ac489715d33c6730ee78ee3df4e00f875f67c93b005235d5d637334e40147522102b6eaf304d966a6df90f3b3df7af7be6b1625854bbc096cb8b3507b2a37c2bf9c210385cfd7d8850e4cb8fcbed57310911218e5d5e1fd34f92ef5d9db14d56418caa452aedf99dc20"
                        },
                        "htlcTxsAndSigs": [
                            {
                                "txinfo": {
                                    "type": "fr.acinq.lightning.transactions.Transactions.TransactionWithInputInfo.HtlcTx.HtlcTimeoutTx",
                                    "input": {
                                        "outPoint": "9601ac0b3a2c26b11effb0690a37b4f86b10b144f1751ad6d64f5e58d40c78b8:3",
                                        "txOut": {
                                            "amount": 95000,
                                            "publicKeyScript": "00202228f1681cff3adf3524363fad7481c1aad6aa344b223cd97b4fb09a667f5e2d"
                                        },
                                        "redeemScript": "76a9149166a758c8ce2d9f0c36df15d8624a3c2d0e01b08763ac67210212f485e05882dc6abe5ca535a3880a1c8b2fb10261ba27c56110d926775d73fc7c820120876475527c210202381f64b9573d9410b135c8f3e9ec876233af900152d2e42211a6aa73835ad952ae67a914e563f0bce1d82759c3702437ce10cf2d7545b5a288ac6851b27568"
                                    },
                                    "tx": "0200000001b8780cd4585e4fd6d61a75f144b1106bf8b4370a69b0ff1eb1262c3a0bac01960300000000010000000116660100000000002200206aae960776a0a9f526c5ea6841c28baa16a7ae997313ed417dbc55e38fe1c173101b0600",
                                    "htlcId": 0
                                },
                                "localSig": "6e4452d82c90fed66b3764557999d611cf78e5f32acac0af83839aa65f5ee66c33d859c48572a8f06228d226ca5cd80610d970d9abd0d50edf58186eade21d84",
                                "remoteSig": "3dc75b272417d1deb5afabc3cdb5f9615f0e1a98b5e85bc661e3e2ef4a4346d84e587321dbf824e3d121ddbd0dc6098c062ab04b1879562b1c6f8ca6048e8edf"
                            },
                            {
                                "txinfo": {
                                    "type": "fr.acinq.lightning.transactions.Transactions.TransactionWithInputInfo.HtlcTx.HtlcSuccessTx",
                                    "input": {
                                        "outPoint": "9601ac0b3a2c26b11effb0690a37b4f86b10b144f1751ad6d64f5e58d40c78b8:4",
                                        "txOut": {
                                            "amount": 110000,
                                            "publicKeyScript": "002028eee5bc7a7219b098d1f27ee035b83a6870d2be541097068097ab8a8d2568fb"
                                        },
                                        "redeemScript": "76a9149166a758c8ce2d9f0c36df15d8624a3c2d0e01b08763ac67210212f485e05882dc6abe5ca535a3880a1c8b2fb10261ba27c56110d926775d73fc7c8201208763a9141156a3cd8369ffb3b15e9151e98e1d039a674cfc88527c210202381f64b9573d9410b135c8f3e9ec876233af900152d2e42211a6aa73835ad952ae677503101b06b175ac6851b27568"
                                    },
                                    "tx": "0200000001b8780cd4585e4fd6d61a75f144b1106bf8b4370a69b0ff1eb1262c3a0bac019604000000000100000001e69f0100000000002200206aae960776a0a9f526c5ea6841c28baa16a7ae997313ed417dbc55e38fe1c17300000000",
                                    "paymentHash": "8402e76bc62b9de41e92cfd8375016737d985d5d73d4d3dfba46b855f8370b49",
                                    "htlcId": 0
                                },
                                "localSig": "6c2c84ab6ddd5e0b576ddbd190b90a04f421c87cd7c0bf58f21b77014debcd36187e78df2604d1d3b90e7a8ebc547fed179c53e83b6030212cf0efb9f6f73afb",
                                "remoteSig": "08d988b910001b302c708db95aabdd1b11a02a7d6c549b78715b2894070feec1557f5cd291b5559f866cc9f8352d17631f28eeb0764408f6f503442c636e3729"
                            }
                        ]
                    }
                },
                "remoteCommit": {
                    "index": 2,
                    "spec": {
                        "htlcsIn": [
                            {
                                "channelId": "2f7c825b61cbbf0e685aef20f8923a8cd28943346e59301b629cc89b4e27cdbd",
                                "id": 0,
                                "amountMsat": 95000000,
                                "paymentHash": "070fb40232bd54297d485a2303b042cbdd51011f34fd509f4bae3ee0c62f6fe4",
                                "cltvExpiry": 400144,
                                "onionRoutingPacket": "<redacted>"
                            }
                        ],
                        "htlcsOut": [
                            {
                                "channelId": "2f7c825b61cbbf0e685aef20f8923a8cd28943346e59301b629cc89b4e27cdbd",
                                "id": 0,
                                "amountMsat": 110000000,
                                "paymentHash": "8402e76bc62b9de41e92cfd8375016737d985d5d73d4d3dfba46b855f8370b49",
                                "cltvExpiry": 400144,
                                "onionRoutingPacket": "<redacted>"
                            }
                        ],
                        "feerate": 5000,
                        "toLocal": 90000000,
                        "toRemote": 705000000
                    },
                    "txid": "6552be7d50bfd1711e327a88449299c0cdac58c180f781d5a1d97908bbf5bf04",
                    "remotePerCommitmentPoint": "026c604452e1a154575f1fd5966389c2c686c0b4b72370da0b33764c66b5a8f40e"
                },
                "nextRemoteCommit": null
            }
        ],
        "inactive": [
        ],
        "payments": {
            "0": "a63c8f54-772a-4912-9b2a-055f7f64ce56"
        },
        "remoteNextCommitInfo": {
            "left": null,
            "right": "0312a332a6afe99e14c9dc4ab0512448441be3c4c369be8b7d37c5086682b33799"
        },
        "remotePerCommitmentSecrets": "<redacted>",
        "remoteChannelData": {
            "data": "73267938ec3fb5ea5dc04e15eb163c30b5ff1ae4b68be8f1036418fdfaf595fb4090788cd267462f2f54005b0e18bd8741f363f4604e97033c5c69189518e80a2970316a58a96ffafff202df6313fef9ebf1e64a9425f6dc6b91bfcde58d82612f6275f3568df8adf20394169cae4e236304f2de2d5a1e576141ed2d5eab806b5e8abcd85c7d58c5353835f160dcb2f7d33aa447cffc64295a04f3503a339e926fb9ed0ea9355c01fa7b4064b72cc4b5b89b7b3f05710bf5cafc66e50bbd1085bdd0080990f4207a05332a92b64ad795ee61db4722936e2abd7a675b72a1a138ee4c8112e117caa529aaa879a7ccdc4a59c20fb8d6b1c4d5514aadf0f7a02a2a13d4db90209f6abc3a62eb1a027bde93065cdff27886d8009c3d1366c0c973c4cfccd993253900d625c776026f4d16ddcc425e264fc3e6224ede6cdecc577db5ff0d226c382a60f2e25e87eb495eb2ea107c26feb3fbe807b072e2de53d77187d76285f305d0462738cc4f013ff670b55cb88ea9dd30a75754ce7822bdebba1b5f89c598cdd1de5fb0d78f0c460979a509ee4b0760a2724ba822aa7a0bb2436387c4bf1e85aa0460abb36971a9e209f4349b2cbd1aa0093a22a3a9a358aa987c73b4f3a081b30abd76a5282b5579a26483fd3e7f0034e565baf7350d25143b3f3f83575a1e7669ff52ea23fcc58c762d544e19907c01e1d41874c3cc026f3275e2fb22fdff98a66b55f6ce0582eb3203cf0594e2b91fb921401fced7c3d8a48ab67de2f4112691071a306f2222d55264d0d4b73ce9d7f3c3002c53baf788b98a0ccf3c772f5276a83a1d755f1ec5539038374adfd39a5251302a464551372852755e9a8106412c86a8ccce6983e4b390c364d9445d63fe01d71a7f6714b182375f856deee803db882b7bf60aaf0db989b0e1d404306e6e6bf0ae6cc09b57126ce06c150cd89a03a6d33470febf74bc1508ac4825ea6b4289a323ba007004c4ed4d83167f6cffe70fb0ec45908d0e12699a55ecc648055272f57c4e84597a72448b57fc67b3f9d698e9bbdd2d6045c0abfcbcc04a611077d1840ce283f2f85d4312c8c30576f5ebf2629e8b6a35b486ea7f18561ccc2ced23f499b11d795168296574403822d320fca5c03ed5e98ae7851444ceac1766ef01902c4174e5d6b8b6e6816621e9a3909d81045060d330b3493ca3b580bc6401a37973f871ebf32d1aeb598f4aeb8d94e6484217344a78528d56a59d607318a66403d82bc43e7a5131b751e82dce1581846ef91de58a206e63302efa2caaa4699072e97d2cc5044abbabffdc48dc7a29851e14303e5bcd9063f71ce00d5bd841c831e3133d8425bbb7a5be701e7dbcca578a8162c204a75318c013b239dfdcbb16cf91c1ca05daec0bb8f8933594ca71b782c5eb644c70a5c02ff86bdd45e1d83045374cecbdf5dcb98da290bb5bc1559c8385abf3c055491bdd5a836efd6ab0c982c91725d632715527d5f6a0384b594015a4b2905fe7a1f8bbac9ee4fe0f21a820a30e02dd0143fdd17fdf997cebbd710cb6e21161f85e5875caac2e05ff4d6ed9dfb83f222e2d7cf6ee6eb164959a947e5dbfb23e8eb6086007fd45be398a55aac04f6e616fffe1178265b71781a792e960eb12661d7d20992b129b8fa6256162c2791807d526275ebf358a6e2afe64a9c5c4059aeeb3f9e1abd751df38f91857d7e6e187e6e6288bf7ff51ad29c41eb5e0338be2150d62a9e650dfce428603fa0853f13e53ee576047465ac208303db5e295f5594f932aebd7a28d593c3fb424bf00d6c2e057d4c28cd94a7b2a5d9b8154fda681e362a3b2a7f9296b0a858f89d4f89802952b1fc5ab3be0f2801f1dc353e0b44958356787841bdecb444797cbf7861863c2c75c34a6fbbd0e1c929e5bb3838a56e3dc45699354adcb89518f0c936e15fa0d35ac91bda263e808b1c62fe2eb79e623f4998fb4519234ba62f04651adf0a144e65b40c2d049f9e4b7cd7b760654c3b3bde806ddea2043798112cf413c6fe7a934016afacebdc69ef9cfcb42f65cbd940edda3d7e86db0f654df8e61626b8142e75a88c4454586f0a0f849f6d8cdce1b8e93137c3c63cee73535c12ab12306727f2530bf839b0924785b61ff95fda48126d4b95e1d16e63ae84f950f3ddfd2a3c1b86087fa605deab7adcdaa4d5e44f360817d17c42e6cb7d1cbcae6b92a1a29872acf228e07489b655cd4ce5650d5a0c4786fa6c9b7279493d1dae37146a9dcb087840dc3135c1a62fc0ce297a60c2254a2282180ea13338dd9e9d83a3976ae7632c4dff6abe29854469ec0c9f58216ca3eb56e8a271facf21570a9f1458f6e2dbd1bff2c0c24d5ee340cfdd08f5ea15ce9b764a014214573578d9cafdc3c925ca3fa6fd725aaf109bc2a67edef6f4ff33fde4f546fff607f06430d88a9e21865fa52195d6cc4e084e08ece1bbb88159357c9622663d2c9cf1669b08fba76bc3f39fabf4931ef78054736b2753413918fc00f41955d0e2761891f51c480d25179d7ac95d8415fe86961e127bfbbe55dde8ae85c6212e32645bad8f21a50e9f05256b1cf0a60504c79d3d172b20eeeb2410841c08fd8ef99c4c4260ffa489470b51044780a365655d9e171a399e23fbf4e94b9a610931a7dc4b323ae7b990e705e5568a637250fe70532f18c96595570762f9f149ac361839d59935a0ac655aecb43a6191e828b7aca27e98a1f8f68451e5d4ba456c685ec9886b610ed3786465266c59280d02f71c95cdac40fd61d575b422d73e4fbd15f503690b23e23580e2178bc5bdcea5390169c510b3f7de2dbbf79a3167b1fb6453803699151a3d3f551ee43fe41d67e06fa925bf587a4a2d299a4692a763ae7b2acdd6b432e76abbd91a482cce3895c647718e192a8159266afeb2f9d310a9ea0ee4e01b434bb3eab9b022882c5f196b2212d7e813c6c2e4af305c966dbd899224626dd9ad80627fdbb958bd471f7a9ba8eaebe0effda63d3c4b84b85557b0fdd80373f96b60d9bbdd664a7753154f640ba1f8eb1cbfe4212b7fc3ef9e44c93cd8210192b05b365d77cbe81fe004d2ed1fb3ae6587de8afc2710c93d7faca81490a3ae59b18ec2fc00cada9c718067a013f66aa67e1204cdfbcb9c9ceb405aaa8f625e6b435055f8c6d07e1e6ae8870cb1106b7c978ffd0f9417f481c79ebe51f0bf0dda3d30e0f944a1f037340b81308a0cf0b0a28502e805b285351144bf60f886a56d44d234cdbe589a01888b4fec9161d2900851dc44958fc5063e98e5f765c03ef208a13e5184b06385333e706e5dc63eb95f0c611b20907cc0211f2fa8f27ca8877bc9d0d6e92f8fc0d121c231351895d6e619d091bebb4e53af89036bf8fbdf8bd8126ea40f56703ca4d32d965b97cce5450bd7192e36caa9f54fb21a49cff86e6fa2f46c8230a2632f1219a8fab1187e9a7bce655c8f0973456f88d1f0653fb22b06f482fae5976056756584ccb08b9cba6fe8577304d0f9edfc96e03da97dd16877d15774de1613f3c6ab7e362e513c560a5750d47bfa2fb41bbecfa5989d7635038b5f4b8ea48fd2c2c13fd842f1ae199d5d382ec3f3824c66058f20da2feec3cb3854ecf357efc3b68d33ecc545271de838b12efe2669adf929504d4826d6eb2385483d86388f932013c07f8ecc66806c038b4a9f76ef0a942e4900289c3f212333bfda32ca493a77029e1c8cec4cc5f9e8b8e526853f7865408f352a5fc3ececab77f51fc177ebdb0bf19f03bfa3f1301d06bb8ae183f3ef51fee7a9d7ef797e517fcdc4abac56896a0279f3f84f093c1613107e5997c1268609cb34961e03f12e1160713960de286613b737bfd51531a980b14480ee7cdd8994f36cbf814bf7c5dc8638b8f52f00ae59ba86af9e836b4c3e4e78b38a2dc4bcff3cb0cb272a940fec253728f3d90c3fb2ce50c00f0357f5646ea2cc8a3b1feb4b7c25b093c59dcfa43aed3b8cf050b9d1edb5efcad35147dec5baadb0dc0caf38e01b7d89394908f50853fba05e173357c9ec63f0c17b4914b28c6be9bcff256ea628b2dd9a7a6bc72df034f979f3ffe2485941555786ea131b2f164ba79269e5b35807e90d4c4d73ca18aa5f8bd44c1f5545d4a0e334f3171aa5e08dca72660505c5d39082488ae64155510e54b3d999d15aae89cfae172733d0e13c9322f487c6e5f9bd76ee46477f7c460a20f3e1de49fb4a8b32087acea660959e2212690941dd02af8d19068dd53ba062e1d8baa47269d53ec801afff8cbb9caee4ed545f065359ba826c5987a3e73482f7a38615b427e47128ac7f54cc5b109fa8602ef8d0ece0e3f16714cc9498a6218c4e757e95f424ea64f970c43fec345d1cd02b809e1efb5522402a675661801b8e72b68e065b9d0b789963e1b8823fe8ada499abbd9a64b3b5f4b533a8d31df8412fb1b4b2b2b5ba6347edb7bcb33df9a850bd49e7fe7c1155ae97a53d4fdaa28cda7a4ec1d261052765be2b3e87205cb6ce843d2c8e95a2416fbeaedef809267d8cd72bc2bc19260bf9607450d6615026e6d15a70d5bd31c7b1c3811fc5fb2c1da6f2b080ae66acafbc13a81cd6ea41850b60933c80cc5fc88bc39e513fd7650f24857e90c386a7bb06f16790623c382f9b4c8100d4bc963750449f3989e3f24cd9edabd0ac395c715ac2b66c2529bbb48726d7c0b468c6aa7a6a206a4cea8d93568181c571de72ab6bc0bf066cedea7ae40a17dfc1890e2ff9318bb7d9ec60e0b60d61f9679b2b23c9a2f07c4a3784ca2713dd21e508ae47713666eb439bafb601fe8e0b677c03eca62680874f1b33bc04e3c7807c31eea06ab3759a7d0e1be3968e5dcb76d7f2885e1f4539e5b7968e1cbc2d6d7d519c757f401a17dac837b20cec445fd975e823cfdd28cfcc6284aae236c70423b4904eafabee1c7cd9e6d02069fbd912e3daf48985821fb66259ff0a42fdcb3c1d2f045975a9f154e5807224acd87c92d0c9d30205a500db9d1884e61ce835e88fda33bd4a6ceada13629515d46c278563afd549efd6a5513e89afb16f80a15f0e7ab518e7d18b65103f36534a94cd795d28247637762eb972422247e34fbf2fff1e775d540e025c2a59a3fabc412f988c908609604026ee63b82894aab9675430afc58c7ef9c857aefa94776194446cce84e67985e30c6232ecb82a3ad139dae0559f5c37b2a2c5c0e957bb947ff4bcfd86437ecdb033abc4baa558a81220e12"
        }
    },
    "waitingSinceBlock": 400000,
    "localCommitPublished": {
        "commitTx": "020000000001012f7c825b61cbbf0e685aef20f8923a8cd28943346e59301b629cc89b4e27cdbd000000000000b77080064a0100000000000022002046672803839d10e21d43eafb532bc37cd21bd97dec7f9b50d45380cd1cce69654a01000000000000220020bbd7f17366848d8f624c28438128ce4dc8c72ea21deb0ccf25bee110920da032905f010000000000220020cb93e3adb8d213704e9a07ea2a6ce91dca51a9b76fcb6bef3cc9b5b7e10a799018730100000000002200202228f1681cff3adf3524363fad7481c1aad6aa344b223cd97b4fb09a667f5e2db0ad01000000000022002028eee5bc7a7219b098d1f27ee035b83a6870d2be541097068097ab8a8d2568fba8a20a00000000002200206aae960776a0a9f526c5ea6841c28baa16a7ae997313ed417dbc55e38fe1c1730400473044022069b2ce78c6eb6728db4296f6a88b65af682c81dc613985ecf6c23d14cfad3b6602205af6b39cf883448ac1769495c029f230c18d1c4b70292bec6cafad220b74bb5801473044022043cd8250bf3125c454dbe9d7389a3000d6198e35ad82ddd767d2fb770d4e00000220740dd54ac489715d33c6730ee78ee3df4e00f875f67c93b005235d5d637334e40147522102b6eaf304d966a6df90f3b3df7af7be6b1625854bbc096cb8b3507b2a37c2bf9c210385cfd7d8850e4cb8fcbed57310911218e5d5e1fd34f92ef5d9db14d56418caa452aedf99dc20",
        "claimMainDelayedOutputTx": {
            "input": {
                "outPoint": "9601ac0b3a2c26b11effb0690a37b4f86b10b144f1751ad6d64f5e58d40c78b8:5",
                "txOut": {
                    "amount": 697000,
                    "publicKeyScript": "00206aae960776a0a9f526c5ea6841c28baa16a7ae997313ed417dbc55e38fe1c173"
                },
                "redeemScript": "63210295302e2b809b7a863066ad3e0410c0264593311d378e338da35a6c439683199367029000b27521039da7091f1df93fe6a35d16c522ade781f34b86d5fb3a124f5da0ccbbce653a7a68ac"
            },
            "tx": "02000000000101b8780cd4585e4fd6d61a75f144b1106bf8b4370a69b0ff1eb1262c3a0bac019605000000009000000001ca8f0a000000000016001405e0104aa726e34ff5cd3a6320d05c0862b5b01c03483045022100a0fab58723f5b670490d26f3f46053080354e9155db44770bdcdfb3c46fe3a0002201e69a3053587cee9cdd43b43ee6c8b5a840e62148935fcb5ce4bb58b9d6bb04101004d63210295302e2b809b7a863066ad3e0410c0264593311d378e338da35a6c439683199367029000b27521039da7091f1df93fe6a35d16c522ade781f34b86d5fb3a124f5da0ccbbce653a7a68ac00000000"
        },
        "htlcTxs": {
            "9601ac0b3a2c26b11effb0690a37b4f86b10b144f1751ad6d64f5e58d40c78b8:3": {
                "type": "fr.acinq.lightning.transactions.Transactions.TransactionWithInputInfo.HtlcTx.HtlcTimeoutTx",
                "input": {
                    "outPoint": "9601ac0b3a2c26b11effb0690a37b4f86b10b144f1751ad6d64f5e58d40c78b8:3",
                    "txOut": {
                        "amount": 95000,
                        "publicKeyScript": "00202228f1681cff3adf3524363fad7481c1aad6aa344b223cd97b4fb09a667f5e2d"
                    },
                    "redeemScript": "76a9149166a758c8ce2d9f0c36df15d8624a3c2d0e01b08763ac67210212f485e05882dc6abe5ca535a3880a1c8b2fb10261ba27c56110d926775d73fc7c820120876475527c210202381f64b9573d9410b135c8f3e9ec876233af900152d2e42211a6aa73835ad952ae67a914e563f0bce1d82759c3702437ce10cf2d7545b5a288ac6851b27568"
                },
                "tx": "02000000000101b8780cd4585e4fd6d61a75f144b1106bf8b4370a69b0ff1eb1262c3a0bac01960300000000010000000116660100000000002200206aae960776a0a9f526c5ea6841c28baa16a7ae997313ed417dbc55e38fe1c173050047304402203dc75b272417d1deb5afabc3cdb5f9615f0e1a98b5e85bc661e3e2ef4a4346d802204e587321dbf824e3d121ddbd0dc6098c062ab04b1879562b1c6f8ca6048e8edf8347304402206e4452d82c90fed66b3764557999d611cf78e5f32acac0af83839aa65f5ee66c022033d859c48572a8f06228d226ca5cd80610d970d9abd0d50edf58186eade21d8401008876a9149166a758c8ce2d9f0c36df15d8624a3c2d0e01b08763ac67210212f485e05882dc6abe5ca535a3880a1c8b2fb10261ba27c56110d926775d73fc7c820120876475527c210202381f64b9573d9410b135c8f3e9ec876233af900152d2e42211a6aa73835ad952ae67a914e563f0bce1d82759c3702437ce10cf2d7545b5a288ac6851b27568101b0600",
                "htlcId": 0
            },
            "9601ac0b3a2c26b11effb0690a37b4f86b10b144f1751ad6d64f5e58d40c78b8:4": {
                "type": "fr.acinq.lightning.transactions.Transactions.TransactionWithInputInfo.HtlcTx.HtlcSuccessTx",
                "input": {
                    "outPoint": "9601ac0b3a2c26b11effb0690a37b4f86b10b144f1751ad6d64f5e58d40c78b8:4",
                    "txOut": {
                        "amount": 110000,
                        "publicKeyScript": "002028eee5bc7a7219b098d1f27ee035b83a6870d2be541097068097ab8a8d2568fb"
                    },
                    "redeemScript": "76a9149166a758c8ce2d9f0c36df15d8624a3c2d0e01b08763ac67210212f485e05882dc6abe5ca535a3880a1c8b2fb10261ba27c56110d926775d73fc7c8201208763a9141156a3cd8369ffb3b15e9151e98e1d039a674cfc88527c210202381f64b9573d9410b135c8f3e9ec876233af900152d2e42211a6aa73835ad952ae677503101b06b175ac6851b27568"
                },
                "tx": "02000000000101b8780cd4585e4fd6d61a75f144b1106bf8b4370a69b0ff1eb1262c3a0bac019604000000000100000001e69f0100000000002200206aae960776a0a9f526c5ea6841c28baa16a7ae997313ed417dbc55e38fe1c1730500473044022008d988b910001b302c708db95aabdd1b11a02a7d6c549b78715b2894070feec10220557f5cd291b5559f866cc9f8352d17631f28eeb0764408f6f503442c636e37298347304402206c2c84ab6ddd5e0b576ddbd190b90a04f421c87cd7c0bf58f21b77014debcd360220187e78df2604d1d3b90e7a8ebc547fed179c53e83b6030212cf0efb9f6f73afb0120470394f1ea93ed652ed8fba12c00dcfe8212c4fd3295f7413f7a927e002ea4eb8e76a9149166a758c8ce2d9f0c36df15d8624a3c2d0e01b08763ac67210212f485e05882dc6abe5ca535a3880a1c8b2fb10261ba27c56110d926775d73fc7c8201208763a9141156a3cd8369ffb3b15e9151e98e1d039a674cfc88527c210202381f64b9573d9410b135c8f3e9ec876233af900152d2e42211a6aa73835ad952ae677503101b06b175ac6851b2756800000000",
                "paymentHash": "8402e76bc62b9de41e92cfd8375016737d985d5d73d4d3dfba46b855f8370b49",
                "htlcId": 0
            }
        },
        "claimHtlcDelayedTxs": [
            {
                "input": {
                    "outPoint": "65e1efd0ab984bc9fadaa395864df708584c8939af593bfe77b262673fb8fa04:0",
                    "txOut": {
                        "amount": 91670,
                        "publicKeyScript": "00206aae960776a0a9f526c5ea6841c28baa16a7ae997313ed417dbc55e38fe1c173"
                    },
                    "redeemScript": "63210295302e2b809b7a863066ad3e0410c0264593311d378e338da35a6c439683199367029000b27521039da7091f1df93fe6a35d16c522ade781f34b86d5fb3a124f5da0ccbbce653a7a68ac"
                },
                "tx": "0200000000010104fab83f6762b277fe3b59af39894c5808f74d8695a3dafac94b98abd0efe16500000000009000000001385301000000000016001405e0104aa726e34ff5cd3a6320d05c0862b5b01c03473044022022618d396c76b211f160d5bef7e028ae492dbaa37d67db935f54e5a13818c9e402205a2a045a701eba79e76aa8184c01dc5d624c814a9dbfef94227824b5e3426a3301004d63210295302e2b809b7a863066ad3e0410c0264593311d378e338da35a6c439683199367029000b27521039da7091f1df93fe6a35d16c522ade781f34b86d5fb3a124f5da0ccbbce653a7a68ac00000000"
            },
            {
                "input": {
                    "outPoint": "4030163c4fb5c9aa83454c1fa8dc5cf9ed9f6fbbb7e1be85dbc90e40ef1f6474:0",
                    "txOut": {
                        "amount": 106470,
                        "publicKeyScript": "00206aae960776a0a9f526c5ea6841c28baa16a7ae997313ed417dbc55e38fe1c173"
                    },
                    "redeemScript": "63210295302e2b809b7a863066ad3e0410c0264593311d378e338da35a6c439683199367029000b27521039da7091f1df93fe6a35d16c522ade781f34b86d5fb3a124f5da0ccbbce653a7a68ac"
                },
                "tx": "0200000000010174641fef400ec9db85bee1b7bb6f9fedf95cdca81f4c4583aac9b54f3c16304000000000009000000001088d01000000000016001405e0104aa726e34ff5cd3a6320d05c0862b5b01c034730440220173ce3df55a920df20583b5f761d658f06e7b7170abbe3b8b915b11d2f64d9fe0220298b801bfa33265706ac68815feb8ac2191e3a53326bc48f58b7fbae2fa58a5301004d63210295302e2b809b7a863066ad3e0410c0264593311d378e338da35a6c439683199367029000b27521039da7091f1df93fe6a35d16c522ade781f34b86d5fb3a124f5da0ccbbce653a7a68ac00000000"
            }
        ],
        "irrevocablySpent": {
            "bdcd274e9bc89c621b30596e344389d28c3a92f820ef5a680ebfcb615b827c2f:0": "020000000001012f7c825b61cbbf0e685aef20f8923a8cd28943346e59301b629cc89b4e27cdbd000000000000b77080064a0100000000000022002046672803839d10e21d43eafb532bc37cd21bd97dec7f9b50d45380cd1cce69654a01000000000000220020bbd7f17366848d8f624c28438128ce4dc8c72ea21deb0ccf25bee110920da032905f010000000000220020cb93e3adb8d213704e9a07ea2a6ce91dca51a9b76fcb6bef3cc9b5b7e10a799018730100000000002200202228f1681cff3adf3524363fad7481c1aad6aa344b223cd97b4fb09a667f5e2db0ad01000000000022002028eee5bc7a7219b098d1f27ee035b83a6870d2be541097068097ab8a8d2568fba8a20a00000000002200206aae960776a0a9f526c5ea6841c28baa16a7ae997313ed417dbc55e38fe1c1730400473044022069b2ce78c6eb6728db4296f6a88b65af682c81dc613985ecf6c23d14cfad3b6602205af6b39cf883448ac1769495c029f230c18d1c4b70292bec6cafad220b74bb5801473044022043cd8250bf3125c454dbe9d7389a3000d6198e35ad82ddd767d2fb770d4e00000220740dd54ac489715d33c6730ee78ee3df4e00f875f67c93b005235d5d637334e40147522102b6eaf304d966a6df90f3b3df7af7be6b1625854bbc096cb8b3507b2a37c2bf9c210385cfd7d8850e4cb8fcbed57310911218e5d5e1fd34f92ef5d9db14d56418caa452aedf99dc20",
            "9601ac0b3a2c26b11effb0690a37b4f86b10b144f1751ad6d64f5e58d40c78b8:3": "02000000000101b8780cd4585e4fd6d61a75f144b1106bf8b4370a69b0ff1eb1262c3a0bac01960300000000010000000116660100000000002200206aae960776a0a9f526c5ea6841c28baa16a7ae997313ed417dbc55e38fe1c173050047304402203dc75b272417d1deb5afabc3cdb5f9615f0e1a98b5e85bc661e3e2ef4a4346d802204e587321dbf824e3d121ddbd0dc6098c062ab04b1879562b1c6f8ca6048e8edf8347304402206e4452d82c90fed66b3764557999d611cf78e5f32acac0af83839aa65f5ee66c022033d859c48572a8f06228d226ca5cd80610d970d9abd0d50edf58186eade21d8401008876a9149166a758c8ce2d9f0c36df15d8624a3c2d0e01b08763ac67210212f485e05882dc6abe5ca535a3880a1c8b2fb10261ba27c56110d926775d73fc7c820120876475527c210202381f64b9573d9410b135c8f3e9ec876233af900152d2e42211a6aa73835ad952ae67a914e563f0bce1d82759c3702437ce10cf2d7545b5a288ac6851b27568101b0600"
        }
    }
}