{
    "type": "fr.acinq.lightning.channel.states.Normal",
    "commitments": {
        "params": {
            "channelId": "2f7c825b61cbbf0e685aef20f8923a8cd28943346e59301b629cc89b4e27cdbd",
            "channelConfig": [
                "funding_pubkey_based_channel_keypath"
            ],
            "channelFeatures": [
                "option_static_remotekey",
                "option_support_large_channel",
                "option_anchor_outputs"
            ],
            "localParams": {
                "nodeId": "037108815ff0128f7ed22640485c226d9ad64a9fd6d8b41b6623565aed6b34812c",
                "fundingKeyPath": "m/385048399/1977025879/604622566/184658546/776346346/949304342'/277944247'/2049339775'/1'",
                "dustLimit": 1100,
                "maxHtlcValueInFlightMsat": 1500000000,
                "htlcMinimum": 0,
                "toSelfDelay": 144,
                "maxAcceptedHtlcs": 100,
                "isChannelOpener": true,
                "paysCommitTxFees": true,
                "defaultFinalScriptPubKey": "001405e0104aa726e34ff5cd3a6320d05c0862b5b01c",
                "features": {
                    "activated": {
                        "initial_routing_sync": "Optional",
                        "option_data_loss_protect": "Optional",
                        "gossip_queries": "Optional",
                        "gossip_queries_ex": "Optional",
                        "var_onion_optin": "Mandatory",
                        "payment_secret": "Mandatory",
                        "basic_mpp": "Optional",
                        "option_support_large_channel": "Optional",
                        "option_static_remotekey": "Mandatory",
                        "option_anchor_outputs": "Mandatory",
                        "option_channel_type": "Mandatory",
                        "option_payment_metadata": "Optional",
                        "trampoline_payment_experimental": "Optional",
                        "wake_up_notification_provider": "Optional",
                        "pay_to_open_provider": "Optional",
                        "trusted_swap_in_provider": "Optional",
                        "channel_backup_provider": "Optional"
                    },
                    "unknown": []
                }
            },
            "remoteParams": {
                "nodeId": "0362b19a83930389b4468be40308efb3f352b23142ae25e6aba0465a8220f95b06",
                "dustLimit": 1000,
                "maxHtlcValueInFlightMsat": 1500000000,
                "htlcMinimum": 1000,
                "toSelfDelay": 144,
                "maxAcceptedHtlcs": 100,
                "revocationBasepoint": "03a42aef6d1c860caffa6c71a6f8ac2b16eec25bab0c3950cdb1fad7fb38a5f2a5",
                "paymentBasepoint": "02508e1845b8bbe0773f6bf8f3f04f59a5896426765c7b6b23e6e466c95381182b",
                "delayedPaymentBasepoint": "02d62233b7c33f8fd0911922461a651007f1de09d8c474029caa8f2c229c10de26",
                "htlcBasepoint": "03d05c8245bdc12efd8b070b22b276e7db4254f4693e22b3f7c978c08e67b36236",
                "features": {
                    "activated": {
                        "option_data_loss_protect": "Optional",
                        "initial_routing_sync": "Optional",
                        "gossip_queries": "Optional",
                        "var_onion_optin": "Mandatory",
                        "gossip_queries_ex": "Optional",
                        "option_static_remotekey": "Mandatory",
                        "payment_secret": "Mandatory",
                        "basic_mpp": "Optional",
                        "option_support_large_channel": "Optional",
                        "option_anchor_outputs": "Mandatory",
                        "option_channel_type": "Mandatory",
                        "option_payment_metadata": "Optional",
                        "wake_up_notification_client": "Optional",
                        "pay_to_open_client": "Optional",
                        "trusted_swap_in_client": "Optional",
                        "channel_backup_client": "Optional",
                        "trampoline_payment_experimental": "Optional"
                    },
                    "unknown": []
                }
            },
            "channelFlags": {
                "announceChannel": false,
                "nonInitiatorPaysCommitFees": false
            }
        },
        "changes": {
            "localChanges": {
                "proposed": [],
                "signed": [],
                "acked": []
            },
            "remoteChanges": {
                "proposed": [],
                "acked": [],
                "signed": []
            },
            "localNextHtlcId": 2,
            "remoteNextHtlcId": 0
        },
        "active": [
            {
                "fundingTxIndex": 0,
                "remoteFundingPubkey": "0385cfd7d8850e4cb8fcbed57310911218e5d5e1fd34f92ef5d9db14d56418caa4",
                "localFundingStatus": {
                    "status": "unconfirmed",
                    "txId": "bdcd274e9bc89c621b30596e344389d28c3a92f820ef5a680ebfcb615b827c2f"
                },
                "remoteFundingStatus": {
                    "status": "locked"
                },
                "localCommit": {
                    "index": 1,
                    "spec": {
                        "htlcsIn": [],
                        "htlcsOut": [
                            {
                                "channelId": "2f7c825b61cbbf0e685aef20f8923a8cd28943346e59301b629cc89b4e27cdbd",
                                "id": 0,
                                "amountMsat": 300000000,
                                "paymentHash": "bb9134aefd0dcfee1bb57ab492f6d794934c2823cbc99c1b975deef3b0d67d5a",
                                "cltvExpiry": 400144,
                                "onionRoutingPacket": "<redacted>"
                            },
                            {
                                "channelId": "2f7c825b61cbbf0e685aef20f8923a8cd28943346e59301b629cc89b4e27cdbd",
                                "id": 1,
                                "amountMsat": 200000000,
                                "paymentHash": "23d0335a29f4751d39c8e5c13d79513da2ca619cbff40fa70bc618e803e1f488",
                                "cltvExpiry": 400144,
                                "onionRoutingPacket": "<redacted>"
                            }
                        ],
                        "feerate": 5000,
                        "toLocal": 300000000,
                        "toRemote": 200000000
                    },
                    "publishableTxs": {
                        "commitTx": {
                            "input": {
                                "outPoint": "bdcd274e9bc89c621b30596e344389d28c3a92f820ef5a680ebfcb615b827c2f:0",
                                "txOut": {
                                    "amount": 1000000,
                                    "publicKeyScript": "00204ba42b50e089764e60e9e0c76c57e41d252d6beb976332f14a7b255bbb5322b8"
                                },
                                "redeemScript": "522102b6eaf304d966a6df90f3b3df7af7be6b1625854bbc096cb8b3507b2a37c2bf9c210385cfd7d8850e4cb8fcbed57310911218e5d5e1fd34f92ef5d9db14d56418caa452ae"
                            },
                            "tx": "020000000001012f7c825b61cbbf0e685aef20f8923a8cd28943346e59301b629cc89b4e27cdbd000000000000b77080064a0100000000000022002046672803839d10e21d43eafb532bc37cd21bd97dec7f9b50d45380cd1cce69654a01000000000000220020bbd7f17366848d8f624c28438128ce4dc8c72ea21deb0ccf25bee110920da032400d0300000000002200200d94818c9b1a70b689daa5af63b6c6737ea40a9de55839819bf0421217d68d80400d030000000000220020cb93e3adb8d213704e9a07ea2a6ce91dca51a9b76fcb6bef3cc9b5b7e10a7990a0740400000000002200206aae960776a0a9f526c5ea6841c28baa16a7ae997313ed417dbc55e38fe1c173e093040000000000220020c9b6634f8ea3a3789e96570513e9bc701395ea27477c07e80931a2ab9bbb549c0400483045022100fd4910f0944d529ec90d2d5f2587f28d7036fccdbff3dc215f8f418dea8bb3b20220723b0c27c7e719588b7375ffd76f8246074c8d126c77c829c03f18e66a12b498014830450221009faae1d00f87d980fd620db27a06a27cca8cc0b2269611124d0dab3a5c28076e02206dce7336d5c38377f54b6b92af7db4f38b43e12afa94301fce129b19e5892e690147522102b6eaf304d966a6df90f3b3df7af7be6b1625854bbc096cb8b3507b2a37c2bf9c210385cfd7d8850e4cb8fcbed57310911218e5d5e1fd34f92ef5d9db14d56418caa452aedf99dc20"
                        },
                        "htlcTxsAndSigs": [
                            {
                                "txinfo": {
                                    "type": "fr.acinq.lightning.transactions.Transactions.TransactionWithInputInfo.HtlcTx.HtlcTimeoutTx",
                                    "input": {
                                        "outPoint": "24237f2dafcc072f634bc4ffc74b34157a827567ed32e8adc85bf72b54b9a07a:2",
                                        "txOut": {
                                            "amount": 200000,
                                            "publicKeyScript": "00200d94818c9b1a70b689daa5af63b6c6737ea40a9de55839819bf0421217d68d80"
                                        },
                                        "redeemScript": "76a9149166a758c8ce2d9f0c36df15d8624a3c2d0e01b08763ac67210212f485e05882dc6abe5ca535a3880a1c8b2fb10261ba27c56110d926775d73fc7c820120876475527c210202381f64b9573d9410b135c8f3e9ec876233af900152d2e42211a6aa73835ad952ae67a9148f93e0f27c3c23aca8fb53a150df1bc2fd6a69d788ac6851b27568"
                                    },
                                    "tx": "02000000017aa0b9542bf75bc8ade832ed6775827a15344bc7ffc44b632f07ccaf2d7f2324020000000001000000013e000300000000002200206aae960776a0a9f526c5ea6841c28baa16a7ae997313ed417dbc55e38fe1c173101b0600",
                                    "htlcId": 1
                                },
                                "localSig": "c880a09b595628130f63f97406bc588dc11ac2b914c28c105cb5bf3c40007a2a7473756cabb4ac0a0e5b5c8d30ea91b87b6f1e0e1ac741df10c8863bf79f568f",
                                "remoteSig": "226e43ad5f13f16b82eb841eb528756ea8a9ab4e12659c4992eaec016e67b81d74e32adb0e4c54ad1030e82d30e75c3ae4d4abec73ec9295fc24cf6301f00c33"
                            },
                            {
                                "txinfo": {
                                    "type": "fr.acinq.lightning.transactions.Transactions.TransactionWithInputInfo.HtlcTx.HtlcTimeoutTx",
                                    "input": {
                                        "outPoint": "24237f2dafcc072f634bc4ffc74b34157a827567ed32e8adc85bf72b54b9a07a:5",
                                        "txOut": {
                                            "amount": 300000,
                                            "publicKeyScript": "0020c9b6634f8ea3a3789e96570513e9bc701395ea27477c07e80931a2ab9bbb549c"
                                        },
                                        "redeemScript": "76a9149166a758c8ce2d9f0c36df15d8624a3c2d0e01b08763ac67210212f485e05882dc6abe5ca535a3880a1c8b2fb10261ba27c56110d926775d73fc7c820120876475527c210202381f64b9573d9410b135c8f3e9ec876233af900152d2e42211a6aa73835ad952ae67a9145108735b412dc599563a3cda98629158bd4c649188ac6851b27568"
                                    },
                                    "tx": "02000000017aa0b9542bf75bc8ade832ed6775827a15344bc7ffc44b632f07ccaf2d7f232405000000000100000001de860400000000002200206aae960776a0a9f526c5ea6841c28baa16a7ae997313ed417dbc55e38fe1c173101b0600",
                                    "htlcId": 0
                                },
                                "localSig": "ae0a956ce019ca635f347205cc792036606d626b07620e329d84835a09fe24ce3d9996c28bef74f8ceea15e088103b2c096156e43c104cb7eaa60cd237b89f3b",
                                "remoteSig": "cb127029d3c26886560adaee978ab3f8742b995dda61b6e84f2a7d1496485a23197239a180246f0a27ba6f10abc9ed1e92119991646073194d8f5b12ff747bb7"
                            }
                        ]
                    }
                },
                "remoteCommit": {
                    "index": 1,
                    "spec": {
                        "htlcsIn": [
                            {
                                "channelId": "2f7c825b61cbbf0e685aef20f8923a8cd28943346e59301b629cc89b4e27cdbd",
                                "id": 0,
                                "amountMsat": 300000000,
                                "paymentHash": "bb9134aefd0dcfee1bb57ab492f6d794934c2823cbc99c1b975deef3b0d67d5a",
                                "cltvExpiry": 400144,
                                "onionRoutingPacket": "<redacted>"
                            },
                            {
                                "channelId": "2f7c825b61cbbf0e685aef20f8923a8cd28943346e59301b629cc89b4e27cdbd",
                                "id": 1,
                                "amountMsat": 200000000,
                                "paymentHash": "23d0335a29f4751d39c8e5c13d79513da2ca619cbff40fa70bc618e803e1f488",
                                "cltvExpiry": 400144,
                                "onionRoutingPacket": "<redacted>"
                            }
                        ],
                        "htlcsOut": [],
                        "feerate": 5000,
                        "toLocal": 200000000,
                        "toRemote": 300000000
                    },
                    "txid": "86441d0d05c27ecef1fd4bd850172890c8cee07eb0aedb272034eb36f93221be",
                    "remotePerCommitmentPoint": "03c57839fd412868a398bea05d01678a752661126a2d1357a0f7cb6f0c60311125"
                },
                "nextRemoteCommit": null
            }
        ],
        "inactive": [],
        "payments": {
            "0": "28f366cb-6c14-4100-a33e-b85b809ed38a",
            "1": "c6dca627-db1e-47d7-b7a5-abe70d276099"
        },
        "remoteNextCommitInfo": {
            "left": null,
            "right": "026c604452e1a154575f1fd5966389c2c686c0b4b72370da0b33764c66b5a8f40e"
        },
        "remotePerCommitmentSecrets": "<redacted>"
    },
    "shortChannelId": "400144x1x0",
    "channelUpdate": {
        "signature": "4f822887ee1f1ec37dbc569642ada537069e6eed615c1b0881d5d2aa3d4e8b38105940429c3ec312d76aaaefbb6ac1e90e578b11908291acd70f061b6e4dc95b",
        "chainHash": "06226e46111a0b59caaf126043eb5bbf28c34f3a5e332a1fc7b2b73cf188910f",
        "shortChannelId": "400144x1x0",
        "timestampSeconds": 1666878721,
        "messageFlags": 1,
        "channelFlags": 1,
        "cltvExpiryDelta": 144,
        "htlcMinimumMsat": 1000,
        "feeBaseMsat": 100,
        "feeProportionalMillionths": 10,
        "htlcMaximumMsat": 1000000000
    },
    "remoteChannelUpdate": null,
    "spliceStatus": {
        "status": "None"
    },
    "localShutdown": {
        "channelId": "2f7c825b61cbbf0e685aef20f8923a8cd28943346e59301b629cc89b4e27cdbd",
        "scriptPubKey": "001405e0104aa726e34ff5cd3a6320d05c0862b5b01c"
    },
    "remoteShutdown": null,
    "closeCommand": null
}