{
    "type": "fr.acinq.lightning.channel.states.Normal",
    "commitments": {
        "params": {
            "channelId": "2f7c825b61cbbf0e685aef20f8923a8cd28943346e59301b629cc89b4e27cdbd",
            "channelConfig": [
                "funding_pubkey_based_channel_keypath"
            ],
            "channelFeatures": [
                "option_support_large_channel",
                "option_static_remotekey",
                "option_anchor_outputs",
                "zero_reserve_channels",
                "zero_conf_channels"
            ],
            "localParams": {
                "nodeId": "037108815ff0128f7ed22640485c226d9ad64a9fd6d8b41b6623565aed6b34812c",
                "fundingKeyPath": "m/385048399/1977025879/604622566/184658546/776346346/949304342'/277944247'/2049339775'/1'",
                "dustLimit": 1100,
                "maxHtlcValueInFlightMsat": 1500000000,
                "htlcMinimum": 0,
                "toSelfDelay": 144,
                "maxAcceptedHtlcs": 100,
                "isChannelOpener": true,
                "paysCommitTxFees": true,
                "defaultFinalScriptPubKey": "001405e0104aa726e34ff5cd3a6320d05c0862b5b01c",
                "features": {
                    "activated": {
                        "initial_routing_sync": "Optional",
                        "option_data_loss_protect": "Optional",
                        "gossip_queries": "Optional",
                        "gossip_queries_ex": "Optional",
                        "var_onion_optin": "Mandatory",
                        "payment_secret": "Mandatory",
                        "basic_mpp": "Optional",
                        "option_support_large_channel": "Optional",
                        "option_static_remotekey": "Mandatory",
                        "option_anchor_outputs": "Mandatory",
                        "option_channel_type": "Mandatory",
                        "option_payment_metadata": "Optional",
                        "trampoline_payment_experimental": "Optional",
                        "wake_up_notification_provider": "Optional",
                        "pay_to_open_provider": "Optional",
                        "trusted_swap_in_provider": "Optional",
                        "channel_backup_provider": "Optional"
                    },
                    "unknown": []
                }
            },
            "remoteParams": {
                "nodeId": "0362b19a83930389b4468be40308efb3f352b23142ae25e6aba0465a8220f95b06",
                "dustLimit": 1000,
                "maxHtlcValueInFlightMsat": 1500000000,
                "htlcMinimum": 1000,
                "toSelfDelay": 144,
                "maxAcceptedHtlcs": 100,
                "revocationBasepoint": "03a42aef6d1c860caffa6c71a6f8ac2b16eec25bab0c3950cdb1fad7fb38a5f2a5",
                "paymentBasepoint": "02508e1845b8bbe0773f6bf8f3f04f59a5896426765c7b6b23e6e466c95381182b",
                "delayedPaymentBasepoint": "02d62233b7c33f8fd0911922461a651007f1de09d8c474029caa8f2c229c10de26",
                "htlcBasepoint": "03d05c8245bdc12efd8b070b22b276e7db4254f4693e22b3f7c978c08e67b36236",
                "features": {
                    "activated": {
                        "option_data_loss_protect": "Optional",
                        "initial_routing_sync": "Optional",
                        "gossip_queries": "Optional",
                        "var_onion_optin": "Mandatory",
                        "gossip_queries_ex": "Optional",
                        "option_static_remotekey": "Mandatory",
                        "payment_secret": "Mandatory",
                        "basic_mpp": "Optional",
                        "option_support_large_channel": "Optional",
                        "option_anchor_outputs": "Mandatory",
                        "option_channel_type": "Mandatory",
                        "option_payment_metadata": "Optional",
                        "wake_up_notification_client": "Optional",
                        "pay_to_open_client": "Optional",
                        "trusted_swap_in_client": "Optional",
                        "channel_backup_client": "Optional",
                        "trampoline_payment_experimental": "Optional"
                    },
                    "unknown": []
                }
            },
            "channelFlags": {
                "announceChannel": false,
                "nonInitiatorPaysCommitFees": false
            }
        },
        "changes": {
            "localChanges": {
                "proposed": [],
                "signed": [],
                "acked": []
            },
            "remoteChanges": {
                "proposed": [],
                "acked": [
                    {
                        "type": "fr.acinq.lightning.wire.UpdateAddHtlc",
                        "channelId": "2f7c825b61cbbf0e685aef20f8923a8cd28943346e59301b629cc89b4e27cdbd",
                        "id": 0,
                        "amountMsat": 300000,
                        "paymentHash": "6b61226257ee70b198904c0ec5177495e856438051efba7baebcdc528782967d",
                        "cltvExpiry": 400144,
                        "onionRoutingPacket": "<redacted>"
                    },
                    {
                        "type": "fr.acinq.lightning.wire.UpdateAddHtlc",
                        "channelId": "2f7c825b61cbbf0e685aef20f8923a8cd28943346e59301b629cc89b4e27cdbd",
                        "id": 1,
                        "amountMsat": 50000000,
                        "paymentHash": "31ee886646d6c55841f87b3978f6eb92eb7a3e3532ffa0207aad5a6c25dd6559",
                        "cltvExpiry": 400144,
                        "onionRoutingPacket": "<redacted>"
                    },
                    {
                        "type": "fr.acinq.lightning.wire.UpdateAddHtlc",
                        "channelId": "2f7c825b61cbbf0e685aef20f8923a8cd28943346e59301b629cc89b4e27cdbd",
                        "id": 2,
                        "amountMsat": 4000000,
                        "paymentHash": "dfe0669321cf183422618fcd3f27bc2c7aa736c66d2c47ea5047f907890723d7",
                        "cltvExpiry": 400144,
                        "onionRoutingPacket": "<redacted>"
                    }
                ],
                "signed": []
            },
            "localNextHtlcId": 4,
            "remoteNextHtlcId": 3
        },
        "active": [
            {
                "fundingTxIndex": 0,
                "remoteFundingPubkey": "0385cfd7d8850e4cb8fcbed57310911218e5d5e1fd34f92ef5d9db14d56418caa4",
                "localFundingStatus": {
                    "status": "unconfirmed",
                    "txId": "bdcd274e9bc89c621b30596e344389d28c3a92f820ef5a680ebfcb615b827c2f"
                },
                "remoteFundingStatus": {
                    "status": "locked"
                },
                "localCommit": {
                    "index": 1,
                    "spec": {
                        "htlcsIn": [
                            {
                                "channelId": "2f7c825b61cbbf0e685aef20f8923a8cd28943346e59301b629cc89b4e27cdbd",
                                "id": 0,
                                "amountMsat": 300000,
                                "paymentHash": "6b61226257ee70b198904c0ec5177495e856438051efba7baebcdc528782967d",
                                "cltvExpiry": 400144,
                                "onionRoutingPacket": "<redacted>"
                            },
                            {
                                "channelId": "2f7c825b61cbbf0e685aef20f8923a8cd28943346e59301b629cc89b4e27cdbd",
                                "id": 1,
                                "amountMsat": 50000000,
                                "paymentHash": "31ee886646d6c55841f87b3978f6eb92eb7a3e3532ffa0207aad5a6c25dd6559",
                                "cltvExpiry": 400144,
                                "onionRoutingPacket": "<redacted>"
                            },
                            {
                                "channelId": "2f7c825b61cbbf0e685aef20f8923a8cd28943346e59301b629cc89b4e27cdbd",
                                "id": 2,
                                "amountMsat": 4000000,
                                "paymentHash": "dfe0669321cf183422618fcd3f27bc2c7aa736c66d2c47ea5047f907890723d7",
                                "cltvExpiry": 400144,
                                "onionRoutingPacket": "<redacted>"
                            }
                        ],
                        "htlcsOut": [
                            {
                                "channelId": "2f7c825b61cbbf0e685aef20f8923a8cd28943346e59301b629cc89b4e27cdbd",
                                "id": 0,
                                "amountMsat": 50000000,
                                "paymentHash": "f73e3549be28dea0a905affb32a94f935eb5df20a4366f564d851f5a3da6b562",
                                "cltvExpiry": 400144,
                                "onionRoutingPacket": "<redacted>"
                            },
                            {
                                "channelId": "2f7c825b61cbbf0e685aef20f8923a8cd28943346e59301b629cc89b4e27cdbd",
                                "id": 1,
                                "amountMsat": 8000000,
                                "paymentHash": "0e0a51de262852c8cd55c92d2f4befa0fc6e584d0328af533ed6f4e1362fc3db",
                                "cltvExpiry": 400144,
                                "onionRoutingPacket": "<redacted>"
                            },
                            {
                                "channelId": "2f7c825b61cbbf0e685aef20f8923a8cd28943346e59301b629cc89b4e27cdbd",
                                "id": 2,
                                "amountMsat": 1000000,
                                "paymentHash": "fb22254abd9621229fe6971c0627beddb01569817f701dbf31f5fe0a32714a1e",
                                "cltvExpiry": 400144,
                                "onionRoutingPacket": "<redacted>"
                            },
                            {
                                "channelId": "2f7c825b61cbbf0e685aef20f8923a8cd28943346e59301b629cc89b4e27cdbd",
                                "id": 3,
                                "amountMsat": 500000,
                                "paymentHash": "b654bd9eccb1a84213b6880dcbbed7a53278ca5c48092dd360805886049c16db",
                                "cltvExpiry": 400144,
                                "onionRoutingPacket": "<redacted>"
                            }
                        ],
                        "feerate": 5000,
                        "toLocal": 740500000,
                        "toRemote": 145700000
                    },
                    "publishableTxs": {
                        "commitTx": {
                            "input": {
                                "outPoint": "bdcd274e9bc89c621b30596e344389d28c3a92f820ef5a680ebfcb615b827c2f:0",
                                "txOut": {
                                    "amount": 1000000,
                                    "publicKeyScript": "00204ba42b50e089764e60e9e0c76c57e41d252d6beb976332f14a7b255bbb5322b8"
                                },
                                "redeemScript": "522102b6eaf304d966a6df90f3b3df7af7be6b1625854bbc096cb8b3507b2a37c2bf9c210385cfd7d8850e4cb8fcbed57310911218e5d5e1fd34f92ef5d9db14d56418caa452ae"
                            },
                            "tx": "020000000001012f7c825b61cbbf0e685aef20f8923a8cd28943346e59301b629cc89b4e27cdbd000000000000b77080074a0100000000000022002046672803839d10e21d43eafb532bc37cd21bd97dec7f9b50d45380cd1cce69654a01000000000000220020bbd7f17366848d8f624c28438128ce4dc8c72ea21deb0ccf25bee110920da032401f0000000000002200206520f0c1ce76af1efb00c648cbb90fd645c162b0f5e4b2b750967644352f71dd50c30000000000002200202a9429e3863a2ef776e475172706053ac34fd5e459a9a2a108797a49614f0ace50c30000000000002200206f9fef6a1c60ac312c4889117dccbb62809ca95476afcf1faa89071109ff4c662439020000000000220020cb93e3adb8d213704e9a07ea2a6ce91dca51a9b76fcb6bef3cc9b5b7e10a7990f8290b00000000002200206aae960776a0a9f526c5ea6841c28baa16a7ae997313ed417dbc55e38fe1c17304004830450221008669f29b67dc5ed41573e218bea0e5bec8195144d064b9f94505208f7986c80102205b1c6714872bce2128b7601cc6d9efe5bd4e1f1215529467ee0e0b310f6eae5b014830450221008065c3eef26d7f1ce10533458d34871d8ae1f1097569b089c4ce87274efda9b6022071f088e2488d6c81e01e3d0b3491f2a5637a99f727d38f0a23f477e23605e9870147522102b6eaf304d966a6df90f3b3df7af7be6b1625854bbc096cb8b3507b2a37c2bf9c210385cfd7d8850e4cb8fcbed57310911218e5d5e1fd34f92ef5d9db14d56418caa452aedf99dc20"
                        },
                        "htlcTxsAndSigs": [
                            {
                                "txinfo": {
                                    "type": "fr.acinq.lightning.transactions.Transactions.TransactionWithInputInfo.HtlcTx.HtlcTimeoutTx",
                                    "input": {
                                        "outPoint": "9cc4da8281ede5c3eb2f4d06752524a2b4483e61931deb8c88bdf9120a925534:2",
                                        "txOut": {
                                            "amount": 8000,
                                            "publicKeyScript": "00206520f0c1ce76af1efb00c648cbb90fd645c162b0f5e4b2b750967644352f71dd"
                                        },
                                        "redeemScript": "76a9149166a758c8ce2d9f0c36df15d8624a3c2d0e01b08763ac67210212f485e05882dc6abe5ca535a3880a1c8b2fb10261ba27c56110d926775d73fc7c820120876475527c210202381f64b9573d9410b135c8f3e9ec876233af900152d2e42211a6aa73835ad952ae67a91465f865edf5b4b3dd8a9ed58605115e43513cc93a88ac6851b27568"
                                    },
                                    "tx": "02000000013455920a12f9bd888ceb1d93613e48b4a2242575064d2febc3e5ed8182dac49c020000000001000000013e120000000000002200206aae960776a0a9f526c5ea6841c28baa16a7ae997313ed417dbc55e38fe1c173101b0600",
                                    "htlcId": 1
                                },
                                "localSig": "74bba8e50d5ed3e335f12f4447ee37149528fbd1122402ce861cb9f721c77a844c03ba7902e70d0ce10264611a005aef5c9beeb850bdac18cef097e35fef3b9f",
                                "remoteSig": "4f6dd32b93928582f463dfcad55e7fa88b2d64ae5dfbae145a863e796e064f125cc447909812ec3227533a6bcde6f6bb1634a7a276cabd4df8f2b49c7108097f"
                            },
                            {
                                "txinfo": {
                                    "type": "fr.acinq.lightning.transactions.Transactions.TransactionWithInputInfo.HtlcTx.HtlcSuccessTx",
                                    "input": {
                                        "outPoint": "9cc4da8281ede5c3eb2f4d06752524a2b4483e61931deb8c88bdf9120a925534:3",
                                        "txOut": {
                                            "amount": 50000,
                                            "publicKeyScript": "00202a9429e3863a2ef776e475172706053ac34fd5e459a9a2a108797a49614f0ace"
                                        },
                                        "redeemScript": "76a9149166a758c8ce2d9f0c36df15d8624a3c2d0e01b08763ac67210212f485e05882dc6abe5ca535a3880a1c8b2fb10261ba27c56110d926775d73fc7c8201208763a914e53b2faa6ce43549d6e8685a8b7e3bc459ebf64c88527c210202381f64b9573d9410b135c8f3e9ec876233af900152d2e42211a6aa73835ad952ae677503101b06b175ac6851b27568"
                                    },
                                    "tx": "02000000013455920a12f9bd888ceb1d93613e48b4a2242575064d2febc3e5ed8182dac49c0300000000010000000186b50000000000002200206aae960776a0a9f526c5ea6841c28baa16a7ae997313ed417dbc55e38fe1c17300000000",
                                    "paymentHash": "31ee886646d6c55841f87b3978f6eb92eb7a3e3532ffa0207aad5a6c25dd6559",
                                    "htlcId": 1
                                },
                                "localSig": "0ca57059edcd8dede992661dd33a3ea0f202e65e36f1db90ee2799d22364db942177bd5855c27cbdf46eb92d40274b2d55e1f1f79cd8efdfb9d6619ea26d8936",
                                "remoteSig": "68f36e3658a730868bd2d4e41a06b7dc0a531ab3af0abe6e7e992e338a809a2e11207db9a81559761b1a70888a34c168382c57e4056950a6465064d75b622f6b"
                            },
                            {
                                "txinfo": {
                                    "type": "fr.acinq.lightning.transactions.Transactions.TransactionWithInputInfo.HtlcTx.HtlcTimeoutTx",
                                    "input": {
                                        "outPoint": "9cc4da8281ede5c3eb2f4d06752524a2b4483e61931deb8c88bdf9120a925534:4",
                                        "txOut": {
                                            "amount": 50000,
                                            "publicKeyScript": "00206f9fef6a1c60ac312c4889117dccbb62809ca95476afcf1faa89071109ff4c66"
                                        },
                                        "redeemScript": "76a9149166a758c8ce2d9f0c36df15d8624a3c2d0e01b08763ac67210212f485e05882dc6abe5ca535a3880a1c8b2fb10261ba27c56110d926775d73fc7c820120876475527c210202381f64b9573d9410b135c8f3e9ec876233af900152d2e42211a6aa73835ad952ae67a914a70d7cbdf2a845a86d8e9d024af809a7bae69dc388ac6851b27568"
                                    },
                                    "tx": "02000000013455920a12f9bd888ceb1d93613e48b4a2242575064d2febc3e5ed8182dac49c040000000001000000014eb60000000000002200206aae960776a0a9f526c5ea6841c28baa16a7ae997313ed417dbc55e38fe1c173101b0600",
                                    "htlcId": 0
                                },
                                "localSig": "4e65c9ae5f8cb18152abde6672cb59a05c037404234d0b97e061e2d3694ecba1330d0731679b8aca9f54074e4ec76b81d693f320f960efac7d00f65f95469587",
                                "remoteSig": "1e8a60f305efbde315e67e296656f1ae28cccae9ea28b2c65316be8e1f2ea8af59411e0fff1f7634622e7d21fbd8650201911caf0744e24ac0ca4c2d315e3c12"
                            }
                        ]
                    }
                },
                "remoteCommit": {
                    "index": 1,
                    "spec": {
                        "htlcsIn": [
                            {
                                "channelId": "2f7c825b61cbbf0e685aef20f8923a8cd28943346e59301b629cc89b4e27cdbd",
                                "id": 0,
                                "amountMsat": 50000000,
                                "paymentHash": "f73e3549be28dea0a905affb32a94f935eb5df20a4366f564d851f5a3da6b562",
                                "cltvExpiry": 400144,
                                "onionRoutingPacket": "<redacted>"
                            },
                            {
                                "channelId": "2f7c825b61cbbf0e685aef20f8923a8cd28943346e59301b629cc89b4e27cdbd",
                                "id": 1,
                                "amountMsat": 8000000,
                                "paymentHash": "0e0a51de262852c8cd55c92d2f4befa0fc6e584d0328af533ed6f4e1362fc3db",
                                "cltvExpiry": 400144,
                                "onionRoutingPacket": "<redacted>"
                            },
                            {
                                "channelId": "2f7c825b61cbbf0e685aef20f8923a8cd28943346e59301b629cc89b4e27cdbd",
                                "id": 2,
                                "amountMsat": 1000000,
                                "paymentHash": "fb22254abd9621229fe6971c0627beddb01569817f701dbf31f5fe0a32714a1e",
                                "cltvExpiry": 400144,
                                "onionRoutingPacket": "<redacted>"
                            },
                            {
                                "channelId": "2f7c825b61cbbf0e685aef20f8923a8cd28943346e59301b629cc89b4e27cdbd",
                                "id": 3,
                                "amountMsat": 500000,
                                "paymentHash": "b654bd9eccb1a84213b6880dcbbed7a53278ca5c48092dd360805886049c16db",
                                "cltvExpiry": 400144,
                                "onionRoutingPacket": "<redacted>"
                            }
                        ],
                        "htlcsOut": [],
                        "feerate": 5000,
                        "toLocal": 200000000,
                        "toRemote": 740500000
                    },
                    "txid": "b90aa4d67ddfca7b850711aa8f69c2b0309f7e36113360c6e42ff12f5824bfd6",
                    "remotePerCommitmentPoint": "03c57839fd412868a398bea05d01678a752661126a2d1357a0f7cb6f0c60311125"
                },
                "nextRemoteCommit": null
            }
        ],
        "inactive": [],
        "payments": {
            "0": "fc04440c-9db0-4d12-98bc-ab3197ddd10a",
            "1": "cc5751b1-6c0a-4828-a26c-6a6e57fd4eaa",
            "2": "c747ac2e-a7bc-4483-afd9-e2f1c41fdf1c",
            "3": "96306260-38b0-436e-bdf2-1b21d9cebac3"
        },
        "remoteNextCommitInfo": {
            "left": null,
            "right": "026c604452e1a154575f1fd5966389c2c686c0b4b72370da0b33764c66b5a8f40e"
        },
        "remotePerCommitmentSecrets": "<redacted>"
    },
    "shortChannelId": "400144x1x0",
    "channelUpdate": {
        "signature": "11bf3cb610e8089d89d10b1e5e3e95d306add9daefa38527fdf8294fb8a9eb3c2537093ad8a63f2c2461ca4207da31e65087db30ccc823bc944313216bb95fa6",
        "chainHash": "06226e46111a0b59caaf126043eb5bbf28c34f3a5e332a1fc7b2b73cf188910f",
        "shortChannelId": "400144x1x0",
        "timestampSeconds": 1666878663,
        "messageFlags": 1,
        "channelFlags": 1,
        "cltvExpiryDelta": 144,
        "htlcMinimumMsat": 1000,
        "feeBaseMsat": 100,
        "feeProportionalMillionths": 10,
        "htlcMaximumMsat": 1000000000
    },
    "remoteChannelUpdate": null,
    "spliceStatus": {
        "status": "None"
    },
    "localShutdown": null,
    "remoteShutdown": null,
    "closeCommand": null
}