{
    "type": "fr.acinq.lightning.channel.states.Closing",
    "commitments": {
        "channelParams": {
            "channelId": "17349e4aedef0df55786bb7c898ed26f9efb0e9137e39842305225abbac15de8",
            "channelConfig": [
                "funding_pubkey_based_channel_keypath"
            ],
            "channelFeatures": [
                "option_static_remotekey",
                "option_anchor_outputs",
                "option_dual_fund"
            ],
            "localParams": {
                "nodeId": "037108815ff0128f7ed22640485c226d9ad64a9fd6d8b41b6623565aed6b34812c",
                "fundingKeyPath": "m/988333220/1233482617/73416351/822863940/1638212389'/107957142/841980396'/1796858398/1'",
                "isChannelOpener": true,
                "paysCommitTxFees": false,
                "defaultFinalScriptPubKey": "001405e0104aa726e34ff5cd3a6320d05c0862b5b01c",
                "features": {
                    "activated": {
                        "option_data_loss_protect": "Optional",
                        "var_onion_optin": "Mandatory",
                        "option_static_remotekey": "Mandatory",
                        "payment_secret": "Mandatory",
                        "basic_mpp": "Optional",
                        "option_support_large_channel": "Optional",
                        "option_anchor_outputs": "Mandatory",
                        "option_route_blinding": "Optional",
                        "option_dual_fund": "Mandatory",
                        "option_channel_type": "Mandatory",
                        "wake_up_notification_provider": "Optional",
                        "trampoline_payment_experimental": "Optional"
                    },
                    "unknown": [
                        139,
                        147
                    ]
                }
            },
            "remoteParams": {
                "nodeId": "0362b19a83930389b4468be40308efb3f352b23142ae25e6aba0465a8220f95b06",
                "revocationBasepoint": "03b33355c6736888c21140c7cc917a513e35e4b16809b38aca76c24f51ee10fcc5",
                "paymentBasepoint": "03e319244d04f711041512e69b07bd1b9788c940e72686ab2d850bd2c3e8a9ce56",
                "delayedPaymentBasepoint": "03fa7444cb2c4c91144ff348305a7c6b6097a0d9e930f20dc4281437fe9426493a",
                "htlcBasepoint": "02bce68950c20681c472ddc8a0cb89e2d333586edbd8baf59b689adb0f8410fa66",
                "features": {
                    "activated": {
                        "option_data_loss_protect": "Optional",
                        "var_onion_optin": "Mandatory",
                        "option_static_remotekey": "Mandatory",
                        "payment_secret": "Mandatory",
                        "basic_mpp": "Optional",
                        "option_support_large_channel": "Optional",
                        "option_anchor_outputs": "Optional",
                        "option_route_blinding": "Optional",
                        "option_shutdown_anysegwit": "Mandatory",
                        "option_dual_fund": "Mandatory",
                        "option_quiescence": "Mandatory",
                        "option_channel_type": "Mandatory",
                        "zero_reserve_channels": "Optional",
                        "wake_up_notification_client": "Optional",
                        "trampoline_payment_experimental": "Optional"
                    },
                    "unknown": [
                        137,
                        145,
                        155
                    ]
                }
            },
            "channelFlags": {
                "announceChannel": false,
                "nonInitiatorPaysCommitFees": false
            }
        },
        "changes": {
            "localChanges": {
                "proposed": [],
                "signed": [],
                "acked": []
            },
            "remoteChanges": {
                "proposed": [],
                "acked": [],
                "signed": []
            },
            "localNextHtlcId": 2,
            "remoteNextHtlcId": 2
        },
        "active": [
            {
                "fundingTxIndex": 0,
                "fundingInput": "91e599d9edf2d5f111d7e626424e9f70836c4a742298f4340082f536a311c492:0",
                "fundingAmount": 1000000,
                "remoteFundingPubkey": "03e5ca03e7ca5de071fe7d6d3f0608bb00df32416942af27ffa946b9904af31fdd",
                "localFundingStatus": {
                    "status": "confirmed",
                    "txId": "91e599d9edf2d5f111d7e626424e9f70836c4a742298f4340082f536a311c492"
                },
                "remoteFundingStatus": {
                    "status": "not-locked"
                },
                "commitmentFormat": {
                    "rfcName": "anchor_outputs"
                },
                "localCommitParams": {
                    "dustLimit": 1100,
                    "maxHtlcValueInFlightMsat": 1500000000,
                    "htlcMinimum": 0,
                    "toSelfDelay": 144,
                    "maxAcceptedHtlcs": 100
                },
                "localCommit": {
                    "index": 5,
                    "spec": {
                        "htlcsIn": [],
                        "htlcsOut": [],
                        "feerate": 5000,
                        "toLocal": 800000000,
                        "toRemote": 200000000
                    },
                    "txId": "1f369b753124adac5fedce5d6eae5539c08261b29fbc291f4e365c295f68dbb5",
                    "remoteSig": {
                        "sig": "716bbeadfc5a323082f8c2e4c9b401f2cf07bd71d7d47fa31effa54ef1c6ff5f463be28b9beecba893f0c1df47610a0c201605391d312e8607a647db13938cf6",
                        "nonce": null
                    },
                    "htlcRemoteSigs": []
                },
                "remoteCommitParams": {
                    "dustLimit": 1000,
                    "maxHtlcValueInFlightMsat": 1500000000,
                    "htlcMinimum": 1000,
                    "toSelfDelay": 144,
                    "maxAcceptedHtlcs": 100
                },
                "remoteCommit": {
                    "index": 6,
                    "spec": {
                        "htlcsIn": [],
                        "htlcsOut": [],
                        "feerate": 5000,
                        "toLocal": 200000000,
                        "toRemote": 800000000
                    },
                    "txid": "cc20acd79e6a2bd11805438fe3d07432d29fe73292db987b015d1702d59ef0b0",
                    "remotePerCommitmentPoint": "020749b1acc2253384dd9423bbc3b9d3c03fe2c925655b90173ffb4c7ee28cc495"
                },
                "nextRemoteCommit": null
            }
        ],
        "inactive": [],
        "payments": {},
        "remoteNextCommitInfo": {
            "left": null,
            "right": "03ae5ac41b2fe88f491c9549b770ce4bcb5f80bec469946562b23632cf57104310"
        },
        "remotePerCommitmentSecrets": "<redacted>"
    },
    "waitingSinceBlock": 400000,
    "revokedCommitPublished": [
        {
            "commitTx": "0200000000010192c411a336f5820034f49822744a6c83709f4e4226e6d711f1d5f2edd999e59100000000001703a580084a01000000000000220020ae3699b4009a977bc9f6ddfdb01acd73a50a7df45d8fad51a92c1da8f2a1adf94a01000000000000220020cdf1f91af81ba62f260048245896f15fdba08490d1f99ce469c5868c16169b1350460000000000002200200c9697ffb9f0f0b4b602851122e042ff2e1ced15687653fce95fbd4f7c8c9fff204e00000000000022002062a03a86a6b1c7053ed40b9b6d5aa6628b19280f71ded04ff0b635210c77a5b0a861000000000000220020e2021599a4f215f570db24fc3386b93e6fdd61acceac359057a8250f9fce2982b888000000000000220020d4c8f54ce363c3706dc3f4ec5f294aaab8b552fb48226157f3db6793ad48f1e4d07802000000000022002029ce54f9eff2ada570202d729bb514966271166a3cbd97e6a9a00c54bae34b6ea8240b0000000000220020e9ac2543d600156674d6a8f9bc7a98c205f187b948a56d5bd24fc564c1831465040047304402205d899dfb1007e4bfd2b766522c357a3bc93239091aec6f3545245b8576ce1a2702207b6918175806b3864c8f255c898269505c8614fa7f6eff67e8d3478ab71eadaf01483045022100ec65efa8a323db6013242fb9bcaf2f661fccab60a6ffdc02fca82a855744f1fd02202799d0bd3f39a6042bbe4b194ad1c167099ede267d2656ec6d17cb9991d57be4014752210200657a0595392c568dc82fb40a9353e903d3631621f9cda522e793a21e3f582c2103e5ca03e7ca5de071fe7d6d3f0608bb00df32416942af27ffa946b9904af31fdd52ae0abf8120",
            "remotePerCommitmentSecret": "<redacted>",
            "localOutput": "2361ebfdad7093e7ca83f74311e6f81751057274caf5b89146915403cfbc379c:7",
            "remoteOutput": "2361ebfdad7093e7ca83f74311e6f81751057274caf5b89146915403cfbc379c:6",
            "htlcOutputs": [
                "2361ebfdad7093e7ca83f74311e6f81751057274caf5b89146915403cfbc379c:2",
                "2361ebfdad7093e7ca83f74311e6f81751057274caf5b89146915403cfbc379c:3",
                "2361ebfdad7093e7ca83f74311e6f81751057274caf5b89146915403cfbc379c:4",
                "2361ebfdad7093e7ca83f74311e6f81751057274caf5b89146915403cfbc379c:5"
            ],
            "htlcDelayedOutputs": [
                "587b2eb17f9fb99cdd9dafc0805f4db35b15699542ff30a64d30eee39e0dd91f:0",
                "283f70774fd61e202a54d7f05bfdd5094e66ccd4deb2eed6f7303b95f55d7a54:0"
            ],
            "irrevocablySpent": {}
        }
    ]
}