{
    "type": "fr.acinq.lightning.channel.states.Closing",
    "commitments": {
        "params": {
            "channelId": "17349e4aedef0df55786bb7c898ed26f9efb0e9137e39842305225abbac15de8",
            "channelConfig": [
                "funding_pubkey_based_channel_keypath"
            ],
            "channelFeatures": [
                "option_static_remotekey",
                "option_anchor_outputs",
                "option_dual_fund"
            ],
            "localParams": {
                "nodeId": "037108815ff0128f7ed22640485c226d9ad64a9fd6d8b41b6623565aed6b34812c",
                "fundingKeyPath": "m/988333220/1233482617/73416351/822863940/1638212389'/107957142/841980396'/1796858398/1'",
                "dustLimit": 1100,
                "maxHtlcValueInFlightMsat": 1500000000,
                "htlcMinimum": 0,
                "toSelfDelay": 144,
                "maxAcceptedHtlcs": 100,
                "isChannelOpener": true,
                "paysCommitTxFees": false,
                "defaultFinalScriptPubKey": "001405e0104aa726e34ff5cd3a6320d05c0862b5b01c",
                "features": {
                    "activated": {
                        "option_data_loss_protect": "Optional",
                        "var_onion_optin": "Mandatory",
                        "option_static_remotekey": "Mandatory",
                        "payment_secret": "Mandatory",
                        "basic_mpp": "Optional",
                        "option_support_large_channel": "Optional",
                        "option_anchor_outputs": "Mandatory",
                        "option_route_blinding": "Optional",
                        "option_dual_fund": "Mandatory",
                        "option_channel_type": "Mandatory",
                        "wake_up_notification_provider": "Optional",
                        "trampoline_payment_experimental": "Optional"
                    },
                    "unknown": [
                        139,
                        147
                    ]
                }
            },
            "remoteParams": {
                "nodeId": "0362b19a83930389b4468be40308efb3f352b23142ae25e6aba0465a8220f95b06",
                "dustLimit": 1000,
                "maxHtlcValueInFlightMsat": 1500000000,
                "htlcMinimum": 1000,
                "toSelfDelay": 144,
                "maxAcceptedHtlcs": 100,
                "revocationBasepoint": "03b33355c6736888c21140c7cc917a513e35e4b16809b38aca76c24f51ee10fcc5",
                "paymentBasepoint": "03e319244d04f711041512e69b07bd1b9788c940e72686ab2d850bd2c3e8a9ce56",
                "delayedPaymentBasepoint": "03fa7444cb2c4c91144ff348305a7c6b6097a0d9e930f20dc4281437fe9426493a",
                "htlcBasepoint": "02bce68950c20681c472ddc8a0cb89e2d333586edbd8baf59b689adb0f8410fa66",
                "features": {
                    "activated": {
                        "option_data_loss_protect": "Optional",
                        "var_onion_optin": "Mandatory",
                        "option_static_remotekey": "Mandatory",
                        "payment_secret": "Mandatory",
                        "basic_mpp": "Optional",
                        "option_support_large_channel": "Optional",
                        "option_anchor_outputs": "Optional",
                        "option_route_blinding": "Optional",
                        "option_shutdown_anysegwit": "Mandatory",
                        "option_dual_fund": "Mandatory",
                        "option_quiescence": "Mandatory",
                        "option_channel_type": "Mandatory",
                        "zero_reserve_channels": "Optional",
                        "wake_up_notification_client": "Optional",
                        "trampoline_payment_experimental": "Optional",
                        "splice_experimental": "Optional"
                    },
                    "unknown": [
                        137,
                        145
                    ]
                }
            },
            "channelFlags": {
                "announceChannel": false,
                "nonInitiatorPaysCommitFees": false
            }
        },
        "changes": {
            "localChanges": {
                "proposed": [],
                "signed": [],
                "acked": []
            },
            "remoteChanges": {
                "proposed": [],
                "acked": [],
                "signed": []
            },
            "localNextHtlcId": 2,
            "remoteNextHtlcId": 2
        },
        "active": [
            {
                "fundingTxIndex": 0,
                "remoteFundingPubkey": "03e5ca03e7ca5de071fe7d6d3f0608bb00df32416942af27ffa946b9904af31fdd",
                "localFundingStatus": {
                    "status": "confirmed",
                    "txId": "91e599d9edf2d5f111d7e626424e9f70836c4a742298f4340082f536a311c492"
                },
                "remoteFundingStatus": {
                    "status": "not-locked"
                },
                "localCommit": {
                    "index": 5,
                    "spec": {
                        "htlcsIn": [],
                        "htlcsOut": [],
                        "feerate": 5000,
                        "toLocal": 800000000,
                        "toRemote": 200000000
                    },
                    "publishableTxs": {
                        "commitTx": {
                            "input": {
                                "outPoint": "91e599d9edf2d5f111d7e626424e9f70836c4a742298f4340082f536a311c492:0",
                                "txOut": {
                                    "amount": 1000000,
                                    "publicKeyScript": "0020fc81f1c848101539be21ca416a5ae4484d712e1d28102306abd861637bf16bec"
                                },
                                "redeemScript": "52210200657a0595392c568dc82fb40a9353e903d3631621f9cda522e793a21e3f582c2103e5ca03e7ca5de071fe7d6d3f0608bb00df32416942af27ffa946b9904af31fdd52ae"
                            },
                            "tx": "0200000000010192c411a336f5820034f49822744a6c83709f4e4226e6d711f1d5f2edd999e59100000000001703a580044a01000000000000220020ae3699b4009a977bc9f6ddfdb01acd73a50a7df45d8fad51a92c1da8f2a1adf94a01000000000000220020cdf1f91af81ba62f260048245896f15fdba08490d1f99ce469c5868c16169b13400d0300000000002200207e95cbde18069fe70f6644c8a32ee72d36cc7a472f0130513ebf2c35a26a6501781c0c000000000022002023cda1884857117b9680b6fc3ebd0d04b498527107581f596b42c6fcb1dc404f040047304402202e35c0a4eb65e452a6614bc46b99e1066462f2a4c056bb08136f5c7d52bc3d5f02205715b2e88af9f1ce02746b8b9b64221010437f76d6f5b4cae0041661ee14a568014730440220716bbeadfc5a323082f8c2e4c9b401f2cf07bd71d7d47fa31effa54ef1c6ff5f0220463be28b9beecba893f0c1df47610a0c201605391d312e8607a647db13938cf6014752210200657a0595392c568dc82fb40a9353e903d3631621f9cda522e793a21e3f582c2103e5ca03e7ca5de071fe7d6d3f0608bb00df32416942af27ffa946b9904af31fdd52ae0bbf8120"
                        },
                        "htlcTxsAndSigs": []
                    }
                },
                "remoteCommit": {
                    "index": 6,
                    "spec": {
                        "htlcsIn": [],
                        "htlcsOut": [],
                        "feerate": 5000,
                        "toLocal": 200000000,
                        "toRemote": 800000000
                    },
                    "txid": "cc20acd79e6a2bd11805438fe3d07432d29fe73292db987b015d1702d59ef0b0",
                    "remotePerCommitmentPoint": "020749b1acc2253384dd9423bbc3b9d3c03fe2c925655b90173ffb4c7ee28cc495"
                },
                "nextRemoteCommit": null
            }
        ],
        "inactive": [],
        "payments": {},
        "remoteNextCommitInfo": {
            "left": null,
            "right": "03ae5ac41b2fe88f491c9549b770ce4bcb5f80bec469946562b23632cf57104310"
        },
        "remotePerCommitmentSecrets": "<redacted>"
    },
    "waitingSinceBlock": 400000,
    "revokedCommitPublished": [
        {
            "commitTx": "0200000000010192c411a336f5820034f49822744a6c83709f4e4226e6d711f1d5f2edd999e59100000000001703a580084a01000000000000220020ae3699b4009a977bc9f6ddfdb01acd73a50a7df45d8fad51a92c1da8f2a1adf94a01000000000000220020cdf1f91af81ba62f260048245896f15fdba08490d1f99ce469c5868c16169b1350460000000000002200200c9697ffb9f0f0b4b602851122e042ff2e1ced15687653fce95fbd4f7c8c9fff204e00000000000022002062a03a86a6b1c7053ed40b9b6d5aa6628b19280f71ded04ff0b635210c77a5b0a861000000000000220020e2021599a4f215f570db24fc3386b93e6fdd61acceac359057a8250f9fce2982b888000000000000220020d4c8f54ce363c3706dc3f4ec5f294aaab8b552fb48226157f3db6793ad48f1e4d07802000000000022002029ce54f9eff2ada570202d729bb514966271166a3cbd97e6a9a00c54bae34b6ea8240b0000000000220020e9ac2543d600156674d6a8f9bc7a98c205f187b948a56d5bd24fc564c1831465040047304402205d899dfb1007e4bfd2b766522c357a3bc93239091aec6f3545245b8576ce1a2702207b6918175806b3864c8f255c898269505c8614fa7f6eff67e8d3478ab71eadaf01483045022100ec65efa8a323db6013242fb9bcaf2f661fccab60a6ffdc02fca82a855744f1fd02202799d0bd3f39a6042bbe4b194ad1c167099ede267d2656ec6d17cb9991d57be4014752210200657a0595392c568dc82fb40a9353e903d3631621f9cda522e793a21e3f582c2103e5ca03e7ca5de071fe7d6d3f0608bb00df32416942af27ffa946b9904af31fdd52ae0abf8120",
            "remotePerCommitmentSecret": "<redacted>",
            "claimMainOutputTx": {
                "type": "fr.acinq.lightning.transactions.Transactions.TransactionWithInputInfo.ClaimRemoteCommitMainOutputTx.ClaimRemoteDelayedOutputTx",
                "input": {
                    "outPoint": "2361ebfdad7093e7ca83f74311e6f81751057274caf5b89146915403cfbc379c:7",
                    "txOut": {
                        "amount": 730280,
                        "publicKeyScript": "0020e9ac2543d600156674d6a8f9bc7a98c205f187b948a56d5bd24fc564c1831465"
                    },
                    "redeemScript": "21026cda5cf8658fbe76136b0369cbbdca3fcdad28156cbf2d33f019a1dd768c40e9ad51b2"
                },
                "tx": "020000000001019c37bccf0354914691b8f5ca7472055117f8e61143f783cae79370adfdeb612307000000000100000001061c0b000000000016001405e0104aa726e34ff5cd3a6320d05c0862b5b01c02473044022077aebad2c1c4cd33926d0a9e5a9bb4b737f1c952137369ff0eeed43e960d3d4702204d3ed12a664c95e44a46956c4488c96e07cf0ec170bcff7befccb01fbf77d341012521026cda5cf8658fbe76136b0369cbbdca3fcdad28156cbf2d33f019a1dd768c40e9ad51b200000000"
            },
            "mainPenaltyTx": {
                "input": {
                    "outPoint": "2361ebfdad7093e7ca83f74311e6f81751057274caf5b89146915403cfbc379c:6",
                    "txOut": {
                        "amount": 162000,
                        "publicKeyScript": "002029ce54f9eff2ada570202d729bb514966271166a3cbd97e6a9a00c54bae34b6e"
                    },
                    "redeemScript": "632103a85952bcb47e5d731bcf1929b325ed9820a90d13c72e5b226ab1454cadb0182467029000b2752103fe7ad7666963051b72ee189434ad5c6c3e8c957028d9099ef934c46b1bbcca2d68ac"
                },
                "tx": "020000000001019c37bccf0354914691b8f5ca7472055117f8e61143f783cae79370adfdeb61230600000000ffffffff015c6f02000000000016001405e0104aa726e34ff5cd3a6320d05c0862b5b01c03483045022100fad6df8469266bf75a52a9736fc222fe439ffb1718c2d62a30011581365df7c50220174875931558a27c3287b462d854876701531201542d122b12b5334edb5112a90101014d632103a85952bcb47e5d731bcf1929b325ed9820a90d13c72e5b226ab1454cadb0182467029000b2752103fe7ad7666963051b72ee189434ad5c6c3e8c957028d9099ef934c46b1bbcca2d68ac00000000"
            },
            "htlcPenaltyTxs": [
                {
                    "input": {
                        "outPoint": "2361ebfdad7093e7ca83f74311e6f81751057274caf5b89146915403cfbc379c:2",
                        "txOut": {
                            "amount": 18000,
                            "publicKeyScript": "00200c9697ffb9f0f0b4b602851122e042ff2e1ced15687653fce95fbd4f7c8c9fff"
                        },
                        "redeemScript": "76a91486b48a02d036113b6b80597633e7ca4e7a4523628763ac672103b1fa0fdca5c7b8c5e13317e9f7a63f453421ad83a1e8938f38dfbc08a6fd112b7c820120876475527c2102167dea8ff4caca0032f2898afb73bb756cf8fbb7f4cbe833fa2edf676b07e87e52ae67a914aabaafe106e28c053668b0fb2dba56914f4333e888ac6851b27568"
                    },
                    "tx": "020000000001019c37bccf0354914691b8f5ca7472055117f8e61143f783cae79370adfdeb61230200000000ffffffff01b53b00000000000016001405e0104aa726e34ff5cd3a6320d05c0862b5b01c0347304402203359b132fc136ed2a82496ce6d40c7c907beabdb0f521a8094ecccdfc7b2d63202204ee87c11efbcd7ddf2095234367dc4c2f7e200f49e5052fe592131fccdeab579012103a85952bcb47e5d731bcf1929b325ed9820a90d13c72e5b226ab1454cadb018248876a91486b48a02d036113b6b80597633e7ca4e7a4523628763ac672103b1fa0fdca5c7b8c5e13317e9f7a63f453421ad83a1e8938f38dfbc08a6fd112b7c820120876475527c2102167dea8ff4caca0032f2898afb73bb756cf8fbb7f4cbe833fa2edf676b07e87e52ae67a914aabaafe106e28c053668b0fb2dba56914f4333e888ac6851b2756800000000"
                },
                {
                    "input": {
                        "outPoint": "2361ebfdad7093e7ca83f74311e6f81751057274caf5b89146915403cfbc379c:3",
                        "txOut": {
                            "amount": 20000,
                            "publicKeyScript": "002062a03a86a6b1c7053ed40b9b6d5aa6628b19280f71ded04ff0b635210c77a5b0"
                        },
                        "redeemScript": "76a91486b48a02d036113b6b80597633e7ca4e7a4523628763ac672103b1fa0fdca5c7b8c5e13317e9f7a63f453421ad83a1e8938f38dfbc08a6fd112b7c820120876475527c2102167dea8ff4caca0032f2898afb73bb756cf8fbb7f4cbe833fa2edf676b07e87e52ae67a914e425cd14d1517915dc36b0b27cb937c07dd05bd288ac6851b27568"
                    },
                    "tx": "020000000001019c37bccf0354914691b8f5ca7472055117f8e61143f783cae79370adfdeb61230300000000ffffffff01854300000000000016001405e0104aa726e34ff5cd3a6320d05c0862b5b01c03483045022100c9c9dfeb598c1d2d6ac4e79d7e5b99a957ef642d3852319d2ec5ade0a56e878702200f8e9358a4298e919a87f2f323eb6224bfce74839d6a956ad35c1f974b4f2bfe012103a85952bcb47e5d731bcf1929b325ed9820a90d13c72e5b226ab1454cadb018248876a91486b48a02d036113b6b80597633e7ca4e7a4523628763ac672103b1fa0fdca5c7b8c5e13317e9f7a63f453421ad83a1e8938f38dfbc08a6fd112b7c820120876475527c2102167dea8ff4caca0032f2898afb73bb756cf8fbb7f4cbe833fa2edf676b07e87e52ae67a914e425cd14d1517915dc36b0b27cb937c07dd05bd288ac6851b2756800000000"
                },
                {
                    "input": {
                        "outPoint": "2361ebfdad7093e7ca83f74311e6f81751057274caf5b89146915403cfbc379c:4",
                        "txOut": {
                            "amount": 25000,
                            "publicKeyScript": "0020e2021599a4f215f570db24fc3386b93e6fdd61acceac359057a8250f9fce2982"
                        },
                        "redeemScript": "76a91486b48a02d036113b6b80597633e7ca4e7a4523628763ac672103b1fa0fdca5c7b8c5e13317e9f7a63f453421ad83a1e8938f38dfbc08a6fd112b7c8201208763a91450256d581171efda65d11c9bfaec3291101ea51688527c2102167dea8ff4caca0032f2898afb73bb756cf8fbb7f4cbe833fa2edf676b07e87e52ae677503101b06b175ac6851b27568"
                    },
                    "tx": "020000000001019c37bccf0354914691b8f5ca7472055117f8e61143f783cae79370adfdeb61230400000000ffffffff01ef5600000000000016001405e0104aa726e34ff5cd3a6320d05c0862b5b01c03483045022100b04e61783b161bf4b2ed713336c8e7113f85d64de5b02bd8b63de4b5a81a5fe302206914fb263c8a3756e2c39400a6f8ef16adc011269041e86f7aa23e8b748111b2012103a85952bcb47e5d731bcf1929b325ed9820a90d13c72e5b226ab1454cadb018248e76a91486b48a02d036113b6b80597633e7ca4e7a4523628763ac672103b1fa0fdca5c7b8c5e13317e9f7a63f453421ad83a1e8938f38dfbc08a6fd112b7c8201208763a91450256d581171efda65d11c9bfaec3291101ea51688527c2102167dea8ff4caca0032f2898afb73bb756cf8fbb7f4cbe833fa2edf676b07e87e52ae677503101b06b175ac6851b2756800000000"
                },
                {
                    "input": {
                        "outPoint": "2361ebfdad7093e7ca83f74311e6f81751057274caf5b89146915403cfbc379c:5",
                        "txOut": {
                            "amount": 35000,
                            "publicKeyScript": "0020d4c8f54ce363c3706dc3f4ec5f294aaab8b552fb48226157f3db6793ad48f1e4"
                        },
                        "redeemScript": "76a91486b48a02d036113b6b80597633e7ca4e7a4523628763ac672103b1fa0fdca5c7b8c5e13317e9f7a63f453421ad83a1e8938f38dfbc08a6fd112b7c8201208763a91490272d83f3f0f695f20d515925c67a93ce4b6af888527c2102167dea8ff4caca0032f2898afb73bb756cf8fbb7f4cbe833fa2edf676b07e87e52ae677503101b06b175ac6851b27568"
                    },
                    "tx": "020000000001019c37bccf0354914691b8f5ca7472055117f8e61143f783cae79370adfdeb61230500000000ffffffff01ff7d00000000000016001405e0104aa726e34ff5cd3a6320d05c0862b5b01c03483045022100d9782e0c2c1fe069329791d917847b1c03081219f23a353952cc41ca9bc0937b022064a59867560c0007935b36633b7154217eba36e7751c31f71b6ef78afeb6857c012103a85952bcb47e5d731bcf1929b325ed9820a90d13c72e5b226ab1454cadb018248e76a91486b48a02d036113b6b80597633e7ca4e7a4523628763ac672103b1fa0fdca5c7b8c5e13317e9f7a63f453421ad83a1e8938f38dfbc08a6fd112b7c8201208763a91490272d83f3f0f695f20d515925c67a93ce4b6af888527c2102167dea8ff4caca0032f2898afb73bb756cf8fbb7f4cbe833fa2edf676b07e87e52ae677503101b06b175ac6851b2756800000000"
                }
            ],
            "claimHtlcDelayedPenaltyTxs": [
                {
                    "input": {
                        "outPoint": "587b2eb17f9fb99cdd9dafc0805f4db35b15699542ff30a64d30eee39e0dd91f:0",
                        "txOut": {
                            "amount": 31470,
                            "publicKeyScript": "002029ce54f9eff2ada570202d729bb514966271166a3cbd97e6a9a00c54bae34b6e"
                        },
                        "redeemScript": "632103a85952bcb47e5d731bcf1929b325ed9820a90d13c72e5b226ab1454cadb0182467029000b2752103fe7ad7666963051b72ee189434ad5c6c3e8c957028d9099ef934c46b1bbcca2d68ac"
                    },
                    "tx": "020000000001011fd90d9ee3ee304da630ff429569155bb34d5f80c0af9ddd9cb99f7fb12e7b580000000000ffffffff017a7100000000000016001405e0104aa726e34ff5cd3a6320d05c0862b5b01c03483045022100d84fd7d4a1b85c5e90b18710f160bcff0ec40f0cc29f2548da770d5a74f2c8f902203a1e9e0e3bc8c2428075164c6d6331dbd56c1af17371a6e32b9795514b29d0a10101014d632103a85952bcb47e5d731bcf1929b325ed9820a90d13c72e5b226ab1454cadb0182467029000b2752103fe7ad7666963051b72ee189434ad5c6c3e8c957028d9099ef934c46b1bbcca2d68ac00000000"
                },
                {
                    "input": {
                        "outPoint": "283f70774fd61e202a54d7f05bfdd5094e66ccd4deb2eed6f7303b95f55d7a54:0",
                        "txOut": {
                            "amount": 14670,
                            "publicKeyScript": "002029ce54f9eff2ada570202d729bb514966271166a3cbd97e6a9a00c54bae34b6e"
                        },
                        "redeemScript": "632103a85952bcb47e5d731bcf1929b325ed9820a90d13c72e5b226ab1454cadb0182467029000b2752103fe7ad7666963051b72ee189434ad5c6c3e8c957028d9099ef934c46b1bbcca2d68ac"
                    },
                    "tx": "02000000000101547a5df5953b30f7d6eeb2ded4cc664e09d5fd5bf0d7542a201ed64f77703f280000000000ffffffff01da2f00000000000016001405e0104aa726e34ff5cd3a6320d05c0862b5b01c0347304402201bd91ba3a9f24f54f75af3f8db7860c6251a047472f5e855690a5d18dafcff350220009fc5412a203e4b0d531bc0053ee5e2b68752d36e615cb33ca14b5a4228e7910101014d632103a85952bcb47e5d731bcf1929b325ed9820a90d13c72e5b226ab1454cadb0182467029000b2752103fe7ad7666963051b72ee189434ad5c6c3e8c957028d9099ef934c46b1bbcca2d68ac00000000"
                }
            ]
        }
    ]
}