{
    "type": "fr.acinq.lightning.channel.Normal",
    "commitments": {
        "params": {
            "channelId": "2f7c825b61cbbf0e685aef20f8923a8cd28943346e59301b629cc89b4e27cdbd",
            "channelConfig": [
                "funding_pubkey_based_channel_keypath"
            ],
            "channelFeatures": [
                "option_static_remotekey",
                "option_support_large_channel",
                "option_anchor_outputs"
            ],
            "localParams": {
                "nodeId": "037108815ff0128f7ed22640485c226d9ad64a9fd6d8b41b6623565aed6b34812c",
                "fundingKeyPath": "m/385048399/1977025879/604622566/184658546/776346346/949304342'/277944247'/2049339775'/1'",
                "dustLimit": 1100,
                "maxHtlcValueInFlightMsat": 1500000000,
                "htlcMinimum": 0,
                "toSelfDelay": 144,
                "maxAcceptedHtlcs": 100,
                "isInitiator": true,
                "defaultFinalScriptPubKey": "001405e0104aa726e34ff5cd3a6320d05c0862b5b01c",
                "features": {
                    "activated": {
                        "initial_routing_sync": "Optional",
                        "option_data_loss_protect": "Optional",
                        "gossip_queries": "Optional",
                        "gossip_queries_ex": "Optional",
                        "var_onion_optin": "Mandatory",
                        "payment_secret": "Mandatory",
                        "basic_mpp": "Optional",
                        "option_support_large_channel": "Optional",
                        "option_static_remotekey": "Mandatory",
                        "option_anchor_outputs": "Mandatory",
                        "option_channel_type": "Mandatory",
                        "option_payment_metadata": "Optional",
                        "trampoline_payment_experimental": "Optional",
                        "wake_up_notification_provider": "Optional",
                        "pay_to_open_provider": "Optional",
                        "trusted_swap_in_provider": "Optional",
                        "channel_backup_provider": "Optional"
                    },
                    "unknown": [
                    ]
                }
            },
            "remoteParams": {
                "nodeId": "0362b19a83930389b4468be40308efb3f352b23142ae25e6aba0465a8220f95b06",
                "dustLimit": 1000,
                "maxHtlcValueInFlightMsat": 1500000000,
                "htlcMinimum": 1000,
                "toSelfDelay": 144,
                "maxAcceptedHtlcs": 100,
                "fundingPubKey": "0385cfd7d8850e4cb8fcbed57310911218e5d5e1fd34f92ef5d9db14d56418caa4",
                "revocationBasepoint": "03a42aef6d1c860caffa6c71a6f8ac2b16eec25bab0c3950cdb1fad7fb38a5f2a5",
                "paymentBasepoint": "02508e1845b8bbe0773f6bf8f3f04f59a5896426765c7b6b23e6e466c95381182b",
                "delayedPaymentBasepoint": "02d62233b7c33f8fd0911922461a651007f1de09d8c474029caa8f2c229c10de26",
                "htlcBasepoint": "03d05c8245bdc12efd8b070b22b276e7db4254f4693e22b3f7c978c08e67b36236",
                "features": {
                    "activated": {
                        "option_data_loss_protect": "Optional",
                        "initial_routing_sync": "Optional",
                        "gossip_queries": "Optional",
                        "var_onion_optin": "Mandatory",
                        "gossip_queries_ex": "Optional",
                        "option_static_remotekey": "Mandatory",
                        "payment_secret": "Mandatory",
                        "basic_mpp": "Optional",
                        "option_support_large_channel": "Optional",
                        "option_anchor_outputs": "Mandatory",
                        "option_channel_type": "Mandatory",
                        "option_payment_metadata": "Optional",
                        "wake_up_notification_client": "Optional",
                        "pay_to_open_client": "Optional",
                        "trusted_swap_in_client": "Optional",
                        "channel_backup_client": "Optional",
                        "trampoline_payment_experimental": "Optional"
                    },
                    "unknown": [
                    ]
                }
            },
            "channelFlags": 0
        },
        "changes": {
            "localChanges": {
                "proposed": [
                ],
                "signed": [
                ],
                "acked": [
                ]
            },
            "remoteChanges": {
                "proposed": [
                ],
                "acked": [
                ],
                "signed": [
                ]
            },
            "localNextHtlcId": 2,
            "remoteNextHtlcId": 0
        },
        "active": [
            {
                "fundingTxIndex": 0,
                "localFundingStatus": {
                    "status": "unconfirmed",
                    "txId": "bdcd274e9bc89c621b30596e344389d28c3a92f820ef5a680ebfcb615b827c2f"
                },
                "remoteFundingStatus": {
                    "status": "locked"
                },
                "localCommit": {
                    "index": 1,
                    "spec": {
                        "htlcsIn": [
                        ],
                        "htlcsOut": [
                            {
                                "channelId": "2f7c825b61cbbf0e685aef20f8923a8cd28943346e59301b629cc89b4e27cdbd",
                                "id": 0,
                                "amountMsat": 300000000,
                                "paymentHash": "bb9134aefd0dcfee1bb57ab492f6d794934c2823cbc99c1b975deef3b0d67d5a",
                                "cltvExpiry": 400144,
                                "onionRoutingPacket": "<redacted>"
                            },
                            {
                                "channelId": "2f7c825b61cbbf0e685aef20f8923a8cd28943346e59301b629cc89b4e27cdbd",
                                "id": 1,
                                "amountMsat": 200000000,
                                "paymentHash": "23d0335a29f4751d39c8e5c13d79513da2ca619cbff40fa70bc618e803e1f488",
                                "cltvExpiry": 400144,
                                "onionRoutingPacket": "<redacted>"
                            }
                        ],
                        "feerate": 5000,
                        "toLocal": 300000000,
                        "toRemote": 200000000
                    },
                    "publishableTxs": {
                        "commitTx": {
                            "input": {
                                "outPoint": "bdcd274e9bc89c621b30596e344389d28c3a92f820ef5a680ebfcb615b827c2f:0",
                                "txOut": {
                                    "amount": 1000000,
                                    "publicKeyScript": "00204ba42b50e089764e60e9e0c76c57e41d252d6beb976332f14a7b255bbb5322b8"
                                },
                                "redeemScript": "522102b6eaf304d966a6df90f3b3df7af7be6b1625854bbc096cb8b3507b2a37c2bf9c210385cfd7d8850e4cb8fcbed57310911218e5d5e1fd34f92ef5d9db14d56418caa452ae"
                            },
                            "tx": "020000000001012f7c825b61cbbf0e685aef20f8923a8cd28943346e59301b629cc89b4e27cdbd000000000000b77080064a0100000000000022002046672803839d10e21d43eafb532bc37cd21bd97dec7f9b50d45380cd1cce69654a01000000000000220020bbd7f17366848d8f624c28438128ce4dc8c72ea21deb0ccf25bee110920da032400d0300000000002200200d94818c9b1a70b689daa5af63b6c6737ea40a9de55839819bf0421217d68d80400d030000000000220020cb93e3adb8d213704e9a07ea2a6ce91dca51a9b76fcb6bef3cc9b5b7e10a7990a0740400000000002200206aae960776a0a9f526c5ea6841c28baa16a7ae997313ed417dbc55e38fe1c173e093040000000000220020c9b6634f8ea3a3789e96570513e9bc701395ea27477c07e80931a2ab9bbb549c0400483045022100fd4910f0944d529ec90d2d5f2587f28d7036fccdbff3dc215f8f418dea8bb3b20220723b0c27c7e719588b7375ffd76f8246074c8d126c77c829c03f18e66a12b498014830450221009faae1d00f87d980fd620db27a06a27cca8cc0b2269611124d0dab3a5c28076e02206dce7336d5c38377f54b6b92af7db4f38b43e12afa94301fce129b19e5892e690147522102b6eaf304d966a6df90f3b3df7af7be6b1625854bbc096cb8b3507b2a37c2bf9c210385cfd7d8850e4cb8fcbed57310911218e5d5e1fd34f92ef5d9db14d56418caa452aedf99dc20"
                        },
                        "htlcTxsAndSigs": [
                            {
                                "txinfo": {
                                    "type": "fr.acinq.lightning.transactions.Transactions.TransactionWithInputInfo.HtlcTx.HtlcTimeoutTx",
                                    "input": {
                                        "outPoint": "24237f2dafcc072f634bc4ffc74b34157a827567ed32e8adc85bf72b54b9a07a:2",
                                        "txOut": {
                                            "amount": 200000,
                                            "publicKeyScript": "00200d94818c9b1a70b689daa5af63b6c6737ea40a9de55839819bf0421217d68d80"
                                        },
                                        "redeemScript": "76a9149166a758c8ce2d9f0c36df15d8624a3c2d0e01b08763ac67210212f485e05882dc6abe5ca535a3880a1c8b2fb10261ba27c56110d926775d73fc7c820120876475527c210202381f64b9573d9410b135c8f3e9ec876233af900152d2e42211a6aa73835ad952ae67a9148f93e0f27c3c23aca8fb53a150df1bc2fd6a69d788ac6851b27568"
                                    },
                                    "tx": "02000000017aa0b9542bf75bc8ade832ed6775827a15344bc7ffc44b632f07ccaf2d7f2324020000000001000000013e000300000000002200206aae960776a0a9f526c5ea6841c28baa16a7ae997313ed417dbc55e38fe1c173101b0600",
                                    "htlcId": 1
                                },
                                "localSig": "c880a09b595628130f63f97406bc588dc11ac2b914c28c105cb5bf3c40007a2a7473756cabb4ac0a0e5b5c8d30ea91b87b6f1e0e1ac741df10c8863bf79f568f",
                                "remoteSig": "226e43ad5f13f16b82eb841eb528756ea8a9ab4e12659c4992eaec016e67b81d74e32adb0e4c54ad1030e82d30e75c3ae4d4abec73ec9295fc24cf6301f00c33"
                            },
                            {
                                "txinfo": {
                                    "type": "fr.acinq.lightning.transactions.Transactions.TransactionWithInputInfo.HtlcTx.HtlcTimeoutTx",
                                    "input": {
                                        "outPoint": "24237f2dafcc072f634bc4ffc74b34157a827567ed32e8adc85bf72b54b9a07a:5",
                                        "txOut": {
                                            "amount": 300000,
                                            "publicKeyScript": "0020c9b6634f8ea3a3789e96570513e9bc701395ea27477c07e80931a2ab9bbb549c"
                                        },
                                        "redeemScript": "76a9149166a758c8ce2d9f0c36df15d8624a3c2d0e01b08763ac67210212f485e05882dc6abe5ca535a3880a1c8b2fb10261ba27c56110d926775d73fc7c820120876475527c210202381f64b9573d9410b135c8f3e9ec876233af900152d2e42211a6aa73835ad952ae67a9145108735b412dc599563a3cda98629158bd4c649188ac6851b27568"
                                    },
                                    "tx": "02000000017aa0b9542bf75bc8ade832ed6775827a15344bc7ffc44b632f07ccaf2d7f232405000000000100000001de860400000000002200206aae960776a0a9f526c5ea6841c28baa16a7ae997313ed417dbc55e38fe1c173101b0600",
                                    "htlcId": 0
                                },
                                "localSig": "ae0a956ce019ca635f347205cc792036606d626b07620e329d84835a09fe24ce3d9996c28bef74f8ceea15e088103b2c096156e43c104cb7eaa60cd237b89f3b",
                                "remoteSig": "cb127029d3c26886560adaee978ab3f8742b995dda61b6e84f2a7d1496485a23197239a180246f0a27ba6f10abc9ed1e92119991646073194d8f5b12ff747bb7"
                            }
                        ]
                    }
                },
                "remoteCommit": {
                    "index": 1,
                    "spec": {
                        "htlcsIn": [
                            {
                                "channelId": "2f7c825b61cbbf0e685aef20f8923a8cd28943346e59301b629cc89b4e27cdbd",
                                "id": 0,
                                "amountMsat": 300000000,
                                "paymentHash": "bb9134aefd0dcfee1bb57ab492f6d794934c2823cbc99c1b975deef3b0d67d5a",
                                "cltvExpiry": 400144,
                                "onionRoutingPacket": "<redacted>"
                            },
                            {
                                "channelId": "2f7c825b61cbbf0e685aef20f8923a8cd28943346e59301b629cc89b4e27cdbd",
                                "id": 1,
                                "amountMsat": 200000000,
                                "paymentHash": "23d0335a29f4751d39c8e5c13d79513da2ca619cbff40fa70bc618e803e1f488",
                                "cltvExpiry": 400144,
                                "onionRoutingPacket": "<redacted>"
                            }
                        ],
                        "htlcsOut": [
                        ],
                        "feerate": 5000,
                        "toLocal": 200000000,
                        "toRemote": 300000000
                    },
                    "txid": "86441d0d05c27ecef1fd4bd850172890c8cee07eb0aedb272034eb36f93221be",
                    "remotePerCommitmentPoint": "03c57839fd412868a398bea05d01678a752661126a2d1357a0f7cb6f0c60311125"
                },
                "nextRemoteCommit": null
            }
        ],
        "inactive": [
        ],
        "payments": {
            "0": "28f366cb-6c14-4100-a33e-b85b809ed38a",
            "1": "c6dca627-db1e-47d7-b7a5-abe70d276099"
        },
        "remoteNextCommitInfo": {
            "left": null,
            "right": "026c604452e1a154575f1fd5966389c2c686c0b4b72370da0b33764c66b5a8f40e"
        },
        "remotePerCommitmentSecrets": "<redacted>",
        "remoteChannelData": {
            "data": "c22de7c4dbb965f6418644257bcbdd7def220c33d298e1ebbcf04cd9f381521b9bee4d04e8f7a3429ed0b250b228632460c60d68d8f608968188f401215932933f8edd5f472a1129f3e9a34971ac10a13675f16d74d0dca4b5bb99a32141bbc8e1975b5d1e33bb889900dcdb07282d17ca0c0954506c1d31d724ae4e2629b99906c79de727f0b15cb89582b4ab042ea70ca81e92eb424018ead01f69e4eebb20b17920d758499809c65a188ba18c2be6738cadb8bdc00f479bd61dc4641945ce65ca3177b413098d5b17822bcf974c8b8e6d21ac7d024dc7f26eac1277963e0cff1cffe38dadbf722b5103cccafc327dee5a1e838310fa709c84411bd0fe455d16215f35773d6579fb8f3ffd7bd35e8f419fb5e00928003658a8f84c436f7d8e480c6dda05a449c4ddc5459b84e7508c9aee62412d89b9bd4eff1cd721ce19d7abc4cbc4e34528a8283b086772d4e225a64114892f7bc9f6f7462696cbf15ea90a5742aba485b6253eb1d0d80beb8730ffdf3bf490ee62385f7eae642c8ab525af6d21ee69e1f66e97f3c41c69d024676eddaed8aad8c1f6039696afe3d32b2c160f4a1438579f577055ef9989141507b07fe40144585b42ff58b2c18ee46aa2f4a782460f2ad117294d5c5ce978886a85f11b9906afbd6dce27c6567fb23ef36045c44d646e16d28c47fe637660cbc8c88524fec155b701f520a2eae4f588f0191f39efdb777af61893c8238ed85d1fe4d0ead8e24c5036a45b1d6b0cfc8529657028993e8778ca329240eb67cb5593c457c05e018f2299b374d765411c4c3216af82cef710ab882d5dff0cabb2a5b2bfd6b25caa335889d60f75d3b9e6bf2f33b2a6c6c5457ef5159ebc2c08871064c821d5450c8f31c9cda0d4b8bcadf23a305e4d77fbab2d05989ca7c5fc3d408cfd205e32f161f65e3ab7612a132c9a740632715362ee8e81d3935efefd3cde66654d4cf1fd03bd820ca7da5c91a701e5dd1743bb45a13fff950a162324d17a4bad0df6d57087b453fcc7afc9595c4ad9ffde0cd532ccc8bd49262bfe81b88b5b61576fe0fcb3d7506c08c75407d2a1215b74d61fbe36a2fa4b42f7633e6ca0fcae2aac0c6c9e3daae5a5e3ce69463cffb573abbb862c4bb4559bf72bccbef306e0cd76aada133fb961caa1935ca5a68676330caee3b6e45a1ac2545ca0cd7411b251616655d43f79d81955a8f0b6f42e043ef06622a5415ffc8782670525ac5cf8d9e27eb8b39e126144384625d3c9391620b08831ce02fa64a8289a142c78e941f6c4d0152712ddf0aab9b91219f2ff8983635f87436b194b660f12f81c0c3debabb57f925ed00a56209989bb4bda5e8293d0976abd285f9f13d309e7c2d8a3e48b65e660f8347d3d52772ec3ce533b66198c60aa107a751648b63b8c8cd604d4e7294c0b9eb8e34c1038beb29dea937b4f5c00e7dedb7752a7ecaa4eb27006b0a568f63268c6344ac068ba78d508d78c6ed0a2bf1710816ff4fbe389d11d8087a38f1c5d97b1fb19f6e77e37131847c1faa132dc579ef4fb3a6352aee4d2a6539c696ea82dde5de19ffd38f4219b5c0eb3198be205ef8f94079b56425170f16cb7b1960669dd4afdd96c8e338d4d542e311b4c1aead45a031f4180f5f4dbf5887d7f0f4b706c7c7ea87b0e91808bcba88697d1d71a726776042153b38bf23d68888b20da7300ee67814163fc437f7b66bbf13e2019b1579933fc30c99845bab8f45b9142f9cb93c449d45b0e76ffebb088b329aad6410de6b1c4a15e37c2cebe7e3b58adf3836271a470967c910025ac3dd90e73c08fb030be987b5bc40d595d1074377839f693b3613ea4cf8cc2feec7325d04aeb5be09f8c612011264745f5c847008a5d9e6694c195504b426e7a625a8bc1e1bb285e27d9da30a63e69ef8bef31d60eb4563abe38706040cb12fc30631c4fd65129c1038af870b6fc7624a7b10a549ffe298393091eeb0d40ac4140579e21b6d28ab80a9d321dd2ae7269d58e6a0a9162e3868e2373a044dea8c01b09b852df18101abf428ac5fc895a8f899cf33984ba842dec39da490570f9b6785afafc27dac4be4b19b1c825c15a1d01a51425c56e0f97ab5cafdd35b836993a055bff3e9b2ddffff32287632acc52e8a151d3f608b8346ab237c42f57c4724fc996ea637aae83a253dbafa91499c9541072a9912aca5a126d0daaa73a8994e59aa67e3fb6ed50be865f5e8de4b616f2d5d21643128c62fba6141b172723eb4775072ac814813bda5786b2647cb2d0317d43b7c2eed04b92dc0431d73b98ef3219d0e3515af91c3fbe9b1beb4d27c743d98c8e0f3ea29f241d7360a0efb44ba77508143e39f08ad2fca912195b394637ecdbd2c928a30fce1d7171bd3ca095513e734f31bac320f65ac4df8f887d67c5d77f501288a05e0291977683f0e7cbb47d712bb29edaaefae65a4979ae7ce9885b6c1d2181d7f9c458c89d403ce2b42a99235fc89afe679a6de20d5bd7a6e58274ea4d9a4f06e332b146e7ce774b4e23e93676292bd1da308bbda831e25032bcb96fc9b243a5434be8c127fbca0b11dc90cd070a546bf0538f602c76edf247e43ac29e580530a8bd01f383a00408784811f4bdf4cdeefce51f8e1f8000312570b93b15f609ac19caaaccf75ca20838a55d45eed675112d18274225bc382a73a3919c9232159e7cb2177dadd9bb538d5cee9f521c3ef2343902798afbab4f75190df6e00c0d113393f78422d0663d073d923c9a65e37b907a56b6e5d2310ea93aedfa563ead06a7e417a731e43183ff706574324043eb90946cce7964ea44c4c9746d309b29af8f93e287a2a6be8ebfbd560dcd240fd647c953dcabe53b56b122de2cdd4bd91b2265b08c4d1c83ae1494a2afe6a3c9f7cfa864b82b7075f8cccd53562472800f5b03081867f2bad11023f58c9e28aa98939c0d2eb42ff49fa543b843e5e288d961b14b58bcebb1565bd8f75f8a8a81983745e4015f6035a28faa24ac95acb919733f370943c5c7f2644320881c0bd8761da99defd8e0ce9b2712a9ba449e382f5c2f72aade7f7243dad94b4cc004abdf4cc75d10c1b95c9f84772f93736b6313ac50b7f2226fe8bddc197026ef033d423afa0b3406e57f7506f442b57a99d270437e51de96176c39f7ecca5ecdea6b4ccd7da0083311bbd89559c81b118aab92eacde00cea82b3c0636867b759da65fb9ca75c1ba0bf40054284c8743f1bb4072468b5ebf447e649f0e8eab6e4744d98fccab71f32dc5f064a2d383225123b14ee9905c0ef672ca098d3c73f303344f6cb2569afd75096acbe13ebee4b0b8e62005dbf6de7ba9e3f83e43e758cbaa58d8cb7ad4f8ff4bb9d08929c2168e90fe117803ea4195584be40947b9b8e6016d4735431251c0d2d9137dc02286eedb306ddfa1c202510c612c82cf2013b0908e62472ae53f8ee56fa545914afc19000bb9c97662cc8654698a139a3a5b5963f7929b330d106ce344b77df8a92601b9162284f4206bbfe0187e1cad7023a31abbbb2e91090a0039e5d2cf6fac5530797e0529584587953a3a1df1cf681f1f22225091e437f70d2dccd3a1045546dcb8d6b67ca4bc6b1e37ee7ac5b6ba84411f26b2db836244f3d00ebefabbe43113ca29947e7cbc9d44d3dfe948baf57a4c7e861b7405a31dae41a57c953bbf4fe056ecd565db74998d51301571d23e17d6d702852ca72665e0bfeb9312f16a5f1424d57afd3b59d4a5d2d266d048f624c729898dea0f51bc18ba19f1646d9bdf9fcfcfbacb62e017363d4f1c5c181d0594a5016ffd85dcbccf7508621bf6aae90f0a800ae63afe8076b9ede0d6a85625f58f1f54cb10f4ed4e6a0e65025f2fbac4c81fb103d7079c88686281cacb0006da43a29751ca49f9862b955cb68632bbb4898d571a37b0a67b1d0eed9895a554bf7182b747a56848db3daf2d8b568acd9f93c7bb69066b2d387bc5171b4e9c3721cedd6ea79ad0caaffc325e1cf44527160b8a32e2a0fbde430a414ee21cc9342a155b828496b1c1f6b63160c431740bbc84a2aee63d7c995c2bc31daf8a59cba61fa69fdff23bcb16ad62d9c489bcdc9dfaaf884ef531764a61a198f404d8484f3dd1875292575db94f9f534f66359d72a0d9a42c6d14422cf4be17ce84c3777e3ed2bf7d935d83429eed8af7d3e447c83ed8259dd9b0b06fbc5278f07828883a0f226d197c64a45531fc024421f1e229bd8a5eea0567627747683fdd64df8a5454c139d6d9c4a7c8b7efdca770c193f4208f79717110afb2e38f63374b17c37a2a03568c9a012fb969d4145a0918176aaf9334f0b20acfcca85ea35128067d127a71bb23cba933c2947f577802d2e342bf528e8749637dfdd6c6bc3fc339e15d91a0cc05153f11849f999b43ddf47f2a9cfa0778a0433c2ce4d08fbd96b260317e31ba993eaeba827eaa254ca601b3f8a2ed3ca8e44a0eeba0912916c8df0d1c7a7ebea8328d925075a13630cfee2cb016a8097d5056374aeba051b28b9f78c353ce458d2305ec93dd4a1712a11352d79419839a339be6a1e0e5b35eb128e52f88e8f1d2086a7cceaeee19f246a5a43b402ed03a2f795f8c9d6ce9f2d4282509d3cbce46a2d1177213199d94412425deba62bfc777f06e86189a86458595a48361587a2c2ff02f37f48273bba5520ad1f70e982e0826ebe550dbd0d682b1a24a06743473262fdb5afeff8d8e47f2240a0fea1daf660dd3cda8af269339a9d49340efdec0ec2a35eb0a7adff5a54454c6c51883c550c9c0076a9231197831174e55949c1e55311a37fbbf97e18489d698d47de825134a87c2291469a48e2df500b19734191c10a5d1bc2c1f178cc026c6afb4ea7805a3dbbe38f5d336cef8313b5987f1cd336b8cbcc7f49585c022b584697699dc98ddd45fb3cfe2214c85b5c030c1165bcde544e70089adbe074a6fee5d665b7d3d2aa87436c53e731160d7f74e27d4178ed6ba1ea2342ac9d1e2028e46a12de846c2c391ff4aac30b1e41caab901f3d57af8f25e55418ffb17d9bd75c2ffc8c1407743cdbc2e1904e3d140d1faffca8513b777331d0a698a39a1f81c62d749674e5ffe26f6868a7c702b59ae15ee7ebba76b9677500e64f7a8fb3f5cb6ef827f4e6b68342aff94b2087dc20060a45da450409987be4cff09e781c18e0ae5750386964f1664eb478fa594cd2aeac2c8a1e2c7fe3fefc3f3c6d8597970d56bfa8"
        }
    },
    "shortChannelId": "400144x1x0",
    "channelUpdate": {
        "signature": "4f822887ee1f1ec37dbc569642ada537069e6eed615c1b0881d5d2aa3d4e8b38105940429c3ec312d76aaaefbb6ac1e90e578b11908291acd70f061b6e4dc95b",
        "chainHash": "06226e46111a0b59caaf126043eb5bbf28c34f3a5e332a1fc7b2b73cf188910f",
        "shortChannelId": "400144x1x0",
        "timestampSeconds": 1666878721,
        "messageFlags": 1,
        "channelFlags": 1,
        "cltvExpiryDelta": 144,
        "htlcMinimumMsat": 1000,
        "feeBaseMsat": 100,
        "feeProportionalMillionths": 10,
        "htlcMaximumMsat": 1000000000
    },
    "remoteChannelUpdate": null,
    "localShutdown": {
        "channelId": "2f7c825b61cbbf0e685aef20f8923a8cd28943346e59301b629cc89b4e27cdbd",
        "scriptPubKey": "001405e0104aa726e34ff5cd3a6320d05c0862b5b01c"
    },
    "remoteShutdown": null,
    "closingFeerates": null,
    "spliceStatus": "None"
}