{
    "type": "fr.acinq.lightning.channel.states.Negotiating",
    "commitments": {
        "params": {
            "channelId": "73dd8a44cdfb8525af61f6437549e97dc7dba4be483b429f1b363cd6df4494f2",
            "channelConfig": [
                "funding_pubkey_based_channel_keypath"
            ],
            "channelFeatures": [
                "option_static_remotekey",
                "option_anchor_outputs",
                "option_dual_fund"
            ],
            "localParams": {
                "nodeId": "037108815ff0128f7ed22640485c226d9ad64a9fd6d8b41b6623565aed6b34812c",
                "fundingKeyPath": "m/341607951/901742795'/1884519727/1021372695'/346824572/589932660/233277951/544887272/1'",
                "dustLimit": 1100,
                "maxHtlcValueInFlightMsat": 1500000000,
                "htlcMinimum": 0,
                "toSelfDelay": 144,
                "maxAcceptedHtlcs": 100,
                "isChannelOpener": true,
                "paysCommitTxFees": false,
                "defaultFinalScriptPubKey": "001405e0104aa726e34ff5cd3a6320d05c0862b5b01c",
                "features": {
                    "activated": {
                        "option_data_loss_protect": "Optional",
                        "var_onion_optin": "Mandatory",
                        "option_static_remotekey": "Mandatory",
                        "payment_secret": "Mandatory",
                        "basic_mpp": "Optional",
                        "option_support_large_channel": "Optional",
                        "option_anchor_outputs": "Mandatory",
                        "option_route_blinding": "Optional",
                        "option_dual_fund": "Mandatory",
                        "option_channel_type": "Mandatory",
                        "wake_up_notification_provider": "Optional",
                        "channel_backup_provider": "Optional"
                    },
                    "unknown": [
                        139,
                        149
                    ]
                }
            },
            "remoteParams": {
                "nodeId": "0362b19a83930389b4468be40308efb3f352b23142ae25e6aba0465a8220f95b06",
                "dustLimit": 1000,
                "maxHtlcValueInFlightMsat": 1500000000,
                "htlcMinimum": 1000,
                "toSelfDelay": 144,
                "maxAcceptedHtlcs": 100,
                "revocationBasepoint": "02662ab7eb6ffb6112e11bf1dacf9b409a0ab75688cffde9d9655ca69b407918b1",
                "paymentBasepoint": "02b72cdc7ecd65f2a31b7db0c70e3c76fc44267793048a6b868f388cfe974181fb",
                "delayedPaymentBasepoint": "02ae35ddc85fa4942ba5041eb357bd47139fda1753f715be40b97e6a1e63b54e73",
                "htlcBasepoint": "039ba25349c2c927b65af152b16502870f99161648c13467e2d9fe3572ee976ff4",
                "features": {
                    "activated": {
                        "option_data_loss_protect": "Optional",
                        "var_onion_optin": "Mandatory",
                        "option_static_remotekey": "Mandatory",
                        "payment_secret": "Mandatory",
                        "basic_mpp": "Optional",
                        "option_support_large_channel": "Optional",
                        "option_anchor_outputs": "Optional",
                        "option_route_blinding": "Optional",
                        "option_shutdown_anysegwit": "Mandatory",
                        "option_dual_fund": "Mandatory",
                        "option_quiescence": "Mandatory",
                        "option_channel_type": "Mandatory",
                        "zero_reserve_channels": "Optional",
                        "wake_up_notification_client": "Optional",
                        "channel_backup_client": "Optional",
                        "splice_experimental": "Optional"
                    },
                    "unknown": [
                        137,
                        149
                    ]
                }
            },
            "channelFlags": {
                "announceChannel": false,
                "nonInitiatorPaysCommitFees": false
            }
        },
        "changes": {
            "localChanges": {
                "proposed": [],
                "signed": [],
                "acked": []
            },
            "remoteChanges": {
                "proposed": [],
                "acked": [],
                "signed": []
            },
            "localNextHtlcId": 0,
            "remoteNextHtlcId": 0
        },
        "active": [
            {
                "fundingTxIndex": 0,
                "remoteFundingPubkey": "024ab66931817bce51ebc017b02f98225087462782db8dccdc48aa554971913d8c",
                "localFundingStatus": {
                    "status": "confirmed",
                    "txId": "33e167dca8c5dc156a35ecc98d4cdcd78bb9b7c451c2e5087169c39d23595af1"
                },
                "remoteFundingStatus": {
                    "status": "not-locked"
                },
                "localCommit": {
                    "index": 0,
                    "spec": {
                        "htlcsIn": [],
                        "htlcsOut": [],
                        "feerate": 5000,
                        "toLocal": 800000000,
                        "toRemote": 200000000
                    },
                    "publishableTxs": {
                        "commitTx": {
                            "input": {
                                "outPoint": "33e167dca8c5dc156a35ecc98d4cdcd78bb9b7c451c2e5087169c39d23595af1:0",
                                "txOut": {
                                    "amount": 1000000,
                                    "publicKeyScript": "0020457587095c6d2c7814b2e8d0ac4a1132af887d63a3028152344d03c2a9928d8d"
                                },
                                "redeemScript": "5221024ab66931817bce51ebc017b02f98225087462782db8dccdc48aa554971913d8c2103f02cd9560004ab6bfc88ebf9c3abf370d8b28b7bf9bdb5fcafeee31bb721cc2952ae"
                            },
                            "tx": "02000000000101f15a59239dc3697108e5c251c4b7b98bd7dc4c8dc9ec356a15dcc5a8dc67e13300000000006b393180044a010000000000002200201fff151fdb83115fe83d6ba91107c75a1870352fdd05cc023fafd0d0d965641c4a0100000000000022002077b2858b895ae583393d49c29a3b4251b0fa2c4ddc212b6f83607f664eb1840f400d0300000000002200207ac02dd683ad9ab664753660569488e13689d2eae2dea3b4c4fed2d276807b58781c0c0000000000220020ff9c6d46ec802044e7334df79424da6338f99d83576e5a940ed8d11b70719074040047304402206f88a2d52ac25ad965eceb215afe964d955781b44cde3f5c9922f35916e36cce022065f2989ea778d0f236fc3e5ca260ba6b227e544823b305115a5ec2474e6f5f3d0147304402206114b3fa9e9a8aa590d9d9f077c9aa4b1daf53dd7e763cdc4907984db96bfce4022006b29bfd14778b1b19bb5a2a317a8019dda5eb1bb081f04a0ae4c781ce51247f01475221024ab66931817bce51ebc017b02f98225087462782db8dccdc48aa554971913d8c2103f02cd9560004ab6bfc88ebf9c3abf370d8b28b7bf9bdb5fcafeee31bb721cc2952ae502e7f20"
                        },
                        "htlcTxsAndSigs": []
                    }
                },
                "remoteCommit": {
                    "index": 0,
                    "spec": {
                        "htlcsIn": [],
                        "htlcsOut": [],
                        "feerate": 5000,
                        "toLocal": 200000000,
                        "toRemote": 800000000
                    },
                    "txid": "0dd36550a4cb156c2110e4d905a2946584c5acb49e3e0101b6030d17ed7bc06f",
                    "remotePerCommitmentPoint": "025f0143ab8b96575f39cc84efa1bf0613306760ee2a43c33114b98a6b9bdab6e5"
                },
                "nextRemoteCommit": null
            }
        ],
        "inactive": [],
        "payments": {},
        "remoteNextCommitInfo": {
            "left": null,
            "right": "03f6dc351fec7233fa6cf4fd6e99d2e414016d27d106a83374b091e2f9d0b43009"
        },
        "remotePerCommitmentSecrets": "<redacted>"
    },
    "localScript": "001405e0104aa726e34ff5cd3a6320d05c0862b5b01c",
    "remoteScript": "001434947cfb2e8f6054ddf12daed4308cbe342580d1",
    "proposedClosingTxs": [],
    "publishedClosingTxs": [
        {
            "input": {
                "outPoint": "33e167dca8c5dc156a35ecc98d4cdcd78bb9b7c451c2e5087169c39d23595af1:0",
                "txOut": {
                    "amount": 1000000,
                    "publicKeyScript": "0020457587095c6d2c7814b2e8d0ac4a1132af887d63a3028152344d03c2a9928d8d"
                },
                "redeemScript": "5221024ab66931817bce51ebc017b02f98225087462782db8dccdc48aa554971913d8c2103f02cd9560004ab6bfc88ebf9c3abf370d8b28b7bf9bdb5fcafeee31bb721cc2952ae"
            },
            "tx": "02000000000101f15a59239dc3697108e5c251c4b7b98bd7dc4c8dc9ec356a15dcc5a8dc67e1330000000000ffffffff02400d03000000000016001434947cfb2e8f6054ddf12daed4308cbe342580d1f82d0c000000000016001405e0104aa726e34ff5cd3a6320d05c0862b5b01c0400483045022100bbab0830f8c8648fefb1175a7f64f0e65c2d0637e0d1037961cef7311807e45a0220661b4269f3026a790a4084f5b42c98ef1338a2144854ffdfbbab3b543869159201483045022100bf527295ad676d1ffecba7e05608957608e61951928cb66cb93f174ac9ad0be7022068674aa72be5bd3e9f2ba9423d7cf867eab50c7ac2b99a21c2be00c637e7ddcf01475221024ab66931817bce51ebc017b02f98225087462782db8dccdc48aa554971913d8c2103f02cd9560004ab6bfc88ebf9c3abf370d8b28b7bf9bdb5fcafeee31bb721cc2952ae00000000",
            "toLocalIndex": 1
        }
    ],
    "waitingSinceBlock": 0,
    "closeCommand": null
}