{
    "type": "fr.acinq.lightning.channel.states.Closing",
    "commitments": {
        "params": {
            "channelId": "2f7c825b61cbbf0e685aef20f8923a8cd28943346e59301b629cc89b4e27cdbd",
            "channelConfig": [
                "funding_pubkey_based_channel_keypath"
            ],
            "channelFeatures": [
                "option_static_remotekey",
                "option_support_large_channel",
                "option_anchor_outputs"
            ],
            "localParams": {
                "nodeId": "037108815ff0128f7ed22640485c226d9ad64a9fd6d8b41b6623565aed6b34812c",
                "fundingKeyPath": "m/385048399/1977025879/604622566/184658546/776346346/949304342'/277944247'/2049339775'/1'",
                "dustLimit": 1100,
                "maxHtlcValueInFlightMsat": 1500000000,
                "htlcMinimum": 0,
                "toSelfDelay": 144,
                "maxAcceptedHtlcs": 100,
                "isChannelOpener": true,
                "paysCommitTxFees": true,
                "defaultFinalScriptPubKey": "001405e0104aa726e34ff5cd3a6320d05c0862b5b01c",
                "features": {
                    "activated": {
                        "initial_routing_sync": "Optional",
                        "option_data_loss_protect": "Optional",
                        "gossip_queries": "Optional",
                        "gossip_queries_ex": "Optional",
                        "var_onion_optin": "Mandatory",
                        "payment_secret": "Mandatory",
                        "basic_mpp": "Optional",
                        "option_support_large_channel": "Optional",
                        "option_static_remotekey": "Mandatory",
                        "option_anchor_outputs": "Mandatory",
                        "option_channel_type": "Mandatory",
                        "option_payment_metadata": "Optional",
                        "trampoline_payment_experimental": "Optional",
                        "wake_up_notification_provider": "Optional",
                        "pay_to_open_provider": "Optional",
                        "trusted_swap_in_provider": "Optional",
                        "channel_backup_provider": "Optional"
                    },
                    "unknown": []
                }
            },
            "remoteParams": {
                "nodeId": "0362b19a83930389b4468be40308efb3f352b23142ae25e6aba0465a8220f95b06",
                "dustLimit": 1000,
                "maxHtlcValueInFlightMsat": 1500000000,
                "htlcMinimum": 1000,
                "toSelfDelay": 144,
                "maxAcceptedHtlcs": 100,
                "revocationBasepoint": "03a42aef6d1c860caffa6c71a6f8ac2b16eec25bab0c3950cdb1fad7fb38a5f2a5",
                "paymentBasepoint": "02508e1845b8bbe0773f6bf8f3f04f59a5896426765c7b6b23e6e466c95381182b",
                "delayedPaymentBasepoint": "02d62233b7c33f8fd0911922461a651007f1de09d8c474029caa8f2c229c10de26",
                "htlcBasepoint": "03d05c8245bdc12efd8b070b22b276e7db4254f4693e22b3f7c978c08e67b36236",
                "features": {
                    "activated": {
                        "option_data_loss_protect": "Optional",
                        "initial_routing_sync": "Optional",
                        "gossip_queries": "Optional",
                        "var_onion_optin": "Mandatory",
                        "gossip_queries_ex": "Optional",
                        "option_static_remotekey": "Mandatory",
                        "payment_secret": "Mandatory",
                        "basic_mpp": "Optional",
                        "option_support_large_channel": "Optional",
                        "option_anchor_outputs": "Mandatory",
                        "option_channel_type": "Mandatory",
                        "option_payment_metadata": "Optional",
                        "wake_up_notification_client": "Optional",
                        "pay_to_open_client": "Optional",
                        "trusted_swap_in_client": "Optional",
                        "channel_backup_client": "Optional",
                        "trampoline_payment_experimental": "Optional"
                    },
                    "unknown": []
                }
            },
            "channelFlags": {
                "announceChannel": false,
                "nonInitiatorPaysCommitFees": false
            }
        },
        "changes": {
            "localChanges": {
                "proposed": [
                    {
                        "type": "fr.acinq.lightning.wire.UpdateFulfillHtlc",
                        "channelId": "2f7c825b61cbbf0e685aef20f8923a8cd28943346e59301b629cc89b4e27cdbd",
                        "id": 0,
                        "paymentPreimage": "ece8429c09332ef2f819c5886b71cc500b21956b3faa6f3ab3f9005010c9655a"
                    }
                ],
                "signed": [],
                "acked": []
            },
            "remoteChanges": {
                "proposed": [],
                "acked": [],
                "signed": []
            },
            "localNextHtlcId": 1,
            "remoteNextHtlcId": 1
        },
        "active": [
            {
                "fundingTxIndex": 0,
                "remoteFundingPubkey": "0385cfd7d8850e4cb8fcbed57310911218e5d5e1fd34f92ef5d9db14d56418caa4",
                "localFundingStatus": {
                    "status": "unconfirmed",
                    "txId": "bdcd274e9bc89c621b30596e344389d28c3a92f820ef5a680ebfcb615b827c2f"
                },
                "remoteFundingStatus": {
                    "status": "locked"
                },
                "localCommit": {
                    "index": 1,
                    "spec": {
                        "htlcsIn": [
                            {
                                "channelId": "2f7c825b61cbbf0e685aef20f8923a8cd28943346e59301b629cc89b4e27cdbd",
                                "id": 0,
                                "amountMsat": 110000000,
                                "paymentHash": "c5be461cf5d852e51d0843a02669daa2c6bdb5936c50dd16a2eed74fb2695f2c",
                                "cltvExpiry": 400144,
                                "onionRoutingPacket": "<redacted>"
                            }
                        ],
                        "htlcsOut": [
                            {
                                "channelId": "2f7c825b61cbbf0e685aef20f8923a8cd28943346e59301b629cc89b4e27cdbd",
                                "id": 0,
                                "amountMsat": 95000000,
                                "paymentHash": "b3c444a354a0e80f8560756fb5e02aa1e8ea09eb8fefccbc2ffc778fbe1ea0fb",
                                "cltvExpiry": 400144,
                                "onionRoutingPacket": "<redacted>"
                            }
                        ],
                        "feerate": 5000,
                        "toLocal": 705000000,
                        "toRemote": 90000000
                    },
                    "publishableTxs": {
                        "commitTx": {
                            "input": {
                                "outPoint": "bdcd274e9bc89c621b30596e344389d28c3a92f820ef5a680ebfcb615b827c2f:0",
                                "txOut": {
                                    "amount": 1000000,
                                    "publicKeyScript": "00204ba42b50e089764e60e9e0c76c57e41d252d6beb976332f14a7b255bbb5322b8"
                                },
                                "redeemScript": "522102b6eaf304d966a6df90f3b3df7af7be6b1625854bbc096cb8b3507b2a37c2bf9c210385cfd7d8850e4cb8fcbed57310911218e5d5e1fd34f92ef5d9db14d56418caa452ae"
                            },
                            "tx": "020000000001012f7c825b61cbbf0e685aef20f8923a8cd28943346e59301b629cc89b4e27cdbd000000000000b77080064a0100000000000022002046672803839d10e21d43eafb532bc37cd21bd97dec7f9b50d45380cd1cce69654a01000000000000220020bbd7f17366848d8f624c28438128ce4dc8c72ea21deb0ccf25bee110920da032905f010000000000220020cb93e3adb8d213704e9a07ea2a6ce91dca51a9b76fcb6bef3cc9b5b7e10a79901873010000000000220020b5abcef667acd30c1793157728653afaf2ea391a4039bc875b6ad468cc2f603ab0ad010000000000220020c24f3aaf87264753868abbf958e8e7dc70352378c068e4c47b02fefc0acd114fa8a20a00000000002200206aae960776a0a9f526c5ea6841c28baa16a7ae997313ed417dbc55e38fe1c173040047304402202aad97bec2048a0ccb1d0b1d38083d49b1de4ea238f29c60e9a181fc120df0cb02205ca4257086803c52b273570ba6475ccf8b7ac02616f58531575f9215388c9f6301483045022100c35d93b87bb3187e29e181821f4f718c3b6faf853159937093a4430e8db8d20302200ce7aec5b5560eee2b27de3d43686c6b0ba3de5d98a939c0c5a2ee06ad51c17d0147522102b6eaf304d966a6df90f3b3df7af7be6b1625854bbc096cb8b3507b2a37c2bf9c210385cfd7d8850e4cb8fcbed57310911218e5d5e1fd34f92ef5d9db14d56418caa452aedf99dc20"
                        },
                        "htlcTxsAndSigs": [
                            {
                                "txinfo": {
                                    "type": "fr.acinq.lightning.transactions.Transactions.TransactionWithInputInfo.HtlcTx.HtlcTimeoutTx",
                                    "input": {
                                        "outPoint": "735ca47f5592a678bb13ba5ef0c27b9acf0181dbeef2073f5668022077e05d38:3",
                                        "txOut": {
                                            "amount": 95000,
                                            "publicKeyScript": "0020b5abcef667acd30c1793157728653afaf2ea391a4039bc875b6ad468cc2f603a"
                                        },
                                        "redeemScript": "76a9149166a758c8ce2d9f0c36df15d8624a3c2d0e01b08763ac67210212f485e05882dc6abe5ca535a3880a1c8b2fb10261ba27c56110d926775d73fc7c820120876475527c210202381f64b9573d9410b135c8f3e9ec876233af900152d2e42211a6aa73835ad952ae67a914f335537767c2b929f665f48046b4de72ae6e999e88ac6851b27568"
                                    },
                                    "tx": "0200000001385de077200268563f07f2eedb8101cf9a7bc2f05eba13bb78a692557fa45c730300000000010000000116660100000000002200206aae960776a0a9f526c5ea6841c28baa16a7ae997313ed417dbc55e38fe1c173101b0600",
                                    "htlcId": 0
                                },
                                "localSig": "3003b8f3d670387a33f4e443c5ad73480d15d36289a0c97a30cb188cc5c365e97d71373dd570ccad910648e1dcca5a9c814b824a4813ca1f283a9adbeef7f4b0",
                                "remoteSig": "bbc0bb252d2e03dbfefaa3fc3d50cf7bc2fef26ad8a4f3efe2a00a1a356c74382c716ce5b8e6469bbca5cbf50e403c098ea389320ad8aed4d9bf4acce2058d4a"
                            },
                            {
                                "txinfo": {
                                    "type": "fr.acinq.lightning.transactions.Transactions.TransactionWithInputInfo.HtlcTx.HtlcSuccessTx",
                                    "input": {
                                        "outPoint": "735ca47f5592a678bb13ba5ef0c27b9acf0181dbeef2073f5668022077e05d38:4",
                                        "txOut": {
                                            "amount": 110000,
                                            "publicKeyScript": "0020c24f3aaf87264753868abbf958e8e7dc70352378c068e4c47b02fefc0acd114f"
                                        },
                                        "redeemScript": "76a9149166a758c8ce2d9f0c36df15d8624a3c2d0e01b08763ac67210212f485e05882dc6abe5ca535a3880a1c8b2fb10261ba27c56110d926775d73fc7c8201208763a9140a2c4c072a7bbaf35ef47956a1f8e7c132af7f6f88527c210202381f64b9573d9410b135c8f3e9ec876233af900152d2e42211a6aa73835ad952ae677503101b06b175ac6851b27568"
                                    },
                                    "tx": "0200000001385de077200268563f07f2eedb8101cf9a7bc2f05eba13bb78a692557fa45c7304000000000100000001e69f0100000000002200206aae960776a0a9f526c5ea6841c28baa16a7ae997313ed417dbc55e38fe1c17300000000",
                                    "paymentHash": "c5be461cf5d852e51d0843a02669daa2c6bdb5936c50dd16a2eed74fb2695f2c",
                                    "htlcId": 0
                                },
                                "localSig": "49dcb8f0605d4dcecd56a23e6821f0cf9cddfbfbfef92d018fbe996c7fa2908909a53e3c36da331164c5a3763ac4332708768bfcc6936cf64c5746254e18d6f6",
                                "remoteSig": "19b2c53f5ae64336a2d6aa51500944fd3e4418be72efbc0529de32e3b1bec5e1315cc9cd535a243a6426bf482dca8cb983a8ac1441d1c7ff4c03c7194fe7c878"
                            }
                        ]
                    }
                },
                "remoteCommit": {
                    "index": 2,
                    "spec": {
                        "htlcsIn": [
                            {
                                "channelId": "2f7c825b61cbbf0e685aef20f8923a8cd28943346e59301b629cc89b4e27cdbd",
                                "id": 0,
                                "amountMsat": 95000000,
                                "paymentHash": "b3c444a354a0e80f8560756fb5e02aa1e8ea09eb8fefccbc2ffc778fbe1ea0fb",
                                "cltvExpiry": 400144,
                                "onionRoutingPacket": "<redacted>"
                            }
                        ],
                        "htlcsOut": [
                            {
                                "channelId": "2f7c825b61cbbf0e685aef20f8923a8cd28943346e59301b629cc89b4e27cdbd",
                                "id": 0,
                                "amountMsat": 110000000,
                                "paymentHash": "c5be461cf5d852e51d0843a02669daa2c6bdb5936c50dd16a2eed74fb2695f2c",
                                "cltvExpiry": 400144,
                                "onionRoutingPacket": "<redacted>"
                            }
                        ],
                        "feerate": 5000,
                        "toLocal": 90000000,
                        "toRemote": 705000000
                    },
                    "txid": "d4756e4280b3178aa6e35eb9937681a6dded4098af1f93d055c9a693686f922c",
                    "remotePerCommitmentPoint": "026c604452e1a154575f1fd5966389c2c686c0b4b72370da0b33764c66b5a8f40e"
                },
                "nextRemoteCommit": null
            }
        ],
        "inactive": [],
        "payments": {
            "0": "c88282fa-5e7b-43d5-b72c-883708000c69"
        },
        "remoteNextCommitInfo": {
            "left": null,
            "right": "0312a332a6afe99e14c9dc4ab0512448441be3c4c369be8b7d37c5086682b33799"
        },
        "remotePerCommitmentSecrets": "<redacted>"
    },
    "waitingSinceBlock": 400000,
    "remoteCommitPublished": {
        "commitTx": "020000000001012f7c825b61cbbf0e685aef20f8923a8cd28943346e59301b629cc89b4e27cdbd000000000000b77080064a0100000000000022002046672803839d10e21d43eafb532bc37cd21bd97dec7f9b50d45380cd1cce69654a01000000000000220020bbd7f17366848d8f624c28438128ce4dc8c72ea21deb0ccf25bee110920da032905f010000000000220020d0b9e19e805ad1211c8395712a4225729e443223fbb3444537b6c93f5fa36839187301000000000022002018f3224d69b1cc3fbb44bd3779eb2bb07c6c5dc9722fd99f9cd6da90c4f9bd45b0ad0100000000002200206c71102142c7c3090165e8d136f64fda559496481a26e89019fc7964812fdfada8a20a0000000000220020958bb43c9e6d1b985001c2f4dc38d286d7fde78bb04d7ec5a5ae44d8ebf0c40c04004730440220784da0cd9f8ec26ce8562955e4be1585ed1e1a2d5374f45dc1ce16f7ca7a663502202f1ab8222f0500c42b0f5d18e0beb3c321cce581f3ad6acc6a6b2a0bed81b20a01473044022001ab716f317e3f7faad7f3fbe85931ae091ac4d4377dd57f9ab3997172ea87d5022003296e024cd0183d506e35b7c53afa7927aa096792f8b148b4d14442f40c70c50147522102b6eaf304d966a6df90f3b3df7af7be6b1625854bbc096cb8b3507b2a37c2bf9c210385cfd7d8850e4cb8fcbed57310911218e5d5e1fd34f92ef5d9db14d56418caa452aedc99dc20",
        "claimMainOutputTx": {
            "type": "fr.acinq.lightning.transactions.Transactions.TransactionWithInputInfo.ClaimRemoteCommitMainOutputTx.ClaimRemoteDelayedOutputTx",
            "input": {
                "outPoint": "d4756e4280b3178aa6e35eb9937681a6dded4098af1f93d055c9a693686f922c:5",
                "txOut": {
                    "amount": 697000,
                    "publicKeyScript": "0020958bb43c9e6d1b985001c2f4dc38d286d7fde78bb04d7ec5a5ae44d8ebf0c40c"
                },
                "redeemScript": "210368434fc548cb471f7ed8c94638433bfb07cceb97665c411450fdc23c60236409ad51b2"
            },
            "tx": "020000000001012c926f6893a6c955d0931faf9840eddda6817693b95ee3a68a17b380426e75d40500000000010000000164910a000000000016001405e0104aa726e34ff5cd3a6320d05c0862b5b01c0247304402205bb72a4fd8e914e7aba520619a54d0cd779ec9647ba72c54fdab0e54c1da11bc022063ffa6b8076065342fc47c93b798bd994bf49310e104da4eb59b49b6a2dc978d0125210368434fc548cb471f7ed8c94638433bfb07cceb97665c411450fdc23c60236409ad51b200000000"
        },
        "claimHtlcTxs": {
            "d4756e4280b3178aa6e35eb9937681a6dded4098af1f93d055c9a693686f922c:3": {
                "type": "fr.acinq.lightning.transactions.Transactions.TransactionWithInputInfo.ClaimHtlcTx.ClaimHtlcTimeoutTx",
                "input": {
                    "outPoint": "d4756e4280b3178aa6e35eb9937681a6dded4098af1f93d055c9a693686f922c:3",
                    "txOut": {
                        "amount": 95000,
                        "publicKeyScript": "002018f3224d69b1cc3fbb44bd3779eb2bb07c6c5dc9722fd99f9cd6da90c4f9bd45"
                    },
                    "redeemScript": "76a9144bc82f683182df0dfb7441eebf776d306e4a24b18763ac672102237b0ff4c7cebfe68597200ca321c1f9b22abb87abb410a17b5fd2761a4834ee7c8201208763a914f335537767c2b929f665f48046b4de72ae6e999e88527c210315c10c4284a807e9391607a2ae007537b038beab2cd21e942e134a0e352778a852ae677503101b06b175ac6851b27568"
                },
                "tx": "020000000001012c926f6893a6c955d0931faf9840eddda6817693b95ee3a68a17b380426e75d403000000000100000001b05d01000000000016001405e0104aa726e34ff5cd3a6320d05c0862b5b01c034730440220692f6fb2a23fc5b854b316f4d194611b22e6d53b93f66e14e8775641e4055301022049ac0d4d7152c7f9d47646ebdadf774728fc05707c98981c27723e11617cd5bb01008e76a9144bc82f683182df0dfb7441eebf776d306e4a24b18763ac672102237b0ff4c7cebfe68597200ca321c1f9b22abb87abb410a17b5fd2761a4834ee7c8201208763a914f335537767c2b929f665f48046b4de72ae6e999e88527c210315c10c4284a807e9391607a2ae007537b038beab2cd21e942e134a0e352778a852ae677503101b06b175ac6851b27568101b0600",
                "htlcId": 0
            },
            "d4756e4280b3178aa6e35eb9937681a6dded4098af1f93d055c9a693686f922c:4": {
                "type": "fr.acinq.lightning.transactions.Transactions.TransactionWithInputInfo.ClaimHtlcTx.ClaimHtlcSuccessTx",
                "input": {
                    "outPoint": "d4756e4280b3178aa6e35eb9937681a6dded4098af1f93d055c9a693686f922c:4",
                    "txOut": {
                        "amount": 110000,
                        "publicKeyScript": "00206c71102142c7c3090165e8d136f64fda559496481a26e89019fc7964812fdfad"
                    },
                    "redeemScript": "76a9144bc82f683182df0dfb7441eebf776d306e4a24b18763ac672102237b0ff4c7cebfe68597200ca321c1f9b22abb87abb410a17b5fd2761a4834ee7c820120876475527c210315c10c4284a807e9391607a2ae007537b038beab2cd21e942e134a0e352778a852ae67a9140a2c4c072a7bbaf35ef47956a1f8e7c132af7f6f88ac6851b27568"
                },
                "tx": "020000000001012c926f6893a6c955d0931faf9840eddda6817693b95ee3a68a17b380426e75d404000000000100000001449701000000000016001405e0104aa726e34ff5cd3a6320d05c0862b5b01c034730440220222ca89b2d89b86f84a652b29911e4f0e31b1ee78c51a000b257eadbf727e1670220666d80ae4d33bdca1fe0ca79e65f413acf2faa21ea92515b4e9c3c66a89ec9a50120ece8429c09332ef2f819c5886b71cc500b21956b3faa6f3ab3f9005010c9655a8876a9144bc82f683182df0dfb7441eebf776d306e4a24b18763ac672102237b0ff4c7cebfe68597200ca321c1f9b22abb87abb410a17b5fd2761a4834ee7c820120876475527c210315c10c4284a807e9391607a2ae007537b038beab2cd21e942e134a0e352778a852ae67a9140a2c4c072a7bbaf35ef47956a1f8e7c132af7f6f88ac6851b27568101b0600",
                "htlcId": 0
            }
        },
        "irrevocablySpent": {
            "bdcd274e9bc89c621b30596e344389d28c3a92f820ef5a680ebfcb615b827c2f:0": "020000000001012f7c825b61cbbf0e685aef20f8923a8cd28943346e59301b629cc89b4e27cdbd000000000000b77080064a0100000000000022002046672803839d10e21d43eafb532bc37cd21bd97dec7f9b50d45380cd1cce69654a01000000000000220020bbd7f17366848d8f624c28438128ce4dc8c72ea21deb0ccf25bee110920da032905f010000000000220020d0b9e19e805ad1211c8395712a4225729e443223fbb3444537b6c93f5fa36839187301000000000022002018f3224d69b1cc3fbb44bd3779eb2bb07c6c5dc9722fd99f9cd6da90c4f9bd45b0ad0100000000002200206c71102142c7c3090165e8d136f64fda559496481a26e89019fc7964812fdfada8a20a0000000000220020958bb43c9e6d1b985001c2f4dc38d286d7fde78bb04d7ec5a5ae44d8ebf0c40c04004730440220784da0cd9f8ec26ce8562955e4be1585ed1e1a2d5374f45dc1ce16f7ca7a663502202f1ab8222f0500c42b0f5d18e0beb3c321cce581f3ad6acc6a6b2a0bed81b20a01473044022001ab716f317e3f7faad7f3fbe85931ae091ac4d4377dd57f9ab3997172ea87d5022003296e024cd0183d506e35b7c53afa7927aa096792f8b148b4d14442f40c70c50147522102b6eaf304d966a6df90f3b3df7af7be6b1625854bbc096cb8b3507b2a37c2bf9c210385cfd7d8850e4cb8fcbed57310911218e5d5e1fd34f92ef5d9db14d56418caa452aedc99dc20",
            "d4756e4280b3178aa6e35eb9937681a6dded4098af1f93d055c9a693686f922c:3": "020000000001012c926f6893a6c955d0931faf9840eddda6817693b95ee3a68a17b380426e75d403000000000100000001b05d01000000000016001405e0104aa726e34ff5cd3a6320d05c0862b5b01c034730440220692f6fb2a23fc5b854b316f4d194611b22e6d53b93f66e14e8775641e4055301022049ac0d4d7152c7f9d47646ebdadf774728fc05707c98981c27723e11617cd5bb01008e76a9144bc82f683182df0dfb7441eebf776d306e4a24b18763ac672102237b0ff4c7cebfe68597200ca321c1f9b22abb87abb410a17b5fd2761a4834ee7c8201208763a914f335537767c2b929f665f48046b4de72ae6e999e88527c210315c10c4284a807e9391607a2ae007537b038beab2cd21e942e134a0e352778a852ae677503101b06b175ac6851b27568101b0600",
            "d4756e4280b3178aa6e35eb9937681a6dded4098af1f93d055c9a693686f922c:4": "020000000001012c926f6893a6c955d0931faf9840eddda6817693b95ee3a68a17b380426e75d404000000000100000001449701000000000016001405e0104aa726e34ff5cd3a6320d05c0862b5b01c034730440220222ca89b2d89b86f84a652b29911e4f0e31b1ee78c51a000b257eadbf727e1670220666d80ae4d33bdca1fe0ca79e65f413acf2faa21ea92515b4e9c3c66a89ec9a50120ece8429c09332ef2f819c5886b71cc500b21956b3faa6f3ab3f9005010c9655a8876a9144bc82f683182df0dfb7441eebf776d306e4a24b18763ac672102237b0ff4c7cebfe68597200ca321c1f9b22abb87abb410a17b5fd2761a4834ee7c820120876475527c210315c10c4284a807e9391607a2ae007537b038beab2cd21e942e134a0e352778a852ae67a9140a2c4c072a7bbaf35ef47956a1f8e7c132af7f6f88ac6851b27568101b0600"
        }
    }
}