{
    "type": "fr.acinq.lightning.channel.Closing",
    "commitments": {
        "params": {
            "channelId": "2f7c825b61cbbf0e685aef20f8923a8cd28943346e59301b629cc89b4e27cdbd",
            "channelConfig": [
                "funding_pubkey_based_channel_keypath"
            ],
            "channelFeatures": [
                "option_static_remotekey",
                "option_support_large_channel",
                "option_anchor_outputs"
            ],
            "localParams": {
                "nodeId": "037108815ff0128f7ed22640485c226d9ad64a9fd6d8b41b6623565aed6b34812c",
                "fundingKeyPath": "m/385048399/1977025879/604622566/184658546/776346346/949304342'/277944247'/2049339775'/1'",
                "dustLimit": 1100,
                "maxHtlcValueInFlightMsat": 1500000000,
                "htlcMinimum": 0,
                "toSelfDelay": 144,
                "maxAcceptedHtlcs": 100,
                "isInitiator": true,
                "defaultFinalScriptPubKey": "001405e0104aa726e34ff5cd3a6320d05c0862b5b01c",
                "features": {
                    "activated": {
                        "initial_routing_sync": "Optional",
                        "option_data_loss_protect": "Optional",
                        "gossip_queries": "Optional",
                        "gossip_queries_ex": "Optional",
                        "var_onion_optin": "Mandatory",
                        "payment_secret": "Mandatory",
                        "basic_mpp": "Optional",
                        "option_support_large_channel": "Optional",
                        "option_static_remotekey": "Mandatory",
                        "option_anchor_outputs": "Mandatory",
                        "option_channel_type": "Mandatory",
                        "option_payment_metadata": "Optional",
                        "trampoline_payment_experimental": "Optional",
                        "wake_up_notification_provider": "Optional",
                        "pay_to_open_provider": "Optional",
                        "trusted_swap_in_provider": "Optional",
                        "channel_backup_provider": "Optional"
                    },
                    "unknown": [
                    ]
                }
            },
            "remoteParams": {
                "nodeId": "0362b19a83930389b4468be40308efb3f352b23142ae25e6aba0465a8220f95b06",
                "dustLimit": 1000,
                "maxHtlcValueInFlightMsat": 1500000000,
                "htlcMinimum": 1000,
                "toSelfDelay": 144,
                "maxAcceptedHtlcs": 100,
                "fundingPubKey": "0385cfd7d8850e4cb8fcbed57310911218e5d5e1fd34f92ef5d9db14d56418caa4",
                "revocationBasepoint": "03a42aef6d1c860caffa6c71a6f8ac2b16eec25bab0c3950cdb1fad7fb38a5f2a5",
                "paymentBasepoint": "02508e1845b8bbe0773f6bf8f3f04f59a5896426765c7b6b23e6e466c95381182b",
                "delayedPaymentBasepoint": "02d62233b7c33f8fd0911922461a651007f1de09d8c474029caa8f2c229c10de26",
                "htlcBasepoint": "03d05c8245bdc12efd8b070b22b276e7db4254f4693e22b3f7c978c08e67b36236",
                "features": {
                    "activated": {
                        "option_data_loss_protect": "Optional",
                        "initial_routing_sync": "Optional",
                        "gossip_queries": "Optional",
                        "var_onion_optin": "Mandatory",
                        "gossip_queries_ex": "Optional",
                        "option_static_remotekey": "Mandatory",
                        "payment_secret": "Mandatory",
                        "basic_mpp": "Optional",
                        "option_support_large_channel": "Optional",
                        "option_anchor_outputs": "Mandatory",
                        "option_channel_type": "Mandatory",
                        "option_payment_metadata": "Optional",
                        "wake_up_notification_client": "Optional",
                        "pay_to_open_client": "Optional",
                        "trusted_swap_in_client": "Optional",
                        "channel_backup_client": "Optional",
                        "trampoline_payment_experimental": "Optional"
                    },
                    "unknown": [
                    ]
                }
            },
            "channelFlags": 0
        },
        "changes": {
            "localChanges": {
                "proposed": [
                ],
                "signed": [
                ],
                "acked": [
                ]
            },
            "remoteChanges": {
                "proposed": [
                ],
                "acked": [
                ],
                "signed": [
                ]
            },
            "localNextHtlcId": 2,
            "remoteNextHtlcId": 2
        },
        "active": [
            {
                "localFundingStatus": {
                    "status": "unconfirmed",
                    "txId": "bdcd274e9bc89c621b30596e344389d28c3a92f820ef5a680ebfcb615b827c2f"
                },
                "remoteFundingStatus": {
                    "status": "locked"
                },
                "localCommit": {
                    "index": 5,
                    "spec": {
                        "htlcsIn": [
                        ],
                        "htlcsOut": [
                        ],
                        "feerate": 5000,
                        "toLocal": 800000000,
                        "toRemote": 200000000
                    },
                    "publishableTxs": {
                        "commitTx": {
                            "input": {
                                "outPoint": "bdcd274e9bc89c621b30596e344389d28c3a92f820ef5a680ebfcb615b827c2f:0",
                                "txOut": {
                                    "amount": 1000000,
                                    "publicKeyScript": "00204ba42b50e089764e60e9e0c76c57e41d252d6beb976332f14a7b255bbb5322b8"
                                },
                                "redeemScript": "522102b6eaf304d966a6df90f3b3df7af7be6b1625854bbc096cb8b3507b2a37c2bf9c210385cfd7d8850e4cb8fcbed57310911218e5d5e1fd34f92ef5d9db14d56418caa452ae"
                            },
                            "tx": "020000000001012f7c825b61cbbf0e685aef20f8923a8cd28943346e59301b629cc89b4e27cdbd000000000000b77080044a0100000000000022002046672803839d10e21d43eafb532bc37cd21bd97dec7f9b50d45380cd1cce69654a01000000000000220020bbd7f17366848d8f624c28438128ce4dc8c72ea21deb0ccf25bee110920da032400d030000000000220020cb93e3adb8d213704e9a07ea2a6ce91dca51a9b76fcb6bef3cc9b5b7e10a7990781c0c00000000002200202bf8e35df3ccae49bcd2036ec55d8450741336530017d00f4f41dc44d69675b7040047304402202f27c14d4a412b64c8ca226b9a20c51068f6b939bad70d46dfc1600c39617552022066f267b145178f5a69d69fee8ae6930ded1d1dc96a746e79ea3302b7df989b6601483045022100e75f4f2e202db89d24d221c7c9329411a85876e00996499b5031c1ab094afdf3022044c7c948e25282f17396385eed0efca8d7a3226ce002fad2e48cca9afae5c43b0147522102b6eaf304d966a6df90f3b3df7af7be6b1625854bbc096cb8b3507b2a37c2bf9c210385cfd7d8850e4cb8fcbed57310911218e5d5e1fd34f92ef5d9db14d56418caa452aedb99dc20"
                        },
                        "htlcTxsAndSigs": [
                        ]
                    }
                },
                "remoteCommit": {
                    "index": 6,
                    "spec": {
                        "htlcsIn": [
                        ],
                        "htlcsOut": [
                        ],
                        "feerate": 5000,
                        "toLocal": 200000000,
                        "toRemote": 800000000
                    },
                    "txid": "51137bd5ff1caf7ee0f35541914637e19b0f4ce9373f1744044ae7b1064ecce3",
                    "remotePerCommitmentPoint": "03856c08523bf8c8def3044843a4ff90fbb1dee9f92d4ae82aaf3fb2688bfc3884"
                },
                "nextRemoteCommit": null
            }
        ],
        "payments": {
        },
        "remoteNextCommitInfo": {
            "left": null,
            "right": "0323e9618cf8548e5b78a14529e1c8df51895e47ae6026bf23f5f130299bbc92b0"
        },
        "remotePerCommitmentSecrets": "<redacted>",
        "remoteChannelData": {
            "data": "af86858a35b5f1157fd7aaf673c32e67ca2d0ea39247b28f0807e32bcdb54d5248fe0dc200a4f126eba76515c03b4b8f7b66b5954d9614bf91ea309191db82c31e52b7b73bd0e1500e24e3357cd7ff6b67af31637a0359591abb1c6442c180e17fd25eed846e08e53821b9024a92423a6bfd1f50017a124565721665a6faf0042fe57c7c1fa69110c7c61e29aa7efd6600d54956ad0ac7242569bd12b5c76ce83e7616e2b5dc03a3e8323d870675723da9fccf6e7b6a9b51ede780737edaf10c3beb9c51cb32a9c28f11bed5bf19a37b81fb6553d322010bdd737c82405ab45e6b60b6b0c01d1a2099e05bf81ae3899efbf447919a99bacf31f4dfaaf1bc4fe266b7eb162215bf390bab1b86952a427ded6869bb2671c57200737170e667dd26eac1ac2be9ba5bad16575a681b04261c77a38fcc268b38b16fe6a1ac10c991aa4c603eaa7ecf3f2b2f48fa4de31ea44fdf4d7d4af605b02adb72822c96c334a15f5319e0f6f608310abaaf4ab56860d1584b6bcce7eea0f04dfe7da82937cb4df88ee4c1e82316b717f6aec4fc079633ae974a7cac797cdbd64608f37b904b98f9bcfeb4ee528089136a18ccde52f16fff46888b197d12e07a82545fdd8d6aa35326f2974c7e52920608f0b072e654536f2ca7c04b297756bbd1f6d14747dd7a5c020c9436bf6cee3f6f493c93d7c99332570ef7bd7f332b3c67550e75a3ac2030edb71e50574b446655f073722d83a0472a4ba051841d8a51645c24ce32f29b971a115d008d5d9861be104bebf869b1352aab99065094826f528d7546985a97535d7530d464e110d41903559912d86a125d3b91045928074f7e079deedf58afb0f1b26daa45f62a38989848d379c82f70543f102f647eba30211d57e1bf4072fe1bb4a285e7013a448de126368ff5c15a69c6fc59a9823548e0b629d8abdde62a3aea29c1dc3e99345193b076d3364e4afffc23557da48d03dd407efc18b6d13a353a2bed406ab9ec788bed9a2a09082ea5d60413a7bca50b07a78b01d5f8eee2d7109a6c8ff25c8f103cb5fa099ba373156352e279980a4c8d0561e4f2d5c11c113f18dff31d281f81820ee3a1e3021753ea891e2366ef0cd4c97fc870da0fb1eb0674a73bc4320085795f514102930b9975d385a9bb2dc9886296eb4efb2ff3dbda14803a1b4838899dda19f68554c9369db83e8ce22473cee3c94bfaad5e0743bc40c4f94d8e0de0946429e88a96aa7485bee65c7ec5053133700b699fb884ed7663f9a563c451f4f4e4a63dac66a90019704158ce8d419b22a62defe24872f4484c40c1d75eb63a4fd114b6b8d5ad20d222b13a0d39851ca35d9322be5b826a393072b376daeec127673b9c96dde60c1fe071d3f8b561ea397b32e199ce694c7f30358ae33fecd4509804650bba8c7ee106c2246adb89a8cc1077bb67b3140e2f544393f8e33e47768bac0e94e5a284150ec02ca22bd99cb5c746e4e72535b7cd22aba375bb7248f155a9e75fdb074fc7d4a54f6ec17b424cff1f96ba2f3d027fd4781a6f2053e85c69800c9cd321d6379b3051ac540370ca5e97d0f4a1c2a39da97ca9945b49e881bb612bf3c8c7112903f8c66edd837a22bf3a6bda66cb3f12bee916649ac06af4f1c9790a7af21bd3dcb5aae21755cad75c591417ad962310bcafede7d1ed307b13176709f8bb1f9c3fdf0809dbbb28dfaa2a26bd076d119a34976417c78a4973b98f9c153a4b4233520594ff81627c121e4526171f66838e0f00c58cc4253f0e24c9bb23f7ef43e91ce3c6300b65c8a5b84e67da9f0e5b29f3217e280db53a3168977ab9bcd98f04c94cc202e9ca839e1129dbbf318d5e621a573a3928c4786df99838ffbdc2482cac10d14510240f914833a0b4470831c14a84686ae1c0f12c935bd5d780f7b513096a1e4bb78efb03133668deeb4cb62621e5876e3005db805788d35fad046ec9043838ea036e65c282d87c5895ba322ecf443346f8f737fd2e5c0d5a2887a25ed9c1d0c53d989d6cf8679579c7361cde49870e0dd2b846a2ed8815a4e1213f73ef927cee4184631fd4d7d542d5ba639bcabb3d98b6d03ccb3a86b895925394bbe5d386d7395026457c950149228e5a5edbbd315ebafe822a37e16917518075c392eead699a38cfeaf5a08fe15c993a32d8b0c39a01661cde7d1c7d3de3f71e3342a40087b385475e40848ef45507b13ae05a7d492f9a0979d093facc04ebc63492e0c74cc72f30142a4039c1f66597ae6f63972028d8a718740ce237da4d8c3c09a824ac6fdc042bcc33fdc4f417c4f1d0f0823bddc6f71e6f72529ce3f3ba0f62e9edb26c2f042f7b21c9086d4a61b8424fb8dbbe831540d8db329c0f75d10f5e2bc4549ad44593ce2bf045d1d3e67fc59bf63dcf369327c1570bdad0cdcf98948515d27b0e2c25232955a4a603443ba332b7377938b920006a899e00c92827123883feb24161f5051beec48df36b608381224726ff5accf5f2c73aab9da3f9137dd5ca201a881bf35660d179f0fac7e5c69d1f4d0318a57b07b7a53d3ac5a568328080c47b12575cf07b1bdb047432e93c2f9029eb9d8fe51555698485eaaa6f74ff560601678985d7bbce969c204c7ebcfddd3d51c246e3639af4416e62efbc3ce9798cd9043d2d8ee00802140d60be622575288cc7cc1db082f50e148f7b778e95aa867df6bcb7bb542fdd7261859618e65d60270fa9cc37917e4a14f8e13c95c31671023e3848e8002e3fe25dff069078e3983240ba3ae99e212844310431af49aeb7b9328a2394115b642179e3859deb8aac311386a3571d53fd50e309ef6c5e044b78183ea450abbd92848505fe3226b1481b100e3474f12009157341e4c73a3438d105ec52b9f34ffbcab5ea5d3d65168d36a1f558bbe4fd255b950b20a78a97462ac8aea5b1acad474fdaa97d3f2b17c5b5353e48e79f64860f8e2b1a16d31f2ec3f596ccdc9eca8b0efdafac72704eee3add0a0be5e9a12a34a7f300cecab42464c929028fddf06146c9b918e8fc88316fe26155804657adcf3a4890e199c55603e3a86c0377386917fd39a58c72951a949a834ed99f707b350f2ec70651a5e4f4016f52b3a5b7e6633a95c7a606bffb65c8f764a30069d585d242761a4fef3a2fe6e88509ebdda0c2c064e35e58319e26583f7111fc6cad12b36f6671ea9460718b1c9abbfd8bb7c7a0ec6bbd66506bb14639ab41989deda3773e8f044f4ffb97e8cbdca5e73f847c218b527ed18faf2fae95c16d89f0389c8f02eb87f39d3be33cab5e39c0aa32cec82f067b36b16aca96cfd13117198bc463a5f39b55a3878147882d1257b0b8cfa9047038db1912f4b943db55ec490b019054b530e73056889489914df98308002175ed472501c86b74f598cf36640211b6483881d614da24872004c33ceb7f9c325f49363341028349376a6ee554820e01d60bde0cd822f70dc01a582edfb8784dfa03ead20c9aa235861333af90439980a40edcc056f0ad948725f494969bcd1cf9878aefef14e9952093a1467277ec9e4be3a9d18ce6131157959658a10d23f75831628e57d85bbfc8c90eb4b5b9803c6fdf8f10eef91647f4dc38367dbdc6caae7d064b04a4fd121642c6c995263d0eb4896fa4f66751b6c6efc57bde182f15abbe38ab5d55917d9f4f04c6c25f3179f816dd6ec47f89099d2fbc05417703b6007fa86d2ef108c983cc7c2f59f015e5469252bd58a1b14131f69a1385ebba1eb46bdd45b081f4ecaa147c780319c34c2a2e6dd281e6183ef4adddbe0e89fa9bb14e4e6e51b849916d1d7f1d6c7f89f0a8e090e5647206bfa94e0bf2242d606932b7033196cff04bbf7b91fa03037178c4042bdb1d4cbfe072136511bedd30c355ab733cb569a0e25254499ccab2ac447b584afcb01357282f28ac890165a99ef5a6979c036fd24afe7c06564ee5b47341d2c7e8d6bb99e6f04d04f2cd7a60dfeed7a95b47a3a0730744e7576ad92fa27be5ecbaa6ed07cacfa3d5f3bbead8e82a959573cfcef637dedac9ec54d98fc3aa7b51d56839cdcde74c5a7bf17f62e4ae0ca80f8d1443521f2d71253e190bb1cc0b0c0cded2a283f1399bde1c06fed0da92b1199db9a8dd52e20cc32ac84a9a6eb65d7d2ddf45687f6ce18c472f65fded8378e3f699277a754c75c7c94b242180cf018a09548a52206a8e8f0488c15a2d07c6e2a98622b265c6100a09a28c5dc66e3b0caaef29ae76a88e6cf1b8f155bdad84a747f5e2063041cd41b49912717b2e54f62b51afc82de929e9307c803aaa26dea29dc7f7c7d66cdddd6d4e6fe43a0aaeb1057fee4a52cf48ab8c81f7b76aaa16501003c0c28ea1d82d4322af24917b04f9927c01489218703213a6f2f369bbf0649040fdc3f2fb99db442b391c87a930e41d112d1b73f7476d5c10e0900811c78556e3316936f709560182306fcdacbee35d20dc62ff4a973359f62803a1aad02cff001be7f5be361766735b0d140ebf0ce1a34187459964ed98338d221b6f347937abc388a42e6031cc84fc8c00a99f33d83e4dd70ec5da629d5f7bc086c229331ccfda15c91291dd4128b9523d8f018dc637134739b9601b2d007830c8034106e2a6e4bc944c0e6d744f60bf38fc3fa702e3aa473dd15b5338485acf7e5d0b15ee95357de8224ef7fb47db1a268ed815512910a9a56430e04bb223ef5f9246f433bca6b046ffd20e2f55a26e41fa0da7f60ab90924afac4b827913dcb98d90304ec2f4c1f69fb1e25d47e622004b14932fa7176a43252c47f80e0ded5df71a3f2f8ff0961bf8d12273260c93a4f258d8cd89c8b55a3b20bf92670ecb4695ddfc6101a43f61f83ad029fbc1f7c9e91e5e51bc19d5f111efe98cd0b00a0a4603352fc69157f64ae04d02f0cf9bdbcd67616c3a718b2b6bc49922653e841f91bc4f3da3fdc3ec7a766f67f792997d2a83c00eff7ac9c17507c6c89a96cdca38fba3532163adeb253b7202abf192af8f71312d6a799ae36ba980c3e7bb2abad997df3b0986fbee7cc7de0a28887a9c58cfd96dc3f83413e60a1d784962071b2f20db112aac11126f41bd34c6c8b103d8d1b83c2bb8d8652e09ee8ec1aa4c1fbcd4e414da9eefa64a56d93c97573bbc6de1cd8c6e12fabb874175921259fc57ea31a5f25b40d259c09ccef8c5bf0b327bc814179924cc55f62f6fd51a396d86a94b4f58b5535e4859dfd2124791e25e69bb65e677"
        }
    },
    "waitingSinceBlock": 400000,
    "revokedCommitPublished": [
        {
            "commitTx": "020000000001012f7c825b61cbbf0e685aef20f8923a8cd28943346e59301b629cc89b4e27cdbd000000000000b77080084a0100000000000022002046672803839d10e21d43eafb532bc37cd21bd97dec7f9b50d45380cd1cce69654a01000000000000220020bbd7f17366848d8f624c28438128ce4dc8c72ea21deb0ccf25bee110920da0325046000000000000220020290b762b514961d8ea3f1d0a0b7325c43daebfad3751211816c7bba59e607ccf204e0000000000002200201923dc9176a660d04e0744c51f5e04a3168985962079a6c5d9e2e763170878e1a8610000000000002200202956089b232f4af35587c10894e6e4351d029b0534fb01f7c3c90285a35d45ffb88800000000000022002058acb1c4d7241726756c7e09705500409991b84ce93c86d6ca4eceef76c98cd4d078020000000000220020adccc1c6aa5fb4707079451e579c5dc33c513f0d829346cefe8c80179e09d49ca8240b0000000000220020958bb43c9e6d1b985001c2f4dc38d286d7fde78bb04d7ec5a5ae44d8ebf0c40c0400473044022003a9fc09ecabbbc049b8dec3d3b92f092265f03b3d4842c0595de1b91b215be202206caebdbc0bfac0d93b3068a9a633268e7e8ccd5904971f8375e5b9b3ee64b3a501473044022045e9af4c12876dcc268d319687f1990ae8db9faace5e4281465bd5799e1a44f9022020c476373f17531c614eff980283fc8b3ace4e69f9e58debd891c0a3812211900147522102b6eaf304d966a6df90f3b3df7af7be6b1625854bbc096cb8b3507b2a37c2bf9c210385cfd7d8850e4cb8fcbed57310911218e5d5e1fd34f92ef5d9db14d56418caa452aeda99dc20",
            "remotePerCommitmentSecret": "<redacted>",
            "claimMainOutputTx": {
                "type": "fr.acinq.lightning.transactions.Transactions.TransactionWithInputInfo.ClaimRemoteCommitMainOutputTx.ClaimRemoteDelayedOutputTx",
                "input": {
                    "outPoint": "3cdaac5fd4ca78ec2efca165400efb5078f9f57d221a733d372f0213136b92eb:7",
                    "txOut": {
                        "amount": 730280,
                        "publicKeyScript": "0020958bb43c9e6d1b985001c2f4dc38d286d7fde78bb04d7ec5a5ae44d8ebf0c40c"
                    },
                    "redeemScript": "210368434fc548cb471f7ed8c94638433bfb07cceb97665c411450fdc23c60236409ad51b2"
                },
                "tx": "02000000000101eb926b1313022f373d731a227df5f97850fb0e4065a1fc2eec78cad45facda3c0700000000010000000164130b000000000016001405e0104aa726e34ff5cd3a6320d05c0862b5b01c0248304502210083948dc13913cec37467102cb7adc830b018a2536239235c21289ff28e59f089022056b59bdc84dcf4fe944dbd79266edce51ba4ec4993c46d7d7dbe7ba120dad67d0125210368434fc548cb471f7ed8c94638433bfb07cceb97665c411450fdc23c60236409ad51b200000000"
            },
            "mainPenaltyTx": {
                "input": {
                    "outPoint": "3cdaac5fd4ca78ec2efca165400efb5078f9f57d221a733d372f0213136b92eb:6",
                    "txOut": {
                        "amount": 162000,
                        "publicKeyScript": "0020adccc1c6aa5fb4707079451e579c5dc33c513f0d829346cefe8c80179e09d49c"
                    },
                    "redeemScript": "632102806f9e3650359bb2b6b0e04fac754fbd577f402a1d0eab20e263d66c45c4e79267029000b275210214568b8d52d11f74c1e62febcb48c3a8cc9616a69d59bf9e96c486c2f7361eeb68ac"
                },
                "tx": "02000000000101eb926b1313022f373d731a227df5f97850fb0e4065a1fc2eec78cad45facda3c0600000000ffffffff01e86502000000000016001405e0104aa726e34ff5cd3a6320d05c0862b5b01c03483045022100a59774323854e0673d60678b868d11f05b84bdac353cac0f80fe5a8c93cb13dd022052bd08753cca9f09795b9373266a88ecdc40f93f39b090d46d49e28055d9af9e0101014d632102806f9e3650359bb2b6b0e04fac754fbd577f402a1d0eab20e263d66c45c4e79267029000b275210214568b8d52d11f74c1e62febcb48c3a8cc9616a69d59bf9e96c486c2f7361eeb68ac00000000"
            },
            "htlcPenaltyTxs": [
                {
                    "input": {
                        "outPoint": "3cdaac5fd4ca78ec2efca165400efb5078f9f57d221a733d372f0213136b92eb:2",
                        "txOut": {
                            "amount": 18000,
                            "publicKeyScript": "0020290b762b514961d8ea3f1d0a0b7325c43daebfad3751211816c7bba59e607ccf"
                        },
                        "redeemScript": "76a9149658e6f101e2c2329756d1a7e09257d6521ebfd18763ac672103a66ccf07c659947f9ee04551dec3452759281e60facfd0fbcc10d0d1118cced17c820120876475527c2103198e9c7fb80134b1f0d4e5f97cf1f921412870cbdc271e60294a553218d2dc8952ae67a914f641d76117a75fe126c44b2508b8054d700fcde888ac6851b27568"
                    },
                    "tx": "02000000000101eb926b1313022f373d731a227df5f97850fb0e4065a1fc2eec78cad45facda3c0200000000ffffffff011a3100000000000016001405e0104aa726e34ff5cd3a6320d05c0862b5b01c0348304502210086ffaf498fac064d0624b027d1fe7cb8ee9f950fe65ee5a932299ad4134c960e0220490cd145206905fdac12e2b50e065ad2440079dc29c04080728a0b7afba849ce012102806f9e3650359bb2b6b0e04fac754fbd577f402a1d0eab20e263d66c45c4e7928876a9149658e6f101e2c2329756d1a7e09257d6521ebfd18763ac672103a66ccf07c659947f9ee04551dec3452759281e60facfd0fbcc10d0d1118cced17c820120876475527c2103198e9c7fb80134b1f0d4e5f97cf1f921412870cbdc271e60294a553218d2dc8952ae67a914f641d76117a75fe126c44b2508b8054d700fcde888ac6851b2756800000000"
                },
                {
                    "input": {
                        "outPoint": "3cdaac5fd4ca78ec2efca165400efb5078f9f57d221a733d372f0213136b92eb:3",
                        "txOut": {
                            "amount": 20000,
                            "publicKeyScript": "00201923dc9176a660d04e0744c51f5e04a3168985962079a6c5d9e2e763170878e1"
                        },
                        "redeemScript": "76a9149658e6f101e2c2329756d1a7e09257d6521ebfd18763ac672103a66ccf07c659947f9ee04551dec3452759281e60facfd0fbcc10d0d1118cced17c820120876475527c2103198e9c7fb80134b1f0d4e5f97cf1f921412870cbdc271e60294a553218d2dc8952ae67a914a7999128933ef5762697417752218f5b225823df88ac6851b27568"
                    },
                    "tx": "02000000000101eb926b1313022f373d731a227df5f97850fb0e4065a1fc2eec78cad45facda3c0300000000ffffffff01ea3800000000000016001405e0104aa726e34ff5cd3a6320d05c0862b5b01c03483045022100c7875968084e155a1d1eb5ab3d241251f37e20b94535ed5dea6e54e5cc000540022048d31442b1ff9ceee7ac227f6289367fffc001ed64821052e25a90137d987857012102806f9e3650359bb2b6b0e04fac754fbd577f402a1d0eab20e263d66c45c4e7928876a9149658e6f101e2c2329756d1a7e09257d6521ebfd18763ac672103a66ccf07c659947f9ee04551dec3452759281e60facfd0fbcc10d0d1118cced17c820120876475527c2103198e9c7fb80134b1f0d4e5f97cf1f921412870cbdc271e60294a553218d2dc8952ae67a914a7999128933ef5762697417752218f5b225823df88ac6851b2756800000000"
                },
                {
                    "input": {
                        "outPoint": "3cdaac5fd4ca78ec2efca165400efb5078f9f57d221a733d372f0213136b92eb:4",
                        "txOut": {
                            "amount": 25000,
                            "publicKeyScript": "00202956089b232f4af35587c10894e6e4351d029b0534fb01f7c3c90285a35d45ff"
                        },
                        "redeemScript": "76a9149658e6f101e2c2329756d1a7e09257d6521ebfd18763ac672103a66ccf07c659947f9ee04551dec3452759281e60facfd0fbcc10d0d1118cced17c8201208763a914d27389cfea205e3ccaeefa5e688997d163e0eba588527c2103198e9c7fb80134b1f0d4e5f97cf1f921412870cbdc271e60294a553218d2dc8952ae677503101b06b175ac6851b27568"
                    },
                    "tx": "02000000000101eb926b1313022f373d731a227df5f97850fb0e4065a1fc2eec78cad45facda3c0400000000ffffffff01364c00000000000016001405e0104aa726e34ff5cd3a6320d05c0862b5b01c0347304402203f77be20e88d0ed298f9be8cb93034b2f030907de6d6ae71049de6912089be5d0220294ae5491010d047a5a5a78de5e17b485927c05ad194a4da027a3c4a2643ebbf012102806f9e3650359bb2b6b0e04fac754fbd577f402a1d0eab20e263d66c45c4e7928e76a9149658e6f101e2c2329756d1a7e09257d6521ebfd18763ac672103a66ccf07c659947f9ee04551dec3452759281e60facfd0fbcc10d0d1118cced17c8201208763a914d27389cfea205e3ccaeefa5e688997d163e0eba588527c2103198e9c7fb80134b1f0d4e5f97cf1f921412870cbdc271e60294a553218d2dc8952ae677503101b06b175ac6851b2756800000000"
                },
                {
                    "input": {
                        "outPoint": "3cdaac5fd4ca78ec2efca165400efb5078f9f57d221a733d372f0213136b92eb:5",
                        "txOut": {
                            "amount": 35000,
                            "publicKeyScript": "002058acb1c4d7241726756c7e09705500409991b84ce93c86d6ca4eceef76c98cd4"
                        },
                        "redeemScript": "76a9149658e6f101e2c2329756d1a7e09257d6521ebfd18763ac672103a66ccf07c659947f9ee04551dec3452759281e60facfd0fbcc10d0d1118cced17c8201208763a914558bc3d947b88a8e5f4a49d8aa12d0c16f4ca95a88527c2103198e9c7fb80134b1f0d4e5f97cf1f921412870cbdc271e60294a553218d2dc8952ae677503101b06b175ac6851b27568"
                    },
                    "tx": "02000000000101eb926b1313022f373d731a227df5f97850fb0e4065a1fc2eec78cad45facda3c0500000000ffffffff01467300000000000016001405e0104aa726e34ff5cd3a6320d05c0862b5b01c0347304402202350f2e05e58a586cfe3591f3ed5e33d748c73f78647cfdf3c69c09b4ebf7a3202206156173eaf3db0b86e55a2fd5dd1b006e020c76e048ee86e4d3262714285e2e2012102806f9e3650359bb2b6b0e04fac754fbd577f402a1d0eab20e263d66c45c4e7928e76a9149658e6f101e2c2329756d1a7e09257d6521ebfd18763ac672103a66ccf07c659947f9ee04551dec3452759281e60facfd0fbcc10d0d1118cced17c8201208763a914558bc3d947b88a8e5f4a49d8aa12d0c16f4ca95a88527c2103198e9c7fb80134b1f0d4e5f97cf1f921412870cbdc271e60294a553218d2dc8952ae677503101b06b175ac6851b2756800000000"
                }
            ],
            "claimHtlcDelayedPenaltyTxs": [
                {
                    "input": {
                        "outPoint": "34d00149cc8115b9e222e7bafcda6ebbcfcda8e2df8b5afe9c81f8950ac21785:0",
                        "txOut": {
                            "amount": 31470,
                            "publicKeyScript": "0020adccc1c6aa5fb4707079451e579c5dc33c513f0d829346cefe8c80179e09d49c"
                        },
                        "redeemScript": "632102806f9e3650359bb2b6b0e04fac754fbd577f402a1d0eab20e263d66c45c4e79267029000b275210214568b8d52d11f74c1e62febcb48c3a8cc9616a69d59bf9e96c486c2f7361eeb68ac"
                    },
                    "tx": "020000000001018517c20a95f8819cfe5a8bdfe2a8cdcfbb6edafcbae722e2b91581cc4901d0340000000000ffffffff01066800000000000016001405e0104aa726e34ff5cd3a6320d05c0862b5b01c03483045022100cd99f14ce3a99e73627abde0c5cb71e59f0acdf1e1a09ea286b878c4154af691022051cfbcc604ef4a6d6c9a7693e8a2fb47fa123a1864f42a8d9f96cd1de271858b0101014d632102806f9e3650359bb2b6b0e04fac754fbd577f402a1d0eab20e263d66c45c4e79267029000b275210214568b8d52d11f74c1e62febcb48c3a8cc9616a69d59bf9e96c486c2f7361eeb68ac00000000"
                },
                {
                    "input": {
                        "outPoint": "cae12bb3c504d6a627b7ca1d0b7e88cb74bb6d82e216adf71be70df2057fdab3:0",
                        "txOut": {
                            "amount": 14670,
                            "publicKeyScript": "0020adccc1c6aa5fb4707079451e579c5dc33c513f0d829346cefe8c80179e09d49c"
                        },
                        "redeemScript": "632102806f9e3650359bb2b6b0e04fac754fbd577f402a1d0eab20e263d66c45c4e79267029000b275210214568b8d52d11f74c1e62febcb48c3a8cc9616a69d59bf9e96c486c2f7361eeb68ac"
                    },
                    "tx": "02000000000101b3da7f05f20de71bf7ad16e2826dbb74cb887e0b1dcab727a6d604c5b32be1ca0000000000ffffffff01662600000000000016001405e0104aa726e34ff5cd3a6320d05c0862b5b01c034830450221009b3d38c6b9a8cff2daa93f6f0bf64da18be548efdaeb52091f81735796fe32d602207b6b5bafdc4ca0dede862cbf5ca49a4e7862208e7826621fc5b9b0f7cec3403c0101014d632102806f9e3650359bb2b6b0e04fac754fbd577f402a1d0eab20e263d66c45c4e79267029000b275210214568b8d52d11f74c1e62febcb48c3a8cc9616a69d59bf9e96c486c2f7361eeb68ac00000000"
                }
            ],
            "irrevocablySpent": {
                "bdcd274e9bc89c621b30596e344389d28c3a92f820ef5a680ebfcb615b827c2f:0": "020000000001012f7c825b61cbbf0e685aef20f8923a8cd28943346e59301b629cc89b4e27cdbd000000000000b77080084a0100000000000022002046672803839d10e21d43eafb532bc37cd21bd97dec7f9b50d45380cd1cce69654a01000000000000220020bbd7f17366848d8f624c28438128ce4dc8c72ea21deb0ccf25bee110920da0325046000000000000220020290b762b514961d8ea3f1d0a0b7325c43daebfad3751211816c7bba59e607ccf204e0000000000002200201923dc9176a660d04e0744c51f5e04a3168985962079a6c5d9e2e763170878e1a8610000000000002200202956089b232f4af35587c10894e6e4351d029b0534fb01f7c3c90285a35d45ffb88800000000000022002058acb1c4d7241726756c7e09705500409991b84ce93c86d6ca4eceef76c98cd4d078020000000000220020adccc1c6aa5fb4707079451e579c5dc33c513f0d829346cefe8c80179e09d49ca8240b0000000000220020958bb43c9e6d1b985001c2f4dc38d286d7fde78bb04d7ec5a5ae44d8ebf0c40c0400473044022003a9fc09ecabbbc049b8dec3d3b92f092265f03b3d4842c0595de1b91b215be202206caebdbc0bfac0d93b3068a9a633268e7e8ccd5904971f8375e5b9b3ee64b3a501473044022045e9af4c12876dcc268d319687f1990ae8db9faace5e4281465bd5799e1a44f9022020c476373f17531c614eff980283fc8b3ace4e69f9e58debd891c0a3812211900147522102b6eaf304d966a6df90f3b3df7af7be6b1625854bbc096cb8b3507b2a37c2bf9c210385cfd7d8850e4cb8fcbed57310911218e5d5e1fd34f92ef5d9db14d56418caa452aeda99dc20",
                "3cdaac5fd4ca78ec2efca165400efb5078f9f57d221a733d372f0213136b92eb:7": "02000000000101eb926b1313022f373d731a227df5f97850fb0e4065a1fc2eec78cad45facda3c0700000000010000000164130b000000000016001405e0104aa726e34ff5cd3a6320d05c0862b5b01c0248304502210083948dc13913cec37467102cb7adc830b018a2536239235c21289ff28e59f089022056b59bdc84dcf4fe944dbd79266edce51ba4ec4993c46d7d7dbe7ba120dad67d0125210368434fc548cb471f7ed8c94638433bfb07cceb97665c411450fdc23c60236409ad51b200000000",
                "3cdaac5fd4ca78ec2efca165400efb5078f9f57d221a733d372f0213136b92eb:6": "02000000000101eb926b1313022f373d731a227df5f97850fb0e4065a1fc2eec78cad45facda3c0600000000ffffffff01e86502000000000016001405e0104aa726e34ff5cd3a6320d05c0862b5b01c03483045022100a59774323854e0673d60678b868d11f05b84bdac353cac0f80fe5a8c93cb13dd022052bd08753cca9f09795b9373266a88ecdc40f93f39b090d46d49e28055d9af9e0101014d632102806f9e3650359bb2b6b0e04fac754fbd577f402a1d0eab20e263d66c45c4e79267029000b275210214568b8d52d11f74c1e62febcb48c3a8cc9616a69d59bf9e96c486c2f7361eeb68ac00000000",
                "3cdaac5fd4ca78ec2efca165400efb5078f9f57d221a733d372f0213136b92eb:4": "02000000000101eb926b1313022f373d731a227df5f97850fb0e4065a1fc2eec78cad45facda3c0400000000ffffffff01364c00000000000016001405e0104aa726e34ff5cd3a6320d05c0862b5b01c0347304402203f77be20e88d0ed298f9be8cb93034b2f030907de6d6ae71049de6912089be5d0220294ae5491010d047a5a5a78de5e17b485927c05ad194a4da027a3c4a2643ebbf012102806f9e3650359bb2b6b0e04fac754fbd577f402a1d0eab20e263d66c45c4e7928e76a9149658e6f101e2c2329756d1a7e09257d6521ebfd18763ac672103a66ccf07c659947f9ee04551dec3452759281e60facfd0fbcc10d0d1118cced17c8201208763a914d27389cfea205e3ccaeefa5e688997d163e0eba588527c2103198e9c7fb80134b1f0d4e5f97cf1f921412870cbdc271e60294a553218d2dc8952ae677503101b06b175ac6851b2756800000000",
                "3cdaac5fd4ca78ec2efca165400efb5078f9f57d221a733d372f0213136b92eb:5": "0200000001eb926b1313022f373d731a227df5f97850fb0e4065a1fc2eec78cad45facda3c05000000000100000001ee7a000000000000220020adccc1c6aa5fb4707079451e579c5dc33c513f0d829346cefe8c80179e09d49c00000000"
            }
        }
    ]
}