{
    "type": "fr.acinq.lightning.channel.states.Normal",
    "commitments": {
        "params": {
            "channelId": "2f7c825b61cbbf0e685aef20f8923a8cd28943346e59301b629cc89b4e27cdbd",
            "channelConfig": [
                "funding_pubkey_based_channel_keypath"
            ],
            "channelFeatures": [
                "option_static_remotekey",
                "option_support_large_channel",
                "option_anchor_outputs"
            ],
            "localParams": {
                "nodeId": "037108815ff0128f7ed22640485c226d9ad64a9fd6d8b41b6623565aed6b34812c",
                "fundingKeyPath": "m/385048399/1977025879/604622566/184658546/776346346/949304342'/277944247'/2049339775'/1'",
                "dustLimit": 1100,
                "maxHtlcValueInFlightMsat": 1500000000,
                "htlcMinimum": 0,
                "toSelfDelay": 144,
                "maxAcceptedHtlcs": 100,
                "isChannelOpener": true,
                "paysCommitTxFees": true,
                "defaultFinalScriptPubKey": "001405e0104aa726e34ff5cd3a6320d05c0862b5b01c",
                "features": {
                    "activated": {
                        "initial_routing_sync": "Optional",
                        "option_data_loss_protect": "Optional",
                        "gossip_queries": "Optional",
                        "gossip_queries_ex": "Optional",
                        "var_onion_optin": "Mandatory",
                        "payment_secret": "Mandatory",
                        "basic_mpp": "Optional",
                        "option_support_large_channel": "Optional",
                        "option_static_remotekey": "Mandatory",
                        "option_anchor_outputs": "Mandatory",
                        "option_channel_type": "Mandatory",
                        "option_payment_metadata": "Optional",
                        "trampoline_payment_experimental": "Optional",
                        "wake_up_notification_provider": "Optional",
                        "pay_to_open_provider": "Optional",
                        "trusted_swap_in_provider": "Optional",
                        "channel_backup_provider": "Optional"
                    },
                    "unknown": []
                }
            },
            "remoteParams": {
                "nodeId": "0362b19a83930389b4468be40308efb3f352b23142ae25e6aba0465a8220f95b06",
                "dustLimit": 1000,
                "maxHtlcValueInFlightMsat": 1500000000,
                "htlcMinimum": 1000,
                "toSelfDelay": 144,
                "maxAcceptedHtlcs": 100,
                "revocationBasepoint": "03a42aef6d1c860caffa6c71a6f8ac2b16eec25bab0c3950cdb1fad7fb38a5f2a5",
                "paymentBasepoint": "02508e1845b8bbe0773f6bf8f3f04f59a5896426765c7b6b23e6e466c95381182b",
                "delayedPaymentBasepoint": "02d62233b7c33f8fd0911922461a651007f1de09d8c474029caa8f2c229c10de26",
                "htlcBasepoint": "03d05c8245bdc12efd8b070b22b276e7db4254f4693e22b3f7c978c08e67b36236",
                "features": {
                    "activated": {
                        "option_data_loss_protect": "Optional",
                        "initial_routing_sync": "Optional",
                        "gossip_queries": "Optional",
                        "var_onion_optin": "Mandatory",
                        "gossip_queries_ex": "Optional",
                        "option_static_remotekey": "Mandatory",
                        "payment_secret": "Mandatory",
                        "basic_mpp": "Optional",
                        "option_support_large_channel": "Optional",
                        "option_anchor_outputs": "Mandatory",
                        "option_channel_type": "Mandatory",
                        "option_payment_metadata": "Optional",
                        "wake_up_notification_client": "Optional",
                        "pay_to_open_client": "Optional",
                        "trusted_swap_in_client": "Optional",
                        "channel_backup_client": "Optional",
                        "trampoline_payment_experimental": "Optional"
                    },
                    "unknown": []
                }
            },
            "channelFlags": {
                "announceChannel": false,
                "nonInitiatorPaysCommitFees": false
            }
        },
        "changes": {
            "localChanges": {
                "proposed": [],
                "signed": [],
                "acked": []
            },
            "remoteChanges": {
                "proposed": [],
                "acked": [],
                "signed": [
                    {
                        "type": "fr.acinq.lightning.wire.UpdateAddHtlc",
                        "channelId": "2f7c825b61cbbf0e685aef20f8923a8cd28943346e59301b629cc89b4e27cdbd",
                        "id": 0,
                        "amountMsat": 4640000,
                        "paymentHash": "21cfd1bdff21a6254dd36cfd62e00733b834ec648cb36b59c10ef6172e78389e",
                        "cltvExpiry": 400144,
                        "onionRoutingPacket": "<redacted>"
                    },
                    {
                        "type": "fr.acinq.lightning.wire.UpdateAddHtlc",
                        "channelId": "2f7c825b61cbbf0e685aef20f8923a8cd28943346e59301b629cc89b4e27cdbd",
                        "id": 1,
                        "amountMsat": 4340000,
                        "paymentHash": "6da74844b47a2823a6e64f45f0963e230ca49f179d36bca71c2adca8a83b042a",
                        "cltvExpiry": 400144,
                        "onionRoutingPacket": "<redacted>"
                    }
                ]
            },
            "localNextHtlcId": 2,
            "remoteNextHtlcId": 2
        },
        "active": [
            {
                "fundingTxIndex": 0,
                "remoteFundingPubkey": "0385cfd7d8850e4cb8fcbed57310911218e5d5e1fd34f92ef5d9db14d56418caa4",
                "localFundingStatus": {
                    "status": "unconfirmed",
                    "txId": "bdcd274e9bc89c621b30596e344389d28c3a92f820ef5a680ebfcb615b827c2f"
                },
                "remoteFundingStatus": {
                    "status": "locked"
                },
                "localCommit": {
                    "index": 1,
                    "spec": {
                        "htlcsIn": [
                            {
                                "channelId": "2f7c825b61cbbf0e685aef20f8923a8cd28943346e59301b629cc89b4e27cdbd",
                                "id": 0,
                                "amountMsat": 4640000,
                                "paymentHash": "21cfd1bdff21a6254dd36cfd62e00733b834ec648cb36b59c10ef6172e78389e",
                                "cltvExpiry": 400144,
                                "onionRoutingPacket": "<redacted>"
                            },
                            {
                                "channelId": "2f7c825b61cbbf0e685aef20f8923a8cd28943346e59301b629cc89b4e27cdbd",
                                "id": 1,
                                "amountMsat": 4340000,
                                "paymentHash": "6da74844b47a2823a6e64f45f0963e230ca49f179d36bca71c2adca8a83b042a",
                                "cltvExpiry": 400144,
                                "onionRoutingPacket": "<redacted>"
                            }
                        ],
                        "htlcsOut": [
                            {
                                "channelId": "2f7c825b61cbbf0e685aef20f8923a8cd28943346e59301b629cc89b4e27cdbd",
                                "id": 0,
                                "amountMsat": 4540000,
                                "paymentHash": "954b05bac0091518574fbae7eb52457ff537cb6b88b7ee1f98147dab5a8abc63",
                                "cltvExpiry": 400144,
                                "onionRoutingPacket": "<redacted>"
                            },
                            {
                                "channelId": "2f7c825b61cbbf0e685aef20f8923a8cd28943346e59301b629cc89b4e27cdbd",
                                "id": 1,
                                "amountMsat": 4550000,
                                "paymentHash": "7fbd08c3ac7021f5ca8295d759231b7ce2452face5f11c1d14dbbe7035e36aaa",
                                "cltvExpiry": 400144,
                                "onionRoutingPacket": "<redacted>"
                            }
                        ],
                        "feerate": 5000,
                        "toLocal": 790910000,
                        "toRemote": 191020000
                    },
                    "publishableTxs": {
                        "commitTx": {
                            "input": {
                                "outPoint": "bdcd274e9bc89c621b30596e344389d28c3a92f820ef5a680ebfcb615b827c2f:0",
                                "txOut": {
                                    "amount": 1000000,
                                    "publicKeyScript": "00204ba42b50e089764e60e9e0c76c57e41d252d6beb976332f14a7b255bbb5322b8"
                                },
                                "redeemScript": "522102b6eaf304d966a6df90f3b3df7af7be6b1625854bbc096cb8b3507b2a37c2bf9c210385cfd7d8850e4cb8fcbed57310911218e5d5e1fd34f92ef5d9db14d56418caa452ae"
                            },
                            "tx": "020000000001012f7c825b61cbbf0e685aef20f8923a8cd28943346e59301b629cc89b4e27cdbd000000000000b77080074a0100000000000022002046672803839d10e21d43eafb532bc37cd21bd97dec7f9b50d45380cd1cce69654a01000000000000220020bbd7f17366848d8f624c28438128ce4dc8c72ea21deb0ccf25bee110920da032bc110000000000002200208bf1a46fa0bd7ca44eda0c5df968544c280859a29a527641afac57c27bf7003fc611000000000000220020de61d4f9864b11e111190b9d11f62ebf7476d517a7bba5b0a5b0f80f4e54eb1f20120000000000002200207805c9f22468069984db4db780b44c97593e4fee2c8ee32114f1c9b4a6d70fe42cea020000000000220020cb93e3adb8d213704e9a07ea2a6ce91dca51a9b76fcb6bef3cc9b5b7e10a7990e2ee0b00000000002200206aae960776a0a9f526c5ea6841c28baa16a7ae997313ed417dbc55e38fe1c1730400483045022100da0c7b59463b6a4284147a3b027c48627364bbc2640e212182fcb516124a527302202177fb27546d43967a07e90666a6433f0ceeeff9d464b8ce2ef974aea294271a014830450221008c9af1f2b41e06cb6713f33b488ee65ec8b28db0505ad6d57f25fa10ef89ceb00220688569c56bcc9027b8302cfdd2daa6b1f1a2c537ff5c7b68787ab4b0ad7ecdee0147522102b6eaf304d966a6df90f3b3df7af7be6b1625854bbc096cb8b3507b2a37c2bf9c210385cfd7d8850e4cb8fcbed57310911218e5d5e1fd34f92ef5d9db14d56418caa452aedf99dc20"
                        },
                        "htlcTxsAndSigs": [
                            {
                                "txinfo": {
                                    "type": "fr.acinq.lightning.transactions.Transactions.TransactionWithInputInfo.HtlcTx.HtlcTimeoutTx",
                                    "input": {
                                        "outPoint": "2ba9027cf8e58bb8298b03b361336d6453ebc9c03135afc8741c0871b167d491:2",
                                        "txOut": {
                                            "amount": 4540,
                                            "publicKeyScript": "00208bf1a46fa0bd7ca44eda0c5df968544c280859a29a527641afac57c27bf7003f"
                                        },
                                        "redeemScript": "76a9149166a758c8ce2d9f0c36df15d8624a3c2d0e01b08763ac67210212f485e05882dc6abe5ca535a3880a1c8b2fb10261ba27c56110d926775d73fc7c820120876475527c210202381f64b9573d9410b135c8f3e9ec876233af900152d2e42211a6aa73835ad952ae67a914e3343ec0997580d5b583bb2025e77adaf760c37a88ac6851b27568"
                                    },
                                    "tx": "020000000191d467b171081c74c8af3531c0c9eb53646d3361b3038b29b88be5f87c02a92b02000000000100000001ba040000000000002200206aae960776a0a9f526c5ea6841c28baa16a7ae997313ed417dbc55e38fe1c173101b0600",
                                    "htlcId": 0
                                },
                                "localSig": "24f317d01b079986c85a1fdaaac8d7c9fc069285ef6c00afc68cbdbc39e1fa232ea6e020f29d1401374f24c1e0fda672a747774884a6bfc39a5822da0db9b0f4",
                                "remoteSig": "d9c3afcf4a2f4f55d7250e246160809488c95964ee30daafb70d168b065cdb8a609292b9737f7e327588a5d0d6dc80fc9f14e0659853b0c0fd636979a1fdcb7d"
                            },
                            {
                                "txinfo": {
                                    "type": "fr.acinq.lightning.transactions.Transactions.TransactionWithInputInfo.HtlcTx.HtlcTimeoutTx",
                                    "input": {
                                        "outPoint": "2ba9027cf8e58bb8298b03b361336d6453ebc9c03135afc8741c0871b167d491:3",
                                        "txOut": {
                                            "amount": 4550,
                                            "publicKeyScript": "0020de61d4f9864b11e111190b9d11f62ebf7476d517a7bba5b0a5b0f80f4e54eb1f"
                                        },
                                        "redeemScript": "76a9149166a758c8ce2d9f0c36df15d8624a3c2d0e01b08763ac67210212f485e05882dc6abe5ca535a3880a1c8b2fb10261ba27c56110d926775d73fc7c820120876475527c210202381f64b9573d9410b135c8f3e9ec876233af900152d2e42211a6aa73835ad952ae67a914bf3a02ed662f79cdd5fef9658003fec6a8d8eff288ac6851b27568"
                                    },
                                    "tx": "020000000191d467b171081c74c8af3531c0c9eb53646d3361b3038b29b88be5f87c02a92b03000000000100000001c4040000000000002200206aae960776a0a9f526c5ea6841c28baa16a7ae997313ed417dbc55e38fe1c173101b0600",
                                    "htlcId": 1
                                },
                                "localSig": "779952b88b9f4a4bc16fe15f68444bba160065dce2d79ba7ba42b36b7db061482cc29992803323c676d885c4622de762bf1554951bc2eb9e669208b92f7ae3da",
                                "remoteSig": "a114cdabf6695b1f2e17d01c7c948ea83e0a3d1001ef69d83d5e41eddccf9c7e2500498ab1787039cafec7fa5815d53ffe37c4e94456d1f8b5d03aa0bf56342c"
                            },
                            {
                                "txinfo": {
                                    "type": "fr.acinq.lightning.transactions.Transactions.TransactionWithInputInfo.HtlcTx.HtlcSuccessTx",
                                    "input": {
                                        "outPoint": "2ba9027cf8e58bb8298b03b361336d6453ebc9c03135afc8741c0871b167d491:4",
                                        "txOut": {
                                            "amount": 4640,
                                            "publicKeyScript": "00207805c9f22468069984db4db780b44c97593e4fee2c8ee32114f1c9b4a6d70fe4"
                                        },
                                        "redeemScript": "76a9149166a758c8ce2d9f0c36df15d8624a3c2d0e01b08763ac67210212f485e05882dc6abe5ca535a3880a1c8b2fb10261ba27c56110d926775d73fc7c8201208763a914562c7aee508993870ab9ed39c9ea6d072b5cb78888527c210202381f64b9573d9410b135c8f3e9ec876233af900152d2e42211a6aa73835ad952ae677503101b06b175ac6851b27568"
                                    },
                                    "tx": "020000000191d467b171081c74c8af3531c0c9eb53646d3361b3038b29b88be5f87c02a92b0400000000010000000156040000000000002200206aae960776a0a9f526c5ea6841c28baa16a7ae997313ed417dbc55e38fe1c17300000000",
                                    "paymentHash": "21cfd1bdff21a6254dd36cfd62e00733b834ec648cb36b59c10ef6172e78389e",
                                    "htlcId": 0
                                },
                                "localSig": "d2216ff0af9cbcccaa86e4b11b5a46d8036fcccee8956e5fc92234a9dc9f46a6642f882bb195e04bf7de06b86781c864c1ae976dda2fe13004c9b9bbbfb16fe6",
                                "remoteSig": "9f5d72d734e17f3bb86673b895921de22d04ca5e1e16fabb5cebec97bffa22dc634f8d7170c34e389ba2da99b707ebda7509fbdacdae90edb75b67d82bd8a6c0"
                            }
                        ]
                    }
                },
                "remoteCommit": {
                    "index": 1,
                    "spec": {
                        "htlcsIn": [
                            {
                                "channelId": "2f7c825b61cbbf0e685aef20f8923a8cd28943346e59301b629cc89b4e27cdbd",
                                "id": 0,
                                "amountMsat": 4540000,
                                "paymentHash": "954b05bac0091518574fbae7eb52457ff537cb6b88b7ee1f98147dab5a8abc63",
                                "cltvExpiry": 400144,
                                "onionRoutingPacket": "<redacted>"
                            },
                            {
                                "channelId": "2f7c825b61cbbf0e685aef20f8923a8cd28943346e59301b629cc89b4e27cdbd",
                                "id": 1,
                                "amountMsat": 4550000,
                                "paymentHash": "7fbd08c3ac7021f5ca8295d759231b7ce2452face5f11c1d14dbbe7035e36aaa",
                                "cltvExpiry": 400144,
                                "onionRoutingPacket": "<redacted>"
                            }
                        ],
                        "htlcsOut": [],
                        "feerate": 5000,
                        "toLocal": 200000000,
                        "toRemote": 790910000
                    },
                    "txid": "ab5641cfc9de5225bd6b32206cc83500169ac53c4d1d3d22a94e9a52a75a549e",
                    "remotePerCommitmentPoint": "03c57839fd412868a398bea05d01678a752661126a2d1357a0f7cb6f0c60311125"
                },
                "nextRemoteCommit": {
                    "sig": {
                        "channelId": "2f7c825b61cbbf0e685aef20f8923a8cd28943346e59301b629cc89b4e27cdbd",
                        "signature": "d0dc87687f989fa9d9cb00875bbd7e29cc076219898281c2ad05225abec90f610fd09a46f9e3b6618c26d0159573000bb15cf9e36e99e6a42f9029f55358984b",
                        "htlcSignatures": [
                            "b73f21dececcaf374e766088ac1769a547b96ffa8fb7d8ec885b5c65be7ae1242beee07cbd9f7b2924b6a7ea41ca624209723f981a9624f118a51d639227feaa",
                            "137ed5daa06fc8b58c0f5bd37dbea2e11183082dac805a75f449343f5d21cd8935e99f3f035585622d97cfceaf9e136e8e3596c8e4e7ce2a91f94893c0aa4846",
                            "38e3c64a9188825a0814f574ea237d27373eb499dd9ca575361795e314868eab431d035f74a183d3219eae0a321affaff9ef652bf15539007a8101b8044d9822",
                            "a547db99506cd969cd115cc455362365f784fb4b6e15b8a619ed19b45797a8a92c8e7e03f2503eab4be97c6867abff2615fc897d3f9d5d15d1d88dcd68e38ac6"
                        ]
                    },
                    "commit": {
                        "index": 2,
                        "spec": {
                            "htlcsIn": [
                                {
                                    "channelId": "2f7c825b61cbbf0e685aef20f8923a8cd28943346e59301b629cc89b4e27cdbd",
                                    "id": 0,
                                    "amountMsat": 4540000,
                                    "paymentHash": "954b05bac0091518574fbae7eb52457ff537cb6b88b7ee1f98147dab5a8abc63",
                                    "cltvExpiry": 400144,
                                    "onionRoutingPacket": "<redacted>"
                                },
                                {
                                    "channelId": "2f7c825b61cbbf0e685aef20f8923a8cd28943346e59301b629cc89b4e27cdbd",
                                    "id": 1,
                                    "amountMsat": 4550000,
                                    "paymentHash": "7fbd08c3ac7021f5ca8295d759231b7ce2452face5f11c1d14dbbe7035e36aaa",
                                    "cltvExpiry": 400144,
                                    "onionRoutingPacket": "<redacted>"
                                }
                            ],
                            "htlcsOut": [
                                {
                                    "channelId": "2f7c825b61cbbf0e685aef20f8923a8cd28943346e59301b629cc89b4e27cdbd",
                                    "id": 0,
                                    "amountMsat": 4640000,
                                    "paymentHash": "21cfd1bdff21a6254dd36cfd62e00733b834ec648cb36b59c10ef6172e78389e",
                                    "cltvExpiry": 400144,
                                    "onionRoutingPacket": "<redacted>"
                                },
                                {
                                    "channelId": "2f7c825b61cbbf0e685aef20f8923a8cd28943346e59301b629cc89b4e27cdbd",
                                    "id": 1,
                                    "amountMsat": 4340000,
                                    "paymentHash": "6da74844b47a2823a6e64f45f0963e230ca49f179d36bca71c2adca8a83b042a",
                                    "cltvExpiry": 400144,
                                    "onionRoutingPacket": "<redacted>"
                                }
                            ],
                            "feerate": 5000,
                            "toLocal": 191020000,
                            "toRemote": 790910000
                        },
                        "txid": "70a92b624690358d74df2d65c94d784f896a18648288dd1b10c54a9fc6c0401d",
                        "remotePerCommitmentPoint": "026c604452e1a154575f1fd5966389c2c686c0b4b72370da0b33764c66b5a8f40e"
                    }
                }
            }
        ],
        "inactive": [],
        "payments": {
            "0": "7e780474-04b9-41db-94b9-7ef99349408f",
            "1": "683c4687-c4b7-4cb1-ac82-6808f57f4409"
        },
        "remoteNextCommitInfo": {
            "left": {
                "sentAfterLocalCommitIndex": 1
            },
            "right": null
        },
        "remotePerCommitmentSecrets": "<redacted>",
        "remoteChannelData": {
            "data": "0604e2cc07a6a6f4f76baeaccce8d3571d9112b8cda1132fb4ce96614c8a6f31a237323899890ed65aa1f1f2d2ee3bcda264a60e93e06cc953ed00b33827a7663ac10c9967dd1ef5f9eac23859aad530f8535ec69622a3fdf433b0d69377f8af8eb22a32948bbc5fc4bba70c6d517d75d548fda5beaccd19bf60c16a8c52893912ac862db63cc5e977f6aa2f3833765f81fbd4dba5462f74ba0b3ee2ea5582f2c503b897a8c703f03fddde1b12203bc42f8dfee976ab3471de4deeff10231ba47cd11cabdb3b7396d4b7259ee60d8bb4b0bfa017de4899aa8ad1c656acdf24a67c5a4d33e15a27953aa618d721ab518612b2a38ef287c3161e559ec3647ff979fd56e124b13a5f7330df250be2497f2a004658606018b74281b63e2c8c22215662e1d44a23cc9b62e232753a9b61f6d8c1c5af016e58708098b02746ff3aaaab58f7c5ff26044b927d206930967acdc32771e9f7a2f655f9dae0b88bf5545b427b0d9336b902fab7344fcc35df9300142889dac9084e9d3a92f1107d28dc09e20a368a367a3af68b1bac6768920aa5a1f63658a3a1caf1eb26de6bd4e1c3df88f5e48e4951fc1e0af7a9feff9c6f879ebcaf886e45130db3149d13c291731dc87a6c575efa46290a02815cbbbea2050c10438e7191d8c8ddfde36358c3f2d9b0f713c1c82992a1bbd15d592c88eb2a8a255d7ed8fc36e6e5a6233eeba6f625974f8faffa2d02c8a478cc8dd1aef5122ed7fb72354df5f62c6133fa83127da0093d26a29812514a048b65ab77a5253114cf9d2b218fa2678f18f54665f653fb35e17cdbd0e15a0a8b0e6bdc950c8f50f902c096ac74e6d02c21d0fff6fd39702802e451a854f4dce094296830de2b9570c3a9eca23dfb41640eb650c73ae9fa0d8c73a073a5fa4663f2d8329f0b46c9ea7fcc8deac9d55d49923aa48c5de0fa4f9fa2c970581ff0737f4fbba3c44da799a65611ab2af8df807654a71c6a70354fe43ce51490b8f9c240a548f819e8059a9691360fc4627c9ac17ba7707d20d01bd1f4829d499faefcbc2cfc602f8ea730c2372e5604608ac255cf261750b5a8427752f29b3a9e7d850cff8bf5171d9a3bf354c66e27203397c89cbed10746fcd4d12c7b4cd248162de87b90cbaf571b4d4f8b460b33a16fc52a1487264e5208252bdbb21b7f1645af46097e2aac9f2eee194bc72bda0124a8d92b33173e23bdbdb1495a506235953a203c0f98371b8d44067664007bdc87a7f567ac8b79f20ab398d727f5ec1dee7beadad010aca6aa9de0aaedc581e136c0cba641d0206d036603554baaf6d03f5ca647c5f019cebf49f81b380126735c76c7e519fdffb0337896f8ee46b437d8fbf29957d05514851a8fc9e15c54a3990db96dc2c55f04eb4bca0e72a17c24598bb2268a9ada03fb606fb9c1de5217df32bd729a06044417672e7547367af426eade1b00b7037bb6324f3b79a0fbd12476596bc70f79ea67de0c63e8450904482107c33d5559d1a1404370b8dc78ae9f739780f3caef407d8d59d46873897f2cedd1a6b9e8c39afd68f1cb65180b791a1a5412ada4c0434becb6089344a97fc754ab0bb675dcad2a6a3b4a405a60d152372bded8a3f1e6c26fd1eb10f4969c3d42a4d6c724711c020a3377ab749aad2163150f4954091b71e806536d9dd41298f359db8ef41f834353b9abe9d8c7456c5f1cf1fd78a0ce3134a5e8e809ba084428c384e856eaaf19cfff5f89e1da7f89cc1dfb87391beba81f99f64a8d691689971a59bddfb6362b0a71c97592f983a024987f25fe471e477ad640657b15350e042201a441fa07da7826d13798158243e9e8bd30de9e5e0e6c913277e1312f9dba0e7c3201659431bb2f894127b7e1a2d7802e8ddd449c20ac366acc91aab037e2bbf2864d6ec13226ecec4aedbf75e8c0306cf36d9652bb7177cee6542ea2e2e69fcdbf6670204e8b87859c7e34aa602dc1322997480936342eff46e820a37a07acf46b291652f17e5f06c950f37a4fbcab553e77bf20926b2af9163984f59dc424c3bb3cfcf6333ab7b362b8243ab86565b9aa2de6bdda1693b6bb139fc45fa1a7eadffad1202551afec9954174e40f1c2fc20bb3c5c9fcf19b79e4776e9c30134c1d9c935ca617101914bd5906c9af159849a69c7f623e457f2353bc6cc89ed11c047298b5d7736a8a2e3796790a4e512fe90e33628b97f4506c24bdb63f7b327abdd9cf8a3c71eb079b09ddc3d23d8977ecdb45a687fb755e6ed821a3c7f7adfa37676c66877e4c00c09e2ab8f465985fd79869d0c41a00ab493e45271998506c984eac915b07fd50324259b85de1443e186ff3635beb76be2743effffa62c4165d15d853b2667b76438ae17d8417c0c8c92e960d972ec1d60e7a922b49c659dc60443c589e20c5e94a5bfff81bb088e68b609594d7632d0656984150c34df7e02aece15b4ffcde19f788abcf795a75b0aaf565e8e9ae0efbe544f210213775586d3b4db383be0940068ae9f2a6f4f586a39132a64e53b5e344bafcdd33b6908de068f991fb8595a9606c7a34305406038f7820d91acdd209d02bfbb91f6a772112a84754541dc0c6b2d9f9e209bc6835646846ef4923173036d52352f6ebb456794c4653eea97a54a8b9f674c7083f73d622f8f76757311987bb4fd1c12942ddc019e3a2e3119093b2cc514191e5ecc18e91958fb69badba63ba3f5bd17ef10366b909aa133f578a080123aea1160ca4390e3290440b6bf6dfedcd1f849639711bf088db0a67c93ed5871343678a4bcd2cbdd6dede5943184103b21b583caa7fe0606672a4412e675b11a9f2f2c1acdbc5008d104de031c9a7169bb2b70221449b64b0ff1b1922143e3a43280011875377c8a92a24f4bd2fec3cbd0e4239e67e4cee4aac0606a90064ec7d926c69dc873f40804bff7fc1f8fff4d094b2e9450835e5ced8dff6af1e231aa49fd908bc91d09f4521c4676e73874602076e24c305ca4050db485f4207b6704e86de980dce1ca90ab42b5971667faf7519ed95631a1cb5d6a907df6d7177ccc6a55fec25591b310ace50c7146839a5dd6fd1dfbccd514a17391661d5960d8376249c4a249338bdba4028c4b0431b4814ae55c36b66eb243e21f7c0fd483a9b461fa305875997d2ce727c3f7955ce0f05ef85ee6aaca942a70b73fbd9ced11b28147005730107a4ea0152a43cb80b75da653656f680e453b6858e9fa27f64a747dbec4dfc9a90d14d178f0f6f32ba6a39deecb981c84f4994db22a8bfd925f4a92a95e6b31b161a681be21760a5f7fad811afae4da168864e8eb3ff8798b6ac3a96051abb79436b14727888cc49f8ca100064a1cc83654dd218bd58f3f777bc4b7b73bbc687bb9d8076484990a2272b54efc1a041ba57b6ed4d62a16885cd9b087dae57120e4954936a4ad0a9e5da75a21fd058c503d264f8d63e50a3c4affc90f1bbebfbbad750cbfa52ee8e89aef826af4dc0ad49b03accda524f0c4307dc545eabd1db4acba25190cf30a8b03f640f2ea89cb239ab6c250241ca31e16d17cb560508243a2116dd0c16d76784f511eb5435f0466b49d2bfa004c3651b0152bc5507e64f5a41cdd1d0da5a21b2d51cb4110c5f5de61b743c34740e620618c3bf426964250271005ed3fceab7e4e6f554d4d65588c6b39ad857e267a319c779e2f9b8ccb749597d2e8cd000f2b2266543f2755022ac5ce31011543f6e7d31ce4a3a862d4d8e55f895005a8ce766f00c40e79279d221d084584b5060e40966586d8a091d6721929ac125360c9298d9c094db3c7be23d72fd17ead90cb33f0444f1c6e2a5ab77223e446ecb5d95b238cb72594f25524c07df22a50118160a954d66c91ddef25dd7364cf7f799ac941109f84f2a53d846c25ccc46b58ea6848c1dacedbb8bb7f7a1db1194c331c2db1e7e49d23422184ac3d1803815b64158b8bbd32d92e79c5dbc49b9500d568db25fa7729a1ecb6c3a88f574aec6202098ab89e2cf685e446cf28559fa7cce28a8545f298b14e74ed7039408dff99d7366ee966b1a5f67af3841cb4e112c870e29e56cfc9cab340117602d9dd104effd72bf424fb91ea770f5b65749bb90bf6521ef365c07325cee76df867d53450549976739870572bf40b4f70008387a3376071702b984805c721b83a7b6f30249855242e289e18c302c6331fbc1664befd25fd0c4c3b1e2e5e1a9cc4c7ad693a0fec5ad98fa391a8610ffd65fceb0318225b2fc3fa990a340ba4018fedafcf9b29445a5fe12169f87bb174c9ab4a697adbfc9f890682c3da79c61c83e9bb4eb362b9b79c8f051b0a69b2057eed7d6e8809bf458701e97d052c85469113f5b156bc93a27abdc3cffae7a3bbd075f38f17d4f98afe7847d91f420b913cee1743433b5e31328a10bb95fcffb8651e3fc2246306cc575f95b3237e821cf9f2e82470d0c09809d2506fe53ec00efa984b2fb31bcc1bdaf86ccbe8f1bd5b42fd9c7e7a4b0aca3d40bbbb5911e45edf53980efb6368de25b46c88c1b168dabcb436a19ef31da31432fa5068aba62f255596bb159fc3a266be4a2a839b2e8552c7c41b357890ae4eceb84722f2f737e44171eafd88fab05bda5dc147d13cb1c6c9f4cc0377d34d1025a0c5de10f02de8c2e11066af97ae4973a1dfeccacaa13cea263ab7455b1a4e886c0f50d095095591fb4b07ce981c8fe5dd80712c42b8efde5fe42f988d3956b94e0a41a1bad7119412ebd27405c0b19fd92d0174ae74bbb204aca06b0150b5a06c9a822bdd03d11959e0f213a66b395a7d11eee53f74fbad37de86874ea0c6e372296caaec1bb50de1586192b1b469968896c4124c39837553134f66c0b8a7d2c0708861f4706801c0b41ae10bb18e2df354ffb0fcc88390155e93a4e5ad221be8751feb7136283ff55efa559bcfe6a06e69ff33b9c949e1f06d3d84eaa6b64615d75d0f36d924a65e79920e1864d2b4993df333ccc3f3e5fad84e860f9fb0e0173bc57621e4b2b7ced1488453a62e81ac8e1452b13ed69cf82e2938e10927c6981697e6dc856244ca40f00daae5a1118ee177d41fa59ef06cc465c05d1bd24695f48f8efdb59c90788cabf3522dfbd5b61b9967e1d82182ca748e2b3fe6cea05fb948ce561379b64f87e1e43050b823ca7951eec02e0325405115d52b5b8d5f4a015e3e95753ca6dd9c0258cd389f16af5e89be5f20c0bfca119b9aece1f66f2346f7e7"
        }
    },
    "shortChannelId": "400144x1x0",
    "channelUpdate": {
        "signature": "a9298da448ca22abf5d5726473b8217eb0d5ed2f4ce49710f6c317a9740c820d35025dbfa477865fefa84a3a45b7d755f813ff45ea3fbc26e7aaf8224946a6c0",
        "chainHash": "06226e46111a0b59caaf126043eb5bbf28c34f3a5e332a1fc7b2b73cf188910f",
        "shortChannelId": "400144x1x0",
        "timestampSeconds": 1666878681,
        "messageFlags": 1,
        "channelFlags": 1,
        "cltvExpiryDelta": 144,
        "htlcMinimumMsat": 1000,
        "feeBaseMsat": 100,
        "feeProportionalMillionths": 10,
        "htlcMaximumMsat": 1000000000
    },
    "remoteChannelUpdate": null,
    "spliceStatus": "None",
    "localShutdown": null,
    "remoteShutdown": null,
    "closeCommand": null
}