{
    "type": "fr.acinq.lightning.channel.states.Closing",
    "commitments": {
        "params": {
            "channelId": "2f7c825b61cbbf0e685aef20f8923a8cd28943346e59301b629cc89b4e27cdbd",
            "channelConfig": [
                "funding_pubkey_based_channel_keypath"
            ],
            "channelFeatures": [
                "option_support_large_channel",
                "option_static_remotekey",
                "option_anchor_outputs",
                "zero_reserve_channels",
                "zero_conf_channels"
            ],
            "localParams": {
                "nodeId": "037108815ff0128f7ed22640485c226d9ad64a9fd6d8b41b6623565aed6b34812c",
                "fundingKeyPath": "m/385048399/1977025879/604622566/184658546/776346346/949304342'/277944247'/2049339775'/1'",
                "dustLimit": 1100,
                "maxHtlcValueInFlightMsat": 1500000000,
                "htlcMinimum": 0,
                "toSelfDelay": 144,
                "maxAcceptedHtlcs": 100,
                "isChannelOpener": true,
                "paysCommitTxFees": true,
                "defaultFinalScriptPubKey": "001405e0104aa726e34ff5cd3a6320d05c0862b5b01c",
                "features": {
                    "activated": {
                        "initial_routing_sync": "Optional",
                        "option_data_loss_protect": "Optional",
                        "gossip_queries": "Optional",
                        "gossip_queries_ex": "Optional",
                        "var_onion_optin": "Mandatory",
                        "payment_secret": "Mandatory",
                        "basic_mpp": "Optional",
                        "option_support_large_channel": "Optional",
                        "option_static_remotekey": "Mandatory",
                        "option_anchor_outputs": "Mandatory",
                        "option_channel_type": "Mandatory",
                        "option_payment_metadata": "Optional",
                        "trampoline_payment_experimental": "Optional",
                        "wake_up_notification_provider": "Optional",
                        "pay_to_open_provider": "Optional",
                        "trusted_swap_in_provider": "Optional",
                        "channel_backup_provider": "Optional"
                    },
                    "unknown": []
                }
            },
            "remoteParams": {
                "nodeId": "0362b19a83930389b4468be40308efb3f352b23142ae25e6aba0465a8220f95b06",
                "dustLimit": 1000,
                "maxHtlcValueInFlightMsat": 1500000000,
                "htlcMinimum": 1000,
                "toSelfDelay": 144,
                "maxAcceptedHtlcs": 100,
                "revocationBasepoint": "03a42aef6d1c860caffa6c71a6f8ac2b16eec25bab0c3950cdb1fad7fb38a5f2a5",
                "paymentBasepoint": "02508e1845b8bbe0773f6bf8f3f04f59a5896426765c7b6b23e6e466c95381182b",
                "delayedPaymentBasepoint": "02d62233b7c33f8fd0911922461a651007f1de09d8c474029caa8f2c229c10de26",
                "htlcBasepoint": "03d05c8245bdc12efd8b070b22b276e7db4254f4693e22b3f7c978c08e67b36236",
                "features": {
                    "activated": {
                        "option_data_loss_protect": "Optional",
                        "initial_routing_sync": "Optional",
                        "gossip_queries": "Optional",
                        "var_onion_optin": "Mandatory",
                        "gossip_queries_ex": "Optional",
                        "option_static_remotekey": "Mandatory",
                        "payment_secret": "Mandatory",
                        "basic_mpp": "Optional",
                        "option_support_large_channel": "Optional",
                        "option_anchor_outputs": "Mandatory",
                        "option_channel_type": "Mandatory",
                        "option_payment_metadata": "Optional",
                        "wake_up_notification_client": "Optional",
                        "pay_to_open_client": "Optional",
                        "trusted_swap_in_client": "Optional",
                        "channel_backup_client": "Optional",
                        "trampoline_payment_experimental": "Optional"
                    },
                    "unknown": []
                }
            },
            "channelFlags": {
                "announceChannel": false,
                "nonInitiatorPaysCommitFees": false
            }
        },
        "changes": {
            "localChanges": {
                "proposed": [],
                "signed": [],
                "acked": []
            },
            "remoteChanges": {
                "proposed": [],
                "acked": [],
                "signed": []
            },
            "localNextHtlcId": 2,
            "remoteNextHtlcId": 2
        },
        "active": [
            {
                "fundingTxIndex": 0,
                "remoteFundingPubkey": "0385cfd7d8850e4cb8fcbed57310911218e5d5e1fd34f92ef5d9db14d56418caa4",
                "localFundingStatus": {
                    "status": "unconfirmed",
                    "txId": "bdcd274e9bc89c621b30596e344389d28c3a92f820ef5a680ebfcb615b827c2f"
                },
                "remoteFundingStatus": {
                    "status": "locked"
                },
                "localCommit": {
                    "index": 5,
                    "spec": {
                        "htlcsIn": [],
                        "htlcsOut": [],
                        "feerate": 5000,
                        "toLocal": 800000000,
                        "toRemote": 200000000
                    },
                    "publishableTxs": {
                        "commitTx": {
                            "input": {
                                "outPoint": "bdcd274e9bc89c621b30596e344389d28c3a92f820ef5a680ebfcb615b827c2f:0",
                                "txOut": {
                                    "amount": 1000000,
                                    "publicKeyScript": "00204ba42b50e089764e60e9e0c76c57e41d252d6beb976332f14a7b255bbb5322b8"
                                },
                                "redeemScript": "522102b6eaf304d966a6df90f3b3df7af7be6b1625854bbc096cb8b3507b2a37c2bf9c210385cfd7d8850e4cb8fcbed57310911218e5d5e1fd34f92ef5d9db14d56418caa452ae"
                            },
                            "tx": "020000000001012f7c825b61cbbf0e685aef20f8923a8cd28943346e59301b629cc89b4e27cdbd000000000000b77080044a0100000000000022002046672803839d10e21d43eafb532bc37cd21bd97dec7f9b50d45380cd1cce69654a01000000000000220020bbd7f17366848d8f624c28438128ce4dc8c72ea21deb0ccf25bee110920da032400d030000000000220020cb93e3adb8d213704e9a07ea2a6ce91dca51a9b76fcb6bef3cc9b5b7e10a7990781c0c00000000002200202bf8e35df3ccae49bcd2036ec55d8450741336530017d00f4f41dc44d69675b7040047304402202f27c14d4a412b64c8ca226b9a20c51068f6b939bad70d46dfc1600c39617552022066f267b145178f5a69d69fee8ae6930ded1d1dc96a746e79ea3302b7df989b6601483045022100e75f4f2e202db89d24d221c7c9329411a85876e00996499b5031c1ab094afdf3022044c7c948e25282f17396385eed0efca8d7a3226ce002fad2e48cca9afae5c43b0147522102b6eaf304d966a6df90f3b3df7af7be6b1625854bbc096cb8b3507b2a37c2bf9c210385cfd7d8850e4cb8fcbed57310911218e5d5e1fd34f92ef5d9db14d56418caa452aedb99dc20"
                        },
                        "htlcTxsAndSigs": []
                    }
                },
                "remoteCommit": {
                    "index": 6,
                    "spec": {
                        "htlcsIn": [],
                        "htlcsOut": [],
                        "feerate": 5000,
                        "toLocal": 200000000,
                        "toRemote": 800000000
                    },
                    "txid": "51137bd5ff1caf7ee0f35541914637e19b0f4ce9373f1744044ae7b1064ecce3",
                    "remotePerCommitmentPoint": "03856c08523bf8c8def3044843a4ff90fbb1dee9f92d4ae82aaf3fb2688bfc3884"
                },
                "nextRemoteCommit": null
            }
        ],
        "inactive": [],
        "payments": {},
        "remoteNextCommitInfo": {
            "left": null,
            "right": "0323e9618cf8548e5b78a14529e1c8df51895e47ae6026bf23f5f130299bbc92b0"
        },
        "remotePerCommitmentSecrets": "<redacted>"
    },
    "waitingSinceBlock": 400000,
    "revokedCommitPublished": [
        {
            "commitTx": "020000000001012f7c825b61cbbf0e685aef20f8923a8cd28943346e59301b629cc89b4e27cdbd000000000000b77080084a0100000000000022002046672803839d10e21d43eafb532bc37cd21bd97dec7f9b50d45380cd1cce69654a01000000000000220020bbd7f17366848d8f624c28438128ce4dc8c72ea21deb0ccf25bee110920da0325046000000000000220020290b762b514961d8ea3f1d0a0b7325c43daebfad3751211816c7bba59e607ccf204e0000000000002200201923dc9176a660d04e0744c51f5e04a3168985962079a6c5d9e2e763170878e1a8610000000000002200202956089b232f4af35587c10894e6e4351d029b0534fb01f7c3c90285a35d45ffb88800000000000022002058acb1c4d7241726756c7e09705500409991b84ce93c86d6ca4eceef76c98cd4d078020000000000220020adccc1c6aa5fb4707079451e579c5dc33c513f0d829346cefe8c80179e09d49ca8240b0000000000220020958bb43c9e6d1b985001c2f4dc38d286d7fde78bb04d7ec5a5ae44d8ebf0c40c0400473044022003a9fc09ecabbbc049b8dec3d3b92f092265f03b3d4842c0595de1b91b215be202206caebdbc0bfac0d93b3068a9a633268e7e8ccd5904971f8375e5b9b3ee64b3a501473044022045e9af4c12876dcc268d319687f1990ae8db9faace5e4281465bd5799e1a44f9022020c476373f17531c614eff980283fc8b3ace4e69f9e58debd891c0a3812211900147522102b6eaf304d966a6df90f3b3df7af7be6b1625854bbc096cb8b3507b2a37c2bf9c210385cfd7d8850e4cb8fcbed57310911218e5d5e1fd34f92ef5d9db14d56418caa452aeda99dc20",
            "remotePerCommitmentSecret": "<redacted>",
            "claimMainOutputTx": {
                "type": "fr.acinq.lightning.transactions.Transactions.TransactionWithInputInfo.ClaimRemoteCommitMainOutputTx.ClaimRemoteDelayedOutputTx",
                "input": {
                    "outPoint": "3cdaac5fd4ca78ec2efca165400efb5078f9f57d221a733d372f0213136b92eb:7",
                    "txOut": {
                        "amount": 730280,
                        "publicKeyScript": "0020958bb43c9e6d1b985001c2f4dc38d286d7fde78bb04d7ec5a5ae44d8ebf0c40c"
                    },
                    "redeemScript": "210368434fc548cb471f7ed8c94638433bfb07cceb97665c411450fdc23c60236409ad51b2"
                },
                "tx": "02000000000101eb926b1313022f373d731a227df5f97850fb0e4065a1fc2eec78cad45facda3c0700000000010000000164130b000000000016001405e0104aa726e34ff5cd3a6320d05c0862b5b01c0248304502210083948dc13913cec37467102cb7adc830b018a2536239235c21289ff28e59f089022056b59bdc84dcf4fe944dbd79266edce51ba4ec4993c46d7d7dbe7ba120dad67d0125210368434fc548cb471f7ed8c94638433bfb07cceb97665c411450fdc23c60236409ad51b200000000"
            },
            "mainPenaltyTx": {
                "input": {
                    "outPoint": "3cdaac5fd4ca78ec2efca165400efb5078f9f57d221a733d372f0213136b92eb:6",
                    "txOut": {
                        "amount": 162000,
                        "publicKeyScript": "0020adccc1c6aa5fb4707079451e579c5dc33c513f0d829346cefe8c80179e09d49c"
                    },
                    "redeemScript": "632102806f9e3650359bb2b6b0e04fac754fbd577f402a1d0eab20e263d66c45c4e79267029000b275210214568b8d52d11f74c1e62febcb48c3a8cc9616a69d59bf9e96c486c2f7361eeb68ac"
                },
                "tx": "02000000000101eb926b1313022f373d731a227df5f97850fb0e4065a1fc2eec78cad45facda3c0600000000ffffffff01e86502000000000016001405e0104aa726e34ff5cd3a6320d05c0862b5b01c03483045022100a59774323854e0673d60678b868d11f05b84bdac353cac0f80fe5a8c93cb13dd022052bd08753cca9f09795b9373266a88ecdc40f93f39b090d46d49e28055d9af9e0101014d632102806f9e3650359bb2b6b0e04fac754fbd577f402a1d0eab20e263d66c45c4e79267029000b275210214568b8d52d11f74c1e62febcb48c3a8cc9616a69d59bf9e96c486c2f7361eeb68ac00000000"
            },
            "htlcPenaltyTxs": [
                {
                    "input": {
                        "outPoint": "3cdaac5fd4ca78ec2efca165400efb5078f9f57d221a733d372f0213136b92eb:2",
                        "txOut": {
                            "amount": 18000,
                            "publicKeyScript": "0020290b762b514961d8ea3f1d0a0b7325c43daebfad3751211816c7bba59e607ccf"
                        },
                        "redeemScript": "76a9149658e6f101e2c2329756d1a7e09257d6521ebfd18763ac672103a66ccf07c659947f9ee04551dec3452759281e60facfd0fbcc10d0d1118cced17c820120876475527c2103198e9c7fb80134b1f0d4e5f97cf1f921412870cbdc271e60294a553218d2dc8952ae67a914f641d76117a75fe126c44b2508b8054d700fcde888ac6851b27568"
                    },
                    "tx": "02000000000101eb926b1313022f373d731a227df5f97850fb0e4065a1fc2eec78cad45facda3c0200000000ffffffff011a3100000000000016001405e0104aa726e34ff5cd3a6320d05c0862b5b01c0348304502210086ffaf498fac064d0624b027d1fe7cb8ee9f950fe65ee5a932299ad4134c960e0220490cd145206905fdac12e2b50e065ad2440079dc29c04080728a0b7afba849ce012102806f9e3650359bb2b6b0e04fac754fbd577f402a1d0eab20e263d66c45c4e7928876a9149658e6f101e2c2329756d1a7e09257d6521ebfd18763ac672103a66ccf07c659947f9ee04551dec3452759281e60facfd0fbcc10d0d1118cced17c820120876475527c2103198e9c7fb80134b1f0d4e5f97cf1f921412870cbdc271e60294a553218d2dc8952ae67a914f641d76117a75fe126c44b2508b8054d700fcde888ac6851b2756800000000"
                },
                {
                    "input": {
                        "outPoint": "3cdaac5fd4ca78ec2efca165400efb5078f9f57d221a733d372f0213136b92eb:3",
                        "txOut": {
                            "amount": 20000,
                            "publicKeyScript": "00201923dc9176a660d04e0744c51f5e04a3168985962079a6c5d9e2e763170878e1"
                        },
                        "redeemScript": "76a9149658e6f101e2c2329756d1a7e09257d6521ebfd18763ac672103a66ccf07c659947f9ee04551dec3452759281e60facfd0fbcc10d0d1118cced17c820120876475527c2103198e9c7fb80134b1f0d4e5f97cf1f921412870cbdc271e60294a553218d2dc8952ae67a914a7999128933ef5762697417752218f5b225823df88ac6851b27568"
                    },
                    "tx": "02000000000101eb926b1313022f373d731a227df5f97850fb0e4065a1fc2eec78cad45facda3c0300000000ffffffff01ea3800000000000016001405e0104aa726e34ff5cd3a6320d05c0862b5b01c03483045022100c7875968084e155a1d1eb5ab3d241251f37e20b94535ed5dea6e54e5cc000540022048d31442b1ff9ceee7ac227f6289367fffc001ed64821052e25a90137d987857012102806f9e3650359bb2b6b0e04fac754fbd577f402a1d0eab20e263d66c45c4e7928876a9149658e6f101e2c2329756d1a7e09257d6521ebfd18763ac672103a66ccf07c659947f9ee04551dec3452759281e60facfd0fbcc10d0d1118cced17c820120876475527c2103198e9c7fb80134b1f0d4e5f97cf1f921412870cbdc271e60294a553218d2dc8952ae67a914a7999128933ef5762697417752218f5b225823df88ac6851b2756800000000"
                },
                {
                    "input": {
                        "outPoint": "3cdaac5fd4ca78ec2efca165400efb5078f9f57d221a733d372f0213136b92eb:4",
                        "txOut": {
                            "amount": 25000,
                            "publicKeyScript": "00202956089b232f4af35587c10894e6e4351d029b0534fb01f7c3c90285a35d45ff"
                        },
                        "redeemScript": "76a9149658e6f101e2c2329756d1a7e09257d6521ebfd18763ac672103a66ccf07c659947f9ee04551dec3452759281e60facfd0fbcc10d0d1118cced17c8201208763a914d27389cfea205e3ccaeefa5e688997d163e0eba588527c2103198e9c7fb80134b1f0d4e5f97cf1f921412870cbdc271e60294a553218d2dc8952ae677503101b06b175ac6851b27568"
                    },
                    "tx": "02000000000101eb926b1313022f373d731a227df5f97850fb0e4065a1fc2eec78cad45facda3c0400000000ffffffff01364c00000000000016001405e0104aa726e34ff5cd3a6320d05c0862b5b01c0347304402203f77be20e88d0ed298f9be8cb93034b2f030907de6d6ae71049de6912089be5d0220294ae5491010d047a5a5a78de5e17b485927c05ad194a4da027a3c4a2643ebbf012102806f9e3650359bb2b6b0e04fac754fbd577f402a1d0eab20e263d66c45c4e7928e76a9149658e6f101e2c2329756d1a7e09257d6521ebfd18763ac672103a66ccf07c659947f9ee04551dec3452759281e60facfd0fbcc10d0d1118cced17c8201208763a914d27389cfea205e3ccaeefa5e688997d163e0eba588527c2103198e9c7fb80134b1f0d4e5f97cf1f921412870cbdc271e60294a553218d2dc8952ae677503101b06b175ac6851b2756800000000"
                },
                {
                    "input": {
                        "outPoint": "3cdaac5fd4ca78ec2efca165400efb5078f9f57d221a733d372f0213136b92eb:5",
                        "txOut": {
                            "amount": 35000,
                            "publicKeyScript": "002058acb1c4d7241726756c7e09705500409991b84ce93c86d6ca4eceef76c98cd4"
                        },
                        "redeemScript": "76a9149658e6f101e2c2329756d1a7e09257d6521ebfd18763ac672103a66ccf07c659947f9ee04551dec3452759281e60facfd0fbcc10d0d1118cced17c8201208763a914558bc3d947b88a8e5f4a49d8aa12d0c16f4ca95a88527c2103198e9c7fb80134b1f0d4e5f97cf1f921412870cbdc271e60294a553218d2dc8952ae677503101b06b175ac6851b27568"
                    },
                    "tx": "02000000000101eb926b1313022f373d731a227df5f97850fb0e4065a1fc2eec78cad45facda3c0500000000ffffffff01467300000000000016001405e0104aa726e34ff5cd3a6320d05c0862b5b01c0347304402202350f2e05e58a586cfe3591f3ed5e33d748c73f78647cfdf3c69c09b4ebf7a3202206156173eaf3db0b86e55a2fd5dd1b006e020c76e048ee86e4d3262714285e2e2012102806f9e3650359bb2b6b0e04fac754fbd577f402a1d0eab20e263d66c45c4e7928e76a9149658e6f101e2c2329756d1a7e09257d6521ebfd18763ac672103a66ccf07c659947f9ee04551dec3452759281e60facfd0fbcc10d0d1118cced17c8201208763a914558bc3d947b88a8e5f4a49d8aa12d0c16f4ca95a88527c2103198e9c7fb80134b1f0d4e5f97cf1f921412870cbdc271e60294a553218d2dc8952ae677503101b06b175ac6851b2756800000000"
                }
            ],
            "claimHtlcDelayedPenaltyTxs": [
                {
                    "input": {
                        "outPoint": "34d00149cc8115b9e222e7bafcda6ebbcfcda8e2df8b5afe9c81f8950ac21785:0",
                        "txOut": {
                            "amount": 31470,
                            "publicKeyScript": "0020adccc1c6aa5fb4707079451e579c5dc33c513f0d829346cefe8c80179e09d49c"
                        },
                        "redeemScript": "632102806f9e3650359bb2b6b0e04fac754fbd577f402a1d0eab20e263d66c45c4e79267029000b275210214568b8d52d11f74c1e62febcb48c3a8cc9616a69d59bf9e96c486c2f7361eeb68ac"
                    },
                    "tx": "020000000001018517c20a95f8819cfe5a8bdfe2a8cdcfbb6edafcbae722e2b91581cc4901d0340000000000ffffffff01066800000000000016001405e0104aa726e34ff5cd3a6320d05c0862b5b01c03483045022100cd99f14ce3a99e73627abde0c5cb71e59f0acdf1e1a09ea286b878c4154af691022051cfbcc604ef4a6d6c9a7693e8a2fb47fa123a1864f42a8d9f96cd1de271858b0101014d632102806f9e3650359bb2b6b0e04fac754fbd577f402a1d0eab20e263d66c45c4e79267029000b275210214568b8d52d11f74c1e62febcb48c3a8cc9616a69d59bf9e96c486c2f7361eeb68ac00000000"
                },
                {
                    "input": {
                        "outPoint": "cae12bb3c504d6a627b7ca1d0b7e88cb74bb6d82e216adf71be70df2057fdab3:0",
                        "txOut": {
                            "amount": 14670,
                            "publicKeyScript": "0020adccc1c6aa5fb4707079451e579c5dc33c513f0d829346cefe8c80179e09d49c"
                        },
                        "redeemScript": "632102806f9e3650359bb2b6b0e04fac754fbd577f402a1d0eab20e263d66c45c4e79267029000b275210214568b8d52d11f74c1e62febcb48c3a8cc9616a69d59bf9e96c486c2f7361eeb68ac"
                    },
                    "tx": "02000000000101b3da7f05f20de71bf7ad16e2826dbb74cb887e0b1dcab727a6d604c5b32be1ca0000000000ffffffff01662600000000000016001405e0104aa726e34ff5cd3a6320d05c0862b5b01c034830450221009b3d38c6b9a8cff2daa93f6f0bf64da18be548efdaeb52091f81735796fe32d602207b6b5bafdc4ca0dede862cbf5ca49a4e7862208e7826621fc5b9b0f7cec3403c0101014d632102806f9e3650359bb2b6b0e04fac754fbd577f402a1d0eab20e263d66c45c4e79267029000b275210214568b8d52d11f74c1e62febcb48c3a8cc9616a69d59bf9e96c486c2f7361eeb68ac00000000"
                }
            ],
            "irrevocablySpent": {
                "bdcd274e9bc89c621b30596e344389d28c3a92f820ef5a680ebfcb615b827c2f:0": "020000000001012f7c825b61cbbf0e685aef20f8923a8cd28943346e59301b629cc89b4e27cdbd000000000000b77080084a0100000000000022002046672803839d10e21d43eafb532bc37cd21bd97dec7f9b50d45380cd1cce69654a01000000000000220020bbd7f17366848d8f624c28438128ce4dc8c72ea21deb0ccf25bee110920da0325046000000000000220020290b762b514961d8ea3f1d0a0b7325c43daebfad3751211816c7bba59e607ccf204e0000000000002200201923dc9176a660d04e0744c51f5e04a3168985962079a6c5d9e2e763170878e1a8610000000000002200202956089b232f4af35587c10894e6e4351d029b0534fb01f7c3c90285a35d45ffb88800000000000022002058acb1c4d7241726756c7e09705500409991b84ce93c86d6ca4eceef76c98cd4d078020000000000220020adccc1c6aa5fb4707079451e579c5dc33c513f0d829346cefe8c80179e09d49ca8240b0000000000220020958bb43c9e6d1b985001c2f4dc38d286d7fde78bb04d7ec5a5ae44d8ebf0c40c0400473044022003a9fc09ecabbbc049b8dec3d3b92f092265f03b3d4842c0595de1b91b215be202206caebdbc0bfac0d93b3068a9a633268e7e8ccd5904971f8375e5b9b3ee64b3a501473044022045e9af4c12876dcc268d319687f1990ae8db9faace5e4281465bd5799e1a44f9022020c476373f17531c614eff980283fc8b3ace4e69f9e58debd891c0a3812211900147522102b6eaf304d966a6df90f3b3df7af7be6b1625854bbc096cb8b3507b2a37c2bf9c210385cfd7d8850e4cb8fcbed57310911218e5d5e1fd34f92ef5d9db14d56418caa452aeda99dc20",
                "3cdaac5fd4ca78ec2efca165400efb5078f9f57d221a733d372f0213136b92eb:7": "02000000000101eb926b1313022f373d731a227df5f97850fb0e4065a1fc2eec78cad45facda3c0700000000010000000164130b000000000016001405e0104aa726e34ff5cd3a6320d05c0862b5b01c0248304502210083948dc13913cec37467102cb7adc830b018a2536239235c21289ff28e59f089022056b59bdc84dcf4fe944dbd79266edce51ba4ec4993c46d7d7dbe7ba120dad67d0125210368434fc548cb471f7ed8c94638433bfb07cceb97665c411450fdc23c60236409ad51b200000000",
                "3cdaac5fd4ca78ec2efca165400efb5078f9f57d221a733d372f0213136b92eb:6": "02000000000101eb926b1313022f373d731a227df5f97850fb0e4065a1fc2eec78cad45facda3c0600000000ffffffff01e86502000000000016001405e0104aa726e34ff5cd3a6320d05c0862b5b01c03483045022100a59774323854e0673d60678b868d11f05b84bdac353cac0f80fe5a8c93cb13dd022052bd08753cca9f09795b9373266a88ecdc40f93f39b090d46d49e28055d9af9e0101014d632102806f9e3650359bb2b6b0e04fac754fbd577f402a1d0eab20e263d66c45c4e79267029000b275210214568b8d52d11f74c1e62febcb48c3a8cc9616a69d59bf9e96c486c2f7361eeb68ac00000000",
                "3cdaac5fd4ca78ec2efca165400efb5078f9f57d221a733d372f0213136b92eb:4": "02000000000101eb926b1313022f373d731a227df5f97850fb0e4065a1fc2eec78cad45facda3c0400000000ffffffff01364c00000000000016001405e0104aa726e34ff5cd3a6320d05c0862b5b01c0347304402203f77be20e88d0ed298f9be8cb93034b2f030907de6d6ae71049de6912089be5d0220294ae5491010d047a5a5a78de5e17b485927c05ad194a4da027a3c4a2643ebbf012102806f9e3650359bb2b6b0e04fac754fbd577f402a1d0eab20e263d66c45c4e7928e76a9149658e6f101e2c2329756d1a7e09257d6521ebfd18763ac672103a66ccf07c659947f9ee04551dec3452759281e60facfd0fbcc10d0d1118cced17c8201208763a914d27389cfea205e3ccaeefa5e688997d163e0eba588527c2103198e9c7fb80134b1f0d4e5f97cf1f921412870cbdc271e60294a553218d2dc8952ae677503101b06b175ac6851b2756800000000",
                "3cdaac5fd4ca78ec2efca165400efb5078f9f57d221a733d372f0213136b92eb:5": "0200000001eb926b1313022f373d731a227df5f97850fb0e4065a1fc2eec78cad45facda3c05000000000100000001ee7a000000000000220020adccc1c6aa5fb4707079451e579c5dc33c513f0d829346cefe8c80179e09d49c00000000"
            }
        }
    ]
}