{
    "type": "fr.acinq.lightning.channel.states.WaitForRemotePublishFutureCommitment",
    "commitments": {
        "params": {
            "channelId": "0b5ac4a5254d1c7b3b1dafcd883f7db1f6e527ef86b05a9425d3e08a66ba33f4",
            "channelConfig": [
                "funding_pubkey_based_channel_keypath"
            ],
            "channelFeatures": [
                "option_static_remotekey",
                "option_anchor_outputs",
                "option_dual_fund"
            ],
            "localParams": {
                "nodeId": "037108815ff0128f7ed22640485c226d9ad64a9fd6d8b41b6623565aed6b34812c",
                "fundingKeyPath": "m/492583088'/1957315318/1182763714/2144039014'/576494277/259332362'/1989202166'/2017865733/1'",
                "dustLimit": 1100,
                "maxHtlcValueInFlightMsat": 1500000000,
                "htlcMinimum": 0,
                "toSelfDelay": 144,
                "maxAcceptedHtlcs": 100,
                "isChannelOpener": true,
                "paysCommitTxFees": false,
                "defaultFinalScriptPubKey": "001405e0104aa726e34ff5cd3a6320d05c0862b5b01c",
                "features": {
                    "activated": {
                        "option_data_loss_protect": "Optional",
                        "var_onion_optin": "Mandatory",
                        "option_static_remotekey": "Mandatory",
                        "payment_secret": "Mandatory",
                        "basic_mpp": "Optional",
                        "option_support_large_channel": "Optional",
                        "option_anchor_outputs": "Mandatory",
                        "option_route_blinding": "Optional",
                        "option_dual_fund": "Mandatory",
                        "option_channel_type": "Mandatory",
                        "wake_up_notification_provider": "Optional",
                        "channel_backup_provider": "Optional",
                        "trampoline_payment_experimental": "Optional"
                    },
                    "unknown": [
                        139
                    ]
                }
            },
            "remoteParams": {
                "nodeId": "0362b19a83930389b4468be40308efb3f352b23142ae25e6aba0465a8220f95b06",
                "dustLimit": 1000,
                "maxHtlcValueInFlightMsat": 1500000000,
                "htlcMinimum": 1000,
                "toSelfDelay": 144,
                "maxAcceptedHtlcs": 100,
                "revocationBasepoint": "028c9dd03e2247e6909125b0cfcb2b7398c8212823de960d4c591333f17e4bd710",
                "paymentBasepoint": "028d4d4923ed6a606e494af3fd8502accabb59c1157a8af53d1bfc33eab0299d00",
                "delayedPaymentBasepoint": "02396233f2005ad262c70391036482281645886735e17d8d95e31a6cadddaeefbb",
                "htlcBasepoint": "03cb66d2d49ae49049c2736c83ba6cac553f2aab9aea74f90c87fee2f6a9185e9b",
                "features": {
                    "activated": {
                        "option_data_loss_protect": "Optional",
                        "var_onion_optin": "Mandatory",
                        "option_static_remotekey": "Mandatory",
                        "payment_secret": "Mandatory",
                        "basic_mpp": "Optional",
                        "option_support_large_channel": "Optional",
                        "option_anchor_outputs": "Optional",
                        "option_route_blinding": "Optional",
                        "option_shutdown_anysegwit": "Mandatory",
                        "option_dual_fund": "Mandatory",
                        "option_quiescence": "Mandatory",
                        "option_channel_type": "Mandatory",
                        "zero_reserve_channels": "Optional",
                        "wake_up_notification_client": "Optional",
                        "trampoline_payment_experimental": "Optional",
                        "splice_experimental": "Optional"
                    },
                    "unknown": [
                        137
                    ]
                }
            },
            "channelFlags": {
                "announceChannel": false,
                "nonInitiatorPaysCommitFees": false
            }
        },
        "changes": {
            "localChanges": {
                "proposed": [],
                "signed": [],
                "acked": []
            },
            "remoteChanges": {
                "proposed": [],
                "acked": [],
                "signed": []
            },
            "localNextHtlcId": 0,
            "remoteNextHtlcId": 0
        },
        "active": [
            {
                "fundingTxIndex": 0,
                "remoteFundingPubkey": "027d2e4ca089015b111c4f6a2370d179f04ae26455a21d394a41374d6d79189758",
                "localFundingStatus": {
                    "status": "confirmed",
                    "txId": "f2425505356da206e9d68591c35fe34a3776a400063d3b44de71bb23b32a121e"
                },
                "remoteFundingStatus": {
                    "status": "not-locked"
                },
                "localCommit": {
                    "index": 0,
                    "spec": {
                        "htlcsIn": [],
                        "htlcsOut": [],
                        "feerate": 5000,
                        "toLocal": 800000000,
                        "toRemote": 200000000
                    },
                    "publishableTxs": {
                        "commitTx": {
                            "input": {
                                "outPoint": "f2425505356da206e9d68591c35fe34a3776a400063d3b44de71bb23b32a121e:0",
                                "txOut": {
                                    "amount": 1000000,
                                    "publicKeyScript": "0020afa0e32aadb38f5e0bc47da245a8f3f7244c1969a771b4850d3b7a83d5b5e052"
                                },
                                "redeemScript": "5221027d2e4ca089015b111c4f6a2370d179f04ae26455a21d394a41374d6d791897582102fa66e4c9725b540da5b328ffb78a03cea168936ebace360d8a48bacb49e1c13052ae"
                            },
                            "tx": "020000000001011e122ab323bb71de443b3d0600a476374ae35fc39185d6e906a26d35055542f20000000000a3e9bc80044a010000000000002200204624c53b736d3970f3b3e2c0a12885e02db545b60dc28ba80a39ccbcc8c295034a01000000000000220020f7ea41d701a92c76bc15a93cdf122f9ddbeca0689eecc70f42c5dea428a30bb7400d03000000000022002011aec6408a6cc9f0559eefb0cc5b6978725236df3fd5ed5f522343275090d98a781c0c00000000002200204a68f58d61d6c16f8bae470dd95e87ca8b6d7ba6efa733c479ebf20f91f494fe040047304402201d87fbb35b15229da1da1a4d10018e7b9b510b57ea41ee3e32d1b0fa72562bea02204521bd19dac13089cacde07debb5950560b75a2a74ac9e45017babe136bdd719014830450221008f5a6f23d56f0d1ec22a879d97a06c2080033a28c36bb459bbe4563896fb6a82022015d295b881141f6c512e178610a2c351250d2c5f27f42e332e7447ccea4595e001475221027d2e4ca089015b111c4f6a2370d179f04ae26455a21d394a41374d6d791897582102fa66e4c9725b540da5b328ffb78a03cea168936ebace360d8a48bacb49e1c13052ae9175a320"
                        },
                        "htlcTxsAndSigs": []
                    }
                },
                "remoteCommit": {
                    "index": 0,
                    "spec": {
                        "htlcsIn": [],
                        "htlcsOut": [],
                        "feerate": 5000,
                        "toLocal": 200000000,
                        "toRemote": 800000000
                    },
                    "txid": "17d3c73ef0193705237cb30c74a8cd1bb03ffec479a726d99505c1afabb847bd",
                    "remotePerCommitmentPoint": "03650b38c08335c6d3602f019621dc7726967f9ddc96a27236f5d1c362b8111757"
                },
                "nextRemoteCommit": null
            }
        ],
        "inactive": [],
        "payments": {},
        "remoteNextCommitInfo": {
            "left": null,
            "right": "02ac71c59ec520d87a53e07c43867e1298b3e777c9934179971436561aa781bb90"
        },
        "remotePerCommitmentSecrets": "<redacted>"
    },
    "remoteChannelReestablish": {
        "channelId": "0b5ac4a5254d1c7b3b1dafcd883f7db1f6e527ef86b05a9425d3e08a66ba33f4",
        "nextLocalCommitmentNumber": 3,
        "nextRemoteRevocationNumber": 2,
        "yourLastCommitmentSecret": "<redacted>",
        "myCurrentPerCommitmentPoint": "0281c064a1233a2bd3cb6b00170221d8998dfafe23df5a4f5730475b2b3efa133a"
    }
}