{
    "type": "fr.acinq.lightning.channel.states.Normal",
    "commitments": {
        "params": {
            "channelId": "e1545b51a8a33aea2d23dd4a6dbd4201d802b0b655ee597bf53b4b14f6e81232",
            "channelConfig": [
                "funding_pubkey_based_channel_keypath"
            ],
            "channelFeatures": [
                "option_static_remotekey",
                "option_anchor_outputs",
                "option_dual_fund"
            ],
            "localParams": {
                "nodeId": "0362b19a83930389b4468be40308efb3f352b23142ae25e6aba0465a8220f95b06",
                "fundingKeyPath": "m/18154681'/2008065081/2055474196/26657562'/763527636'/1489084225/775368589'/1778659862/0'",
                "dustLimit": 1000,
                "maxHtlcValueInFlightMsat": 1500000000,
                "htlcMinimum": 1000,
                "toSelfDelay": 144,
                "maxAcceptedHtlcs": 100,
                "isChannelOpener": false,
                "paysCommitTxFees": false,
                "defaultFinalScriptPubKey": "001434947cfb2e8f6054ddf12daed4308cbe342580d1",
                "features": {
                    "activated": {
                        "option_data_loss_protect": "Optional",
                        "var_onion_optin": "Mandatory",
                        "option_static_remotekey": "Mandatory",
                        "payment_secret": "Mandatory",
                        "basic_mpp": "Optional",
                        "option_support_large_channel": "Optional",
                        "option_anchor_outputs": "Optional",
                        "option_route_blinding": "Optional",
                        "option_shutdown_anysegwit": "Mandatory",
                        "option_dual_fund": "Mandatory",
                        "option_quiescence": "Mandatory",
                        "option_channel_type": "Mandatory",
                        "zero_reserve_channels": "Optional",
                        "wake_up_notification_client": "Optional",
                        "channel_backup_client": "Optional",
                        "splice_experimental": "Optional"
                    },
                    "unknown": [
                        137,
                        149
                    ]
                }
            },
            "remoteParams": {
                "nodeId": "037108815ff0128f7ed22640485c226d9ad64a9fd6d8b41b6623565aed6b34812c",
                "dustLimit": 1100,
                "maxHtlcValueInFlightMsat": 1500000000,
                "htlcMinimum": 0,
                "toSelfDelay": 144,
                "maxAcceptedHtlcs": 100,
                "revocationBasepoint": "02dd60d898d87bf38b29df1e2dc751851c9d2317e7c54d97cb070739ab2d873f8a",
                "paymentBasepoint": "03ea1f8aa732d7bb3c78db9fbebe6bc8e1d8c636e6525eeb1103f6997f6b1893ce",
                "delayedPaymentBasepoint": "02bab6073cf7c3e375784cbca743e055eb3ef5d7c21f2795f76aa753274f579e95",
                "htlcBasepoint": "03b4eb3f1ea63d8ea33435056a83fa898960644a55f9d6a1c4e6eea07bf56d2582",
                "features": {
                    "activated": {
                        "option_data_loss_protect": "Optional",
                        "var_onion_optin": "Mandatory",
                        "option_static_remotekey": "Mandatory",
                        "payment_secret": "Mandatory",
                        "basic_mpp": "Optional",
                        "option_support_large_channel": "Optional",
                        "option_anchor_outputs": "Mandatory",
                        "option_route_blinding": "Optional",
                        "option_dual_fund": "Mandatory",
                        "option_channel_type": "Mandatory",
                        "wake_up_notification_provider": "Optional",
                        "channel_backup_provider": "Optional"
                    },
                    "unknown": [
                        139,
                        149
                    ]
                }
            },
            "channelFlags": {
                "announceChannel": false,
                "nonInitiatorPaysCommitFees": false
            }
        },
        "changes": {
            "localChanges": {
                "proposed": [],
                "signed": [],
                "acked": []
            },
            "remoteChanges": {
                "proposed": [],
                "acked": [],
                "signed": [
                    {
                        "type": "fr.acinq.lightning.wire.UpdateAddHtlc",
                        "channelId": "e1545b51a8a33aea2d23dd4a6dbd4201d802b0b655ee597bf53b4b14f6e81232",
                        "id": 0,
                        "amountMsat": 15000000,
                        "paymentHash": "af9fe6d0f684cf5df6ce4f41596b276df64cc9bec18e7ea01d521c58454e4ade",
                        "cltvExpiry": 400144,
                        "onionRoutingPacket": "<redacted>"
                    }
                ]
            },
            "localNextHtlcId": 0,
            "remoteNextHtlcId": 1
        },
        "active": [
            {
                "fundingTxIndex": 1,
                "remoteFundingPubkey": "0380092c5800eef8460d958b053d0a512b70a501c13e4747d01788f8fb1c58ee2d",
                "localFundingStatus": {
                    "status": "unconfirmed",
                    "txId": "6be60e35b4774be2f51df14c08171d280a292ded4f2ff55dc0d8954721bb7dda"
                },
                "remoteFundingStatus": {
                    "status": "not-locked"
                },
                "localCommit": {
                    "index": 1,
                    "spec": {
                        "htlcsIn": [
                            {
                                "channelId": "e1545b51a8a33aea2d23dd4a6dbd4201d802b0b655ee597bf53b4b14f6e81232",
                                "id": 0,
                                "amountMsat": 15000000,
                                "paymentHash": "af9fe6d0f684cf5df6ce4f41596b276df64cc9bec18e7ea01d521c58454e4ade",
                                "cltvExpiry": 400144,
                                "onionRoutingPacket": "<redacted>"
                            }
                        ],
                        "htlcsOut": [],
                        "feerate": 5000,
                        "toLocal": 200000000,
                        "toRemote": 734817000
                    },
                    "publishableTxs": {
                        "commitTx": {
                            "input": {
                                "outPoint": "6be60e35b4774be2f51df14c08171d280a292ded4f2ff55dc0d8954721bb7dda:1",
                                "txOut": {
                                    "amount": 949817,
                                    "publicKeyScript": "0020844124d22cff4f4ad0b60954d33bccf2de3e94db2414365085d950bbf70881e9"
                                },
                                "redeemScript": "5221022ffa44aa8560ac300a4a8a636483352fba7a84de091cad230523a52ab01f1f14210380092c5800eef8460d958b053d0a512b70a501c13e4747d01788f8fb1c58ee2d52ae"
                            },
                            "tx": "02000000000101da7dbb214795d8c05df52f4fed2d290a281d17084cf11df5e24b77b4350ee66b0100000000d3b43480054a010000000000002200209873f14954f89df43de7a46e06c7deba49e37cc762f97222cb235909ac5459604a01000000000000220020e67947a2ee66d03883dfcdefa8e78db55331f35f8d508b25cb3600ce4bd61863983a000000000000220020efc826a60502482500685aeff625406bf8548f26eee43af45f22d0fdd4cfbd82400d0300000000002200200c7fc42fe1ced57f04af6dfdbdfc6182f2cb015f59e175a116488430a78547ff7d1a0b0000000000220020c3874cb93e76e55e23e349e8fe367a228c7d07c1638637cd08a09dfb64fba31a040047304402202c80481f8eb7d1d85c411879b7026dc605b3fb017d9c5b74a268db902914a7e202204927b3f197f1e8875414d38caefb1d7ea83295b81668c782b7f443f00639e7ef0147304402204c028ec20ee39c107bc73033becdbb1cf6588e309e6e25f5a036c8b6504e04ea02204a7d08b9739426c1bbbb4d15ff7984651506bbfb0a8af8b5acf6013d8eedcd6701475221022ffa44aa8560ac300a4a8a636483352fba7a84de091cad230523a52ab01f1f14210380092c5800eef8460d958b053d0a512b70a501c13e4747d01788f8fb1c58ee2d52ae49246120"
                        },
                        "htlcTxsAndSigs": [
                            {
                                "txinfo": {
                                    "type": "fr.acinq.lightning.transactions.Transactions.TransactionWithInputInfo.HtlcTx.HtlcSuccessTx",
                                    "input": {
                                        "outPoint": "fd49c1c1b8a84d2b00a0a1210c822cbbac8fc8fbf1afbbd69908c9b7e5df7cc4:2",
                                        "txOut": {
                                            "amount": 15000,
                                            "publicKeyScript": "0020efc826a60502482500685aeff625406bf8548f26eee43af45f22d0fdd4cfbd82"
                                        },
                                        "redeemScript": "76a91421cc15bef6a6a963e5f6821d382171a46d68c11b8763ac672103d944ba1ebdc6389bf8b09ae34a168096cb19e45362b255713b4391a4dce8f9b27c8201208763a914ec015adc9d9f0a185a8f4d73ea6f7d845117248288527c2103ab8d2d62fdfb672ceea64a9208d18a590b0c50bb2a0fe47c53a1b4bca8244a6e52ae677503101b06b175ac6851b27568"
                                    },
                                    "tx": "0200000001c47cdfe5b7c90899d6bbaff1fbc88facbb2c820c21a1a0002b4da8b8c1c149fd02000000000100000001ce2c0000000000002200200c7fc42fe1ced57f04af6dfdbdfc6182f2cb015f59e175a116488430a78547ff00000000",
                                    "paymentHash": "af9fe6d0f684cf5df6ce4f41596b276df64cc9bec18e7ea01d521c58454e4ade",
                                    "htlcId": 0
                                },
                                "localSig": "4ea190f22441f8ea2c6ecdb9655d1f745a91ad1ef933e2404f35e72712eb060c6ac4a7daf1c68bd263978b0366b40f82a0ab4eb3cba32991c51e5e37ddc24e1c",
                                "remoteSig": "6cdad11404a129da5b7b41869b8d3e319e27ceffb590214c730c8b2afa8f18ed0495867aa19597357ae3bd0c8c9e5addcc850008a8f66395b8bee5c78af6f031"
                            }
                        ]
                    }
                },
                "remoteCommit": {
                    "index": 0,
                    "spec": {
                        "htlcsIn": [],
                        "htlcsOut": [],
                        "feerate": 5000,
                        "toLocal": 749817000,
                        "toRemote": 200000000
                    },
                    "txid": "4c3852ec114ac3a068b936f1c7d8626b5a635f9a3bdf8393875238b133334016",
                    "remotePerCommitmentPoint": "02fcadc47b4049b300b5beba06a7e89cefd4d9045cc2525ae60b083c40c448f4d7"
                },
                "nextRemoteCommit": {
                    "sig": {
                        "channelId": "e1545b51a8a33aea2d23dd4a6dbd4201d802b0b655ee597bf53b4b14f6e81232",
                        "signature": "8bbf6c180328b0da3f2fd12458131c8949a38a78a765f17815f93c149ef51f947d6d211c3f033376ca95562b3f5ad2d30fbcd64946b4e6302a03753c88711946",
                        "htlcSignatures": [
                            "d3d1f7723a4fce734d7568fec0052f4d8650903616638f2eb37317fc0f8f3a68014e2c1e1c341aee05270a021d062042a4bd4ba266fdc41f90c231894dbc025a"
                        ],
                        "tlvStream": {
                            "records": [
                                {
                                    "type": "fr.acinq.lightning.wire.CommitSigTlv.Batch",
                                    "size": 2
                                }
                            ]
                        }
                    },
                    "commit": {
                        "index": 1,
                        "spec": {
                            "htlcsIn": [],
                            "htlcsOut": [
                                {
                                    "channelId": "e1545b51a8a33aea2d23dd4a6dbd4201d802b0b655ee597bf53b4b14f6e81232",
                                    "id": 0,
                                    "amountMsat": 15000000,
                                    "paymentHash": "af9fe6d0f684cf5df6ce4f41596b276df64cc9bec18e7ea01d521c58454e4ade",
                                    "cltvExpiry": 400144,
                                    "onionRoutingPacket": "<redacted>"
                                }
                            ],
                            "feerate": 5000,
                            "toLocal": 734817000,
                            "toRemote": 200000000
                        },
                        "txid": "6b04b88ed91481e9b74670f7962f5dd3a4797959e6d90fec1b0a561e3e2b7c6e",
                        "remotePerCommitmentPoint": "03074876bf6f74b5f7d6854c44d82cd93ce79e0dfe2e6c887e5fe78c240d86ebb1"
                    }
                }
            },
            {
                "fundingTxIndex": 0,
                "remoteFundingPubkey": "02464c82c5d5b7aac81955e9c80a470357252544aa3fe9cafc56539d787936f4a9",
                "localFundingStatus": {
                    "status": "unconfirmed",
                    "txId": "6a7a6b72222e24230220295827b649c1b521f4c8f419af48f5ebbe28eda6f8e3"
                },
                "remoteFundingStatus": {
                    "status": "not-locked"
                },
                "localCommit": {
                    "index": 1,
                    "spec": {
                        "htlcsIn": [
                            {
                                "channelId": "e1545b51a8a33aea2d23dd4a6dbd4201d802b0b655ee597bf53b4b14f6e81232",
                                "id": 0,
                                "amountMsat": 15000000,
                                "paymentHash": "af9fe6d0f684cf5df6ce4f41596b276df64cc9bec18e7ea01d521c58454e4ade",
                                "cltvExpiry": 400144,
                                "onionRoutingPacket": "<redacted>"
                            }
                        ],
                        "htlcsOut": [],
                        "feerate": 5000,
                        "toLocal": 200000000,
                        "toRemote": 785000000
                    },
                    "publishableTxs": {
                        "commitTx": {
                            "input": {
                                "outPoint": "6a7a6b72222e24230220295827b649c1b521f4c8f419af48f5ebbe28eda6f8e3:0",
                                "txOut": {
                                    "amount": 1000000,
                                    "publicKeyScript": "00201cee81badac370245404251e447ea6907ce23417d7c1b5a7fe1dadb213bb82f6"
                                },
                                "redeemScript": "522102464c82c5d5b7aac81955e9c80a470357252544aa3fe9cafc56539d787936f4a921028a57a142efd10167553269b59302dca54550a81ab64ade7a443b7419ac32974252ae"
                            },
                            "tx": "02000000000101e3f8a6ed28beebf548af19f4c8f421b5c149b6275829200223242e22726b7a6a0000000000d3b43480054a0100000000000022002030c986b0c520a94b0590937d0f33aa78fb924ad4346bdda207e0330d186e44c64a01000000000000220020e8ebe833a6a9f66d3534b9d63fdefcc3c0ff70b6ec2eb6d3a08a163d6db417b8983a000000000000220020efc826a60502482500685aeff625406bf8548f26eee43af45f22d0fdd4cfbd82400d0300000000002200200c7fc42fe1ced57f04af6dfdbdfc6182f2cb015f59e175a116488430a78547ff84de0b0000000000220020c3874cb93e76e55e23e349e8fe367a228c7d07c1638637cd08a09dfb64fba31a04004830450221009dc287c5a78ad3480738aab05a14e8b36bdf1d3e97fa11af7e75edefcd6e5cbf0220404e33cc770464604896c65acbc31d7c403b90cf94c2c8a0e4ccd56af7ef68a501473044022008385f924918c5c7108e33893aa34b481cc79a11bf3e8199405139cbadca35f902207dd2962a7cb8995ff9040a3351538222069486853bfdc10b9302acc74e719ec90147522102464c82c5d5b7aac81955e9c80a470357252544aa3fe9cafc56539d787936f4a921028a57a142efd10167553269b59302dca54550a81ab64ade7a443b7419ac32974252ae49246120"
                        },
                        "htlcTxsAndSigs": [
                            {
                                "txinfo": {
                                    "type": "fr.acinq.lightning.transactions.Transactions.TransactionWithInputInfo.HtlcTx.HtlcSuccessTx",
                                    "input": {
                                        "outPoint": "c9dfa8a557f54092d5f72d6ec6236e6ee71246a14f0bd79c6c4804443c483f4c:2",
                                        "txOut": {
                                            "amount": 15000,
                                            "publicKeyScript": "0020efc826a60502482500685aeff625406bf8548f26eee43af45f22d0fdd4cfbd82"
                                        },
                                        "redeemScript": "76a91421cc15bef6a6a963e5f6821d382171a46d68c11b8763ac672103d944ba1ebdc6389bf8b09ae34a168096cb19e45362b255713b4391a4dce8f9b27c8201208763a914ec015adc9d9f0a185a8f4d73ea6f7d845117248288527c2103ab8d2d62fdfb672ceea64a9208d18a590b0c50bb2a0fe47c53a1b4bca8244a6e52ae677503101b06b175ac6851b27568"
                                    },
                                    "tx": "02000000014c3f483c4404486c9cd70b4fa14612e76e6e23c66e2df7d59240f557a5a8dfc902000000000100000001ce2c0000000000002200200c7fc42fe1ced57f04af6dfdbdfc6182f2cb015f59e175a116488430a78547ff00000000",
                                    "paymentHash": "af9fe6d0f684cf5df6ce4f41596b276df64cc9bec18e7ea01d521c58454e4ade",
                                    "htlcId": 0
                                },
                                "localSig": "e738a32d1f85d1221cc5333d0869a384136696a712f84f7b7fa465e8b3ebc5070010edb38413d130b9e1854437e0179d3054fc0decc4287db686bd81a329bd50",
                                "remoteSig": "df602798b869e7f8176bea759bf5da249d4c00dfb47ebe14177e5c8634c9ca987c7a6895e46ed12aa0f3e6016dbccdff92c3d16c001b1a00958ab0987d1ae4ff"
                            }
                        ]
                    }
                },
                "remoteCommit": {
                    "index": 0,
                    "spec": {
                        "htlcsIn": [],
                        "htlcsOut": [],
                        "feerate": 5000,
                        "toLocal": 800000000,
                        "toRemote": 200000000
                    },
                    "txid": "576059ce57372e523070f118b35d338ef7fa456a26031ddfaab4b2b61a3d31f2",
                    "remotePerCommitmentPoint": "02fcadc47b4049b300b5beba06a7e89cefd4d9045cc2525ae60b083c40c448f4d7"
                },
                "nextRemoteCommit": {
                    "sig": {
                        "channelId": "e1545b51a8a33aea2d23dd4a6dbd4201d802b0b655ee597bf53b4b14f6e81232",
                        "signature": "402909c7b961491bb4824bfcbf7eb0e662fd7ebcaceb6f91c763c9ae9c85f0db731c0fdb18041641e0cbf1fa90a184a9e3ab6fbaff2b1a02035cc74022e62ec4",
                        "htlcSignatures": [
                            "ba990a568b995688f774ba8b8d00a9652025455d01c2e0a7561d422acf3a7eca4e92b0e8906c0152f9c172c257a2ff0962abf8875b5819a88ebc45c0dfae6678"
                        ],
                        "tlvStream": {
                            "records": [
                                {
                                    "type": "fr.acinq.lightning.wire.CommitSigTlv.Batch",
                                    "size": 2
                                }
                            ]
                        }
                    },
                    "commit": {
                        "index": 1,
                        "spec": {
                            "htlcsIn": [],
                            "htlcsOut": [
                                {
                                    "channelId": "e1545b51a8a33aea2d23dd4a6dbd4201d802b0b655ee597bf53b4b14f6e81232",
                                    "id": 0,
                                    "amountMsat": 15000000,
                                    "paymentHash": "af9fe6d0f684cf5df6ce4f41596b276df64cc9bec18e7ea01d521c58454e4ade",
                                    "cltvExpiry": 400144,
                                    "onionRoutingPacket": "<redacted>"
                                }
                            ],
                            "feerate": 5000,
                            "toLocal": 785000000,
                            "toRemote": 200000000
                        },
                        "txid": "8d0d30a4feae988b52f5baaae2219fe431566a213fe426bb8f902158015e44cc",
                        "remotePerCommitmentPoint": "03074876bf6f74b5f7d6854c44d82cd93ce79e0dfe2e6c887e5fe78c240d86ebb1"
                    }
                }
            }
        ],
        "inactive": [],
        "payments": {},
        "remoteNextCommitInfo": {
            "left": {
                "sentAfterLocalCommitIndex": 1
            },
            "right": null
        },
        "remotePerCommitmentSecrets": "<redacted>"
    },
    "shortChannelId": "0x8022898x0",
    "channelUpdate": {
        "signature": "df9689bc36fc0633fc8df8a8bedd183eb85b80f129ac56cb42c9f080ae61156339fe89171b01534633328ae9bba8d3ccd44629b7922b821ee1f96cef29672fea",
        "chainHash": "06226e46111a0b59caaf126043eb5bbf28c34f3a5e332a1fc7b2b73cf188910f",
        "shortChannelId": "0x8022898x0",
        "timestampSeconds": 1720772633,
        "messageFlags": 1,
        "channelFlags": 0,
        "cltvExpiryDelta": 144,
        "htlcMinimumMsat": 0,
        "feeBaseMsat": 10,
        "feeProportionalMillionths": 10,
        "htlcMaximumMsat": 1000000000
    },
    "remoteChannelUpdate": null,
    "spliceStatus": "None",
    "localShutdown": null,
    "remoteShutdown": null,
    "closeCommand": null
}