{
    "type": "fr.acinq.lightning.channel.states.Normal",
    "commitments": {
        "params": {
            "channelId": "2f7c825b61cbbf0e685aef20f8923a8cd28943346e59301b629cc89b4e27cdbd",
            "channelConfig": [
                "funding_pubkey_based_channel_keypath"
            ],
            "channelFeatures": [
                "option_support_large_channel",
                "option_static_remotekey",
                "option_anchor_outputs",
                "zero_reserve_channels",
                "zero_conf_channels"
            ],
            "localParams": {
                "nodeId": "037108815ff0128f7ed22640485c226d9ad64a9fd6d8b41b6623565aed6b34812c",
                "fundingKeyPath": "m/385048399/1977025879/604622566/184658546/776346346/949304342'/277944247'/2049339775'/1'",
                "dustLimit": 1100,
                "maxHtlcValueInFlightMsat": 1500000000,
                "htlcMinimum": 0,
                "toSelfDelay": 144,
                "maxAcceptedHtlcs": 100,
                "isInitiator": true,
                "defaultFinalScriptPubKey": "001405e0104aa726e34ff5cd3a6320d05c0862b5b01c",
                "features": {
                    "activated": {
                        "option_data_loss_protect": "Optional",
                        "initial_routing_sync": "Optional",
                        "gossip_queries": "Optional",
                        "var_onion_optin": "Mandatory",
                        "gossip_queries_ex": "Optional",
                        "option_static_remotekey": "Mandatory",
                        "payment_secret": "Mandatory",
                        "basic_mpp": "Optional",
                        "option_support_large_channel": "Optional",
                        "option_anchor_outputs": "Mandatory",
                        "option_channel_type": "Mandatory",
                        "option_payment_metadata": "Optional",
                        "wake_up_notification_provider": "Optional",
                        "pay_to_open_provider": "Optional",
                        "trusted_swap_in_provider": "Optional",
                        "channel_backup_provider": "Optional",
                        "trampoline_payment_experimental": "Optional"
                    },
                    "unknown": [
                    ]
                }
            },
            "remoteParams": {
                "nodeId": "0362b19a83930389b4468be40308efb3f352b23142ae25e6aba0465a8220f95b06",
                "dustLimit": 1000,
                "maxHtlcValueInFlightMsat": 1500000000,
                "htlcMinimum": 1000,
                "toSelfDelay": 144,
                "maxAcceptedHtlcs": 100,
                "revocationBasepoint": "03a42aef6d1c860caffa6c71a6f8ac2b16eec25bab0c3950cdb1fad7fb38a5f2a5",
                "paymentBasepoint": "02508e1845b8bbe0773f6bf8f3f04f59a5896426765c7b6b23e6e466c95381182b",
                "delayedPaymentBasepoint": "02d62233b7c33f8fd0911922461a651007f1de09d8c474029caa8f2c229c10de26",
                "htlcBasepoint": "03d05c8245bdc12efd8b070b22b276e7db4254f4693e22b3f7c978c08e67b36236",
                "features": {
                    "activated": {
                        "option_data_loss_protect": "Optional",
                        "initial_routing_sync": "Optional",
                        "gossip_queries": "Optional",
                        "var_onion_optin": "Mandatory",
                        "gossip_queries_ex": "Optional",
                        "option_static_remotekey": "Mandatory",
                        "payment_secret": "Mandatory",
                        "basic_mpp": "Optional",
                        "option_support_large_channel": "Optional",
                        "option_anchor_outputs": "Mandatory",
                        "option_channel_type": "Mandatory",
                        "option_payment_metadata": "Optional",
                        "wake_up_notification_client": "Optional",
                        "pay_to_open_client": "Optional",
                        "trusted_swap_in_client": "Optional",
                        "trampoline_payment_experimental": "Optional"
                    },
                    "unknown": [
                    ]
                }
            },
            "channelFlags": 0
        },
        "changes": {
            "localChanges": {
                "proposed": [
                ],
                "signed": [
                ],
                "acked": [
                ]
            },
            "remoteChanges": {
                "proposed": [
                ],
                "acked": [
                ],
                "signed": [
                ]
            },
            "localNextHtlcId": 0,
            "remoteNextHtlcId": 2
        },
        "active": [
            {
                "fundingTxIndex": 0,
                "remoteFundingPubkey": "0385cfd7d8850e4cb8fcbed57310911218e5d5e1fd34f92ef5d9db14d56418caa4",
                "localFundingStatus": {
                    "status": "unconfirmed",
                    "txId": "bdcd274e9bc89c621b30596e344389d28c3a92f820ef5a680ebfcb615b827c2f"
                },
                "remoteFundingStatus": {
                    "status": "locked"
                },
                "localCommit": {
                    "index": 4,
                    "spec": {
                        "htlcsIn": [
                        ],
                        "htlcsOut": [
                        ],
                        "feerate": 5000,
                        "toLocal": 840000000,
                        "toRemote": 160000000
                    },
                    "publishableTxs": {
                        "commitTx": {
                            "input": {
                                "outPoint": "bdcd274e9bc89c621b30596e344389d28c3a92f820ef5a680ebfcb615b827c2f:0",
                                "txOut": {
                                    "amount": 1000000,
                                    "publicKeyScript": "00204ba42b50e089764e60e9e0c76c57e41d252d6beb976332f14a7b255bbb5322b8"
                                },
                                "redeemScript": "522102b6eaf304d966a6df90f3b3df7af7be6b1625854bbc096cb8b3507b2a37c2bf9c210385cfd7d8850e4cb8fcbed57310911218e5d5e1fd34f92ef5d9db14d56418caa452ae"
                            },
                            "tx": "020000000001012f7c825b61cbbf0e685aef20f8923a8cd28943346e59301b629cc89b4e27cdbd000000000000b77080044a0100000000000022002046672803839d10e21d43eafb532bc37cd21bd97dec7f9b50d45380cd1cce69654a01000000000000220020bbd7f17366848d8f624c28438128ce4dc8c72ea21deb0ccf25bee110920da0320071020000000000220020cb93e3adb8d213704e9a07ea2a6ce91dca51a9b76fcb6bef3cc9b5b7e10a7990b8b80c00000000002200205079bfdf0d2b5e13578de7bd639aba698df8785dbbe1a40907add319c71494f704004830450221008a0e5f22c602c0a8518a624bf145aa91b59c14b6e091d21788a579425236558002206b86a5048942a76e5fa3aaae2501c69cfbf0ca712aaa059a4b5d59ccaf8b48a301483045022100ecbd1de0aa98cfb38c3dd8ead1ea17ac5b33abf2d69e56bbd52b0d1f796f9ad702207041efe3996e9a41d00ca924a79c5d734ccc289a3370ea71f6408906adf2a4c60147522102b6eaf304d966a6df90f3b3df7af7be6b1625854bbc096cb8b3507b2a37c2bf9c210385cfd7d8850e4cb8fcbed57310911218e5d5e1fd34f92ef5d9db14d56418caa452aeda99dc20"
                        },
                        "htlcTxsAndSigs": [
                        ]
                    }
                },
                "remoteCommit": {
                    "index": 4,
                    "spec": {
                        "htlcsIn": [
                        ],
                        "htlcsOut": [
                        ],
                        "feerate": 5000,
                        "toLocal": 160000000,
                        "toRemote": 840000000
                    },
                    "txid": "94ff78d40fb22d0279aea0c68546aa6bfbb0581aec4e481a923b542b067c19cf",
                    "remotePerCommitmentPoint": "036e46c0c33872871f0509fda1b455136e44b797452c86c79134b70a86a3d9abc3"
                },
                "nextRemoteCommit": null
            }
        ],
        "inactive": [
        ],
        "payments": {
        },
        "remoteNextCommitInfo": {
            "left": null,
            "right": "03fc9e0ff6fbb2af495d07b96f42c88d4bbc89ea4d75714eb660d9408db65ccde3"
        },
        "remotePerCommitmentSecrets": "<redacted>"
    },
    "shortChannelId": "400144x1x0",
    "channelUpdate": {
        "signature": "29af56bd951d95baca24ef8e44eb7dd24e1993f0aba7dfed6bbed8e269d51a1215be71eeb08a3028e25acb50db083c84f1c45cc09927dae5c0be9745f1cd8261",
        "chainHash": "06226e46111a0b59caaf126043eb5bbf28c34f3a5e332a1fc7b2b73cf188910f",
        "shortChannelId": "400144x1x0",
        "timestampSeconds": 1666878701,
        "messageFlags": 1,
        "channelFlags": 1,
        "cltvExpiryDelta": 144,
        "htlcMinimumMsat": 1000,
        "feeBaseMsat": 100,
        "feeProportionalMillionths": 10,
        "htlcMaximumMsat": 1000000000
    },
    "remoteChannelUpdate": null,
    "localShutdown": null,
    "remoteShutdown": null,
    "closingFeerates": null,
    "spliceStatus": "None",
    "liquidityLeases": [
    ]
}