{
    "type": "fr.acinq.lightning.channel.states.Normal",
    "commitments": {
        "params": {
            "channelId": "2f7c825b61cbbf0e685aef20f8923a8cd28943346e59301b629cc89b4e27cdbd",
            "channelConfig": [
                "funding_pubkey_based_channel_keypath"
            ],
            "channelFeatures": [
                "option_static_remotekey",
                "option_support_large_channel",
                "option_anchor_outputs"
            ],
            "localParams": {
                "nodeId": "037108815ff0128f7ed22640485c226d9ad64a9fd6d8b41b6623565aed6b34812c",
                "fundingKeyPath": "m/385048399/1977025879/604622566/184658546/776346346/949304342'/277944247'/2049339775'/1'",
                "dustLimit": 1100,
                "maxHtlcValueInFlightMsat": 1500000000,
                "htlcMinimum": 0,
                "toSelfDelay": 144,
                "maxAcceptedHtlcs": 100,
                "isChannelOpener": true,
                "paysCommitTxFees": true,
                "defaultFinalScriptPubKey": "001405e0104aa726e34ff5cd3a6320d05c0862b5b01c",
                "features": {
                    "activated": {
                        "initial_routing_sync": "Optional",
                        "option_data_loss_protect": "Optional",
                        "gossip_queries": "Optional",
                        "gossip_queries_ex": "Optional",
                        "var_onion_optin": "Mandatory",
                        "payment_secret": "Mandatory",
                        "basic_mpp": "Optional",
                        "option_support_large_channel": "Optional",
                        "option_static_remotekey": "Mandatory",
                        "option_anchor_outputs": "Mandatory",
                        "option_channel_type": "Mandatory",
                        "option_payment_metadata": "Optional",
                        "trampoline_payment_experimental": "Optional",
                        "wake_up_notification_provider": "Optional",
                        "pay_to_open_provider": "Optional",
                        "trusted_swap_in_provider": "Optional",
                        "channel_backup_provider": "Optional"
                    },
                    "unknown": []
                }
            },
            "remoteParams": {
                "nodeId": "0362b19a83930389b4468be40308efb3f352b23142ae25e6aba0465a8220f95b06",
                "dustLimit": 1000,
                "maxHtlcValueInFlightMsat": 1500000000,
                "htlcMinimum": 1000,
                "toSelfDelay": 144,
                "maxAcceptedHtlcs": 100,
                "revocationBasepoint": "03a42aef6d1c860caffa6c71a6f8ac2b16eec25bab0c3950cdb1fad7fb38a5f2a5",
                "paymentBasepoint": "02508e1845b8bbe0773f6bf8f3f04f59a5896426765c7b6b23e6e466c95381182b",
                "delayedPaymentBasepoint": "02d62233b7c33f8fd0911922461a651007f1de09d8c474029caa8f2c229c10de26",
                "htlcBasepoint": "03d05c8245bdc12efd8b070b22b276e7db4254f4693e22b3f7c978c08e67b36236",
                "features": {
                    "activated": {
                        "option_data_loss_protect": "Optional",
                        "initial_routing_sync": "Optional",
                        "gossip_queries": "Optional",
                        "var_onion_optin": "Mandatory",
                        "gossip_queries_ex": "Optional",
                        "option_static_remotekey": "Mandatory",
                        "payment_secret": "Mandatory",
                        "basic_mpp": "Optional",
                        "option_support_large_channel": "Optional",
                        "option_anchor_outputs": "Mandatory",
                        "option_channel_type": "Mandatory",
                        "option_payment_metadata": "Optional",
                        "wake_up_notification_client": "Optional",
                        "pay_to_open_client": "Optional",
                        "trusted_swap_in_client": "Optional",
                        "channel_backup_client": "Optional",
                        "trampoline_payment_experimental": "Optional"
                    },
                    "unknown": []
                }
            },
            "channelFlags": {
                "announceChannel": false,
                "nonInitiatorPaysCommitFees": false
            }
        },
        "changes": {
            "localChanges": {
                "proposed": [],
                "signed": [
                    {
                        "type": "fr.acinq.lightning.wire.UpdateAddHtlc",
                        "channelId": "2f7c825b61cbbf0e685aef20f8923a8cd28943346e59301b629cc89b4e27cdbd",
                        "id": 0,
                        "amountMsat": 50000000,
                        "paymentHash": "70072fca373af190b0b82e6d1741e1b793c4feba75fc95dd9e2b37b32f01fa57",
                        "cltvExpiry": 400144,
                        "onionRoutingPacket": "<redacted>"
                    }
                ],
                "acked": []
            },
            "remoteChanges": {
                "proposed": [],
                "acked": [],
                "signed": []
            },
            "localNextHtlcId": 1,
            "remoteNextHtlcId": 0
        },
        "active": [
            {
                "fundingTxIndex": 0,
                "remoteFundingPubkey": "0385cfd7d8850e4cb8fcbed57310911218e5d5e1fd34f92ef5d9db14d56418caa4",
                "localFundingStatus": {
                    "status": "unconfirmed",
                    "txId": "bdcd274e9bc89c621b30596e344389d28c3a92f820ef5a680ebfcb615b827c2f"
                },
                "remoteFundingStatus": {
                    "status": "locked"
                },
                "localCommit": {
                    "index": 0,
                    "spec": {
                        "htlcsIn": [],
                        "htlcsOut": [],
                        "feerate": 5000,
                        "toLocal": 800000000,
                        "toRemote": 200000000
                    },
                    "publishableTxs": {
                        "commitTx": {
                            "input": {
                                "outPoint": "bdcd274e9bc89c621b30596e344389d28c3a92f820ef5a680ebfcb615b827c2f:0",
                                "txOut": {
                                    "amount": 1000000,
                                    "publicKeyScript": "00204ba42b50e089764e60e9e0c76c57e41d252d6beb976332f14a7b255bbb5322b8"
                                },
                                "redeemScript": "522102b6eaf304d966a6df90f3b3df7af7be6b1625854bbc096cb8b3507b2a37c2bf9c210385cfd7d8850e4cb8fcbed57310911218e5d5e1fd34f92ef5d9db14d56418caa452ae"
                            },
                            "tx": "020000000001012f7c825b61cbbf0e685aef20f8923a8cd28943346e59301b629cc89b4e27cdbd000000000000b77080044a0100000000000022002046672803839d10e21d43eafb532bc37cd21bd97dec7f9b50d45380cd1cce69654a01000000000000220020bbd7f17366848d8f624c28438128ce4dc8c72ea21deb0ccf25bee110920da032400d030000000000220020cb93e3adb8d213704e9a07ea2a6ce91dca51a9b76fcb6bef3cc9b5b7e10a7990781c0c00000000002200202f0860cd1fe361a1aaf5708f75b6511c92cd5a51bdaaccfbda77aead550d875104004730440220672323ca34b85c2a43e3e93ac8a642a8293b1483392f531736db975d05f3ad3c022019f7b5044cd2a230dc49484c219fd96485f98d21c6add317566f4b21816a2fb101483045022100956b481822da569bc75c1f7ab6ec34c0a1e14dd5b4701ea8473e5bfe6b6ad41702202b1a987850611c0f52cccbb6016c735a08572f61fe03616a186ca39a8b2e07970147522102b6eaf304d966a6df90f3b3df7af7be6b1625854bbc096cb8b3507b2a37c2bf9c210385cfd7d8850e4cb8fcbed57310911218e5d5e1fd34f92ef5d9db14d56418caa452aede99dc20"
                        },
                        "htlcTxsAndSigs": []
                    }
                },
                "remoteCommit": {
                    "index": 0,
                    "spec": {
                        "htlcsIn": [],
                        "htlcsOut": [],
                        "feerate": 5000,
                        "toLocal": 200000000,
                        "toRemote": 800000000
                    },
                    "txid": "6498095b8d064f46673e7c0d919636e1dff0c0a76ed61dd96938a178253ea4cb",
                    "remotePerCommitmentPoint": "02365f9a5e4822956750faa46230f54e47d4b6ef9d58eb8c488d80a5efed938d5b"
                },
                "nextRemoteCommit": {
                    "sig": {
                        "channelId": "2f7c825b61cbbf0e685aef20f8923a8cd28943346e59301b629cc89b4e27cdbd",
                        "signature": "5a494fd49da1aa4a09b8dc38392eb8749c6d8bdf88f8800bd9c00115cb3621096727bf93a761722b8bd985de3b94a2d02a776c54ab184f64a5f68cd0aa08d11f",
                        "htlcSignatures": [
                            "2092dc689b4d36d11ee5ae412a00af30820afcbfdf09916b7ba31acf2a07797962c4451fca451a6d9d48e56e21d0d164d0e7f22f6400520fb01d508404e9de68"
                        ]
                    },
                    "commit": {
                        "index": 1,
                        "spec": {
                            "htlcsIn": [
                                {
                                    "channelId": "2f7c825b61cbbf0e685aef20f8923a8cd28943346e59301b629cc89b4e27cdbd",
                                    "id": 0,
                                    "amountMsat": 50000000,
                                    "paymentHash": "70072fca373af190b0b82e6d1741e1b793c4feba75fc95dd9e2b37b32f01fa57",
                                    "cltvExpiry": 400144,
                                    "onionRoutingPacket": "<redacted>"
                                }
                            ],
                            "htlcsOut": [],
                            "feerate": 5000,
                            "toLocal": 200000000,
                            "toRemote": 750000000
                        },
                        "txid": "1a2a425ee791588293c176e4cec3d01ed0b154f99f362d9f5115d92ab947f4ef",
                        "remotePerCommitmentPoint": "03c57839fd412868a398bea05d01678a752661126a2d1357a0f7cb6f0c60311125"
                    }
                }
            }
        ],
        "inactive": [],
        "payments": {
            "0": "c10720b8-745f-4450-8f6f-1ca7472ecc76"
        },
        "remoteNextCommitInfo": {
            "left": {
                "sentAfterLocalCommitIndex": 0
            },
            "right": null
        },
        "remotePerCommitmentSecrets": "<redacted>"
    },
    "shortChannelId": "400144x1x0",
    "channelUpdate": {
        "signature": "d2a23e7a1df70d9e18374b1bac20b13267bb9cea4016b69da729dbab8423bc9575381c5256f5f15fb116b9bc78d3ccc246f1925dfb341e7bc3595e975d9f0d47",
        "chainHash": "06226e46111a0b59caaf126043eb5bbf28c34f3a5e332a1fc7b2b73cf188910f",
        "shortChannelId": "400144x1x0",
        "timestampSeconds": 1666878695,
        "messageFlags": 1,
        "channelFlags": 1,
        "cltvExpiryDelta": 144,
        "htlcMinimumMsat": 1000,
        "feeBaseMsat": 100,
        "feeProportionalMillionths": 10,
        "htlcMaximumMsat": 1000000000
    },
    "remoteChannelUpdate": null,
    "spliceStatus": {
        "status": "None"
    },
    "localShutdown": null,
    "remoteShutdown": null,
    "closeCommand": null
}