{
    "type": "fr.acinq.lightning.channel.states.LegacyWaitForFundingConfirmed",
    "commitments": {
        "params": {
            "channelId": "2f7c825b61cbbf0e685aef20f8923a8cd28943346e59301b629cc89b4e27cdbd",
            "channelConfig": [
                "funding_pubkey_based_channel_keypath"
            ],
            "channelFeatures": [
                "option_support_large_channel",
                "option_static_remotekey",
                "option_anchor_outputs",
                "zero_reserve_channels",
                "zero_conf_channels"
            ],
            "localParams": {
                "nodeId": "037108815ff0128f7ed22640485c226d9ad64a9fd6d8b41b6623565aed6b34812c",
                "fundingKeyPath": "m/385048399/1977025879/604622566/184658546/776346346/949304342'/277944247'/2049339775'/1'",
                "dustLimit": 1100,
                "maxHtlcValueInFlightMsat": 1500000000,
                "htlcMinimum": 0,
                "toSelfDelay": 144,
                "maxAcceptedHtlcs": 100,
                "isChannelOpener": true,
                "paysCommitTxFees": true,
                "defaultFinalScriptPubKey": "001405e0104aa726e34ff5cd3a6320d05c0862b5b01c",
                "features": {
                    "activated": {
                        "initial_routing_sync": "Optional",
                        "option_data_loss_protect": "Optional",
                        "gossip_queries": "Optional",
                        "gossip_queries_ex": "Optional",
                        "var_onion_optin": "Mandatory",
                        "payment_secret": "Mandatory",
                        "basic_mpp": "Optional",
                        "option_support_large_channel": "Optional",
                        "option_static_remotekey": "Mandatory",
                        "option_anchor_outputs": "Mandatory",
                        "option_channel_type": "Mandatory",
                        "option_payment_metadata": "Optional",
                        "trampoline_payment_experimental": "Optional",
                        "wake_up_notification_provider": "Optional",
                        "pay_to_open_provider": "Optional",
                        "trusted_swap_in_provider": "Optional",
                        "channel_backup_provider": "Optional"
                    },
                    "unknown": [
                    ]
                }
            },
            "remoteParams": {
                "nodeId": "0362b19a83930389b4468be40308efb3f352b23142ae25e6aba0465a8220f95b06",
                "dustLimit": 1000,
                "maxHtlcValueInFlightMsat": 1500000000,
                "htlcMinimum": 1000,
                "toSelfDelay": 144,
                "maxAcceptedHtlcs": 100,
                "revocationBasepoint": "03a42aef6d1c860caffa6c71a6f8ac2b16eec25bab0c3950cdb1fad7fb38a5f2a5",
                "paymentBasepoint": "02508e1845b8bbe0773f6bf8f3f04f59a5896426765c7b6b23e6e466c95381182b",
                "delayedPaymentBasepoint": "02d62233b7c33f8fd0911922461a651007f1de09d8c474029caa8f2c229c10de26",
                "htlcBasepoint": "03d05c8245bdc12efd8b070b22b276e7db4254f4693e22b3f7c978c08e67b36236",
                "features": {
                    "activated": {
                        "option_data_loss_protect": "Optional",
                        "initial_routing_sync": "Optional",
                        "gossip_queries": "Optional",
                        "var_onion_optin": "Mandatory",
                        "gossip_queries_ex": "Optional",
                        "option_static_remotekey": "Mandatory",
                        "payment_secret": "Mandatory",
                        "basic_mpp": "Optional",
                        "option_support_large_channel": "Optional",
                        "option_anchor_outputs": "Mandatory",
                        "option_channel_type": "Mandatory",
                        "option_payment_metadata": "Optional",
                        "wake_up_notification_client": "Optional",
                        "pay_to_open_client": "Optional",
                        "trusted_swap_in_client": "Optional",
                        "channel_backup_client": "Optional",
                        "trampoline_payment_experimental": "Optional"
                    },
                    "unknown": [
                    ]
                }
            },
            "channelFlags": {
                "announceChannel": false,
                "nonInitiatorPaysCommitFees": false
            }
        },
        "changes": {
            "localChanges": {
                "proposed": [
                ],
                "signed": [
                ],
                "acked": [
                ]
            },
            "remoteChanges": {
                "proposed": [
                ],
                "acked": [
                ],
                "signed": [
                ]
            },
            "localNextHtlcId": 0,
            "remoteNextHtlcId": 0
        },
        "active": [
            {
                "fundingTxIndex": 0,
                "remoteFundingPubkey": "0385cfd7d8850e4cb8fcbed57310911218e5d5e1fd34f92ef5d9db14d56418caa4",
                "localFundingStatus": {
                    "status": "unconfirmed",
                    "txId": "bdcd274e9bc89c621b30596e344389d28c3a92f820ef5a680ebfcb615b827c2f"
                },
                "remoteFundingStatus": {
                    "status": "locked"
                },
                "localCommit": {
                    "index": 0,
                    "spec": {
                        "htlcsIn": [
                        ],
                        "htlcsOut": [
                        ],
                        "feerate": 5000,
                        "toLocal": 800000000,
                        "toRemote": 200000000
                    },
                    "publishableTxs": {
                        "commitTx": {
                            "input": {
                                "outPoint": "bdcd274e9bc89c621b30596e344389d28c3a92f820ef5a680ebfcb615b827c2f:0",
                                "txOut": {
                                    "amount": 1000000,
                                    "publicKeyScript": "00204ba42b50e089764e60e9e0c76c57e41d252d6beb976332f14a7b255bbb5322b8"
                                },
                                "redeemScript": "522102b6eaf304d966a6df90f3b3df7af7be6b1625854bbc096cb8b3507b2a37c2bf9c210385cfd7d8850e4cb8fcbed57310911218e5d5e1fd34f92ef5d9db14d56418caa452ae"
                            },
                            "tx": "020000000001012f7c825b61cbbf0e685aef20f8923a8cd28943346e59301b629cc89b4e27cdbd000000000000b77080044a0100000000000022002046672803839d10e21d43eafb532bc37cd21bd97dec7f9b50d45380cd1cce69654a01000000000000220020bbd7f17366848d8f624c28438128ce4dc8c72ea21deb0ccf25bee110920da032400d030000000000220020cb93e3adb8d213704e9a07ea2a6ce91dca51a9b76fcb6bef3cc9b5b7e10a7990781c0c00000000002200202f0860cd1fe361a1aaf5708f75b6511c92cd5a51bdaaccfbda77aead550d875104004730440220672323ca34b85c2a43e3e93ac8a642a8293b1483392f531736db975d05f3ad3c022019f7b5044cd2a230dc49484c219fd96485f98d21c6add317566f4b21816a2fb101483045022100956b481822da569bc75c1f7ab6ec34c0a1e14dd5b4701ea8473e5bfe6b6ad41702202b1a987850611c0f52cccbb6016c735a08572f61fe03616a186ca39a8b2e07970147522102b6eaf304d966a6df90f3b3df7af7be6b1625854bbc096cb8b3507b2a37c2bf9c210385cfd7d8850e4cb8fcbed57310911218e5d5e1fd34f92ef5d9db14d56418caa452aede99dc20"
                        },
                        "htlcTxsAndSigs": [
                        ]
                    }
                },
                "remoteCommit": {
                    "index": 0,
                    "spec": {
                        "htlcsIn": [
                        ],
                        "htlcsOut": [
                        ],
                        "feerate": 5000,
                        "toLocal": 200000000,
                        "toRemote": 800000000
                    },
                    "txid": "6498095b8d064f46673e7c0d919636e1dff0c0a76ed61dd96938a178253ea4cb",
                    "remotePerCommitmentPoint": "02365f9a5e4822956750faa46230f54e47d4b6ef9d58eb8c488d80a5efed938d5b"
                },
                "nextRemoteCommit": null
            }
        ],
        "inactive": [
        ],
        "payments": {
        },
        "remoteNextCommitInfo": {
            "left": null,
            "right": "03bd8a174751163f38af0abc6c513d98f05d66080e67061cadf5e2b11b665579d9"
        },
        "remotePerCommitmentSecrets": "<redacted>",
        "remoteChannelData": {
            "data": "2f7edc2aaf19044090c45b2fff7f644ccc3a8e46dfa833ffbbbec0053851644d3dc2178a3b9f9f1c97748d2819eabb3fc4bb1247292e313b0110f410ff68ed4ddc9a72b18eceed357436dff3a175cb7a5382fec74a47854cdde1f40413737b3bfd8a30ddf78e762b86622ee24d71e559b1db503b9c45225c787dcaebc78e0d0a203ed894c9d09211ee782603d1cb60a2b7a1d189028373676e687cf152472742defc9983ee1062d93724018d7b57ce2a0c87a8719a9c26d64d7b89255fd4e09c564b209dbf4234bd94fdee819216ce2688fb28c177b643b1ed1592a91612b03b75fc7628444f8f4b167e0621008feee70afe1424eff8f6fab0229efc4b2222b635d695d5b907ab1d775be189433dbd58a63deadb2efade687a06b6167c32aebe41b8166ec32ec8969f3d5b5bc560e5fbd9c4dac4453397373c1144dc51f8382a785bd71efe8e89fd727f7b8a0272623638c72e654e9c6a4327da3c9dfda6d54ffe3dd688efeaf49b38d0db45bb2104b27ae8fc150605856eb2fce77a17e55a302f2aca121b69380b7deef05d152fab0e846260a6c8acb7e296603b22cb912e10722b0e119802f220d900f26885f51fc244c1c2d699f18b8037c023ca95b31e12503040d15f889c0633cd501d527f28ba1c5a03738ab02e2dc25f48942e96006b8f3468225692d9726417453afee08a436de7470810a839025847a9d634d20adeeb444dbf410a451fad2fea468a585fe7c66f79da1371f1a29a0fd9da0efa2252f5e6befe9e6a9005fe04f03a05eb5fc083b213dbe249aafdd98f09b0ca71417749a373d07187a33d92530123ea05a459455873fdf0dc1179f8989cb5d85402755078705e7810a08a3c94332a9e9c0234f5a157164cf56642195c3255cf671d2ca12485b5828f4f7d31d2f23389565b40b8db54bec68c42a2d67a8d942f49ad563ec8ca6bd379920acfb21cd385f3589f8c0b2fd2b8d59d38cb026916d19a1302573abb7a1e5bb516445ebf75f5ed0a0d2d405189723d0c378082820e780929427604a1ee362e4734de3a056ee8b10a1bd2ee88b265256011f2a827b262be69396673060043d2551d8c7c4d8e4193f64373e4884c6ee221cbbca1a020d700468b579d416d931b504a6645e0368efea75a6e791f7e63ee86a69505fe829dcea4f4be3a50fb7ad812c62e0bf68e4233587a7bee34a354e9582b9b985d8dbda8eae1be3e1b2e35f31cdb8306d627e599490486f295b0e216377fd82c4500b8e2885385de2f021222a72d8481361c7fba8364d0b7bc62ea8d46748bf13ebbd91a2db97d7e17aaa621edb3b7a715c9d62c6a8a3becd1d938065883752a504da9c50b7363a415e2c0c7e925a57070113f626cac667dea80e83060cb0b9db82eaa77ef9a12759bae777dc3de68ee725719d105af1adf4f93092f96bbd12a51aa7b7ccc44209fe33e1dcc90f58e2fcd6e2ec561d03522a9e835f1780d92e7e93bc557ab138d8abe679842203e65255130ab4db1556e35ced5b2f2b99574538b54c516f0dc42a73207de9213ca99ef633d925405f883d32e05f910b972f79738c4897fd2154ce20d2d1f0fe03fbb247b30e1c3a8cb1da396fda7699cab8472e2f296cbf30a6d1e87855814fa3df7ba4dec87b8d7f5a1b24302a47c7f33460835c912379169e49353159619b5f09cbe050e08334d61bce620e83e4cf496c4953cc86ef8e84f114b62c579ec51aa6305cb056e69b6230ce109ec13b5529b72e9eac965fd7c4a4d3e4be02e21074e59b6c07b3b3c65a3e2f1e3458da0a0cbef6b69ae54464ba06e675f5718e5b28e4e1b2542f87d8d970cf04cd200a36f08cbc4b17a99d41aadd58e562d591077e603b1bc6433551bcd5b2a87e9454aa191d102412529037aceb1ab86819c4766c1b56dc6953264f2d6caa016f1a2d582363fa4c7c49e742cceb9b3a4fc38dadc2263c296c886402e05102b42cc316aff8cb73e8fd4ed72df93789730664a62ceb3ed950ae4a2a6caac8b45dbe055fc764722f80bc3bd8494cde1367b34c1aef3765a53c70cab60287fc2f2ed1253758dd5b30993ad968dd87641a269ce72a99e9d19378417cd5522e207bdde7948bfc70507d6ad14c3f25d3723ac3203e3dff6fd6e970f4e450daf267e4fa8f1e2decf36efaab9f9a6d4e0874f2400eba70d728ccda9948d8fc6f9ea09323322c3365e31f494fb8a953273acc78b5021633e913ae8a0a028e33abe87eada41847a2e4bd0b8e28e19f6cddef7adb16dd72b0f51e7a21e699d880e97c96c4a13f568d1fc4537af36a7fd04e36c084bfa7fcfcd85b1507d26315d795385cc7c9ead66349bc264c691442eab3d0dda64cec7684663a1d81fe86753fc2b40f9a17759c4992a51631e7a6e755b324d5f6b9ffd09e121e68522b782b485c85da6edb92dbb06e2ca35edd208c9245bea83b1586154a21939ab9c4f4e9a51a39ce34d1684e929467cb3461784591ed50a309dba95ac3d2d6febfb62b0ec7ed327d550f9522c2a80684b002b75d1c3e738c1f4a0e04f528f08e69336c676eec9581c8c218212bd64a6eb8c88f12bb01bf18b81066aabf6a66eb69ffe01187163ecaa1a73fe363341b977e24c4f696c7d525c1f4509655cad80a1f9edf08534e7109081eec230356023bd5b8f0576d563e49a91b63605ab84ab9e0c53232a50039b0aac128ddee708c770fe14adc52d009507f638b294d1d4564386784da0296aaf69487d34d969a4968060394be2faa0ac7e6e07183693ae3809b0822c6c6f26b5cdc3333a65cef83fba26b4cc9b44b11ed9b0b48e3b6b401c83772cb2607872584c3aa0047cd97c224a2a52b8115c6a40dd943eb4eb8407d0bb66b665c514923da85252649a075180dcad10e8dacac2710ee8760cae7185c1cebdedd278fab47a11fd32817a5e67841cd8a4761d5ff290862dafa987b7044171a53d4d881aa49717186ddd6834363d3e99df011a28af4d7513d038076c7c88ed1419eaccce33cc7ff76af9504e52553ac606e395ef337b09b37f8cab53353af8e813204adeb34f98361c579e7ddedd835be38859b4a9f128938c31365e9711f4b1bc7263692bf3b69e57668db47d8a925fb473a929c8ba3c6168944cef96bacd91ab699c85d9c09e5b9342d69d79cfe3ee91c21a07758add7e1fe26ad3a82ad2937919b5b678357208a3200ce5f76a4d2780a0c7478cb21041cf0d38db5542904a05c1b5794cec0f66a0775d9f396cd10fd362500cedaeadee2326566fc3a6525ea2edd6b4d876e206bbfa06e46ad2e648faa9dc7ae726c5d9854646ca956da0a33008dd2e5d9310a3834d42234745ecb5fec6255884cfaebb79d096a8a26fff606b2c6636b942ee45f7045738de3f3b0a5f5b509ebd40752c62c99dbeec314c7f06fc278b97245e96bb8eed207220afb4abc6e3e4c81441a14955c925d044613fab63e64d63dd0ce9864ffbf1a5529837445557b261877161b32b92e62c8692b2f666bfbb2b1b475fcc2fcf5f66e5b282023a313d6cb7ffd24639df67ba083db7508064a74970959801de5f653a447c95cd0bdafc2f8224ab4278178028c2275709939208d21170716ee5e3d42e9965fc2e584486b1cb5fbabd2cb23de0546ab8d3817b62f4f0043a7903170424cd0da5ac37dbea30e4457b66e8641b1a5297b00f2c93195219ccfa872db4aa17d628b889c15c746a4d95a8e779c504519b34ac3edc7c9b08dd140de7f818c7dc8de4963f6514fd6317f678bbe058622104fca2232ae32a9fab82106d080daa8e7c040a2d958686b34923ee05d75f684bec64b829c1072c04057bc3992b44cf631ddbd5897c8902cf54d094a8986db85ed67ac989ac0509af123c95a9200a3418ae5200643d37b74675ea17b8dd9a334450dfa4f1d50c294bc1bab463c2acaaadbebcc36ba4510788fa2c2e5b7f7b02f3b7df3126e7f8100d9a913040bcb2b738de6687d46cb4df92f4c952b78c65b23d9aaeead083654141c1bea00e9de6b4033cf33b8ea5506abef3197b2aa687b436998cd0f10509638385b204ea0b14c9d76fc4ea64e50b261b3255364ef09cfaa52698f275c248b1dd4bc38096db272b28afc8fe5dbe96f683c75d594a576341b6baf7d91fe610dff3fe1f10481fa46fe1ab60405ce8e2b3195a3f8f3584a5719e9e837289d8aad48a9486dfb23c8704a1ebba550432d0193a9eaa7e47f520a5859bd9e6c590d36147a2a96658338c96243b535bff2a61bb20a0ef932ffe12866c1d82dd37f3526622b2d908de6682aa5aa133757168a80a589e68689f7e2db0c4957064a148d87911b4fd0c7a53ee3cc85f98b09c82430108e03a984149421f281b15ccbb8b03b38fdd808e17b3d87ac04f84be7b4d349d5fef01ce3618ce60a465589349d0f3a6a65a6060a72bcf4e238d058ef66e37f007efb74114fadb75b91ab05c255e31bed4db4eca0493ac05e30ccd97fb2251bba8f75782115069f032961936de1f8b8b61784218756775e3b7a58c2c2b1d49eaf643b4b8a532dc14b7b17073ffdf8d7a68b7b52c1dd01951363a8dd25158ca49a489abc196b41323e8466c979c933478bca5e8ef0c7bbdfb00914bdfc2e508f92e0c3ad08b0d4c39b242c222a63261bf9ee07c04587eb7488e2092de8a8e400b2e5333c971f6fdc371c7984f2bd09e2d1ebf044dfbad9024f36801494d51819f79a851328f3bd8a18579dd0a1d58875716a3390fba8c0b02af6847676c5467337331365c477dde935216a8ad6cdf4bca2408035fab3a2db43ed13d3c10149369283ad1c6cf80cbb569cbe8c427ce5aaed912a6a21a0d51caf81888a063be329cb74a40ac0933530be2e048de543c8e28f5b85d98c1c803cd5ffc53a15980df9307ed250d5f6839eec69a914a557b229a3f0c5d1917c906103685fcb2de8e0782d67fbb5a9fc3a9e99495c5fa588f93e5b54e7a5ded9f55b1670031d095a0bd0fee384a7f5d539c3aeb6a3b2fcb59dff0abfc0da0afdf36345f82a7d6bd629274d9991ed0291b60ce09eae8603a72ff6204eb190ba10790b05be027417606751c57a68de165b899180dc6d1359451c2eebf9d212c706878f75dda39e6b8f96347ac5cd36b3e2fad6300d29b5b65b60e47d51b96bc2facbbac95a6bc95bff3e5747f91f8eb549de44e9db4af4ca210102fbab9fa341b2d8ad56ba1650e4d016c56767cad66718fc62cce46670d80a8c25a5d544a21a931bf136d47"
        }
    },
    "fundingTx": "020000000100000000000000000000000000000000000000000000000000000000000000000000000000ffffffff0140420f00000000002200204ba42b50e089764e60e9e0c76c57e41d252d6beb976332f14a7b255bbb5322b800000000",
    "waitingSinceBlock": 400000,
    "deferred": null,
    "lastSent": {
        "left": {
            "temporaryChannelId": "0000000000000000000000000000000000000000000000000000000000000000",
            "fundingTxHash": "2f7c825b61cbbf0e685aef20f8923a8cd28943346e59301b629cc89b4e27cdbd",
            "fundingOutputIndex": 0,
            "signature": "1991b61ae8ef7bf6bd03f6f965552294e7941fce3fc91a024094cbd9b3464dd26068ef64671e59b5825408e58462613a6ad0edfc7aa23853aea36187298c4939"
        },
        "right": null
    }
}