{
    "type": "fr.acinq.lightning.channel.states.Normal",
    "commitments": {
        "params": {
            "channelId": "2f7c825b61cbbf0e685aef20f8923a8cd28943346e59301b629cc89b4e27cdbd",
            "channelConfig": [
                "funding_pubkey_based_channel_keypath"
            ],
            "channelFeatures": [
                "option_support_large_channel",
                "option_static_remotekey",
                "option_anchor_outputs",
                "zero_reserve_channels",
                "zero_conf_channels"
            ],
            "localParams": {
                "nodeId": "037108815ff0128f7ed22640485c226d9ad64a9fd6d8b41b6623565aed6b34812c",
                "fundingKeyPath": "m/385048399/1977025879/604622566/184658546/776346346/949304342'/277944247'/2049339775'/1'",
                "dustLimit": 1100,
                "maxHtlcValueInFlightMsat": 1500000000,
                "htlcMinimum": 0,
                "toSelfDelay": 144,
                "maxAcceptedHtlcs": 100,
                "isChannelOpener": true,
                "paysCommitTxFees": true,
                "defaultFinalScriptPubKey": "001405e0104aa726e34ff5cd3a6320d05c0862b5b01c",
                "features": {
                    "activated": {
                        "initial_routing_sync": "Optional",
                        "option_data_loss_protect": "Optional",
                        "gossip_queries": "Optional",
                        "gossip_queries_ex": "Optional",
                        "var_onion_optin": "Mandatory",
                        "payment_secret": "Mandatory",
                        "basic_mpp": "Optional",
                        "option_support_large_channel": "Optional",
                        "option_static_remotekey": "Mandatory",
                        "option_anchor_outputs": "Mandatory",
                        "option_channel_type": "Mandatory",
                        "option_payment_metadata": "Optional",
                        "trampoline_payment_experimental": "Optional",
                        "wake_up_notification_provider": "Optional",
                        "pay_to_open_provider": "Optional",
                        "trusted_swap_in_provider": "Optional",
                        "channel_backup_provider": "Optional"
                    },
                    "unknown": []
                }
            },
            "remoteParams": {
                "nodeId": "0362b19a83930389b4468be40308efb3f352b23142ae25e6aba0465a8220f95b06",
                "dustLimit": 1000,
                "maxHtlcValueInFlightMsat": 1500000000,
                "htlcMinimum": 1000,
                "toSelfDelay": 144,
                "maxAcceptedHtlcs": 100,
                "revocationBasepoint": "03a42aef6d1c860caffa6c71a6f8ac2b16eec25bab0c3950cdb1fad7fb38a5f2a5",
                "paymentBasepoint": "02508e1845b8bbe0773f6bf8f3f04f59a5896426765c7b6b23e6e466c95381182b",
                "delayedPaymentBasepoint": "02d62233b7c33f8fd0911922461a651007f1de09d8c474029caa8f2c229c10de26",
                "htlcBasepoint": "03d05c8245bdc12efd8b070b22b276e7db4254f4693e22b3f7c978c08e67b36236",
                "features": {
                    "activated": {
                        "option_data_loss_protect": "Optional",
                        "initial_routing_sync": "Optional",
                        "gossip_queries": "Optional",
                        "var_onion_optin": "Mandatory",
                        "gossip_queries_ex": "Optional",
                        "option_static_remotekey": "Mandatory",
                        "payment_secret": "Mandatory",
                        "basic_mpp": "Optional",
                        "option_support_large_channel": "Optional",
                        "option_anchor_outputs": "Mandatory",
                        "option_channel_type": "Mandatory",
                        "option_payment_metadata": "Optional",
                        "wake_up_notification_client": "Optional",
                        "pay_to_open_client": "Optional",
                        "trusted_swap_in_client": "Optional",
                        "channel_backup_client": "Optional",
                        "trampoline_payment_experimental": "Optional"
                    },
                    "unknown": []
                }
            },
            "channelFlags": {
                "announceChannel": false,
                "nonInitiatorPaysCommitFees": false
            }
        },
        "changes": {
            "localChanges": {
                "proposed": [],
                "signed": [],
                "acked": []
            },
            "remoteChanges": {
                "proposed": [],
                "acked": [],
                "signed": [
                    {
                        "type": "fr.acinq.lightning.wire.UpdateAddHtlc",
                        "channelId": "2f7c825b61cbbf0e685aef20f8923a8cd28943346e59301b629cc89b4e27cdbd",
                        "id": 0,
                        "amountMsat": 4640000,
                        "paymentHash": "21cfd1bdff21a6254dd36cfd62e00733b834ec648cb36b59c10ef6172e78389e",
                        "cltvExpiry": 400144,
                        "onionRoutingPacket": "<redacted>"
                    },
                    {
                        "type": "fr.acinq.lightning.wire.UpdateAddHtlc",
                        "channelId": "2f7c825b61cbbf0e685aef20f8923a8cd28943346e59301b629cc89b4e27cdbd",
                        "id": 1,
                        "amountMsat": 4340000,
                        "paymentHash": "6da74844b47a2823a6e64f45f0963e230ca49f179d36bca71c2adca8a83b042a",
                        "cltvExpiry": 400144,
                        "onionRoutingPacket": "<redacted>"
                    }
                ]
            },
            "localNextHtlcId": 2,
            "remoteNextHtlcId": 2
        },
        "active": [
            {
                "fundingTxIndex": 0,
                "remoteFundingPubkey": "0385cfd7d8850e4cb8fcbed57310911218e5d5e1fd34f92ef5d9db14d56418caa4",
                "localFundingStatus": {
                    "status": "unconfirmed",
                    "txId": "bdcd274e9bc89c621b30596e344389d28c3a92f820ef5a680ebfcb615b827c2f"
                },
                "remoteFundingStatus": {
                    "status": "locked"
                },
                "localCommit": {
                    "index": 1,
                    "spec": {
                        "htlcsIn": [
                            {
                                "channelId": "2f7c825b61cbbf0e685aef20f8923a8cd28943346e59301b629cc89b4e27cdbd",
                                "id": 0,
                                "amountMsat": 4640000,
                                "paymentHash": "21cfd1bdff21a6254dd36cfd62e00733b834ec648cb36b59c10ef6172e78389e",
                                "cltvExpiry": 400144,
                                "onionRoutingPacket": "<redacted>"
                            },
                            {
                                "channelId": "2f7c825b61cbbf0e685aef20f8923a8cd28943346e59301b629cc89b4e27cdbd",
                                "id": 1,
                                "amountMsat": 4340000,
                                "paymentHash": "6da74844b47a2823a6e64f45f0963e230ca49f179d36bca71c2adca8a83b042a",
                                "cltvExpiry": 400144,
                                "onionRoutingPacket": "<redacted>"
                            }
                        ],
                        "htlcsOut": [
                            {
                                "channelId": "2f7c825b61cbbf0e685aef20f8923a8cd28943346e59301b629cc89b4e27cdbd",
                                "id": 0,
                                "amountMsat": 4540000,
                                "paymentHash": "954b05bac0091518574fbae7eb52457ff537cb6b88b7ee1f98147dab5a8abc63",
                                "cltvExpiry": 400144,
                                "onionRoutingPacket": "<redacted>"
                            },
                            {
                                "channelId": "2f7c825b61cbbf0e685aef20f8923a8cd28943346e59301b629cc89b4e27cdbd",
                                "id": 1,
                                "amountMsat": 4550000,
                                "paymentHash": "7fbd08c3ac7021f5ca8295d759231b7ce2452face5f11c1d14dbbe7035e36aaa",
                                "cltvExpiry": 400144,
                                "onionRoutingPacket": "<redacted>"
                            }
                        ],
                        "feerate": 5000,
                        "toLocal": 790910000,
                        "toRemote": 191020000
                    },
                    "publishableTxs": {
                        "commitTx": {
                            "input": {
                                "outPoint": "bdcd274e9bc89c621b30596e344389d28c3a92f820ef5a680ebfcb615b827c2f:0",
                                "txOut": {
                                    "amount": 1000000,
                                    "publicKeyScript": "00204ba42b50e089764e60e9e0c76c57e41d252d6beb976332f14a7b255bbb5322b8"
                                },
                                "redeemScript": "522102b6eaf304d966a6df90f3b3df7af7be6b1625854bbc096cb8b3507b2a37c2bf9c210385cfd7d8850e4cb8fcbed57310911218e5d5e1fd34f92ef5d9db14d56418caa452ae"
                            },
                            "tx": "020000000001012f7c825b61cbbf0e685aef20f8923a8cd28943346e59301b629cc89b4e27cdbd000000000000b77080074a0100000000000022002046672803839d10e21d43eafb532bc37cd21bd97dec7f9b50d45380cd1cce69654a01000000000000220020bbd7f17366848d8f624c28438128ce4dc8c72ea21deb0ccf25bee110920da032bc110000000000002200208bf1a46fa0bd7ca44eda0c5df968544c280859a29a527641afac57c27bf7003fc611000000000000220020de61d4f9864b11e111190b9d11f62ebf7476d517a7bba5b0a5b0f80f4e54eb1f20120000000000002200207805c9f22468069984db4db780b44c97593e4fee2c8ee32114f1c9b4a6d70fe42cea020000000000220020cb93e3adb8d213704e9a07ea2a6ce91dca51a9b76fcb6bef3cc9b5b7e10a7990e2ee0b00000000002200206aae960776a0a9f526c5ea6841c28baa16a7ae997313ed417dbc55e38fe1c1730400483045022100da0c7b59463b6a4284147a3b027c48627364bbc2640e212182fcb516124a527302202177fb27546d43967a07e90666a6433f0ceeeff9d464b8ce2ef974aea294271a014830450221008c9af1f2b41e06cb6713f33b488ee65ec8b28db0505ad6d57f25fa10ef89ceb00220688569c56bcc9027b8302cfdd2daa6b1f1a2c537ff5c7b68787ab4b0ad7ecdee0147522102b6eaf304d966a6df90f3b3df7af7be6b1625854bbc096cb8b3507b2a37c2bf9c210385cfd7d8850e4cb8fcbed57310911218e5d5e1fd34f92ef5d9db14d56418caa452aedf99dc20"
                        },
                        "htlcTxsAndSigs": [
                            {
                                "txinfo": {
                                    "type": "fr.acinq.lightning.transactions.Transactions.TransactionWithInputInfo.HtlcTx.HtlcTimeoutTx",
                                    "input": {
                                        "outPoint": "2ba9027cf8e58bb8298b03b361336d6453ebc9c03135afc8741c0871b167d491:2",
                                        "txOut": {
                                            "amount": 4540,
                                            "publicKeyScript": "00208bf1a46fa0bd7ca44eda0c5df968544c280859a29a527641afac57c27bf7003f"
                                        },
                                        "redeemScript": "76a9149166a758c8ce2d9f0c36df15d8624a3c2d0e01b08763ac67210212f485e05882dc6abe5ca535a3880a1c8b2fb10261ba27c56110d926775d73fc7c820120876475527c210202381f64b9573d9410b135c8f3e9ec876233af900152d2e42211a6aa73835ad952ae67a914e3343ec0997580d5b583bb2025e77adaf760c37a88ac6851b27568"
                                    },
                                    "tx": "020000000191d467b171081c74c8af3531c0c9eb53646d3361b3038b29b88be5f87c02a92b02000000000100000001ba040000000000002200206aae960776a0a9f526c5ea6841c28baa16a7ae997313ed417dbc55e38fe1c173101b0600",
                                    "htlcId": 0
                                },
                                "localSig": "24f317d01b079986c85a1fdaaac8d7c9fc069285ef6c00afc68cbdbc39e1fa232ea6e020f29d1401374f24c1e0fda672a747774884a6bfc39a5822da0db9b0f4",
                                "remoteSig": "d9c3afcf4a2f4f55d7250e246160809488c95964ee30daafb70d168b065cdb8a609292b9737f7e327588a5d0d6dc80fc9f14e0659853b0c0fd636979a1fdcb7d"
                            },
                            {
                                "txinfo": {
                                    "type": "fr.acinq.lightning.transactions.Transactions.TransactionWithInputInfo.HtlcTx.HtlcTimeoutTx",
                                    "input": {
                                        "outPoint": "2ba9027cf8e58bb8298b03b361336d6453ebc9c03135afc8741c0871b167d491:3",
                                        "txOut": {
                                            "amount": 4550,
                                            "publicKeyScript": "0020de61d4f9864b11e111190b9d11f62ebf7476d517a7bba5b0a5b0f80f4e54eb1f"
                                        },
                                        "redeemScript": "76a9149166a758c8ce2d9f0c36df15d8624a3c2d0e01b08763ac67210212f485e05882dc6abe5ca535a3880a1c8b2fb10261ba27c56110d926775d73fc7c820120876475527c210202381f64b9573d9410b135c8f3e9ec876233af900152d2e42211a6aa73835ad952ae67a914bf3a02ed662f79cdd5fef9658003fec6a8d8eff288ac6851b27568"
                                    },
                                    "tx": "020000000191d467b171081c74c8af3531c0c9eb53646d3361b3038b29b88be5f87c02a92b03000000000100000001c4040000000000002200206aae960776a0a9f526c5ea6841c28baa16a7ae997313ed417dbc55e38fe1c173101b0600",
                                    "htlcId": 1
                                },
                                "localSig": "779952b88b9f4a4bc16fe15f68444bba160065dce2d79ba7ba42b36b7db061482cc29992803323c676d885c4622de762bf1554951bc2eb9e669208b92f7ae3da",
                                "remoteSig": "a114cdabf6695b1f2e17d01c7c948ea83e0a3d1001ef69d83d5e41eddccf9c7e2500498ab1787039cafec7fa5815d53ffe37c4e94456d1f8b5d03aa0bf56342c"
                            },
                            {
                                "txinfo": {
                                    "type": "fr.acinq.lightning.transactions.Transactions.TransactionWithInputInfo.HtlcTx.HtlcSuccessTx",
                                    "input": {
                                        "outPoint": "2ba9027cf8e58bb8298b03b361336d6453ebc9c03135afc8741c0871b167d491:4",
                                        "txOut": {
                                            "amount": 4640,
                                            "publicKeyScript": "00207805c9f22468069984db4db780b44c97593e4fee2c8ee32114f1c9b4a6d70fe4"
                                        },
                                        "redeemScript": "76a9149166a758c8ce2d9f0c36df15d8624a3c2d0e01b08763ac67210212f485e05882dc6abe5ca535a3880a1c8b2fb10261ba27c56110d926775d73fc7c8201208763a914562c7aee508993870ab9ed39c9ea6d072b5cb78888527c210202381f64b9573d9410b135c8f3e9ec876233af900152d2e42211a6aa73835ad952ae677503101b06b175ac6851b27568"
                                    },
                                    "tx": "020000000191d467b171081c74c8af3531c0c9eb53646d3361b3038b29b88be5f87c02a92b0400000000010000000156040000000000002200206aae960776a0a9f526c5ea6841c28baa16a7ae997313ed417dbc55e38fe1c17300000000",
                                    "paymentHash": "21cfd1bdff21a6254dd36cfd62e00733b834ec648cb36b59c10ef6172e78389e",
                                    "htlcId": 0
                                },
                                "localSig": "d2216ff0af9cbcccaa86e4b11b5a46d8036fcccee8956e5fc92234a9dc9f46a6642f882bb195e04bf7de06b86781c864c1ae976dda2fe13004c9b9bbbfb16fe6",
                                "remoteSig": "9f5d72d734e17f3bb86673b895921de22d04ca5e1e16fabb5cebec97bffa22dc634f8d7170c34e389ba2da99b707ebda7509fbdacdae90edb75b67d82bd8a6c0"
                            }
                        ]
                    }
                },
                "remoteCommit": {
                    "index": 1,
                    "spec": {
                        "htlcsIn": [
                            {
                                "channelId": "2f7c825b61cbbf0e685aef20f8923a8cd28943346e59301b629cc89b4e27cdbd",
                                "id": 0,
                                "amountMsat": 4540000,
                                "paymentHash": "954b05bac0091518574fbae7eb52457ff537cb6b88b7ee1f98147dab5a8abc63",
                                "cltvExpiry": 400144,
                                "onionRoutingPacket": "<redacted>"
                            },
                            {
                                "channelId": "2f7c825b61cbbf0e685aef20f8923a8cd28943346e59301b629cc89b4e27cdbd",
                                "id": 1,
                                "amountMsat": 4550000,
                                "paymentHash": "7fbd08c3ac7021f5ca8295d759231b7ce2452face5f11c1d14dbbe7035e36aaa",
                                "cltvExpiry": 400144,
                                "onionRoutingPacket": "<redacted>"
                            }
                        ],
                        "htlcsOut": [],
                        "feerate": 5000,
                        "toLocal": 200000000,
                        "toRemote": 790910000
                    },
                    "txid": "ab5641cfc9de5225bd6b32206cc83500169ac53c4d1d3d22a94e9a52a75a549e",
                    "remotePerCommitmentPoint": "03c57839fd412868a398bea05d01678a752661126a2d1357a0f7cb6f0c60311125"
                },
                "nextRemoteCommit": {
                    "sig": {
                        "channelId": "2f7c825b61cbbf0e685aef20f8923a8cd28943346e59301b629cc89b4e27cdbd",
                        "signature": "d0dc87687f989fa9d9cb00875bbd7e29cc076219898281c2ad05225abec90f610fd09a46f9e3b6618c26d0159573000bb15cf9e36e99e6a42f9029f55358984b",
                        "htlcSignatures": [
                            "b73f21dececcaf374e766088ac1769a547b96ffa8fb7d8ec885b5c65be7ae1242beee07cbd9f7b2924b6a7ea41ca624209723f981a9624f118a51d639227feaa",
                            "137ed5daa06fc8b58c0f5bd37dbea2e11183082dac805a75f449343f5d21cd8935e99f3f035585622d97cfceaf9e136e8e3596c8e4e7ce2a91f94893c0aa4846",
                            "38e3c64a9188825a0814f574ea237d27373eb499dd9ca575361795e314868eab431d035f74a183d3219eae0a321affaff9ef652bf15539007a8101b8044d9822",
                            "a547db99506cd969cd115cc455362365f784fb4b6e15b8a619ed19b45797a8a92c8e7e03f2503eab4be97c6867abff2615fc897d3f9d5d15d1d88dcd68e38ac6"
                        ]
                    },
                    "commit": {
                        "index": 2,
                        "spec": {
                            "htlcsIn": [
                                {
                                    "channelId": "2f7c825b61cbbf0e685aef20f8923a8cd28943346e59301b629cc89b4e27cdbd",
                                    "id": 0,
                                    "amountMsat": 4540000,
                                    "paymentHash": "954b05bac0091518574fbae7eb52457ff537cb6b88b7ee1f98147dab5a8abc63",
                                    "cltvExpiry": 400144,
                                    "onionRoutingPacket": "<redacted>"
                                },
                                {
                                    "channelId": "2f7c825b61cbbf0e685aef20f8923a8cd28943346e59301b629cc89b4e27cdbd",
                                    "id": 1,
                                    "amountMsat": 4550000,
                                    "paymentHash": "7fbd08c3ac7021f5ca8295d759231b7ce2452face5f11c1d14dbbe7035e36aaa",
                                    "cltvExpiry": 400144,
                                    "onionRoutingPacket": "<redacted>"
                                }
                            ],
                            "htlcsOut": [
                                {
                                    "channelId": "2f7c825b61cbbf0e685aef20f8923a8cd28943346e59301b629cc89b4e27cdbd",
                                    "id": 0,
                                    "amountMsat": 4640000,
                                    "paymentHash": "21cfd1bdff21a6254dd36cfd62e00733b834ec648cb36b59c10ef6172e78389e",
                                    "cltvExpiry": 400144,
                                    "onionRoutingPacket": "<redacted>"
                                },
                                {
                                    "channelId": "2f7c825b61cbbf0e685aef20f8923a8cd28943346e59301b629cc89b4e27cdbd",
                                    "id": 1,
                                    "amountMsat": 4340000,
                                    "paymentHash": "6da74844b47a2823a6e64f45f0963e230ca49f179d36bca71c2adca8a83b042a",
                                    "cltvExpiry": 400144,
                                    "onionRoutingPacket": "<redacted>"
                                }
                            ],
                            "feerate": 5000,
                            "toLocal": 191020000,
                            "toRemote": 790910000
                        },
                        "txid": "70a92b624690358d74df2d65c94d784f896a18648288dd1b10c54a9fc6c0401d",
                        "remotePerCommitmentPoint": "026c604452e1a154575f1fd5966389c2c686c0b4b72370da0b33764c66b5a8f40e"
                    }
                }
            }
        ],
        "inactive": [],
        "payments": {
            "0": "7e780474-04b9-41db-94b9-7ef99349408f",
            "1": "683c4687-c4b7-4cb1-ac82-6808f57f4409"
        },
        "remoteNextCommitInfo": {
            "left": {
                "sentAfterLocalCommitIndex": 1
            },
            "right": null
        },
        "remotePerCommitmentSecrets": "<redacted>"
    },
    "shortChannelId": "400144x1x0",
    "channelUpdate": {
        "signature": "a9298da448ca22abf5d5726473b8217eb0d5ed2f4ce49710f6c317a9740c820d35025dbfa477865fefa84a3a45b7d755f813ff45ea3fbc26e7aaf8224946a6c0",
        "chainHash": "06226e46111a0b59caaf126043eb5bbf28c34f3a5e332a1fc7b2b73cf188910f",
        "shortChannelId": "400144x1x0",
        "timestampSeconds": 1666878681,
        "messageFlags": 1,
        "channelFlags": 1,
        "cltvExpiryDelta": 144,
        "htlcMinimumMsat": 1000,
        "feeBaseMsat": 100,
        "feeProportionalMillionths": 10,
        "htlcMaximumMsat": 1000000000
    },
    "remoteChannelUpdate": null,
    "spliceStatus": "None",
    "localShutdown": null,
    "remoteShutdown": null,
    "closeCommand": null
}