{
    "type": "fr.acinq.lightning.channel.states.Closing",
    "commitments": {
        "params": {
            "channelId": "2f7c825b61cbbf0e685aef20f8923a8cd28943346e59301b629cc89b4e27cdbd",
            "channelConfig": [
                "funding_pubkey_based_channel_keypath"
            ],
            "channelFeatures": [
                "option_support_large_channel",
                "option_static_remotekey",
                "option_anchor_outputs",
                "zero_reserve_channels",
                "zero_conf_channels"
            ],
            "localParams": {
                "nodeId": "037108815ff0128f7ed22640485c226d9ad64a9fd6d8b41b6623565aed6b34812c",
                "fundingKeyPath": "m/385048399/1977025879/604622566/184658546/776346346/949304342'/277944247'/2049339775'/1'",
                "dustLimit": 1100,
                "maxHtlcValueInFlightMsat": 1500000000,
                "htlcMinimum": 0,
                "toSelfDelay": 144,
                "maxAcceptedHtlcs": 100,
                "isChannelOpener": true,
                "paysCommitTxFees": true,
                "defaultFinalScriptPubKey": "001405e0104aa726e34ff5cd3a6320d05c0862b5b01c",
                "features": {
                    "activated": {
                        "initial_routing_sync": "Optional",
                        "option_data_loss_protect": "Optional",
                        "gossip_queries": "Optional",
                        "gossip_queries_ex": "Optional",
                        "var_onion_optin": "Mandatory",
                        "payment_secret": "Mandatory",
                        "basic_mpp": "Optional",
                        "option_support_large_channel": "Optional",
                        "option_static_remotekey": "Mandatory",
                        "option_anchor_outputs": "Mandatory",
                        "option_channel_type": "Mandatory",
                        "option_payment_metadata": "Optional",
                        "trampoline_payment_experimental": "Optional",
                        "wake_up_notification_provider": "Optional",
                        "pay_to_open_provider": "Optional",
                        "trusted_swap_in_provider": "Optional",
                        "channel_backup_provider": "Optional"
                    },
                    "unknown": []
                }
            },
            "remoteParams": {
                "nodeId": "0362b19a83930389b4468be40308efb3f352b23142ae25e6aba0465a8220f95b06",
                "dustLimit": 1000,
                "maxHtlcValueInFlightMsat": 1500000000,
                "htlcMinimum": 1000,
                "toSelfDelay": 144,
                "maxAcceptedHtlcs": 100,
                "revocationBasepoint": "03a42aef6d1c860caffa6c71a6f8ac2b16eec25bab0c3950cdb1fad7fb38a5f2a5",
                "paymentBasepoint": "02508e1845b8bbe0773f6bf8f3f04f59a5896426765c7b6b23e6e466c95381182b",
                "delayedPaymentBasepoint": "02d62233b7c33f8fd0911922461a651007f1de09d8c474029caa8f2c229c10de26",
                "htlcBasepoint": "03d05c8245bdc12efd8b070b22b276e7db4254f4693e22b3f7c978c08e67b36236",
                "features": {
                    "activated": {
                        "option_data_loss_protect": "Optional",
                        "initial_routing_sync": "Optional",
                        "gossip_queries": "Optional",
                        "var_onion_optin": "Mandatory",
                        "gossip_queries_ex": "Optional",
                        "option_static_remotekey": "Mandatory",
                        "payment_secret": "Mandatory",
                        "basic_mpp": "Optional",
                        "option_support_large_channel": "Optional",
                        "option_anchor_outputs": "Mandatory",
                        "option_channel_type": "Mandatory",
                        "option_payment_metadata": "Optional",
                        "wake_up_notification_client": "Optional",
                        "pay_to_open_client": "Optional",
                        "trusted_swap_in_client": "Optional",
                        "channel_backup_client": "Optional",
                        "trampoline_payment_experimental": "Optional"
                    },
                    "unknown": []
                }
            },
            "channelFlags": {
                "announceChannel": false,
                "nonInitiatorPaysCommitFees": false
            }
        },
        "changes": {
            "localChanges": {
                "proposed": [
                    {
                        "type": "fr.acinq.lightning.wire.UpdateFulfillHtlc",
                        "channelId": "2f7c825b61cbbf0e685aef20f8923a8cd28943346e59301b629cc89b4e27cdbd",
                        "id": 0,
                        "paymentPreimage": "0a0b4fd37634872e99533be8219b7b69fad29b55f562427c198841fe448a3fa4"
                    },
                    {
                        "type": "fr.acinq.lightning.wire.UpdateFulfillHtlc",
                        "channelId": "2f7c825b61cbbf0e685aef20f8923a8cd28943346e59301b629cc89b4e27cdbd",
                        "id": 1,
                        "paymentPreimage": "c2e300bc51b0df81a16d4271a1bb291f5e46a52001de84d20dbe60572bfcbbab"
                    }
                ],
                "signed": [
                    {
                        "type": "fr.acinq.lightning.wire.UpdateAddHtlc",
                        "channelId": "2f7c825b61cbbf0e685aef20f8923a8cd28943346e59301b629cc89b4e27cdbd",
                        "id": 2,
                        "amountMsat": 20000000,
                        "paymentHash": "fd25b31fd47f9633be82bf51dacf048b9592b42ed1ffb3c9c2ddd37351697413",
                        "cltvExpiry": 400144,
                        "onionRoutingPacket": "<redacted>"
                    }
                ],
                "acked": []
            },
            "remoteChanges": {
                "proposed": [],
                "acked": [],
                "signed": []
            },
            "localNextHtlcId": 3,
            "remoteNextHtlcId": 2
        },
        "active": [
            {
                "fundingTxIndex": 0,
                "remoteFundingPubkey": "0385cfd7d8850e4cb8fcbed57310911218e5d5e1fd34f92ef5d9db14d56418caa4",
                "localFundingStatus": {
                    "status": "unconfirmed",
                    "txId": "bdcd274e9bc89c621b30596e344389d28c3a92f820ef5a680ebfcb615b827c2f"
                },
                "remoteFundingStatus": {
                    "status": "locked"
                },
                "localCommit": {
                    "index": 1,
                    "spec": {
                        "htlcsIn": [
                            {
                                "channelId": "2f7c825b61cbbf0e685aef20f8923a8cd28943346e59301b629cc89b4e27cdbd",
                                "id": 0,
                                "amountMsat": 10000000,
                                "paymentHash": "d28cb22a6271c5710811d244e75a0d1ab476dc35db269a6c9d1d8da364224d47",
                                "cltvExpiry": 400144,
                                "onionRoutingPacket": "<redacted>"
                            },
                            {
                                "channelId": "2f7c825b61cbbf0e685aef20f8923a8cd28943346e59301b629cc89b4e27cdbd",
                                "id": 1,
                                "amountMsat": 12000000,
                                "paymentHash": "a70d3a78c0aebb9a797a3be74f45f8a092c2a15c01a45b482f61b2ae560d0e6f",
                                "cltvExpiry": 400144,
                                "onionRoutingPacket": "<redacted>"
                            }
                        ],
                        "htlcsOut": [
                            {
                                "channelId": "2f7c825b61cbbf0e685aef20f8923a8cd28943346e59301b629cc89b4e27cdbd",
                                "id": 0,
                                "amountMsat": 20000000,
                                "paymentHash": "a7eefe6395b2fef677cdc493f4a6a21d57c0fc0bf96250c327d5b92f32d9b2d2",
                                "cltvExpiry": 400144,
                                "onionRoutingPacket": "<redacted>"
                            },
                            {
                                "channelId": "2f7c825b61cbbf0e685aef20f8923a8cd28943346e59301b629cc89b4e27cdbd",
                                "id": 1,
                                "amountMsat": 15000000,
                                "paymentHash": "69414f76b2028ea1577739f22315fdbe7e55cde1d5290879c11180a4129c95ab",
                                "cltvExpiry": 400144,
                                "onionRoutingPacket": "<redacted>"
                            }
                        ],
                        "feerate": 5000,
                        "toLocal": 765000000,
                        "toRemote": 178000000
                    },
                    "publishableTxs": {
                        "commitTx": {
                            "input": {
                                "outPoint": "bdcd274e9bc89c621b30596e344389d28c3a92f820ef5a680ebfcb615b827c2f:0",
                                "txOut": {
                                    "amount": 1000000,
                                    "publicKeyScript": "00204ba42b50e089764e60e9e0c76c57e41d252d6beb976332f14a7b255bbb5322b8"
                                },
                                "redeemScript": "522102b6eaf304d966a6df90f3b3df7af7be6b1625854bbc096cb8b3507b2a37c2bf9c210385cfd7d8850e4cb8fcbed57310911218e5d5e1fd34f92ef5d9db14d56418caa452ae"
                            },
                            "tx": "020000000001012f7c825b61cbbf0e685aef20f8923a8cd28943346e59301b629cc89b4e27cdbd000000000000b77080084a0100000000000022002046672803839d10e21d43eafb532bc37cd21bd97dec7f9b50d45380cd1cce69654a01000000000000220020bbd7f17366848d8f624c28438128ce4dc8c72ea21deb0ccf25bee110920da0321027000000000000220020dcb30d6a2f2d4b21e5b65464e8254696ac36e858a51001f7b201cc8b5f9fd053e02e0000000000002200206f05b50d227c1925ee599a7b9e0542268b0eab9c09b44f4abd0a04cd8429ec54983a000000000000220020459e3a42f3cb4ee61f1bc037be0a0678a13ba76f81bcf8cb3c73405f29912fab204e0000000000002200200a26b988cc1f9a5e2be56a122b9409031c24ebb5aaacf58d84f9f8cb97d3291050b7020000000000220020cb93e3adb8d213704e9a07ea2a6ce91dca51a9b76fcb6bef3cc9b5b7e10a799050860b00000000002200206aae960776a0a9f526c5ea6841c28baa16a7ae997313ed417dbc55e38fe1c1730400483045022100cd5fde20faa1d444078842ae26b3b18e49d96204484963cb94e1b88aa720364d02202c33211d63ab514cdefae2683503790741a5cb0939be9a8252e41bb34dff36f701483045022100c25c87388e91e411355e9059292e858928b03c331fa6f8420a90cc8482237d5802207d6764430cc881811b8b5d48d6c3e64906458ee09ce55c61af58dfa57e598c400147522102b6eaf304d966a6df90f3b3df7af7be6b1625854bbc096cb8b3507b2a37c2bf9c210385cfd7d8850e4cb8fcbed57310911218e5d5e1fd34f92ef5d9db14d56418caa452aedf99dc20"
                        },
                        "htlcTxsAndSigs": [
                            {
                                "txinfo": {
                                    "type": "fr.acinq.lightning.transactions.Transactions.TransactionWithInputInfo.HtlcTx.HtlcSuccessTx",
                                    "input": {
                                        "outPoint": "5def32053e7f13610e4f8ada9cbfd6212f2aeb6d44cf85098586d9e1a7a8ef2d:2",
                                        "txOut": {
                                            "amount": 10000,
                                            "publicKeyScript": "0020dcb30d6a2f2d4b21e5b65464e8254696ac36e858a51001f7b201cc8b5f9fd053"
                                        },
                                        "redeemScript": "76a9149166a758c8ce2d9f0c36df15d8624a3c2d0e01b08763ac67210212f485e05882dc6abe5ca535a3880a1c8b2fb10261ba27c56110d926775d73fc7c8201208763a9143eaae3985730c9fa1e2c7a9973fa6c2dde566e2588527c210202381f64b9573d9410b135c8f3e9ec876233af900152d2e42211a6aa73835ad952ae677503101b06b175ac6851b27568"
                                    },
                                    "tx": "02000000012defa8a7e1d986850985cf446deb2a2f21d6bf9cda8a4f0e61137f3e0532ef5d0200000000010000000146190000000000002200206aae960776a0a9f526c5ea6841c28baa16a7ae997313ed417dbc55e38fe1c17300000000",
                                    "paymentHash": "d28cb22a6271c5710811d244e75a0d1ab476dc35db269a6c9d1d8da364224d47",
                                    "htlcId": 0
                                },
                                "localSig": "2bfdc6c19d76f92c8ed4dd7342b67b395ce60c3b8860e19cbefcabc61d1e18d8243cc251c1f1372cbdcbfb7c1aa3a8112500685e8eb5fbd7f23787e9771c2761",
                                "remoteSig": "771ab44a415de64e1ed488009d4d595ca38a2351510111795ec8bb868a7d128467432d124feea54f9028534ae6adc7c004df25162f3a92c50c981595241b3abc"
                            },
                            {
                                "txinfo": {
                                    "type": "fr.acinq.lightning.transactions.Transactions.TransactionWithInputInfo.HtlcTx.HtlcSuccessTx",
                                    "input": {
                                        "outPoint": "5def32053e7f13610e4f8ada9cbfd6212f2aeb6d44cf85098586d9e1a7a8ef2d:3",
                                        "txOut": {
                                            "amount": 12000,
                                            "publicKeyScript": "00206f05b50d227c1925ee599a7b9e0542268b0eab9c09b44f4abd0a04cd8429ec54"
                                        },
                                        "redeemScript": "76a9149166a758c8ce2d9f0c36df15d8624a3c2d0e01b08763ac67210212f485e05882dc6abe5ca535a3880a1c8b2fb10261ba27c56110d926775d73fc7c8201208763a9145e40a45bfc495659019ffa2aeb7bf19ad857bb4988527c210202381f64b9573d9410b135c8f3e9ec876233af900152d2e42211a6aa73835ad952ae677503101b06b175ac6851b27568"
                                    },
                                    "tx": "02000000012defa8a7e1d986850985cf446deb2a2f21d6bf9cda8a4f0e61137f3e0532ef5d0300000000010000000116210000000000002200206aae960776a0a9f526c5ea6841c28baa16a7ae997313ed417dbc55e38fe1c17300000000",
                                    "paymentHash": "a70d3a78c0aebb9a797a3be74f45f8a092c2a15c01a45b482f61b2ae560d0e6f",
                                    "htlcId": 1
                                },
                                "localSig": "1db6634af7b83589a82f042d7844c92427918fc14f5a07fd481cb5e7627494563edfa79579a297feda39d0c1dadf1e5474a8ed6dab3b09cd24d7e1bdce6fbfac",
                                "remoteSig": "fc468edafeb689124f65503d2a5342174bc3e353c4660ac4c2a6db739a0d9aa964b6654b2e7e3bc1636862ae0711d1382009634dc597cba8f80de891bf8c8976"
                            },
                            {
                                "txinfo": {
                                    "type": "fr.acinq.lightning.transactions.Transactions.TransactionWithInputInfo.HtlcTx.HtlcTimeoutTx",
                                    "input": {
                                        "outPoint": "5def32053e7f13610e4f8ada9cbfd6212f2aeb6d44cf85098586d9e1a7a8ef2d:4",
                                        "txOut": {
                                            "amount": 15000,
                                            "publicKeyScript": "0020459e3a42f3cb4ee61f1bc037be0a0678a13ba76f81bcf8cb3c73405f29912fab"
                                        },
                                        "redeemScript": "76a9149166a758c8ce2d9f0c36df15d8624a3c2d0e01b08763ac67210212f485e05882dc6abe5ca535a3880a1c8b2fb10261ba27c56110d926775d73fc7c820120876475527c210202381f64b9573d9410b135c8f3e9ec876233af900152d2e42211a6aa73835ad952ae67a9149c58316bb601fd2f51936625aff0a885dd097f6088ac6851b27568"
                                    },
                                    "tx": "02000000012defa8a7e1d986850985cf446deb2a2f21d6bf9cda8a4f0e61137f3e0532ef5d04000000000100000001962d0000000000002200206aae960776a0a9f526c5ea6841c28baa16a7ae997313ed417dbc55e38fe1c173101b0600",
                                    "htlcId": 1
                                },
                                "localSig": "b67d1331000323ad99608f63bda251954d6e9db835de6b35cb1986692bca8d853218ef903983c7b715bb6782c9e970088942461acf0d9fa88f52e27966225604",
                                "remoteSig": "08b9fe1bb40e54da35e2f3db2dfd177b4b17ce43a17fc2500b97ed6237bdaa45371000da3cd262057d7e604221ed01c94107933f31c168c21056994faebb57e7"
                            },
                            {
                                "txinfo": {
                                    "type": "fr.acinq.lightning.transactions.Transactions.TransactionWithInputInfo.HtlcTx.HtlcTimeoutTx",
                                    "input": {
                                        "outPoint": "5def32053e7f13610e4f8ada9cbfd6212f2aeb6d44cf85098586d9e1a7a8ef2d:5",
                                        "txOut": {
                                            "amount": 20000,
                                            "publicKeyScript": "00200a26b988cc1f9a5e2be56a122b9409031c24ebb5aaacf58d84f9f8cb97d32910"
                                        },
                                        "redeemScript": "76a9149166a758c8ce2d9f0c36df15d8624a3c2d0e01b08763ac67210212f485e05882dc6abe5ca535a3880a1c8b2fb10261ba27c56110d926775d73fc7c820120876475527c210202381f64b9573d9410b135c8f3e9ec876233af900152d2e42211a6aa73835ad952ae67a91406e01cab66017410c68d1dcb19e9ba6be598d48788ac6851b27568"
                                    },
                                    "tx": "02000000012defa8a7e1d986850985cf446deb2a2f21d6bf9cda8a4f0e61137f3e0532ef5d050000000001000000011e410000000000002200206aae960776a0a9f526c5ea6841c28baa16a7ae997313ed417dbc55e38fe1c173101b0600",
                                    "htlcId": 0
                                },
                                "localSig": "6a37e38305a929a5348626ab6e770e84e84b8ecd15252b0902850fc30882d81a0577b451be8a02637a03b7fe1fc5f581a547628d4672ccd235feaced0a2ff395",
                                "remoteSig": "84050fd4025857a84b82b2f1dc8e9f8ba7f67bd8933409c33fe1869f5c821b6d07b962b5c72050d1c70108550aebee20c427fd6cd924ae85a7d069ec612e06fa"
                            }
                        ]
                    }
                },
                "remoteCommit": {
                    "index": 2,
                    "spec": {
                        "htlcsIn": [
                            {
                                "channelId": "2f7c825b61cbbf0e685aef20f8923a8cd28943346e59301b629cc89b4e27cdbd",
                                "id": 0,
                                "amountMsat": 20000000,
                                "paymentHash": "a7eefe6395b2fef677cdc493f4a6a21d57c0fc0bf96250c327d5b92f32d9b2d2",
                                "cltvExpiry": 400144,
                                "onionRoutingPacket": "<redacted>"
                            },
                            {
                                "channelId": "2f7c825b61cbbf0e685aef20f8923a8cd28943346e59301b629cc89b4e27cdbd",
                                "id": 1,
                                "amountMsat": 15000000,
                                "paymentHash": "69414f76b2028ea1577739f22315fdbe7e55cde1d5290879c11180a4129c95ab",
                                "cltvExpiry": 400144,
                                "onionRoutingPacket": "<redacted>"
                            }
                        ],
                        "htlcsOut": [
                            {
                                "channelId": "2f7c825b61cbbf0e685aef20f8923a8cd28943346e59301b629cc89b4e27cdbd",
                                "id": 0,
                                "amountMsat": 10000000,
                                "paymentHash": "d28cb22a6271c5710811d244e75a0d1ab476dc35db269a6c9d1d8da364224d47",
                                "cltvExpiry": 400144,
                                "onionRoutingPacket": "<redacted>"
                            },
                            {
                                "channelId": "2f7c825b61cbbf0e685aef20f8923a8cd28943346e59301b629cc89b4e27cdbd",
                                "id": 1,
                                "amountMsat": 12000000,
                                "paymentHash": "a70d3a78c0aebb9a797a3be74f45f8a092c2a15c01a45b482f61b2ae560d0e6f",
                                "cltvExpiry": 400144,
                                "onionRoutingPacket": "<redacted>"
                            }
                        ],
                        "feerate": 5000,
                        "toLocal": 178000000,
                        "toRemote": 765000000
                    },
                    "txid": "22753caa57b8ea006edfce1f75ed9be27612ee63ae3e50785ea12fab69263611",
                    "remotePerCommitmentPoint": "026c604452e1a154575f1fd5966389c2c686c0b4b72370da0b33764c66b5a8f40e"
                },
                "nextRemoteCommit": {
                    "sig": {
                        "channelId": "2f7c825b61cbbf0e685aef20f8923a8cd28943346e59301b629cc89b4e27cdbd",
                        "signature": "84ef9f5b45f000d2f7c87e40544c65ec97fcef4abc29046bbeeecc97ab28cce36d464c8bbea53b0e640c64d796c4c0d73f6bb8f3cfed13d5126c0e29035c71bf",
                        "htlcSignatures": [
                            "0337cc94c39b6749a5a21f629ed3b78373e4859cd4bcc48ec71ffdabb37049a403a333590962cecf60086d59eb9cf88fb0b46636377d27b834cee867dea40e9d",
                            "7be9546168fdc1e6440491cf4086b0642badcea85f5144fa5156c526ec723bcb4791fbfcae5cb3d12ffa30f641046fe7411688d577da18a11a0a938ede92556e",
                            "a81f03e68e8934681867f19e02a5af39bc05af7a32f38a4fa4ccb8d3e018d0e54995b229bad4cda7ec1592047fc9b1c2e6acc2b48628961c89c3a50854f584ad",
                            "2762983e8939f33273c2bdcaac4d9437a9f8f748140b0a0c30ffd6fadf216f5c4f4d9531b1bc5e27b4ee6937465067c86c91b3cdf75a14b10556d84577e1c6f6",
                            "b88daf0ff21e84739d7842fd4b2c645f63dcfa41bf75d967e906730404aa02ea49de08ab115779c2959a5169fac6038e77b79f92ff843ffaa7c5fac38fc49ee9"
                        ]
                    },
                    "commit": {
                        "index": 3,
                        "spec": {
                            "htlcsIn": [
                                {
                                    "channelId": "2f7c825b61cbbf0e685aef20f8923a8cd28943346e59301b629cc89b4e27cdbd",
                                    "id": 0,
                                    "amountMsat": 20000000,
                                    "paymentHash": "a7eefe6395b2fef677cdc493f4a6a21d57c0fc0bf96250c327d5b92f32d9b2d2",
                                    "cltvExpiry": 400144,
                                    "onionRoutingPacket": "<redacted>"
                                },
                                {
                                    "channelId": "2f7c825b61cbbf0e685aef20f8923a8cd28943346e59301b629cc89b4e27cdbd",
                                    "id": 1,
                                    "amountMsat": 15000000,
                                    "paymentHash": "69414f76b2028ea1577739f22315fdbe7e55cde1d5290879c11180a4129c95ab",
                                    "cltvExpiry": 400144,
                                    "onionRoutingPacket": "<redacted>"
                                },
                                {
                                    "channelId": "2f7c825b61cbbf0e685aef20f8923a8cd28943346e59301b629cc89b4e27cdbd",
                                    "id": 2,
                                    "amountMsat": 20000000,
                                    "paymentHash": "fd25b31fd47f9633be82bf51dacf048b9592b42ed1ffb3c9c2ddd37351697413",
                                    "cltvExpiry": 400144,
                                    "onionRoutingPacket": "<redacted>"
                                }
                            ],
                            "htlcsOut": [
                                {
                                    "channelId": "2f7c825b61cbbf0e685aef20f8923a8cd28943346e59301b629cc89b4e27cdbd",
                                    "id": 0,
                                    "amountMsat": 10000000,
                                    "paymentHash": "d28cb22a6271c5710811d244e75a0d1ab476dc35db269a6c9d1d8da364224d47",
                                    "cltvExpiry": 400144,
                                    "onionRoutingPacket": "<redacted>"
                                },
                                {
                                    "channelId": "2f7c825b61cbbf0e685aef20f8923a8cd28943346e59301b629cc89b4e27cdbd",
                                    "id": 1,
                                    "amountMsat": 12000000,
                                    "paymentHash": "a70d3a78c0aebb9a797a3be74f45f8a092c2a15c01a45b482f61b2ae560d0e6f",
                                    "cltvExpiry": 400144,
                                    "onionRoutingPacket": "<redacted>"
                                }
                            ],
                            "feerate": 5000,
                            "toLocal": 178000000,
                            "toRemote": 745000000
                        },
                        "txid": "9269a688c278f4d86b79a545287703dd31e28f2099ad99f54a38f2292f8cc82c",
                        "remotePerCommitmentPoint": "0312a332a6afe99e14c9dc4ab0512448441be3c4c369be8b7d37c5086682b33799"
                    }
                }
            }
        ],
        "inactive": [],
        "payments": {
            "0": "d6ad5565-c4cb-454a-a05f-398ed8d8127b",
            "1": "cb0ca39b-c603-4952-a45b-70f119c594c3",
            "2": "3a7ed472-a671-4ee4-9659-47818a48b3e3"
        },
        "remoteNextCommitInfo": {
            "left": {
                "sentAfterLocalCommitIndex": 1
            },
            "right": null
        },
        "remotePerCommitmentSecrets": "<redacted>"
    },
    "waitingSinceBlock": 400000,
    "nextRemoteCommitPublished": {
        "commitTx": "020000000001012f7c825b61cbbf0e685aef20f8923a8cd28943346e59301b629cc89b4e27cdbd000000000000b77080094a0100000000000022002046672803839d10e21d43eafb532bc37cd21bd97dec7f9b50d45380cd1cce69654a01000000000000220020bbd7f17366848d8f624c28438128ce4dc8c72ea21deb0ccf25bee110920da032102700000000000022002035aa4e20460bedda8259e3e8177fa8411ccf6b5bd97495e8b24be8a926f41f04e02e000000000000220020b7432d935669b861b9e52afa2d907114a16a8f59183f9c9deca804564102a28c983a000000000000220020e73823f9a60b72c99746e99ddb4497d8a7413f40f0f82b51b28b4988208e0bbc204e00000000000022002046d508b9c29eeebaf3644440c7b7ca5eb51ee3e8017527b6c38c99f324d206fc204e0000000000002200204a034388d897e59aff4a04944803ed4248a6ce7c65d868f4b4318022be79e2c050b70200000000002200208c57ba9667b49d1f0fca9594b3f034b4df9269218a3725fe5995ae844f5c4fabd4340b0000000000220020958bb43c9e6d1b985001c2f4dc38d286d7fde78bb04d7ec5a5ae44d8ebf0c40c040048304502210084ef9f5b45f000d2f7c87e40544c65ec97fcef4abc29046bbeeecc97ab28cce302206d464c8bbea53b0e640c64d796c4c0d73f6bb8f3cfed13d5126c0e29035c71bf0147304402207319270dd7bcc7141dae5b2221e74800adc377a38cb4ac2754dd1c5e568d84f902202e2cc92a2fd5775789cb4b4868466316b4235378d79c987231de0e35ab1d794e0147522102b6eaf304d966a6df90f3b3df7af7be6b1625854bbc096cb8b3507b2a37c2bf9c210385cfd7d8850e4cb8fcbed57310911218e5d5e1fd34f92ef5d9db14d56418caa452aedd99dc20",
        "claimMainOutputTx": {
            "type": "fr.acinq.lightning.transactions.Transactions.TransactionWithInputInfo.ClaimRemoteCommitMainOutputTx.ClaimRemoteDelayedOutputTx",
            "input": {
                "outPoint": "9269a688c278f4d86b79a545287703dd31e28f2099ad99f54a38f2292f8cc82c:8",
                "txOut": {
                    "amount": 734420,
                    "publicKeyScript": "0020958bb43c9e6d1b985001c2f4dc38d286d7fde78bb04d7ec5a5ae44d8ebf0c40c"
                },
                "redeemScript": "210368434fc548cb471f7ed8c94638433bfb07cceb97665c411450fdc23c60236409ad51b2"
            },
            "tx": "020000000001012cc88c2f29f2384af599ad99208fe231dd03772845a5796bd8f478c288a669920800000000010000000190230b000000000016001405e0104aa726e34ff5cd3a6320d05c0862b5b01c02483045022100f439377db1480ff124f91aeba0b60e733de570aa72b32f7a6de4446a8cfa74230220666ef424d2c96fa10e0cef8003d79c4c6bc9aba6b9ce14774a56c2b150d315280125210368434fc548cb471f7ed8c94638433bfb07cceb97665c411450fdc23c60236409ad51b200000000"
        },
        "claimHtlcTxs": {
            "9269a688c278f4d86b79a545287703dd31e28f2099ad99f54a38f2292f8cc82c:5": {
                "type": "fr.acinq.lightning.transactions.Transactions.TransactionWithInputInfo.ClaimHtlcTx.ClaimHtlcTimeoutTx",
                "input": {
                    "outPoint": "9269a688c278f4d86b79a545287703dd31e28f2099ad99f54a38f2292f8cc82c:5",
                    "txOut": {
                        "amount": 20000,
                        "publicKeyScript": "002046d508b9c29eeebaf3644440c7b7ca5eb51ee3e8017527b6c38c99f324d206fc"
                    },
                    "redeemScript": "76a914345461a3a21432ea61f48bea4412057dc24b272a8763ac6721031dc1f1516d613673de288ff136eac49e8fa290d2a90d624b185e5cea77c34a247c8201208763a91406e01cab66017410c68d1dcb19e9ba6be598d48788527c2102de3a59784d9da6e7609e2059372f4f8500f4a76f4d479b38c0b0ab02064e39a952ae677503101b06b175ac6851b27568"
                },
                "tx": "020000000001012cc88c2f29f2384af599ad99208fe231dd03772845a5796bd8f478c288a6699205000000000100000001b83800000000000016001405e0104aa726e34ff5cd3a6320d05c0862b5b01c03473044022008bde06cf61f275fd694e276f88330bf9cf3a698668b92decfde18fd38a6b8e702207d76b7a69beb3f1db60d755cc0b0c972c82163d0761a84d6027953504c01ad7c01008e76a914345461a3a21432ea61f48bea4412057dc24b272a8763ac6721031dc1f1516d613673de288ff136eac49e8fa290d2a90d624b185e5cea77c34a247c8201208763a91406e01cab66017410c68d1dcb19e9ba6be598d48788527c2102de3a59784d9da6e7609e2059372f4f8500f4a76f4d479b38c0b0ab02064e39a952ae677503101b06b175ac6851b27568101b0600",
                "htlcId": 0
            },
            "9269a688c278f4d86b79a545287703dd31e28f2099ad99f54a38f2292f8cc82c:4": {
                "type": "fr.acinq.lightning.transactions.Transactions.TransactionWithInputInfo.ClaimHtlcTx.ClaimHtlcTimeoutTx",
                "input": {
                    "outPoint": "9269a688c278f4d86b79a545287703dd31e28f2099ad99f54a38f2292f8cc82c:4",
                    "txOut": {
                        "amount": 15000,
                        "publicKeyScript": "0020e73823f9a60b72c99746e99ddb4497d8a7413f40f0f82b51b28b4988208e0bbc"
                    },
                    "redeemScript": "76a914345461a3a21432ea61f48bea4412057dc24b272a8763ac6721031dc1f1516d613673de288ff136eac49e8fa290d2a90d624b185e5cea77c34a247c8201208763a9149c58316bb601fd2f51936625aff0a885dd097f6088527c2102de3a59784d9da6e7609e2059372f4f8500f4a76f4d479b38c0b0ab02064e39a952ae677503101b06b175ac6851b27568"
                },
                "tx": "020000000001012cc88c2f29f2384af599ad99208fe231dd03772845a5796bd8f478c288a6699204000000000100000001302500000000000016001405e0104aa726e34ff5cd3a6320d05c0862b5b01c0347304402200f3081e0e90f220107b802f8dfde0c048425311d536fcd8bddadfc7fc5faf08e02200899bd1a3998148e0f65b3febf1e75978df2677fd2746530b544efdfec6528b401008e76a914345461a3a21432ea61f48bea4412057dc24b272a8763ac6721031dc1f1516d613673de288ff136eac49e8fa290d2a90d624b185e5cea77c34a247c8201208763a9149c58316bb601fd2f51936625aff0a885dd097f6088527c2102de3a59784d9da6e7609e2059372f4f8500f4a76f4d479b38c0b0ab02064e39a952ae677503101b06b175ac6851b27568101b0600",
                "htlcId": 1
            },
            "9269a688c278f4d86b79a545287703dd31e28f2099ad99f54a38f2292f8cc82c:2": {
                "type": "fr.acinq.lightning.transactions.Transactions.TransactionWithInputInfo.ClaimHtlcTx.ClaimHtlcSuccessTx",
                "input": {
                    "outPoint": "9269a688c278f4d86b79a545287703dd31e28f2099ad99f54a38f2292f8cc82c:2",
                    "txOut": {
                        "amount": 10000,
                        "publicKeyScript": "002035aa4e20460bedda8259e3e8177fa8411ccf6b5bd97495e8b24be8a926f41f04"
                    },
                    "redeemScript": "76a914345461a3a21432ea61f48bea4412057dc24b272a8763ac6721031dc1f1516d613673de288ff136eac49e8fa290d2a90d624b185e5cea77c34a247c820120876475527c2102de3a59784d9da6e7609e2059372f4f8500f4a76f4d479b38c0b0ab02064e39a952ae67a9143eaae3985730c9fa1e2c7a9973fa6c2dde566e2588ac6851b27568"
                },
                "tx": "020000000001012cc88c2f29f2384af599ad99208fe231dd03772845a5796bd8f478c288a6699202000000000100000001a41000000000000016001405e0104aa726e34ff5cd3a6320d05c0862b5b01c0347304402202ee3b2d4cb607970e67ac26f9a00c4df1f7778587010b8c15df6e05f8cafb96f022071a2ed05fc74859c4f26c49917bbbe9fe2d05c87e68cda07cd27e4af365362d901200a0b4fd37634872e99533be8219b7b69fad29b55f562427c198841fe448a3fa48876a914345461a3a21432ea61f48bea4412057dc24b272a8763ac6721031dc1f1516d613673de288ff136eac49e8fa290d2a90d624b185e5cea77c34a247c820120876475527c2102de3a59784d9da6e7609e2059372f4f8500f4a76f4d479b38c0b0ab02064e39a952ae67a9143eaae3985730c9fa1e2c7a9973fa6c2dde566e2588ac6851b27568101b0600",
                "htlcId": 0
            },
            "9269a688c278f4d86b79a545287703dd31e28f2099ad99f54a38f2292f8cc82c:3": {
                "type": "fr.acinq.lightning.transactions.Transactions.TransactionWithInputInfo.ClaimHtlcTx.ClaimHtlcSuccessTx",
                "input": {
                    "outPoint": "9269a688c278f4d86b79a545287703dd31e28f2099ad99f54a38f2292f8cc82c:3",
                    "txOut": {
                        "amount": 12000,
                        "publicKeyScript": "0020b7432d935669b861b9e52afa2d907114a16a8f59183f9c9deca804564102a28c"
                    },
                    "redeemScript": "76a914345461a3a21432ea61f48bea4412057dc24b272a8763ac6721031dc1f1516d613673de288ff136eac49e8fa290d2a90d624b185e5cea77c34a247c820120876475527c2102de3a59784d9da6e7609e2059372f4f8500f4a76f4d479b38c0b0ab02064e39a952ae67a9145e40a45bfc495659019ffa2aeb7bf19ad857bb4988ac6851b27568"
                },
                "tx": "020000000001012cc88c2f29f2384af599ad99208fe231dd03772845a5796bd8f478c288a6699203000000000100000001741800000000000016001405e0104aa726e34ff5cd3a6320d05c0862b5b01c03483045022100aa83855f4054f44aebd59c7dcdb703e64bb7a494120b90b9cc33069a6927302c02201450f8a3a8bddef00f124d31c88ea551f886fc0da6c98a20100487c33f454bd10120c2e300bc51b0df81a16d4271a1bb291f5e46a52001de84d20dbe60572bfcbbab8876a914345461a3a21432ea61f48bea4412057dc24b272a8763ac6721031dc1f1516d613673de288ff136eac49e8fa290d2a90d624b185e5cea77c34a247c820120876475527c2102de3a59784d9da6e7609e2059372f4f8500f4a76f4d479b38c0b0ab02064e39a952ae67a9145e40a45bfc495659019ffa2aeb7bf19ad857bb4988ac6851b27568101b0600",
                "htlcId": 1
            },
            "9269a688c278f4d86b79a545287703dd31e28f2099ad99f54a38f2292f8cc82c:6": {
                "type": "fr.acinq.lightning.transactions.Transactions.TransactionWithInputInfo.ClaimHtlcTx.ClaimHtlcTimeoutTx",
                "input": {
                    "outPoint": "9269a688c278f4d86b79a545287703dd31e28f2099ad99f54a38f2292f8cc82c:6",
                    "txOut": {
                        "amount": 20000,
                        "publicKeyScript": "00204a034388d897e59aff4a04944803ed4248a6ce7c65d868f4b4318022be79e2c0"
                    },
                    "redeemScript": "76a914345461a3a21432ea61f48bea4412057dc24b272a8763ac6721031dc1f1516d613673de288ff136eac49e8fa290d2a90d624b185e5cea77c34a247c8201208763a914417c810a4161766ced32d0b7c63d632934dd99d988527c2102de3a59784d9da6e7609e2059372f4f8500f4a76f4d479b38c0b0ab02064e39a952ae677503101b06b175ac6851b27568"
                },
                "tx": "020000000001012cc88c2f29f2384af599ad99208fe231dd03772845a5796bd8f478c288a6699206000000000100000001b83800000000000016001405e0104aa726e34ff5cd3a6320d05c0862b5b01c034830450221009ddbb24a6dd09fa829ae2810eb69b646afff1a7bb4aa834621b78ee768141b4b02201c117e8577dccc35c3d0a02b3d1ba3810b13e30fcf75cc9213c2a4305ba068ce01008e76a914345461a3a21432ea61f48bea4412057dc24b272a8763ac6721031dc1f1516d613673de288ff136eac49e8fa290d2a90d624b185e5cea77c34a247c8201208763a914417c810a4161766ced32d0b7c63d632934dd99d988527c2102de3a59784d9da6e7609e2059372f4f8500f4a76f4d479b38c0b0ab02064e39a952ae677503101b06b175ac6851b27568101b0600",
                "htlcId": 2
            }
        },
        "irrevocablySpent": {
            "9269a688c278f4d86b79a545287703dd31e28f2099ad99f54a38f2292f8cc82c:5": "02000000012cc88c2f29f2384af599ad99208fe231dd03772845a5796bd8f478c288a669920500000000000000000000000000",
            "bdcd274e9bc89c621b30596e344389d28c3a92f820ef5a680ebfcb615b827c2f:0": "020000000001012f7c825b61cbbf0e685aef20f8923a8cd28943346e59301b629cc89b4e27cdbd000000000000b77080094a0100000000000022002046672803839d10e21d43eafb532bc37cd21bd97dec7f9b50d45380cd1cce69654a01000000000000220020bbd7f17366848d8f624c28438128ce4dc8c72ea21deb0ccf25bee110920da032102700000000000022002035aa4e20460bedda8259e3e8177fa8411ccf6b5bd97495e8b24be8a926f41f04e02e000000000000220020b7432d935669b861b9e52afa2d907114a16a8f59183f9c9deca804564102a28c983a000000000000220020e73823f9a60b72c99746e99ddb4497d8a7413f40f0f82b51b28b4988208e0bbc204e00000000000022002046d508b9c29eeebaf3644440c7b7ca5eb51ee3e8017527b6c38c99f324d206fc204e0000000000002200204a034388d897e59aff4a04944803ed4248a6ce7c65d868f4b4318022be79e2c050b70200000000002200208c57ba9667b49d1f0fca9594b3f034b4df9269218a3725fe5995ae844f5c4fabd4340b0000000000220020958bb43c9e6d1b985001c2f4dc38d286d7fde78bb04d7ec5a5ae44d8ebf0c40c040048304502210084ef9f5b45f000d2f7c87e40544c65ec97fcef4abc29046bbeeecc97ab28cce302206d464c8bbea53b0e640c64d796c4c0d73f6bb8f3cfed13d5126c0e29035c71bf0147304402207319270dd7bcc7141dae5b2221e74800adc377a38cb4ac2754dd1c5e568d84f902202e2cc92a2fd5775789cb4b4868466316b4235378d79c987231de0e35ab1d794e0147522102b6eaf304d966a6df90f3b3df7af7be6b1625854bbc096cb8b3507b2a37c2bf9c210385cfd7d8850e4cb8fcbed57310911218e5d5e1fd34f92ef5d9db14d56418caa452aedd99dc20"
        }
    }
}