{
    "type": "fr.acinq.lightning.channel.states.Closing",
    "commitments": {
        "params": {
            "channelId": "2f7c825b61cbbf0e685aef20f8923a8cd28943346e59301b629cc89b4e27cdbd",
            "channelConfig": [
                "funding_pubkey_based_channel_keypath"
            ],
            "channelFeatures": [
                "option_static_remotekey",
                "option_support_large_channel",
                "option_anchor_outputs"
            ],
            "localParams": {
                "nodeId": "037108815ff0128f7ed22640485c226d9ad64a9fd6d8b41b6623565aed6b34812c",
                "fundingKeyPath": "m/385048399/1977025879/604622566/184658546/776346346/949304342'/277944247'/2049339775'/1'",
                "dustLimit": 1100,
                "maxHtlcValueInFlightMsat": 1500000000,
                "htlcMinimum": 0,
                "toSelfDelay": 144,
                "maxAcceptedHtlcs": 100,
                "isInitiator": true,
                "defaultFinalScriptPubKey": "001405e0104aa726e34ff5cd3a6320d05c0862b5b01c",
                "features": {
                    "activated": {
                        "initial_routing_sync": "Optional",
                        "option_data_loss_protect": "Optional",
                        "gossip_queries": "Optional",
                        "gossip_queries_ex": "Optional",
                        "var_onion_optin": "Mandatory",
                        "payment_secret": "Mandatory",
                        "basic_mpp": "Optional",
                        "option_support_large_channel": "Optional",
                        "option_static_remotekey": "Mandatory",
                        "option_anchor_outputs": "Mandatory",
                        "option_channel_type": "Mandatory",
                        "option_payment_metadata": "Optional",
                        "trampoline_payment_experimental": "Optional",
                        "wake_up_notification_provider": "Optional",
                        "pay_to_open_provider": "Optional",
                        "trusted_swap_in_provider": "Optional",
                        "channel_backup_provider": "Optional"
                    },
                    "unknown": []
                }
            },
            "remoteParams": {
                "nodeId": "0362b19a83930389b4468be40308efb3f352b23142ae25e6aba0465a8220f95b06",
                "dustLimit": 1000,
                "maxHtlcValueInFlightMsat": 1500000000,
                "htlcMinimum": 1000,
                "toSelfDelay": 144,
                "maxAcceptedHtlcs": 100,
                "revocationBasepoint": "03a42aef6d1c860caffa6c71a6f8ac2b16eec25bab0c3950cdb1fad7fb38a5f2a5",
                "paymentBasepoint": "02508e1845b8bbe0773f6bf8f3f04f59a5896426765c7b6b23e6e466c95381182b",
                "delayedPaymentBasepoint": "02d62233b7c33f8fd0911922461a651007f1de09d8c474029caa8f2c229c10de26",
                "htlcBasepoint": "03d05c8245bdc12efd8b070b22b276e7db4254f4693e22b3f7c978c08e67b36236",
                "features": {
                    "activated": {
                        "option_data_loss_protect": "Optional",
                        "initial_routing_sync": "Optional",
                        "gossip_queries": "Optional",
                        "var_onion_optin": "Mandatory",
                        "gossip_queries_ex": "Optional",
                        "option_static_remotekey": "Mandatory",
                        "payment_secret": "Mandatory",
                        "basic_mpp": "Optional",
                        "option_support_large_channel": "Optional",
                        "option_anchor_outputs": "Mandatory",
                        "option_channel_type": "Mandatory",
                        "option_payment_metadata": "Optional",
                        "wake_up_notification_client": "Optional",
                        "pay_to_open_client": "Optional",
                        "trusted_swap_in_client": "Optional",
                        "channel_backup_client": "Optional",
                        "trampoline_payment_experimental": "Optional"
                    },
                    "unknown": []
                }
            },
            "channelFlags": 0
        },
        "changes": {
            "localChanges": {
                "proposed": [],
                "signed": [
                    {
                        "type": "fr.acinq.lightning.wire.UpdateFulfillHtlc",
                        "channelId": "2f7c825b61cbbf0e685aef20f8923a8cd28943346e59301b629cc89b4e27cdbd",
                        "id": 0,
                        "paymentPreimage": "96abc2a3f0ed17d9ec5cddc3f67e76d94d500daccc0ca85407b2ca6caf515bba"
                    }
                ],
                "acked": []
            },
            "remoteChanges": {
                "proposed": [
                    {
                        "type": "fr.acinq.lightning.wire.UpdateFulfillHtlc",
                        "channelId": "2f7c825b61cbbf0e685aef20f8923a8cd28943346e59301b629cc89b4e27cdbd",
                        "id": 1,
                        "paymentPreimage": "53c9ce2b799dcafac3fdd3123faecd8e2995202c39911f7f26ca016e5acabe3f"
                    }
                ],
                "acked": [],
                "signed": []
            },
            "localNextHtlcId": 3,
            "remoteNextHtlcId": 2
        },
        "active": [
            {
                "fundingTxIndex": 0,
                "remoteFundingPubkey": "0385cfd7d8850e4cb8fcbed57310911218e5d5e1fd34f92ef5d9db14d56418caa4",
                "localFundingStatus": {
                    "status": "unconfirmed",
                    "txId": "bdcd274e9bc89c621b30596e344389d28c3a92f820ef5a680ebfcb615b827c2f"
                },
                "remoteFundingStatus": {
                    "status": "locked"
                },
                "localCommit": {
                    "index": 1,
                    "spec": {
                        "htlcsIn": [
                            {
                                "channelId": "2f7c825b61cbbf0e685aef20f8923a8cd28943346e59301b629cc89b4e27cdbd",
                                "id": 0,
                                "amountMsat": 50000000,
                                "paymentHash": "6d7f885fa7349eadb6ee7917f76e2d5be5375a53908f9412251844652029fb83",
                                "cltvExpiry": 400144,
                                "onionRoutingPacket": "<redacted>"
                            },
                            {
                                "channelId": "2f7c825b61cbbf0e685aef20f8923a8cd28943346e59301b629cc89b4e27cdbd",
                                "id": 1,
                                "amountMsat": 55000000,
                                "paymentHash": "740ff4fdd9e09ecaf72246957c47c2bf3f4df277ae1a167edee9ac6779f52cef",
                                "cltvExpiry": 400144,
                                "onionRoutingPacket": "<redacted>"
                            }
                        ],
                        "htlcsOut": [
                            {
                                "channelId": "2f7c825b61cbbf0e685aef20f8923a8cd28943346e59301b629cc89b4e27cdbd",
                                "id": 0,
                                "amountMsat": 250000000,
                                "paymentHash": "f46652d1941b2aee27d8bfe5f4c934fe6b6bab4eff3c20390ec6572c18ba807b",
                                "cltvExpiry": 400144,
                                "onionRoutingPacket": "<redacted>"
                            },
                            {
                                "channelId": "2f7c825b61cbbf0e685aef20f8923a8cd28943346e59301b629cc89b4e27cdbd",
                                "id": 1,
                                "amountMsat": 100000000,
                                "paymentHash": "19b16e9994f802d2e02a327e5e167006f76616bbb0bf9edb93240399eee69637",
                                "cltvExpiry": 400144,
                                "onionRoutingPacket": "<redacted>"
                            },
                            {
                                "channelId": "2f7c825b61cbbf0e685aef20f8923a8cd28943346e59301b629cc89b4e27cdbd",
                                "id": 2,
                                "amountMsat": 10000,
                                "paymentHash": "88bf41d772fae54153d0e1ef7d08bfae6bc157e01a37339c4f97985f8dae8d43",
                                "cltvExpiry": 400144,
                                "onionRoutingPacket": "<redacted>"
                            }
                        ],
                        "feerate": 5000,
                        "toLocal": 449990000,
                        "toRemote": 95000000
                    },
                    "publishableTxs": {
                        "commitTx": {
                            "input": {
                                "outPoint": "bdcd274e9bc89c621b30596e344389d28c3a92f820ef5a680ebfcb615b827c2f:0",
                                "txOut": {
                                    "amount": 1000000,
                                    "publicKeyScript": "00204ba42b50e089764e60e9e0c76c57e41d252d6beb976332f14a7b255bbb5322b8"
                                },
                                "redeemScript": "522102b6eaf304d966a6df90f3b3df7af7be6b1625854bbc096cb8b3507b2a37c2bf9c210385cfd7d8850e4cb8fcbed57310911218e5d5e1fd34f92ef5d9db14d56418caa452ae"
                            },
                            "tx": "020000000001012f7c825b61cbbf0e685aef20f8923a8cd28943346e59301b629cc89b4e27cdbd000000000000b77080084a0100000000000022002046672803839d10e21d43eafb532bc37cd21bd97dec7f9b50d45380cd1cce69654a01000000000000220020bbd7f17366848d8f624c28438128ce4dc8c72ea21deb0ccf25bee110920da03250c30000000000002200200a56c86dc2e94046c61370f8e91b9cf2b8ceeb1e5597b8b3ea2191ac32076835d8d600000000000022002074e2cfb625e3787193fbb4f26dbd7739c5484c4455fc53c71bb2bce84b476ff71873010000000000220020cb93e3adb8d213704e9a07ea2a6ce91dca51a9b76fcb6bef3cc9b5b7e10a7990a0860100000000002200205d9ebea209786542771331647e3bfbe27d502165721f79d5fa7c650fc0f4f82190d00300000000002200204d3d669bcc3a84c7fddb2b53587dc6e478a73ddc56fc6d741b8d8101275738ecceb70600000000002200206aae960776a0a9f526c5ea6841c28baa16a7ae997313ed417dbc55e38fe1c1730400483045022100b93cbfbaef80225e26044222ba5a5bcf0835be8f7ca65e72216e3920faeffd3002202066354a81bbc965915dc5982207805e73baea30784905e921fafaa3fb3a2e8501483045022100f5e63ea5bbf6f9a73a5a2ee48f5aef9562321f94e5863a9048e2ad37b37c813b0220682d540a528d769741cae70b70b570dc6dac987b2ff7afa7ef429f66a9940d0d0147522102b6eaf304d966a6df90f3b3df7af7be6b1625854bbc096cb8b3507b2a37c2bf9c210385cfd7d8850e4cb8fcbed57310911218e5d5e1fd34f92ef5d9db14d56418caa452aedf99dc20"
                        },
                        "htlcTxsAndSigs": [
                            {
                                "txinfo": {
                                    "type": "fr.acinq.lightning.transactions.Transactions.TransactionWithInputInfo.HtlcTx.HtlcSuccessTx",
                                    "input": {
                                        "outPoint": "7372fda43b27856d434c954465abbff64d4f9967d1f76fe3f140281fa19d690f:2",
                                        "txOut": {
                                            "amount": 50000,
                                            "publicKeyScript": "00200a56c86dc2e94046c61370f8e91b9cf2b8ceeb1e5597b8b3ea2191ac32076835"
                                        },
                                        "redeemScript": "76a9149166a758c8ce2d9f0c36df15d8624a3c2d0e01b08763ac67210212f485e05882dc6abe5ca535a3880a1c8b2fb10261ba27c56110d926775d73fc7c8201208763a9148ae4a6eb50d67f9380f44bde85467e5c9f7806f988527c210202381f64b9573d9410b135c8f3e9ec876233af900152d2e42211a6aa73835ad952ae677503101b06b175ac6851b27568"
                                    },
                                    "tx": "02000000010f699da11f2840f1e36ff7d167994f4df6bfab6544954c436d85273ba4fd72730200000000010000000186b50000000000002200206aae960776a0a9f526c5ea6841c28baa16a7ae997313ed417dbc55e38fe1c17300000000",
                                    "paymentHash": "6d7f885fa7349eadb6ee7917f76e2d5be5375a53908f9412251844652029fb83",
                                    "htlcId": 0
                                },
                                "localSig": "9f68f26d23a9815202a8de58c3cd74d28f2e792e938a32c180c30dc95f561a921537ced22d434d129135d919ebe4a7e5a6b185abe6706f209f2ddb42ebcc16ff",
                                "remoteSig": "0c07663f04a9d7c8f0365ba313aed68be3576119190d2ec497c112cf149611373506b12a40e85825349d92f9627d0c7d192cdb6a5b54d733143a9085b6e15383"
                            },
                            {
                                "txinfo": {
                                    "type": "fr.acinq.lightning.transactions.Transactions.TransactionWithInputInfo.HtlcTx.HtlcSuccessTx",
                                    "input": {
                                        "outPoint": "7372fda43b27856d434c954465abbff64d4f9967d1f76fe3f140281fa19d690f:3",
                                        "txOut": {
                                            "amount": 55000,
                                            "publicKeyScript": "002074e2cfb625e3787193fbb4f26dbd7739c5484c4455fc53c71bb2bce84b476ff7"
                                        },
                                        "redeemScript": "76a9149166a758c8ce2d9f0c36df15d8624a3c2d0e01b08763ac67210212f485e05882dc6abe5ca535a3880a1c8b2fb10261ba27c56110d926775d73fc7c8201208763a9142bd4ed0a2ca74a654fbca59c835108a740fb7d4c88527c210202381f64b9573d9410b135c8f3e9ec876233af900152d2e42211a6aa73835ad952ae677503101b06b175ac6851b27568"
                                    },
                                    "tx": "02000000010f699da11f2840f1e36ff7d167994f4df6bfab6544954c436d85273ba4fd7273030000000001000000010ec90000000000002200206aae960776a0a9f526c5ea6841c28baa16a7ae997313ed417dbc55e38fe1c17300000000",
                                    "paymentHash": "740ff4fdd9e09ecaf72246957c47c2bf3f4df277ae1a167edee9ac6779f52cef",
                                    "htlcId": 1
                                },
                                "localSig": "33e51eb795a5c12732b1cca6a6424cc5426bd9f16d17cdddcb4808c4fcbde9a12a4a963bf5d87518b244035d6ce21d5bdbc027dde903cd3ac8de6e3653ba609f",
                                "remoteSig": "a1041fa5030e25f7260b8935199b3c895a1327f42933f61c7b7b8b960cf1b21e5e6355c1076b8344215c78036f0258678d8f0ea06aa681f12a707691d4b733e7"
                            },
                            {
                                "txinfo": {
                                    "type": "fr.acinq.lightning.transactions.Transactions.TransactionWithInputInfo.HtlcTx.HtlcTimeoutTx",
                                    "input": {
                                        "outPoint": "7372fda43b27856d434c954465abbff64d4f9967d1f76fe3f140281fa19d690f:5",
                                        "txOut": {
                                            "amount": 100000,
                                            "publicKeyScript": "00205d9ebea209786542771331647e3bfbe27d502165721f79d5fa7c650fc0f4f821"
                                        },
                                        "redeemScript": "76a9149166a758c8ce2d9f0c36df15d8624a3c2d0e01b08763ac67210212f485e05882dc6abe5ca535a3880a1c8b2fb10261ba27c56110d926775d73fc7c820120876475527c210202381f64b9573d9410b135c8f3e9ec876233af900152d2e42211a6aa73835ad952ae67a914480a81e9dea741d5e4b0603e53617e3e9363e38588ac6851b27568"
                                    },
                                    "tx": "02000000010f699da11f2840f1e36ff7d167994f4df6bfab6544954c436d85273ba4fd7273050000000001000000019e790100000000002200206aae960776a0a9f526c5ea6841c28baa16a7ae997313ed417dbc55e38fe1c173101b0600",
                                    "htlcId": 1
                                },
                                "localSig": "7691922eb89a947ba9b19bfc83610cdeddf6b323a3ca6c57542b0da7dfd4bf8c0d7af8b3fef0468e435fbb5993f2f13560a7082b9c4631b148493eb94e351269",
                                "remoteSig": "f5d715d948cbe6a99a203e194a2ad1947475562b160e53f404bd1e6fc91a94c16d66409805e56b31f35fa6006eebe530a7e63f11af0176244b2a290817b10508"
                            },
                            {
                                "txinfo": {
                                    "type": "fr.acinq.lightning.transactions.Transactions.TransactionWithInputInfo.HtlcTx.HtlcTimeoutTx",
                                    "input": {
                                        "outPoint": "7372fda43b27856d434c954465abbff64d4f9967d1f76fe3f140281fa19d690f:6",
                                        "txOut": {
                                            "amount": 250000,
                                            "publicKeyScript": "00204d3d669bcc3a84c7fddb2b53587dc6e478a73ddc56fc6d741b8d8101275738ec"
                                        },
                                        "redeemScript": "76a9149166a758c8ce2d9f0c36df15d8624a3c2d0e01b08763ac67210212f485e05882dc6abe5ca535a3880a1c8b2fb10261ba27c56110d926775d73fc7c820120876475527c210202381f64b9573d9410b135c8f3e9ec876233af900152d2e42211a6aa73835ad952ae67a914f91b7d27cebfd9aaea7b3c5a8ff29d6b3fe733b188ac6851b27568"
                                    },
                                    "tx": "02000000010f699da11f2840f1e36ff7d167994f4df6bfab6544954c436d85273ba4fd7273060000000001000000018ec30300000000002200206aae960776a0a9f526c5ea6841c28baa16a7ae997313ed417dbc55e38fe1c173101b0600",
                                    "htlcId": 0
                                },
                                "localSig": "8be08f09f14bf4fc93d932154940e568784110b62386d9fc893a4872461019ec54cdcb59b985e7dc8588ee564e0a7a948126e14f30291477a8eb5a6b3167b528",
                                "remoteSig": "b1828ea2bd1cb006845f9077318105f2289c7d158bfd6906f8bdbed62d56f013005f909afd64eff871f8407ff47e420347c05c0b72bb383c58d77c6c7920cb7b"
                            }
                        ]
                    }
                },
                "remoteCommit": {
                    "index": 2,
                    "spec": {
                        "htlcsIn": [
                            {
                                "channelId": "2f7c825b61cbbf0e685aef20f8923a8cd28943346e59301b629cc89b4e27cdbd",
                                "id": 0,
                                "amountMsat": 250000000,
                                "paymentHash": "f46652d1941b2aee27d8bfe5f4c934fe6b6bab4eff3c20390ec6572c18ba807b",
                                "cltvExpiry": 400144,
                                "onionRoutingPacket": "<redacted>"
                            },
                            {
                                "channelId": "2f7c825b61cbbf0e685aef20f8923a8cd28943346e59301b629cc89b4e27cdbd",
                                "id": 1,
                                "amountMsat": 100000000,
                                "paymentHash": "19b16e9994f802d2e02a327e5e167006f76616bbb0bf9edb93240399eee69637",
                                "cltvExpiry": 400144,
                                "onionRoutingPacket": "<redacted>"
                            },
                            {
                                "channelId": "2f7c825b61cbbf0e685aef20f8923a8cd28943346e59301b629cc89b4e27cdbd",
                                "id": 2,
                                "amountMsat": 10000,
                                "paymentHash": "88bf41d772fae54153d0e1ef7d08bfae6bc157e01a37339c4f97985f8dae8d43",
                                "cltvExpiry": 400144,
                                "onionRoutingPacket": "<redacted>"
                            }
                        ],
                        "htlcsOut": [
                            {
                                "channelId": "2f7c825b61cbbf0e685aef20f8923a8cd28943346e59301b629cc89b4e27cdbd",
                                "id": 0,
                                "amountMsat": 50000000,
                                "paymentHash": "6d7f885fa7349eadb6ee7917f76e2d5be5375a53908f9412251844652029fb83",
                                "cltvExpiry": 400144,
                                "onionRoutingPacket": "<redacted>"
                            },
                            {
                                "channelId": "2f7c825b61cbbf0e685aef20f8923a8cd28943346e59301b629cc89b4e27cdbd",
                                "id": 1,
                                "amountMsat": 55000000,
                                "paymentHash": "740ff4fdd9e09ecaf72246957c47c2bf3f4df277ae1a167edee9ac6779f52cef",
                                "cltvExpiry": 400144,
                                "onionRoutingPacket": "<redacted>"
                            }
                        ],
                        "feerate": 5000,
                        "toLocal": 95000000,
                        "toRemote": 449990000
                    },
                    "txid": "7eadcb16addad348b3259b016c106db14aa01d95050740beef7d75c046768566",
                    "remotePerCommitmentPoint": "026c604452e1a154575f1fd5966389c2c686c0b4b72370da0b33764c66b5a8f40e"
                },
                "nextRemoteCommit": {
                    "sig": {
                        "channelId": "2f7c825b61cbbf0e685aef20f8923a8cd28943346e59301b629cc89b4e27cdbd",
                        "signature": "9b6dc8c4c7cdf17421cdc9922c2d8783ce34dc3d55af4cb1f1a7f3f5ed8477275ef25fc7db687fc6278128058905c4f4379880772702361e4106e63c974c6133",
                        "htlcSignatures": [
                            "fab06d0caff3cb9b51f6a74957abc54c7a8e595d16cd6a2ee89805b01964ea120ea6a57d24c5c48f98a00571126c682a61ddc936eecfda506baf9433a8ef07c2",
                            "2112123ef29e32e85f51b59c896a3872f67c81a0becdb50ae942f928406b54a7424599b0572e4a126b50f53b9ccf1d15f1e164a483276428059ce1610c127be0",
                            "2393c0379bb6f4f50b7bd8213243ceb45d8f2aaf14cc3026f7b9089e2e0901d73fb202cff46b6a998892a3df480576dc107c6518c3ab90da25872f5f2565b403"
                        ]
                    },
                    "commit": {
                        "index": 3,
                        "spec": {
                            "htlcsIn": [
                                {
                                    "channelId": "2f7c825b61cbbf0e685aef20f8923a8cd28943346e59301b629cc89b4e27cdbd",
                                    "id": 0,
                                    "amountMsat": 250000000,
                                    "paymentHash": "f46652d1941b2aee27d8bfe5f4c934fe6b6bab4eff3c20390ec6572c18ba807b",
                                    "cltvExpiry": 400144,
                                    "onionRoutingPacket": "<redacted>"
                                },
                                {
                                    "channelId": "2f7c825b61cbbf0e685aef20f8923a8cd28943346e59301b629cc89b4e27cdbd",
                                    "id": 1,
                                    "amountMsat": 100000000,
                                    "paymentHash": "19b16e9994f802d2e02a327e5e167006f76616bbb0bf9edb93240399eee69637",
                                    "cltvExpiry": 400144,
                                    "onionRoutingPacket": "<redacted>"
                                },
                                {
                                    "channelId": "2f7c825b61cbbf0e685aef20f8923a8cd28943346e59301b629cc89b4e27cdbd",
                                    "id": 2,
                                    "amountMsat": 10000,
                                    "paymentHash": "88bf41d772fae54153d0e1ef7d08bfae6bc157e01a37339c4f97985f8dae8d43",
                                    "cltvExpiry": 400144,
                                    "onionRoutingPacket": "<redacted>"
                                }
                            ],
                            "htlcsOut": [
                                {
                                    "channelId": "2f7c825b61cbbf0e685aef20f8923a8cd28943346e59301b629cc89b4e27cdbd",
                                    "id": 1,
                                    "amountMsat": 55000000,
                                    "paymentHash": "740ff4fdd9e09ecaf72246957c47c2bf3f4df277ae1a167edee9ac6779f52cef",
                                    "cltvExpiry": 400144,
                                    "onionRoutingPacket": "<redacted>"
                                }
                            ],
                            "feerate": 5000,
                            "toLocal": 95000000,
                            "toRemote": 499990000
                        },
                        "txid": "6fa734b6dd68a4ec5374924405d3f359c29c31df3e5775afc33b8cab86302be3",
                        "remotePerCommitmentPoint": "0312a332a6afe99e14c9dc4ab0512448441be3c4c369be8b7d37c5086682b33799"
                    }
                }
            }
        ],
        "inactive": [],
        "payments": {
            "0": "63bcda18-e368-4b94-8f92-f584b22f5f39",
            "1": "10a0c73e-8c05-4825-a46a-98166a75e9d9",
            "2": "1ec9b64b-519c-444d-a034-4e10d2db9d1f"
        },
        "remoteNextCommitInfo": {
            "left": {
                "sentAfterLocalCommitIndex": 1
            },
            "right": null
        },
        "remotePerCommitmentSecrets": "<redacted>",
        "remoteChannelData": {
            "data": "5de29f41beb1139cca140898918fb6077c10e5db556b67e3ab11ff05a7e0bef6b791df640f9f31ab4ee849395b56e16e1976edca2c2eca4f6f66069a1e18d579c98326c82f2e77e0437e7cdb99089d354d6cd76415b8bb14bd620555823e323c432be7fb622906602a934faaf5ab1cdad769f3574b06403dc7597c9baaeb0e53fc45e3a46162cd52493dd132299aaf7e830917afa2b3d9a325e1e578a8aacf882c7908295ca70171bea5db44a33e1264206373bd1143f377c9e8b8de3b027e983f30d828036e51e5ce52f19e6d93ec4d9e0647731507a42fb60cbb8ac83f663eedd061e5bb29b800e0ff08d49f8763de1aed441b6929113c66be86cd279ac79bcffe601e7da19a2d712d4189f1091dec7cd5f1041f520adad3b8ec3c2b16f3dfc8298120c5b7d9c17354a2de753a19f8a36c4379822fb524a093ac0a3996c5fd5e01ebf1e972a47eccd1554f79d8cf8574739dc38550bd5b5fe04a42e83410720cba5b04056b2c5d9b526df45c312eb6aae05a6be8890b2aa197dfdb7a00c468ffbd6ca8bbd006d29d9505e4e6dec28996caaf39f9d3789f859ddf1ece60b8a78679d4118ba9a127a12b7306fb823f531cd84d24f71c3a0ed9b43f580ea81910467929f11ebef56d09191783879d0aaf5302e3759cf060f28e3c5483e3fa0ae182e4ef9c40810d399d5037f8b91f7e0fac9da2dcd3395312bef360b208590ff13aacc9a838be6d59488d8de5041fbc9f3a4a8a0727d6b2fc8442ff7a02f1710c81b7460080a9beb0b51e5d39972c1d1827c9882a9dd744ee4e078fcf7ad2a5b231a65415d310341974bdeb83843723c9b3fcbf34812ebfda9a4eadc053c2e0f1fcefbfb10939506cbd7e858b09a9cf5dd2e99581bc1a41ddb6893f7efb91fa6c172bf01b205c3ea33d941202a243de56645ade023685ffc19dde4a0608658b50389cf111900eba9e4980d67b7ca2e3fb8f13e0253af6544ad5e6cae12b8a9c93d49d1adef5292be29d58d14b3dea5df958ec501828191dbb5ee075af3c659cdc7f34ac8ff130dffdbb12bce477c988933bf018e83a5f693ae6ffdf8bf97727c5d911f7b2c88ce231e96647c9f9c01c962e860793ebd5e7deb7d29085931747552532a1ae835db46ea588896c79331054f14dabb945fc76edb345f0f93447cdf922d39bbe0b030bc89f719fb3fcf21c0bab9e44e51be2fdfa70fbf69b20a12ecc6137db90fe01bf1b6faf0ce4b02306983d0fbba896c4a39437164d47313c7a30f0cf928c1c8d1faafea9e953b94dc0ce6348805a834c631baf154d98a966dce358dbd2258abe48e93ab5f03d6c59c971aa2730416f877348fbf28820beaef96ff1d5228f7a3a9d9436e5adc6ef0e6462e3291f60937b1a0d6d729c59affae939e7cd5d7c7a349df84f1d6410aef2b4081967d3e2697b973bda1acce8603eebf8b7f43b46c2112bf3d5bc83685126ba472ccaf489b93d5622fde316e113517d7d50550713a959a1648f71693b5a7036e9ec41832ec43f838fe83bc610163e2f4361884c5d5b1ae6907f8a4c6f9aafc6ff5b0d989c66881e373ac85a75964889255eecf2d67dd3d3748f2d723e4d149b9743ad4e11b59a9f0adb2cd816431dcda3ee458f99de9ef8669003c3ab75408380a24e09082462429cb5ae2c07a30206145bb6aa783b45311b35e62cfe298ca275a1fccda142201d8e5d779184be788afe0c93b393d8710fa7fbc08cc2034e1b2a1cbe9058b5bfc655e410e5f63c1398c773407a2b17faa6c6b966598ca175fc7968ad303ab6aea1e0d57486564203a9de95d9aab8ba7a2b70598c5d9f4ea89ef10d26ccbb0901e0d72c18534901762abb4928d5b6ad157a064381d26965061030439634c8b6429d02e002b1a00f55c1bc47a20ba8166540fc5cdde8e569287c44db5ef527eee068c87654e6290e92dbc00034ce5e3408f5db4ab6d7036eaba86b56c8c86220cd34b446adb93b74f074200e577d22962f5f2caf5075abff968a61084ddee8463d71672e9e2078d04b534993e469b96a0984668041832471484e0b25c88de65dd414f851e379a08456e00e686d92d7f0a63901362d25c61f19e40e130f3311518f6c11fe9d18acba3a4fac5a7c242ecb043080b4b9a953ea8f242ef9423bf3bce69878b7750e8fe2acbdb9deab755cc7d038a052c847b3ae508fb60c9d74158c806bf02f268264d21bf73f6a02a277bce491062a25928f571f779890dc984463a31a72023ea0da0e8e3ae393c59e1432baf63e1bcd837fc18f67b7ea68211e8ee2a276b0f462df10bc6b840427371cbdd0990936e365ed6a362f940b8a6aa7b6c0658212b9b618ece4a5089170038815e7329eef1f1e5a2d2bb7cc6d13bb6e162d365feb2bfab706b521ece4a267a1aca9067cff6492933565b8a41a3bd4b31d449930cabe8b488f7184e57dbbdcc6fe24aa69c409375d1d27c7610aa39145c89182d23ea816dbcc8a0abe4c05c2c6e128a0bf216e2e8ea667fdbc502cce53acad05aac86f2689856e32494a458a8f64aed60297575e8e12875bb2812f6f8cc2dbb07e97b2d6fc5a4600f9ae1da3b40265b98be1b2fc3495cf70ef1ad51aee16d5b3be9408e1951fbb35464de45ac208c57710d47aef3aa9f2f7bf214d24b397babbb1bb4c13c233bf61be791d6c15f31405d45167b96998fc2a2cb89d034643cacda0252fb160c33a47dd45977b7f17a61a069836dbfbbf3207521762be50c3e46de2a98232b9d6bffca30325e527085671caa20af4ea79a576a86b5b3ed3941e1bbc7bf820754310b996dd96fa151dc8f3675500a99960c40a180f706d0180fb157d2ca15869a7c505f95e44cf95ed3f999b7452e89a3fa33396967130418366400a0ebe394a41d5790e2b08563535625dcb9d1e5a6ec46d131a31ba4fbc69c59eb00e65ebbdc7fae12b243b91723c93eedbefd05a3ea81a3b2957a4afcf4e9b45302652433646dae8d10e0bc2f5b353e80c3f4a336baf9eeb8c60635a805dcb420a8e6e31358ef4e20be65fba2dcbded2c8db7d62b3a32347dbdf324e198311460702c719728ae9fadf2652d5f95e1436bb64cfd6d2edb0757b3767abe07b393afc7fb7466a43db5801ff100ad006f531aa8848a8dd80d6b91836dbb53ff62c2d8f0452f97676f4af0881dffd397ebf51157529c3fd7107599170bb9fb0b6a8934748a21f9dc33d8e9ee6e52724773e93ac544036878f169a434fbfaea049a5fa693e0649b41bb54728b4ed901065dd8f5db51c7f4cb2c312f24befe1701dcc80e406f1d914776724b9ece0fad8af9a173efccd883704b16ca89e7228f32a2ee4bae5f97d75d1d332d884e460b478bd9f7d46d460492dcd9bf62b47732587e1363dbdb420d2cbe5731509270415f9f800ada8cc7f83ee51114994b7e5a1852e7bc147c6ae74956647d961a96a793cb90a83fa6d85c3b72bb85fc45e76bc4fef8ed0d6d5b475a8f69c82ea0ed28162a8c852591f34d14ab48b40e93e3ec72831dd42a874d38e8b6d11d2dabc5f22703218d5749fe1ae9776efa1afecccaf1ada81102bd26d2807e93b063fc774b1d4b3925b927392beebfcbaff94a377677f7d1800e95c68886316e564bb344f9bf75c32b10bee07a7c7e686a5d21c678a58946c6896f55815eb8f0b8e5bcd50d10a3e76b64ec5cc32bd3abf82e21b3c36017724e0275d5be23f9c6dba732bda122773b06d6360df3c9932cc1a1eea5257fbdd37dd12564ebed5a6c33a2453e24d09d6581afde56fcd3487899eb1f918b99e70250a73114eece82371f246ed00c7b9afde7da71826779e668831a309c3f4043513d7cbb25a609bcbd827f3603298c474bc61d7bbe681fc45e764d5c7697929bbb00a3cfc7d383524d1ac0c5f9ee6a233c376b00dfd730509f566f6fb13118d5785d3ae666f21517c1d465d702f4c9d0acfc4c909cb4c3c3773828faba15c8d736d537ac6c44af035cbc25f347a205e86bd83093641eade1fed91b2ba753732ab7c7bf55056e3262f777444150dd122d695d75ee05eee65b40e1ea78d453b9fd58471cd6ca6b38765d3b0b8006681e1962b5034ef51a6d1c0838da6f74518df614a98a16c4478e9466a24a1a1ffcf93af22dba9315adfb024fd2890859aa61a69f7de14956fa8b51f5b0ea107f190bcb3604f20a78cefa7a8fe877062d91d1312850c2892cd829a8857f11b17ce88cfb76106e0668d29e42f22f3bc63013196caa2940b8e7d8d109d5a9bd0bdf6df7540a2edef34996012181d52313804e40c0c9a1a47657bc199f6612256a3d8ce7f27d9e42d0325af9666143c12579072c518a3a25e8097fd38d5412cc6474588f7c9cd97331709a0f7f94961c41ea410af13c2727ea3d029905daad8f4ffedffb2dfe082c9efeb72c01d251bd88f75c10e739864900ec458db01661da7593c119a95470861fb997d6c0afd403d4ee6e608f5a4eeedf4e975fa30728d100f1b5737087995414f6d02a90c4220ab07ebe3680d6afdd5dd4ee5e4b526888f0e7c6253d7e75e38ee23bc47e9eea25fd2b0bca2c62ceb7bcd4021a1ec0ebcc75bc53340e65dbca291cc384048f61d9a8f1a62a05e78bda566eb79f0ef5d71df46793d964c2c425e7674263103d4e4ad768d2fc1bad4d74e3af4ceb36e5efe569cabbf216bee722cf6386e372c0e6f464fb51f29077bd751aee5e24900bc7869a82a137c21ff126ca0489e579db4f9ab39d0f405377119eaa78f4324b65219bd042cbc987faaabcdc6ff9487e20089de0b9fb661c1e50992d09c67c1fbbe1f726efbf8af66211c452d0cc060534dec4b5344b55889095c8afd050fc082ab59b91174aa32b65f498bb65f8446f0a91498d2db4924339fccc5be3ac63a74c7e931343aa433e276442882b8b2a78b38ac8a29433f101ea0ef829725764bc7ab630b18e5b33d85fd7d83e94bf5a01da79737cc3c11750ee438b20c6fce9ba024c6c3523279ab25c7ce7b8f73f0cbc7b3335fc497a4e4186d29361f6a711e2d7e6ca87039173d4f0432ed2787dd4c239b7f5757d0596c31c24bb7d1165f02ad90c3b363ffb85c6f423438fa748f0bc0c7efb00848f30444808fee9f9373e48a99c20b5cae11c039c908889e424c953e8f22e97d0068dc7474b4c8bc2ec98b73c50fe9302185ae6fbaaaab19ee2519e94202619b7a8bcadcbf250c2f6f60f8c0c1c416c750b78de71bf3109179cf815a2d0ebe3de600544ec38f"
        }
    },
    "waitingSinceBlock": 400000,
    "nextRemoteCommitPublished": {
        "commitTx": "020000000001012f7c825b61cbbf0e685aef20f8923a8cd28943346e59301b629cc89b4e27cdbd000000000000b77080074a0100000000000022002046672803839d10e21d43eafb532bc37cd21bd97dec7f9b50d45380cd1cce69654a01000000000000220020bbd7f17366848d8f624c28438128ce4dc8c72ea21deb0ccf25bee110920da032d8d600000000000022002087cce86185b16389811a4dbb2516fded6c23a30745eb1a6e34a61eb4eb10501818730100000000002200208c57ba9667b49d1f0fca9594b3f034b4df9269218a3725fe5995ae844f5c4faba086010000000000220020ac7cc695a72ece2b540ef241a0befb12d85a3480f0de4a6c4d6469c42d64b64990d00300000000002200200b3d269935bf5376248fa97dce2ea8106caff5b854f88f29f171e5f33a7043637a7e070000000000220020958bb43c9e6d1b985001c2f4dc38d286d7fde78bb04d7ec5a5ae44d8ebf0c40c04004830450221009b6dc8c4c7cdf17421cdc9922c2d8783ce34dc3d55af4cb1f1a7f3f5ed84772702205ef25fc7db687fc6278128058905c4f4379880772702361e4106e63c974c613301483045022100f1798723f9f5b236f5e9e258a72671b1d6709316dcb13e8ce845b72855508f3602207dfc7b3796a03fbba00f359b3c8d6cd8d6454fad7139a8366a0cafdf66d2cdf60147522102b6eaf304d966a6df90f3b3df7af7be6b1625854bbc096cb8b3507b2a37c2bf9c210385cfd7d8850e4cb8fcbed57310911218e5d5e1fd34f92ef5d9db14d56418caa452aedd99dc20",
        "claimMainOutputTx": {
            "type": "fr.acinq.lightning.transactions.Transactions.TransactionWithInputInfo.ClaimRemoteCommitMainOutputTx.ClaimRemoteDelayedOutputTx",
            "input": {
                "outPoint": "6fa734b6dd68a4ec5374924405d3f359c29c31df3e5775afc33b8cab86302be3:6",
                "txOut": {
                    "amount": 491130,
                    "publicKeyScript": "0020958bb43c9e6d1b985001c2f4dc38d286d7fde78bb04d7ec5a5ae44d8ebf0c40c"
                },
                "redeemScript": "210368434fc548cb471f7ed8c94638433bfb07cceb97665c411450fdc23c60236409ad51b2"
            },
            "tx": "02000000000101e32b3086ab8c3bc3af75573edf319cc259f3d30544927453eca468ddb634a76f06000000000100000001366d07000000000016001405e0104aa726e34ff5cd3a6320d05c0862b5b01c02473044022061936e38536c7acc9a15123b04d6e5523bb3f3ad57814b5d7df89ed6af2904fd02204e3ec20bb30fb6ccec53570dea22eaddf12a7cd0947e72be62ca79cccbad73ef0125210368434fc548cb471f7ed8c94638433bfb07cceb97665c411450fdc23c60236409ad51b200000000"
        },
        "claimHtlcTxs": {
            "6fa734b6dd68a4ec5374924405d3f359c29c31df3e5775afc33b8cab86302be3:5": {
                "type": "fr.acinq.lightning.transactions.Transactions.TransactionWithInputInfo.ClaimHtlcTx.ClaimHtlcTimeoutTx",
                "input": {
                    "outPoint": "6fa734b6dd68a4ec5374924405d3f359c29c31df3e5775afc33b8cab86302be3:5",
                    "txOut": {
                        "amount": 250000,
                        "publicKeyScript": "00200b3d269935bf5376248fa97dce2ea8106caff5b854f88f29f171e5f33a704363"
                    },
                    "redeemScript": "76a914345461a3a21432ea61f48bea4412057dc24b272a8763ac6721031dc1f1516d613673de288ff136eac49e8fa290d2a90d624b185e5cea77c34a247c8201208763a914f91b7d27cebfd9aaea7b3c5a8ff29d6b3fe733b188527c2102de3a59784d9da6e7609e2059372f4f8500f4a76f4d479b38c0b0ab02064e39a952ae677503101b06b175ac6851b27568"
                },
                "tx": "02000000000101e32b3086ab8c3bc3af75573edf319cc259f3d30544927453eca468ddb634a76f0500000000010000000128bb03000000000016001405e0104aa726e34ff5cd3a6320d05c0862b5b01c034830450221009610fa68ca8e7b8b0a1f8242ef55054c8fed719158b182729c228e11cb67107e022009179996870df9a2623c3783ff521ca47928690d963e52d7b3079a934cfb07c501008e76a914345461a3a21432ea61f48bea4412057dc24b272a8763ac6721031dc1f1516d613673de288ff136eac49e8fa290d2a90d624b185e5cea77c34a247c8201208763a914f91b7d27cebfd9aaea7b3c5a8ff29d6b3fe733b188527c2102de3a59784d9da6e7609e2059372f4f8500f4a76f4d479b38c0b0ab02064e39a952ae677503101b06b175ac6851b27568101b0600",
                "htlcId": 0
            },
            "6fa734b6dd68a4ec5374924405d3f359c29c31df3e5775afc33b8cab86302be3:4": {
                "type": "fr.acinq.lightning.transactions.Transactions.TransactionWithInputInfo.ClaimHtlcTx.ClaimHtlcTimeoutTx",
                "input": {
                    "outPoint": "6fa734b6dd68a4ec5374924405d3f359c29c31df3e5775afc33b8cab86302be3:4",
                    "txOut": {
                        "amount": 100000,
                        "publicKeyScript": "0020ac7cc695a72ece2b540ef241a0befb12d85a3480f0de4a6c4d6469c42d64b649"
                    },
                    "redeemScript": "76a914345461a3a21432ea61f48bea4412057dc24b272a8763ac6721031dc1f1516d613673de288ff136eac49e8fa290d2a90d624b185e5cea77c34a247c8201208763a914480a81e9dea741d5e4b0603e53617e3e9363e38588527c2102de3a59784d9da6e7609e2059372f4f8500f4a76f4d479b38c0b0ab02064e39a952ae677503101b06b175ac6851b27568"
                },
                "tx": "02000000000101e32b3086ab8c3bc3af75573edf319cc259f3d30544927453eca468ddb634a76f04000000000100000001387101000000000016001405e0104aa726e34ff5cd3a6320d05c0862b5b01c0348304502210099138cf5f250e8b4d388b0c9b771ac3ea3d77ad3802934d243b08a7648eb939702206dd025e46eebb9be984cc3a8252bb78088980aef37e5185e589e9c251907f92501008e76a914345461a3a21432ea61f48bea4412057dc24b272a8763ac6721031dc1f1516d613673de288ff136eac49e8fa290d2a90d624b185e5cea77c34a247c8201208763a914480a81e9dea741d5e4b0603e53617e3e9363e38588527c2102de3a59784d9da6e7609e2059372f4f8500f4a76f4d479b38c0b0ab02064e39a952ae677503101b06b175ac6851b27568101b0600",
                "htlcId": 1
            },
            "6fa734b6dd68a4ec5374924405d3f359c29c31df3e5775afc33b8cab86302be3:2": null
        }
    }
}