{
    "type": "fr.acinq.lightning.channel.states.Closing",
    "commitments": {
        "params": {
            "channelId": "abd6f05f60a686f8e2754cd4a5e293e3b99b0cf9dda7fed87190d3b04b5b2c1e",
            "channelConfig": [
                "funding_pubkey_based_channel_keypath"
            ],
            "channelFeatures": [
                "option_static_remotekey",
                "option_anchor_outputs",
                "option_dual_fund"
            ],
            "localParams": {
                "nodeId": "037108815ff0128f7ed22640485c226d9ad64a9fd6d8b41b6623565aed6b34812c",
                "fundingKeyPath": "m/1025482412/1929474787/987346171'/931237647'/659857586/1516206615'/128221046'/2067467114/1'",
                "dustLimit": 1100,
                "maxHtlcValueInFlightMsat": 1500000000,
                "htlcMinimum": 0,
                "toSelfDelay": 144,
                "maxAcceptedHtlcs": 100,
                "isChannelOpener": true,
                "paysCommitTxFees": false,
                "defaultFinalScriptPubKey": "001405e0104aa726e34ff5cd3a6320d05c0862b5b01c",
                "features": {
                    "activated": {
                        "option_data_loss_protect": "Optional",
                        "var_onion_optin": "Mandatory",
                        "option_static_remotekey": "Mandatory",
                        "payment_secret": "Mandatory",
                        "basic_mpp": "Optional",
                        "option_support_large_channel": "Optional",
                        "option_anchor_outputs": "Mandatory",
                        "option_route_blinding": "Optional",
                        "option_dual_fund": "Mandatory",
                        "option_channel_type": "Mandatory",
                        "wake_up_notification_provider": "Optional",
                        "channel_backup_provider": "Optional",
                        "trampoline_payment_experimental": "Optional"
                    },
                    "unknown": [
                        139
                    ]
                }
            },
            "remoteParams": {
                "nodeId": "0362b19a83930389b4468be40308efb3f352b23142ae25e6aba0465a8220f95b06",
                "dustLimit": 1000,
                "maxHtlcValueInFlightMsat": 1500000000,
                "htlcMinimum": 1000,
                "toSelfDelay": 144,
                "maxAcceptedHtlcs": 100,
                "revocationBasepoint": "021a7f0907f923519d4da0e4bdcb344107ee2d4b47b5e93f27014e3a5aefb187b4",
                "paymentBasepoint": "02f1c20fe4c931170a0c17f4991727ebf6b3c48738f0fe0dbb463eac3a58512566",
                "delayedPaymentBasepoint": "03c23a68c8cfe4b551ffaaa6a4edeee0ac20c7ddb5e5db8711b9b20620b3dd7018",
                "htlcBasepoint": "0218e048efae86ff1cb0184dae9a95367d37549c6258ed364e37cb08647701d3fd",
                "features": {
                    "activated": {
                        "option_data_loss_protect": "Optional",
                        "var_onion_optin": "Mandatory",
                        "option_static_remotekey": "Mandatory",
                        "payment_secret": "Mandatory",
                        "basic_mpp": "Optional",
                        "option_support_large_channel": "Optional",
                        "option_anchor_outputs": "Optional",
                        "option_route_blinding": "Optional",
                        "option_shutdown_anysegwit": "Mandatory",
                        "option_dual_fund": "Mandatory",
                        "option_quiescence": "Mandatory",
                        "option_channel_type": "Mandatory",
                        "zero_reserve_channels": "Optional",
                        "wake_up_notification_client": "Optional",
                        "channel_backup_client": "Optional",
                        "trampoline_payment_experimental": "Optional",
                        "splice_experimental": "Optional"
                    },
                    "unknown": [
                        137
                    ]
                }
            },
            "channelFlags": {
                "announceChannel": false,
                "nonInitiatorPaysCommitFees": false
            }
        },
        "changes": {
            "localChanges": {
                "proposed": [],
                "signed": [],
                "acked": []
            },
            "remoteChanges": {
                "proposed": [],
                "acked": [],
                "signed": []
            },
            "localNextHtlcId": 2,
            "remoteNextHtlcId": 0
        },
        "active": [
            {
                "fundingTxIndex": 0,
                "remoteFundingPubkey": "0262927c7f186107ea2b04522abda2e12dad48ff5d58646dda882b61f65cf6678f",
                "localFundingStatus": {
                    "status": "confirmed",
                    "txId": "9b2a64072912064cdbfbc9f79a36d47af48b458f9ea133c4588f53f59d3cc307"
                },
                "remoteFundingStatus": {
                    "status": "not-locked"
                },
                "localCommit": {
                    "index": 1,
                    "spec": {
                        "htlcsIn": [],
                        "htlcsOut": [
                            {
                                "channelId": "abd6f05f60a686f8e2754cd4a5e293e3b99b0cf9dda7fed87190d3b04b5b2c1e",
                                "id": 0,
                                "amountMsat": 50000000,
                                "paymentHash": "632721426509eaa886c3e2adae52e45f1dd04fcb85a8190f9387db16f2ffb6af",
                                "cltvExpiry": 400144,
                                "onionRoutingPacket": "<redacted>"
                            },
                            {
                                "channelId": "abd6f05f60a686f8e2754cd4a5e293e3b99b0cf9dda7fed87190d3b04b5b2c1e",
                                "id": 1,
                                "amountMsat": 1099900,
                                "paymentHash": "e7e10459c06c2ce4e68f0d7a31df2fc564c67a68ab5dff97984ac32d272bee99",
                                "cltvExpiry": 400144,
                                "onionRoutingPacket": "<redacted>"
                            }
                        ],
                        "feerate": 5000,
                        "toLocal": 748900100,
                        "toRemote": 200000000
                    },
                    "publishableTxs": {
                        "commitTx": {
                            "input": {
                                "outPoint": "9b2a64072912064cdbfbc9f79a36d47af48b458f9ea133c4588f53f59d3cc307:0",
                                "txOut": {
                                    "amount": 1000000,
                                    "publicKeyScript": "0020479c37a0e82b2fc0e0429b354c6a7a404ec4421c24ec04697691701ce841eff9"
                                },
                                "redeemScript": "52210262927c7f186107ea2b04522abda2e12dad48ff5d58646dda882b61f65cf6678f2103b34007686c9f4652ecce8495a1d47591f322289903749e03f902ef741106bafc52ae"
                            },
                            "tx": "0200000000010107c33c9df5538f58c433a19e8f458bf47ad4369af7c9fbdb4c06122907642a9b0000000000d1489680054a01000000000000220020cca63a05053e3136be80fdff0b910964921e9a86abf2f6c8a5a2572c0b9ec0874a01000000000000220020f6c0da7bcacad5eae05b637a064e0b50b9509ae8605b7935529abfbda3d5d02150c30000000000002200203b089cd6e67ed390b14fc4f427e31096e57d0255970f2a320711324cb978b86d400d03000000000022002027e4847ebe39f77ddb74b6f8db707dddc0bb390c67a87ad2650a128b7d500bc680510b0000000000220020698a6b11e81fdaa28e0efff32d4d93e781e4075e1c6c381e7ae35ab16a6a40260400473044022058555dff0574ce320e281e1ff9d945674f710e5a33aeffcd2c0a105bbe1c2bad02207389c84098615ab0f12dd7e9f951ede0000f205fda0f03fe958a42bfb59c9726014730440220256b21466dd455baaf05e9d650e1e0e2f6af821f40a6ad60af6792473cb277fa022068944c1ec29b2a7d08ec497258472474e292ab1dfaaf3d4abc5a1b409604c2d4014752210262927c7f186107ea2b04522abda2e12dad48ff5d58646dda882b61f65cf6678f2103b34007686c9f4652ecce8495a1d47591f322289903749e03f902ef741106bafc52ae12ef0320"
                        },
                        "htlcTxsAndSigs": [
                            {
                                "txinfo": {
                                    "type": "fr.acinq.lightning.transactions.Transactions.TransactionWithInputInfo.HtlcTx.HtlcTimeoutTx",
                                    "input": {
                                        "outPoint": "24f0d946a87c12c7fa345d04f2f2e9623074bd093d44229e8d00e1422257e015:2",
                                        "txOut": {
                                            "amount": 50000,
                                            "publicKeyScript": "00203b089cd6e67ed390b14fc4f427e31096e57d0255970f2a320711324cb978b86d"
                                        },
                                        "redeemScript": "76a914d5e58503b9c9e98517f4acd6fdf3c55bdbc678478763ac67210295384b0902700fcb0dca94e5df1ec0b8fe67fdc8668c54339baa1c0e24db36887c820120876475527c2102207023f99fd0b891f484202383085203fcb240ad8712ce73c4920da26ee4e31852ae67a914fafabc04f1544f6d4e88eba2fc1d236c3e9d729488ac6851b27568"
                                    },
                                    "tx": "020000000115e0572242e1008d9e22443d09bd743062e9f2f2045d34fac7127ca846d9f024020000000001000000014eb6000000000000220020698a6b11e81fdaa28e0efff32d4d93e781e4075e1c6c381e7ae35ab16a6a4026101b0600",
                                    "htlcId": 0
                                },
                                "localSig": "7b01095b2cf2bf7311309280316f1528359efe79f2b352d37f8b5a28dd0b0a3a7a0f4228181436563ba31a71bdfb6d7470600df6033263cf209374d2f8fb2263",
                                "remoteSig": "29503e87f9b949d66cdbaef5a011d52d3f01fda29912c342f2e6ed69d74755bd029544a42cae34e45aaf92628b9eca98ae2441ec4433f8bf8714224f82cc852c"
                            }
                        ]
                    }
                },
                "remoteCommit": {
                    "index": 1,
                    "spec": {
                        "htlcsIn": [
                            {
                                "channelId": "abd6f05f60a686f8e2754cd4a5e293e3b99b0cf9dda7fed87190d3b04b5b2c1e",
                                "id": 0,
                                "amountMsat": 50000000,
                                "paymentHash": "632721426509eaa886c3e2adae52e45f1dd04fcb85a8190f9387db16f2ffb6af",
                                "cltvExpiry": 400144,
                                "onionRoutingPacket": "<redacted>"
                            },
                            {
                                "channelId": "abd6f05f60a686f8e2754cd4a5e293e3b99b0cf9dda7fed87190d3b04b5b2c1e",
                                "id": 1,
                                "amountMsat": 1099900,
                                "paymentHash": "e7e10459c06c2ce4e68f0d7a31df2fc564c67a68ab5dff97984ac32d272bee99",
                                "cltvExpiry": 400144,
                                "onionRoutingPacket": "<redacted>"
                            }
                        ],
                        "htlcsOut": [],
                        "feerate": 5000,
                        "toLocal": 200000000,
                        "toRemote": 748900100
                    },
                    "txid": "a5a0a814029bd641a3ecb0e0bebd899d4d70548f8b1871b76084a61da84f9080",
                    "remotePerCommitmentPoint": "0301cb095962c34e028958d65ecee6abd111724e3135b33e8ead4df798fe67e9a2"
                },
                "nextRemoteCommit": null
            }
        ],
        "inactive": [],
        "payments": {
            "0": "2d1c5af8-3432-451f-8163-96f24a34dcfb",
            "1": "d83f5bb4-9dd5-4828-afd0-e382bdb31228"
        },
        "remoteNextCommitInfo": {
            "left": null,
            "right": "037a75bcb1e54d9696851e4447b928c60f34d226913ca95c882eec2e30262614ba"
        },
        "remotePerCommitmentSecrets": "<redacted>",
        "remoteChannelData": {
            "data": "040294b1d6b8bbbf2ae95afde0fc206a62dfe18b17abd6ffa9fc1f7ddf8213cd7df2d0d4673ed5345b08109b9bd0cfe11871efee9db706473114709a608a7f493696271f345c101a6d237552e638aba52b42876515c5974985d0bd46be00ff5494da4c7fb1ceb85caa9f1cdf1bd918594e7f2e8ec41d4fe9cb95fdfb29b20119a01975a4c99a085447c131ba511cbcb8cd9ba808873b9a866c6adbe5c29b72b61b767d260a2fdcfeba8629759ad5df0eded708da5dafb3c50e69221c2822816d1a4b034adaeb45c86e0cae865519e7e6500b6a0269757061f01d53d7bfbc6861ef86ef47fc8402e0f8c6fb9e23e4d11ed947ff30e405e195ca83ed68d85f0391c564a45caeeffa214a51a4c726e469d5e019372652b707585818bb1520ac784615b71c4ee7953b398465fdc1390fdd8bddcbc1fdc05786fa627475b50ff4e36bfdb4a370588db7770fbe2bde916de08d373a2fffab9f503bae478c4d10fd4449931c26186f38827555cecf41dce314a492d74c9d4f456ff8eccadd06e62040500fc0099186e58b095b454646343534ea2fc7a57a2f59a08d456ca88f0464485998b6b6ac43bdbaf290998cdfd021fdc939ddd5719de6b5f7260e039b82e443651f9dfd61bb2d4fa63789fa5085ca2ef52399189a8683543358fbfd7a6c1969a8f5a524a53a47f0b9b4acf197bd755c7d3324f48f42872a8191cbd334f7f79fdacc9db6fefcb6f5c39f13536aca27d81135628afce5cade62cf2233431b42f6c2e9f02882e04493fcf5aa52095f942c75824f8fc854aa64cac39722ecfeff14e7bb7d01403e61762c3e1be9c3e9634f2dd5a0fea5fcc446e8756f3b65a513ce6000a264dd3d042ea08a9918d23fba65dc4e3a7bc3cfdd7139010c9da4861f7523536b09aee6587f4e1fad1d74938c82d7a7ee5dda51434f7150dd62926e170108d1a9f62991946c96451ac8a2729e53ff7d4f805479dd0945da25d78b041913305b1d07e22ee0fd39a03b46d102e529980aea0a949971760767fcc9e258a0b174ec9f7627bab78cd27788ece6c060ef11f1bbc57e4c8d5dc04e82fa692085dc244734f3992a8c74a8b213569d3b8dbc159a4770b9584912db19c1c931dd899b1eeea89b052d0a43ac532904ed64eba6e8e318bec0ede7545c9b0e6cf867b3133bac6cb93c6eecd1f11046dbb815144bad0fbe90e01637b1a916f4bf436f09094263357ad40a94e7f678282a5c3488cd03f7b14190a5201b0768f7e91944863d1a36b659e88f4e1fe7c8dcb2811b1f8dca1d3203f358a2db6adbc671a3dae73c4c0b253d16b8edcf415b5d5fe55ccd2a3f27b50d9d5a83230f9dcfc3a69eae0f6919888c4292250378544c041d08ffb5fc05c1076c5f94377779a4d91dbcbe9953c001fa44ff5c7c73e45e8a7793a5d82bd21d556f4650d9df731127a0f183dce4e6d626c11b51c7ad2c360111cd1f047544b1508a713dbd9a1ee2477c4a173f4e1e6cf09db99c420f8fce113d6cd2649adcab764d3415b62f04d44d064c7a6c03fda02665a275de28950d2e014bc41c32353ddcb4c4f5a494a2ff5a8cbf58951fc7b743d8765d5481335106c57a51ae671c819120bb5ec9eb2aa30a2ca77c3c595d564ff7d5d7988734a236b06ed5e29b0ca78ac2ab765de477926604e75a5abf73d6b6475b9ca0ef6aa42da8f7b93bfa857d6d761057ecc3c4e7c04cad4977d43ad73d972989319a3ba8bb76ceca4a8faeddbbf8e262432d89039d2c693c361ec59abd4916169d9c4a502b5eb0af4c79838dc3193233486432620474094e0787e3ad37015a7cdc161c8d14a6aa37444fddeceb3fd676c42dc188963e217a814ad884fa989ac6c0846908b485235f4787bfc3b579377aff29e6eedf28eb275c39994960be0f9507201c74994c6c49695321dc9c580b2098e98d3eca4d8775108737be164f205233c0b2d3fbdac2854af66ce011c5af4848e243eebb64f020f106d54b4b7b979894bd2968c5f33f3d18a2f0f7b155c08fab9688b296e83254d251d3463def541fa9b872e41d0449c2fc5c656fb55f679f878e9288f8455c882752a6b55263f755721456afbca7b5a221568c84a5fb2a41d96b08fb2070ea1abd2c4a1bfe8b1a871b198169cd78f65cb81f4a8f2c4adccbaf408831a6566ba0426baaf9de3364031129af7d82edf2cb7f3bf63c5445cf12ec8d2d1c8e22d32d849d682dfd48d8b68696d99b566753b57d034f230ada182e0de48f601ac413c234241b0ec1d364d26e487cf6b30904e31175e32422db962edac7ce2c6f1cc19ce1d99f8016493c0ee44a3021bb485fa5fa23b0078a427029f3f32df56a2a02b6966d103f288fb3df021d506b4572a55dd11927583761506419a2b7898cfc2f7150473468c09d49caf4a7379692c0e15fe0325b049bf19ae8a492b7c464898ec6e9cccd10e18a3ded838cc6e2f712a816d9e0591fe9ed624721a0465e43026939bb3638e823fd580d94edceb3c46119449757fac97be125ab89f225406ff2ebe60c2ccf7b023f6d5d43b62bd0a3df3b823ab695e1890fe9a441f64a9c819b1ccd11baf3e1cdccda2cffaf79a0d04e27342e55140ac9e7a5453bdc5db5523566a045e05683e5521b835af7328d141529c03687f30fd927cfc8f528b7c532bb68ef638e0b4318a768537868c13c17ef7aa7cf487eeebb30086204cb150103432de0747cd78a02fa0d90be7b11bae589414cc67ed5554bafc371737c10f7f1289603e76780104dd3af7981fe6e7125a827c14b004c3912927621bb85fcadff9de441bfcfe4608635b56b5caa93e9b0faf1e762d21066eb27b168b3f700fe48e00685f4c7eb38b9781110c774ddf19d71ac0120133566dd5f00d9c4f04de04896712a7316bf3ee729959f7e306b451d8de1dfd1ab5a60a1307d9b21c9bef873e72e956de96953ab8137f000252d0d4b05b33b9b08816e7d4486118aac6d75859b87bf75d12a215b95bf95c07be983a053c0462767837916b99f99329079e8c794632f912c644f5cd3376662d34bf29617f9a789076a2b6d92fc10f7fc1f528f4f51c83d0d16c3671647b144212efb6940ce18c320ddfaa5deed4bee8d595cebbbaaf56e5586a01bcb99f0409956b53797981fa72cab8ed434980ec75142917f4e3ea49b099dd31229412b2208913cec1bf96566a5bc98037cdd535f226db56d9af5de2357eb8eee6fa884c8663390adc8eef25344c888447c3a0073064ff6f53dcf847790a896fd78064673401f76714ceacf3ca20008af958909babfec55d5c728a062d31725ebda98ee5775695bb6cc32b9d90ea9f0a8707fa92d7a9ff4e72d55c40fae4673f431845ce078291d325c5b03b680d04a3ca94ab4c66c039f83d2b09cda6814761526d08895454bbccb4363c67aa6342ee32b91b81ffda4b8017657c92999c63e6f73334dc687240a6ff40a3777308a0a1ed9b7f370f822dd3ee36a38fca7ca023649b295e70c717d224912605b0d29f7ba838b8dfef1124c86b01a19005872c3e2bf61c693904e00a05428df60ac2d8bae88bfbb046e269dff79d6309283b38e4208ba36696cdf5c25ca3d1ef1fc024df4e9bc9d879db2ae29c262d9ee4f8b9eca5a7e06972e81dbf7ec631812d18ea2739a54426c85aba0155db716bb32cb75dc8e51a43493f75a0e465047c3275a33500c48a40c24d7c31300b2f6b30b159a7f2eae4f02a6d66defaf0423432da5d023cb10152bd8856fd11d67e1c1710903bba1dc54ec227cfd4307e688f260d8f94dee3a256a3b58a97c02eb2a6b0657d8a5ecbd9dc24e6a95271e9c436e0ee1d0fe55ae303477b1356d3e1e92b70514611ba86aab81218dbc95712dafc4a0eb2e629231fe2d0e30b6bf7250c1c271c74123e31e742e42217faa5cb0cb1d3771cff30161aff668d923378d59e565e2c046463e13e5b57e98e824c86e9856a46dcb7e0ade0de659f4d126eb4cd9540e6eeb750969107c5f6234c460d8c76fc2d43ad7622848a1c4f7511c1fa78a270007299463ba6bb08176c6513096461d3f2e036126d63b0628d418b63e2e49a30fa79cb60df5f55336ab88ab95380a731a953ec8cc7c595a3f8ed16b6d75fbd32868368656f915f9441ccee46a67fc402abb2fe3488525ab388eefd5f8b4c9676044a5e4acd084f0a8b6c193efa78ef9aecf9937614ad8d64970fcf982ad74d5dc28c7f830a74151c37ef2ee2643c2bc196bb2cb6a92d18047fbb4f6aaf6768ce2812f8e8dbb2d636ebbf11c3297547fcf1fffc7b9c12a3ee0446dc6563440fdd8a8c86261f9e4a30e8464600dcd4da7d3e1c2aad61d598f09b6a415693071e149f76ab871e7d5ce16a983103281025ff93e4c0d1281c5123a88268ed728a6a7b7d8e66e8e394e84eb4205f2e4f610adb40547c3743cbf2495da67882500b1a58bbdf6828c7232facab36e14172238df6d79d371ba234a4430fe5c734c403a6de1221c6aaa579b5c260cced178af1af733f018037ef7dcf9a1c345c4ed6d35b8a329d44a2825725864951bb5c87f3d1fc1fc47548cf6fa42731837e0b8435988987774cb4f64f965ded0ccfa7129b1a0965429a2aedb191a0d58c03fb86bd3206a5eea9cc3919c101f19d2da61a1414e73fbfdb7fbc910b7373a45ebda4e11a67ea51ea40f875ecd28598e278c4949a769cafa3fd423278a358aff4bd1e48e6d5c686ba0b505f810a6b7f089cf27e95eb10d1089ab30849088c8de06ef42f68650770bc4875862e0fba05060b68470c02d83d65b60d07765d0b93479b7a70d30c6530f10c4fd1bda3c1148d3ea04c54f9d56f5bc6e0edc889fe53140e03217b187cdb047e99d18b7de397e1e494359ebed515c2b8305c6559f7eb4170f5ac524c6d1707f5c46130a6617bcb97d3563aea7bb72191da3994ef64b337cb73d9708c0b6c974428447592e1000221146e7aaac3f6344b4570e3e1d3f1c4b8cefe9c55d157682937bf4d4f0026d5a7471abd0a4b4565c04269573a24fe15b0e171f1832b5d4f5ba372f296f501a8ae74c3f93a784ea07891530067279347e1f0a918e5216f50397046152d6f4ec5a3eaf2c8831ceca30896b3baef1b1b4476904836ccfe6a0b28c688ef05508cabd33e6013c1e793800303f786b2440ab8107168746a56f33690c783458c801466e89dd5eaf6c90a06db90f2a8ba99d6240f0e70d960d6997495d18af7b488bc019cd8e7d215ae886cd3b30123708c042622996b1972c65b5f161740cec4fafc12ba83b6bceaacf654b5b3e31582ee6937e363240d40cadc3c7a58f112546c4cf397b6c84c356a050b45678db1118ac4d4c052ed506bef9f522f18dcb60a48726f1fcf6643eb7a9239fafb06ffdf16eecb176f616148f377f98ec03b506b3e6e0891cc33fedfa4064d5286014f29a78ec1eda45a519bde9d8167f3f695ca866b1a72e6198dfc02b8d17335ab498a2d633401af21f277177335b51c5a9b3be7d450b8c8f98f3b7dcee8d23b7285ab59d7979f422575de0756fadc3b166dd63605c872f72a41875c3e45994618c958dc386136f2d1078f676a57be0c04ebd1eb31ed993dd7676f6e65dd7c6b83d5995f27ee75d788cc661687bb39a025f8d8de116ea6331d785308ff95671d0e9ee0c152d25ac0e6f7f3048d1201ad2903c4fc64f5c3d124e3f9c79d3ba23bc6f4b839667ff95c4bfd76a9125667fc353f1b447d2df9e3e12fef603d239c0856e659c7053fb259bf3f307e538dc4bbc340cd1ea02ecb2be095e2bd62eef79e88685d5bf77eb05d194be81e6ea6aa2742391a6508d221e51c9a5b5f3d5da87443220be13f86f9a207db8d33d0fddd1c209f20dcb98b2a16a96ed90a1a69382f1822c55215bf9e09f26ec6fab491007973b10c9b124b6a20da18d3c59ebc44d7111fe34cb22766c39f0fad7855a4dd3d7f95cb05ed295140abf067b3abf7d2f5c775cc4572954f61d5dce266aa9c5d6f42b981fc1138e63145433a6c859b12fc2e3bf258fc92ddcbdce34790838786e18655593a7bb43d835f372f4d6066a5e5a9c256ef38614e743d41d7ace43c1ac86acd900e9e80896f8d40e9eb341447ef80153790d847422cc526c295b6f3818d5a8f48cb4d2515d722092d3825b265b21280c761d37799267fe226539cb896e574410ad5981812d013ab9c386f2ed936c7db4f03f1e840d3cf1a1107813332be93bb658fe5d9eb7689307c7523f4cf901e3e60794ecc7d58310c38de8f9612cc95fee8f0166ca30914b38876bd3c6d3d363e8ba789537f59dfd24616e11919440d129114743b25984ea991136cc03d7638690d20ac2c3679aec2715015d237500410a27177a23105262613f3c48914356813498a4ff2f53bd933649550f7ffd4142ea216b0247e0a0284557fe5bbc4142183f600048783d3ae3b6b6cb49e0824fdb33ba7c9ad53c2a32eb1c9a733a46c2c28cbd01e3f0fd734ba81e391aa3502c40a5a55cdc914cd2773ad9fe61c3cdf9e66bda8fc9d22704e59f0be9a9e66cb6a0fa447ceb889c76ded23ec042cd5ae7724f241e45e64bf3c6d5ed1bb307fbb29027539adc25523ae1c20947492ee0025dfeabac7d5df58ed9691e3725ca2a6d0f5dfbb4549b6deb98321fe656b737fcafabee2063d46c86a59e004acfca8c0cf37b16cb07b9be84b5de423aad9e02e315ab27c0efd188abe5760f8a99587c259494c17ac828a6b6339cb55e46f9bd2db78d9f42268c95c088b81e7f9c06198d8014566af5fa7c8965fee5056744963ac379d246a9343cc73f1b68f97103b2e4040f630e802f01ea9969c22d1184c3af3c3c9974c623606532c4b721ec64215901fd3ca572200c2e98690b8a6e7bac3f1ff6fcf89c2fe6ce601176ee35e9c30cc7b819f5502c67b164d78a66a9edcaafa30acbcbdc62863ab11487b4c2952e8f95455c30c9cc2f14a35dde3fbb21ead575b46dd5d987012b494831fa6996193204aaa06037be65f93f31151c0695d479a57f87e61d81ac111e9d14d218face37b94320bfa6f6e4f07b266de6b7daf30e3e34fad1f798631831614fa3b0f805c4253410a5d9a75c53874d255056a39d4e2dbc8a34f564fc0ac2d24f12452cb0bb5484223146e85ce06df2066d8931cc49adf653e9011cddc75a6c07e56e3ec429c22f98d19fbe0f8d92962c0a0bb8764c8d23695d224209f8ff06770c7401e983a405bff235673fe6be7a0ce0b3fed9f1624ca89c8e644870d9243fb22960db7621ce3d891cd507a9a331b9919f317a81c437b36389bdf1c57731584f07f4aeda3c779e6df6176c6f660e3d992939a29bf1ca0f6853e40fe85e9eb548343434f310ebdf0427da734caed668d8598e1c3cb88e104d5cc78390b78b0fc2d7559d6299d5b12d40c1893214d792faeb7b8690789c9293bff42f804d34827f09a2b4856cbf2c9dc9d95985fc7e9a9e9330c559abf3e92644ac2d3e1fe827e587c7caf1c4569b1da4a70693bb6a822426a2455e65eb46001410acc32eddb18e32ecbe869d2046ff6f38d29305d106d26989c51b3fb81a4a324a577573a6193372b7f39c883c605c0d92149ce313d56a87888c9a4015fbbc3b5bd1d809cd98f7a030fa4d54bb4c57942589c1a4a7c02f0171f689c2c271a469dff41afe299db5efb9d7bd5378e571d1d47791422097e8250fe2d4173806fb5f45c90f5fcb6c4eb30664eead0d8c92949647ab9322e5c5096af0c2ed854697b36967e1e062508a2e91fed4a25993b7eeaf1dd4b3b26fed278317327093f4e4e1303044f9d08f748d7d32979a0c355d660126c2b6ce537a4871f152884d9eefb105812407548b7329d82d2190e20b958f744a6cf641d162dfc2500c55dc2c4ca077195b1ca76741e8b79c46b1233b73bf7b93649df694925fe0e1592a2892f93452ca5ed3580c7852bbea57db4e55863c95639e61a24795a23a8110ce0dec744b24f43d7448ade0af2c401bb109d49243308c8058a009884db9661e74dde3e846942b81daf46daa4ceec5b3d5d19d0b52a9b62fe185be3d05362b0bc2eecffea4f8e79f718e465ecc43a99111f56a644433fbb29be84df0dbcf57e93673fe423739e50e77533964787b3bd8cea80a66d09d246f7fda413bf8e1bdf4a7f0725ee65c1821517137aaa3b1471887db6796d9f21076929e44096b66b989014b2decbfd364947f098102381c4f23f27335fbe9c69eb519d46e96a96b1b54d774e2c959503bb0a414345fb9219c0cf4177033c7aa29e3dc918553dbad25f5e0ba8de273d5108eb791e59b02c5159e12c4877595640e99489e6d83389e4793f49e7a5466e2380ee47cf1448d1906f3517911811461679490375a1d89a688ebd7d627576d5599dce43ad83ef822a3a348a9e0c7252ae7e68f823cd9ffe899d038e56dc0d7f317d19bf77a1d86836af68f0195e1cb1f6ca297a6089cc8daf33db6c7b4c5725d3d1b39e4dca84e13958d9d86b91154eba8ff332b722779ed3d0c37c79132d4c8b4fa07811c5f4aa961c6530b30af97da37b829df8ea42ab7a764f21e862d4904b0863802abd47763ed49b3fc4f911566466b7a8287a5f3d559f225291b62ab4802e4a9e4841ff29563dfc724ee355462bcd5c08d7051ebfc0e51c60c58e09803e08cde389c27f6d6423f9544c9d2328498dc114a7b526910d6769ed20712f2f95f23f5cfb8ab3c7868979d6d73428c5245f83b45754e4f4cd39c4ed62e35a409fd0e2e13a6d399600143e2d40dcca93c61abd1cf23f2dc850d9f9d952fb0a1b2c31059db6bb49acbf2227f6a982f73624062a8fb9d4b5d0752dc4c23cbdccf27f1a9f1293ed246c1bcd42a9b4fc2fb11a9922b13be550f8021055f16261ba75c5eb0999694692fe656ab01bd26f571729b4a5ee99aeace04e4388ff53d6eb4a34dfdc2c8bafef9f8a5e70e9c1c27f8050a251f980c535aea368001156a73365d1391b2e90bc0f8883673ce09ec5bb0d774ce1dc14888397b27261bd88e95665b24b9eb1d00b185a06b123b34de61c1a9fa50a3430129259906f71f66392f7531778e3dbf9a17c5f36dd1ffa3e36597fd21142be6b5defc551c20387e0c6d68d4c1b8c4695525edbccb659190d79a8bb694757c5216b677946078fbe184883e5fb452550ec2e37b781d586820b64870ce56cb59c044d38e96dbaca97aa83e13a8b6912c082e91ea547fad6240928b7fc8db645173b94e8c6b870d09d62465acb91cef54a23668a10abdb716cfb16cb2e1fda65ce6ac1ee7bde02a0d3cb8ea7eacc728e6d5526d6e202792bbbc188e4164b4ae97a59bf3c3f9a84e8d1b8793160f2e12ab01974c4b69be5f88d1a94a2c99ee956143d210f5064213724b828b45fc9ba093d74ed1bd2cb1319abba3a516bdbdfce14fa151d17aed0b07c406c7c877aa45d7529c951506f3f6245c416bd8e20f447290675050c52eeb7c3de2679c64799a08eae388d15e3aa9dbafb1ff405de21a5329ea8d588f7ca162eeece77b117bcfa02f3a0058211724ea2f1ddea3975ab0f01f6f99e712eadbe5f540afbbfa59bed20085c5e37d96983c90189d9ad737f77c6ffe05c9355e5b4b352c6f94ff80b84b796570ecfaa8a7cebec89f3e69bdde9160a70c2cf147d9a59661e977772416d8064449dbcd5c62e5c3f611f9efa6ef14d50fbf89a94047d17d6f15e11a952f6efeabd5df16078ce1379b122bd03d1146ae47d01e6a00631736cb8f588479fa5ef2a1cbdec215538e8a4479bd7855cc17795d5fdc4fa86f4369704999eeb7965f492e4185101582dc7ae04944678d4a46a9722774c000cd4b09c60a833b4f32517dd92cff81ddb5d304934d80a3668a61b9da82b89d6cbb46f8852f58646df8d76ea86a39dc87eb4735872ae438095ff1e07266761569be93a0f900ad0eb3ca8c3c908c097a2cd8af49d67fde193844e495ac5a7c9676de3eee60a839f56361742df644a2fe2e05db7a6b61fbdcebef875312e7dd6ede682e18c0d4fb697ce0788c9ec709edd0b941e928f8daa90d443330c9ec34c03487127181fe233def2acb6278c84ebdea3be5f9c0a6812315f5c7b0317722b71da1a681316fc00fbcdb9fb2a4feb2a567f13d6e8ba02c5ffad6adc3c2bf11ac0fc5bb2c9a08d5d07da904f674c20db3478286ce4febba5c0edea97fdf62e5a6f70cb898eaffa95544c211a0c361abaeb74261d8e9463efc939eb47070840c965a3a4d1b19f1dfccda39478d3769c55286ba7953a03ed4c4ab05254d7ffbfd8dc87a7778b9366f76d5771bc923acb0cea7dfd8cd3973840736b916ef7dc9fc11b9db2084c0eef73b1cf6f9f84aab93b77751c7c2ebd0a782db17afc98fd10acab054df341400d1ae7aaf0032d6740201bea7f66599abd66b2e5314c0e8a534e3f9b8e87b061f372811ae1a72860b51ffd42d62fc45b3a3d6bb504cfe697023164a939df7e04b0531559a874086819058fccf841acef34ba48cdc26a8ed1c03a0b26001019072e74a838ecbb6b5d1ae2d3678560ba4917ec911c6ed44166bd6fe7085b213910071c6c740d5ff0d409e0d9ac5dadebf59b5a0b29b543ec46f1001ca5eee9818f23cde7368c82ae9d007092bfd2c171adac7c314ec6341567607d7d38cec6e1a4a89fc9faf58e2e5da216cc3c9103fb2c0b06cf9bc41eb575209149ea3dde3f1dba4430912a2d48bb7517bb7c092c139376b7bc1d2833ef1fde1a94b14e9d8fec1a29f6198f2fe5818df1a6b90ff991f473dffe5d6d16f2c8559eba4e80550a039f1d28cf4c79b58de9a2d225fbda686951e781c222b48c786904c8b7006e295f60908dd0695706343b21afec2daee6c4c4a7e06a612ef6592440d62f936b855bdd92bab46eae3bbed6dba0e43186bc12eae85459c9fabb7fff81f5c18187025a6258a2ad7f08de7bec8dea4a148fbc97d2f6a6632f321fc50c46081bfaaaf5d52b238a021f266e069400b5a78959c76bc122d499e0819ba02a21088dfb430d82e74877aaf22ee954083fe45e123271fbce7c0bac590299de0c53d2821300f8958653f6af7a1e8fd91076b111b263a94c2da40cbcb3df5e5abc5f6a1310832f219ca9c648d541b784bc8467cb53677af58a75a8d8e2891be5749c09e640f87f5b800c394ed01ac73878d1f33ff230f314a2b1097207ef07ec2da3195cec150a9e9cb5f7e94db48fcdcaed7ab91fb653890e40f540edea1ebacd1d2a6a5f138431dc9d63256ff4c2b028d76935a2b33180f8e23f21c897500ea891bc5791f10bc226335c8b9421ad4b945c1d776ebcbeefda7f6cf24d7aedf75ae4a0c500a1caf2de894914f10511e928844eb74b32c881d7986fa7d00840f778813dee856df6525accbebbe5fa7aa0f3fc71178d38deb88c7e71b00756dec30027eeb51971561608484e74e08f7695078eaf224c33243c2a06314292f74de839f55d8c2f49947d33d6f17a308e85e2010f868f4fc774d2a5d242b4343fd53c94b1032c9e6936c4a0ece70c2268546dc8ff445119e2dd27512ef0100d2a5767b57edf328b32d9923509f11792089aa80a1e0177e7c0cebb751ba897ac71d09851c2d97dfb241ffe427d25bfdfb0eacc091e50b661021473cef975d9ec077b4805a54b85a2dc1701f48701d77597d15e35932f4834ce1c0f356bef004d1f71519e28f06e06d57a44758242281e061558b566739aae6271267640c5849843409edd401cf6a7fd07cd134f4d0e43b8fab02c8cd8de05421b095c01f171083904d85babc86d963334b32f265f511f0d096ea51c90e23078b8551132d9944640d8c9a1ba1444378c12807c3cbeff18116ec4ac6389bede33660519c97c588839f4d9eb23f971a9e94c60882fbc351e94e2f953a8924685fed799fa5b89896f3dd39bd78df95a3cf6f0954af7533ddc5af68175a1bf9ffffb009b5fdb5ca48ff8b1392c9f42081b7a8569b59e2efff9d0f54f488f926c41c990737f9ede6efe6077172bc873adabc48c8cabfc5abfd32843b923f04b4e213d335346f3ab894dca48d3e9367b588b8f0f1e36e79de21d7e857ed428c89a44b354d232a29b5590858df6fa00751faad53e44799f58024608e3e3e78c271b7ade034b5d4b0e01db64945a517caa4ba886195dd53b606f1316a78664f18f66f2e8e5fed0b3e9d8f10bceb"
        }
    },
    "waitingSinceBlock": 400000,
    "localCommitPublished": {
        "commitTx": "0200000000010107c33c9df5538f58c433a19e8f458bf47ad4369af7c9fbdb4c06122907642a9b0000000000d1489680054a01000000000000220020cca63a05053e3136be80fdff0b910964921e9a86abf2f6c8a5a2572c0b9ec0874a01000000000000220020f6c0da7bcacad5eae05b637a064e0b50b9509ae8605b7935529abfbda3d5d02150c30000000000002200203b089cd6e67ed390b14fc4f427e31096e57d0255970f2a320711324cb978b86d400d03000000000022002027e4847ebe39f77ddb74b6f8db707dddc0bb390c67a87ad2650a128b7d500bc680510b0000000000220020698a6b11e81fdaa28e0efff32d4d93e781e4075e1c6c381e7ae35ab16a6a40260400473044022058555dff0574ce320e281e1ff9d945674f710e5a33aeffcd2c0a105bbe1c2bad02207389c84098615ab0f12dd7e9f951ede0000f205fda0f03fe958a42bfb59c9726014730440220256b21466dd455baaf05e9d650e1e0e2f6af821f40a6ad60af6792473cb277fa022068944c1ec29b2a7d08ec497258472474e292ab1dfaaf3d4abc5a1b409604c2d4014752210262927c7f186107ea2b04522abda2e12dad48ff5d58646dda882b61f65cf6678f2103b34007686c9f4652ecce8495a1d47591f322289903749e03f902ef741106bafc52ae12ef0320",
        "claimMainDelayedOutputTx": {
            "input": {
                "outPoint": "24f0d946a87c12c7fa345d04f2f2e9623074bd093d44229e8d00e1422257e015:4",
                "txOut": {
                    "amount": 741760,
                    "publicKeyScript": "0020698a6b11e81fdaa28e0efff32d4d93e781e4075e1c6c381e7ae35ab16a6a4026"
                },
                "redeemScript": "632102f1ffc5973b847e3ac8b21a0aa624de4fa0c68c272ebe6f70c3630ba67f4f7df867029000b275210359cc842b0b3570536c4d8e3ddf6d6ed84c826369cbf79c2af8cd46c25034f31968ac"
            },
            "tx": "0200000000010115e0572242e1008d9e22443d09bd743062e9f2f2045d34fac7127ca846d9f0240400000000900000000111480b000000000016001405e0104aa726e34ff5cd3a6320d05c0862b5b01c03483045022100dd20026096adec36aaad856c4f1abe398e8d6888311c665cad2da734439ddf89022006680b414b9cd31f10b5e5ad3d2bf92af73f7315db17db242a3d1aa17007833f01004d632102f1ffc5973b847e3ac8b21a0aa624de4fa0c68c272ebe6f70c3630ba67f4f7df867029000b275210359cc842b0b3570536c4d8e3ddf6d6ed84c826369cbf79c2af8cd46c25034f31968ac00000000"
        },
        "htlcTxs": {
            "24f0d946a87c12c7fa345d04f2f2e9623074bd093d44229e8d00e1422257e015:2": {
                "type": "fr.acinq.lightning.transactions.Transactions.TransactionWithInputInfo.HtlcTx.HtlcTimeoutTx",
                "input": {
                    "outPoint": "24f0d946a87c12c7fa345d04f2f2e9623074bd093d44229e8d00e1422257e015:2",
                    "txOut": {
                        "amount": 50000,
                        "publicKeyScript": "00203b089cd6e67ed390b14fc4f427e31096e57d0255970f2a320711324cb978b86d"
                    },
                    "redeemScript": "76a914d5e58503b9c9e98517f4acd6fdf3c55bdbc678478763ac67210295384b0902700fcb0dca94e5df1ec0b8fe67fdc8668c54339baa1c0e24db36887c820120876475527c2102207023f99fd0b891f484202383085203fcb240ad8712ce73c4920da26ee4e31852ae67a914fafabc04f1544f6d4e88eba2fc1d236c3e9d729488ac6851b27568"
                },
                "tx": "0200000000010115e0572242e1008d9e22443d09bd743062e9f2f2045d34fac7127ca846d9f024020000000001000000014eb6000000000000220020698a6b11e81fdaa28e0efff32d4d93e781e4075e1c6c381e7ae35ab16a6a40260500473044022029503e87f9b949d66cdbaef5a011d52d3f01fda29912c342f2e6ed69d74755bd0220029544a42cae34e45aaf92628b9eca98ae2441ec4433f8bf8714224f82cc852c8347304402207b01095b2cf2bf7311309280316f1528359efe79f2b352d37f8b5a28dd0b0a3a02207a0f4228181436563ba31a71bdfb6d7470600df6033263cf209374d2f8fb226301008876a914d5e58503b9c9e98517f4acd6fdf3c55bdbc678478763ac67210295384b0902700fcb0dca94e5df1ec0b8fe67fdc8668c54339baa1c0e24db36887c820120876475527c2102207023f99fd0b891f484202383085203fcb240ad8712ce73c4920da26ee4e31852ae67a914fafabc04f1544f6d4e88eba2fc1d236c3e9d729488ac6851b27568101b0600",
                "htlcId": 0
            }
        },
        "claimHtlcDelayedTxs": [
            {
                "input": {
                    "outPoint": "4ed5f44594cb4afd61028a65555aa68ac19f11e87f757e8dbcf3a83e31f9deeb:0",
                    "txOut": {
                        "amount": 46670,
                        "publicKeyScript": "0020698a6b11e81fdaa28e0efff32d4d93e781e4075e1c6c381e7ae35ab16a6a4026"
                    },
                    "redeemScript": "632102f1ffc5973b847e3ac8b21a0aa624de4fa0c68c272ebe6f70c3630ba67f4f7df867029000b275210359cc842b0b3570536c4d8e3ddf6d6ed84c826369cbf79c2af8cd46c25034f31968ac"
                },
                "tx": "02000000000101ebdef9313ea8f3bc8d7e757fe8119fc18aa65a55658a0261fd4acb9445f4d54e00000000009000000001dfac00000000000016001405e0104aa726e34ff5cd3a6320d05c0862b5b01c0348304502210097f93588410f56376fd2280b480bea153d32a7ccb7dc7008310e928b10fc27bf022064136888e322578b62234572e645fc8ec13b1ad27559d65cd695a498712ac1f801004d632102f1ffc5973b847e3ac8b21a0aa624de4fa0c68c272ebe6f70c3630ba67f4f7df867029000b275210359cc842b0b3570536c4d8e3ddf6d6ed84c826369cbf79c2af8cd46c25034f31968ac00000000"
            }
        ]
    }
}