{
    "type": "fr.acinq.lightning.channel.states.Closing",
    "commitments": {
        "params": {
            "channelId": "2f7c825b61cbbf0e685aef20f8923a8cd28943346e59301b629cc89b4e27cdbd",
            "channelConfig": [
                "funding_pubkey_based_channel_keypath"
            ],
            "channelFeatures": [
                "option_support_large_channel",
                "option_static_remotekey",
                "option_anchor_outputs",
                "zero_reserve_channels",
                "zero_conf_channels"
            ],
            "localParams": {
                "nodeId": "037108815ff0128f7ed22640485c226d9ad64a9fd6d8b41b6623565aed6b34812c",
                "fundingKeyPath": "m/385048399/1977025879/604622566/184658546/776346346/949304342'/277944247'/2049339775'/1'",
                "dustLimit": 1100,
                "maxHtlcValueInFlightMsat": 1500000000,
                "htlcMinimum": 0,
                "toSelfDelay": 144,
                "maxAcceptedHtlcs": 100,
                "isChannelOpener": true,
                "paysCommitTxFees": true,
                "defaultFinalScriptPubKey": "001405e0104aa726e34ff5cd3a6320d05c0862b5b01c",
                "features": {
                    "activated": {
                        "option_data_loss_protect": "Optional",
                        "initial_routing_sync": "Optional",
                        "gossip_queries": "Optional",
                        "var_onion_optin": "Mandatory",
                        "gossip_queries_ex": "Optional",
                        "option_static_remotekey": "Mandatory",
                        "payment_secret": "Mandatory",
                        "basic_mpp": "Optional",
                        "option_support_large_channel": "Optional",
                        "option_anchor_outputs": "Mandatory",
                        "option_channel_type": "Mandatory",
                        "option_payment_metadata": "Optional",
                        "wake_up_notification_provider": "Optional",
                        "pay_to_open_provider": "Optional",
                        "trusted_swap_in_provider": "Optional",
                        "channel_backup_provider": "Optional",
                        "trampoline_payment_experimental": "Optional"
                    },
                    "unknown": [
                    ]
                }
            },
            "remoteParams": {
                "nodeId": "0362b19a83930389b4468be40308efb3f352b23142ae25e6aba0465a8220f95b06",
                "dustLimit": 1000,
                "maxHtlcValueInFlightMsat": 1500000000,
                "htlcMinimum": 1000,
                "toSelfDelay": 144,
                "maxAcceptedHtlcs": 100,
                "revocationBasepoint": "03a42aef6d1c860caffa6c71a6f8ac2b16eec25bab0c3950cdb1fad7fb38a5f2a5",
                "paymentBasepoint": "02508e1845b8bbe0773f6bf8f3f04f59a5896426765c7b6b23e6e466c95381182b",
                "delayedPaymentBasepoint": "02d62233b7c33f8fd0911922461a651007f1de09d8c474029caa8f2c229c10de26",
                "htlcBasepoint": "03d05c8245bdc12efd8b070b22b276e7db4254f4693e22b3f7c978c08e67b36236",
                "features": {
                    "activated": {
                        "option_data_loss_protect": "Optional",
                        "initial_routing_sync": "Optional",
                        "gossip_queries": "Optional",
                        "var_onion_optin": "Mandatory",
                        "gossip_queries_ex": "Optional",
                        "option_static_remotekey": "Mandatory",
                        "payment_secret": "Mandatory",
                        "basic_mpp": "Optional",
                        "option_support_large_channel": "Optional",
                        "option_anchor_outputs": "Mandatory",
                        "option_channel_type": "Mandatory",
                        "option_payment_metadata": "Optional",
                        "wake_up_notification_client": "Optional",
                        "pay_to_open_client": "Optional",
                        "trusted_swap_in_client": "Optional",
                        "trampoline_payment_experimental": "Optional"
                    },
                    "unknown": [
                    ]
                }
            },
            "channelFlags": {
                "announceChannel": false,
                "nonInitiatorPaysCommitFees": false
            }
        },
        "changes": {
            "localChanges": {
                "proposed": [
                ],
                "signed": [
                ],
                "acked": [
                ]
            },
            "remoteChanges": {
                "proposed": [
                ],
                "acked": [
                ],
                "signed": [
                ]
            },
            "localNextHtlcId": 3,
            "remoteNextHtlcId": 0
        },
        "active": [
            {
                "fundingTxIndex": 0,
                "remoteFundingPubkey": "0385cfd7d8850e4cb8fcbed57310911218e5d5e1fd34f92ef5d9db14d56418caa4",
                "localFundingStatus": {
                    "status": "unconfirmed",
                    "txId": "bdcd274e9bc89c621b30596e344389d28c3a92f820ef5a680ebfcb615b827c2f"
                },
                "remoteFundingStatus": {
                    "status": "locked"
                },
                "localCommit": {
                    "index": 3,
                    "spec": {
                        "htlcsIn": [
                        ],
                        "htlcsOut": [
                            {
                                "channelId": "2f7c825b61cbbf0e685aef20f8923a8cd28943346e59301b629cc89b4e27cdbd",
                                "id": 0,
                                "amountMsat": 250000000,
                                "paymentHash": "edaff8f0e5117e83b2570b5f9d7115631df9c3de0f680c041d9cdfc087b4b51e",
                                "cltvExpiry": 400144,
                                "onionRoutingPacket": "<redacted>"
                            },
                            {
                                "channelId": "2f7c825b61cbbf0e685aef20f8923a8cd28943346e59301b629cc89b4e27cdbd",
                                "id": 1,
                                "amountMsat": 100000000,
                                "paymentHash": "a4459f57dc69d1342cd3c880a5bdb880ccea97be95587d5c6e87234f209e1ecd",
                                "cltvExpiry": 400144,
                                "onionRoutingPacket": "<redacted>"
                            },
                            {
                                "channelId": "2f7c825b61cbbf0e685aef20f8923a8cd28943346e59301b629cc89b4e27cdbd",
                                "id": 2,
                                "amountMsat": 10000,
                                "paymentHash": "90792e276988a51c9382702617df7e340cf7f0299c3eb58fda1b3a493ebcb395",
                                "cltvExpiry": 400144,
                                "onionRoutingPacket": "<redacted>"
                            }
                        ],
                        "feerate": 5000,
                        "toLocal": 449990000,
                        "toRemote": 200000000
                    },
                    "publishableTxs": {
                        "commitTx": {
                            "input": {
                                "outPoint": "bdcd274e9bc89c621b30596e344389d28c3a92f820ef5a680ebfcb615b827c2f:0",
                                "txOut": {
                                    "amount": 1000000,
                                    "publicKeyScript": "00204ba42b50e089764e60e9e0c76c57e41d252d6beb976332f14a7b255bbb5322b8"
                                },
                                "redeemScript": "522102b6eaf304d966a6df90f3b3df7af7be6b1625854bbc096cb8b3507b2a37c2bf9c210385cfd7d8850e4cb8fcbed57310911218e5d5e1fd34f92ef5d9db14d56418caa452ae"
                            },
                            "tx": "020000000001012f7c825b61cbbf0e685aef20f8923a8cd28943346e59301b629cc89b4e27cdbd000000000000b77080064a0100000000000022002046672803839d10e21d43eafb532bc37cd21bd97dec7f9b50d45380cd1cce69654a01000000000000220020bbd7f17366848d8f624c28438128ce4dc8c72ea21deb0ccf25bee110920da032a086010000000000220020ff5d65b735c30cb217486f62f8d590e56b6c27192299584ea87dbaa4452ef679400d030000000000220020cb93e3adb8d213704e9a07ea2a6ce91dca51a9b76fcb6bef3cc9b5b7e10a799090d00300000000002200204ce05fb81556eaf7911d606ec23f598ea0e05d43e722c78010e1788774bc8fa686be06000000000022002008117266e4d6daf84ec74ea6f62ba4cc52bb32efd4acd5c6ed5569c4c396fb320400483045022100a277bf52a6558d90135e0691ac9a66a9cd8b1717367e675f7d9551b251ab37f502206bc0aa48c04c085b3bb27d2fab0a83e75eed1898d81269bea19e48bd182864f301473044022060fc42daff3f531f27399b6c8cea7753f7e327f5dca6ce3e1cf11ba7bc695da102206373ebcc82fb07f2157bdb8399abf19563f6fd202ba86ade0bceb7693093ef0b0147522102b6eaf304d966a6df90f3b3df7af7be6b1625854bbc096cb8b3507b2a37c2bf9c210385cfd7d8850e4cb8fcbed57310911218e5d5e1fd34f92ef5d9db14d56418caa452aedd99dc20"
                        },
                        "htlcTxsAndSigs": [
                            {
                                "txinfo": {
                                    "type": "fr.acinq.lightning.transactions.Transactions.TransactionWithInputInfo.HtlcTx.HtlcTimeoutTx",
                                    "input": {
                                        "outPoint": "007ffe03e47cb696972af3e747c5f0ff813953d1d127b844aa8e66d4eedd6d48:2",
                                        "txOut": {
                                            "amount": 100000,
                                            "publicKeyScript": "0020ff5d65b735c30cb217486f62f8d590e56b6c27192299584ea87dbaa4452ef679"
                                        },
                                        "redeemScript": "76a914c58f2d84aa3dcc020f248d3a0f0095ce66e3b7ad8763ac672102486e1f94c3b4e63555b63bea6e7ae60e550b2275dab745118ca8dfbb634604967c820120876475527c2103aef82904d176eefc9f86b138b86f4f411ed4778f341321bdfb021f5cdff7dd8752ae67a91412bb12f52c0bcac1a16e576e3e9c28d6032de7c888ac6851b27568"
                                    },
                                    "tx": "0200000001486dddeed4668eaa44b827d1d1533981fff0c547e7f32a9796b67ce403fe7f00020000000001000000019e7901000000000022002008117266e4d6daf84ec74ea6f62ba4cc52bb32efd4acd5c6ed5569c4c396fb32101b0600",
                                    "htlcId": 1
                                },
                                "localSig": "5e865cf9ae0fc879ceb90e3144f2273fee1806f47b0d4949cac5e4621daaed681944f26ba277941c0619c98553dd9c7cba7be07beb9c867edf7fad1ec1602465",
                                "remoteSig": "a392c69c1f762942710dae08a686916a493b9b1589216a57f9a4b459305cbad423289a8fa364ec92848ffa5288b8a0e3b2d56bd6fc4cb223bef73fbd90a38b29"
                            },
                            {
                                "txinfo": {
                                    "type": "fr.acinq.lightning.transactions.Transactions.TransactionWithInputInfo.HtlcTx.HtlcTimeoutTx",
                                    "input": {
                                        "outPoint": "007ffe03e47cb696972af3e747c5f0ff813953d1d127b844aa8e66d4eedd6d48:4",
                                        "txOut": {
                                            "amount": 250000,
                                            "publicKeyScript": "00204ce05fb81556eaf7911d606ec23f598ea0e05d43e722c78010e1788774bc8fa6"
                                        },
                                        "redeemScript": "76a914c58f2d84aa3dcc020f248d3a0f0095ce66e3b7ad8763ac672102486e1f94c3b4e63555b63bea6e7ae60e550b2275dab745118ca8dfbb634604967c820120876475527c2103aef82904d176eefc9f86b138b86f4f411ed4778f341321bdfb021f5cdff7dd8752ae67a914a8f988eded2363756daabbaa863a2f4c0453d67c88ac6851b27568"
                                    },
                                    "tx": "0200000001486dddeed4668eaa44b827d1d1533981fff0c547e7f32a9796b67ce403fe7f00040000000001000000018ec303000000000022002008117266e4d6daf84ec74ea6f62ba4cc52bb32efd4acd5c6ed5569c4c396fb32101b0600",
                                    "htlcId": 0
                                },
                                "localSig": "db5a218afb52ce77c6484b4fcdf98a45fc8fe12476b2f34d4b776e024fe973456952aeb623f3c8b7915c2b772be6b29855edfc5f829e9f5c42aff2678d796ea0",
                                "remoteSig": "55f5fe760f30e659a8c8b6c62b2ec9dc806a2e30e0615af16bb93e3e6c0d543b2e2103e0b1a65e12ee8c18b658d3bb0b5a3c1c7e35845a5f1976a2abe2de1a81"
                            }
                        ]
                    }
                },
                "remoteCommit": {
                    "index": 3,
                    "spec": {
                        "htlcsIn": [
                            {
                                "channelId": "2f7c825b61cbbf0e685aef20f8923a8cd28943346e59301b629cc89b4e27cdbd",
                                "id": 0,
                                "amountMsat": 250000000,
                                "paymentHash": "edaff8f0e5117e83b2570b5f9d7115631df9c3de0f680c041d9cdfc087b4b51e",
                                "cltvExpiry": 400144,
                                "onionRoutingPacket": "<redacted>"
                            },
                            {
                                "channelId": "2f7c825b61cbbf0e685aef20f8923a8cd28943346e59301b629cc89b4e27cdbd",
                                "id": 1,
                                "amountMsat": 100000000,
                                "paymentHash": "a4459f57dc69d1342cd3c880a5bdb880ccea97be95587d5c6e87234f209e1ecd",
                                "cltvExpiry": 400144,
                                "onionRoutingPacket": "<redacted>"
                            },
                            {
                                "channelId": "2f7c825b61cbbf0e685aef20f8923a8cd28943346e59301b629cc89b4e27cdbd",
                                "id": 2,
                                "amountMsat": 10000,
                                "paymentHash": "90792e276988a51c9382702617df7e340cf7f0299c3eb58fda1b3a493ebcb395",
                                "cltvExpiry": 400144,
                                "onionRoutingPacket": "<redacted>"
                            }
                        ],
                        "htlcsOut": [
                        ],
                        "feerate": 5000,
                        "toLocal": 200000000,
                        "toRemote": 449990000
                    },
                    "txid": "01871396b3a2d43dd3067377ee9e84da84da3b3d1cb8b4cd140543cbbd8f6a7b",
                    "remotePerCommitmentPoint": "0312a332a6afe99e14c9dc4ab0512448441be3c4c369be8b7d37c5086682b33799"
                },
                "nextRemoteCommit": null
            }
        ],
        "inactive": [
        ],
        "payments": {
            "0": "d4f57ab7-0de9-4440-9aea-debd7c80496c",
            "1": "bbac2fe3-1c00-4426-804f-24fd754236ef",
            "2": "582a6756-0453-4359-b7c5-e97f20037979"
        },
        "remoteNextCommitInfo": {
            "left": null,
            "right": "036e46c0c33872871f0509fda1b455136e44b797452c86c79134b70a86a3d9abc3"
        },
        "remotePerCommitmentSecrets": "<redacted>"
    },
    "waitingSinceBlock": 400000,
    "futureRemoteCommitPublished": {
        "commitTx": "020000000001012f7c825b61cbbf0e685aef20f8923a8cd28943346e59301b629cc89b4e27cdbd000000000000b77080044a0100000000000022002046672803839d10e21d43eafb532bc37cd21bd97dec7f9b50d45380cd1cce69654a01000000000000220020bbd7f17366848d8f624c28438128ce4dc8c72ea21deb0ccf25bee110920da0323ec5060000000000220020958bb43c9e6d1b985001c2f4dc38d286d7fde78bb04d7ec5a5ae44d8ebf0c40c7a640800000000002200209dc2944c1a6ba1328557dee83915131119ee24d8ab416687d6f6a3f30b8a12d00400483045022100cfa7dba6b4171a0dfaa35964875d987870cb6d33878869f5c547921a9e00c99502204e8454e9c95935ee346b233d11866907b0618378502efdd420fa48b5734edb74014830450221008e9f9d70a9261ca88a634210e7ef89001ad02471602fac212a622f8d0231dc2602206eb7fc5d5006f1d383a66846c503c81f97dbdf22ba0e44c09c6b5bdd87d1ad460147522102b6eaf304d966a6df90f3b3df7af7be6b1625854bbc096cb8b3507b2a37c2bf9c210385cfd7d8850e4cb8fcbed57310911218e5d5e1fd34f92ef5d9db14d56418caa452aed899dc20",
        "claimMainOutputTx": {
            "type": "fr.acinq.lightning.transactions.Transactions.TransactionWithInputInfo.ClaimRemoteCommitMainOutputTx.ClaimRemoteDelayedOutputTx",
            "input": {
                "outPoint": "478e652c74babe1ffabfefe85f7afaa4ceee6b6c3f7abedacc7b56429071c91f:2",
                "txOut": {
                    "amount": 443710,
                    "publicKeyScript": "0020958bb43c9e6d1b985001c2f4dc38d286d7fde78bb04d7ec5a5ae44d8ebf0c40c"
                },
                "redeemScript": "210368434fc548cb471f7ed8c94638433bfb07cceb97665c411450fdc23c60236409ad51b2"
            },
            "tx": "020000000001011fc9719042567bccdabe7a3f6c6beecea4fa7a5fe8efbffa1fbeba742c658e4702000000000100000001fab306000000000016001405e0104aa726e34ff5cd3a6320d05c0862b5b01c02483045022100a866623da1edc96faac516a6b6357ad9dcb2463a1a5f87171c7f37940d0a6bb0022055bd731d2ca18d2f3ba01a917a03a458af065b83d312a4f48af3af811d24e2570125210368434fc548cb471f7ed8c94638433bfb07cceb97665c411450fdc23c60236409ad51b200000000"
        }
    }
}