{
    "type": "fr.acinq.lightning.channel.states.Normal",
    "commitments": {
        "params": {
            "channelId": "2f7c825b61cbbf0e685aef20f8923a8cd28943346e59301b629cc89b4e27cdbd",
            "channelConfig": [
                "funding_pubkey_based_channel_keypath"
            ],
            "channelFeatures": [
                "option_support_large_channel",
                "option_static_remotekey",
                "option_anchor_outputs",
                "zero_reserve_channels",
                "zero_conf_channels"
            ],
            "localParams": {
                "nodeId": "037108815ff0128f7ed22640485c226d9ad64a9fd6d8b41b6623565aed6b34812c",
                "fundingKeyPath": "m/385048399/1977025879/604622566/184658546/776346346/949304342'/277944247'/2049339775'/1'",
                "dustLimit": 1100,
                "maxHtlcValueInFlightMsat": 1500000000,
                "htlcMinimum": 0,
                "toSelfDelay": 144,
                "maxAcceptedHtlcs": 100,
                "isInitiator": true,
                "defaultFinalScriptPubKey": "001405e0104aa726e34ff5cd3a6320d05c0862b5b01c",
                "features": {
                    "activated": {
                        "initial_routing_sync": "Optional",
                        "option_data_loss_protect": "Optional",
                        "gossip_queries": "Optional",
                        "gossip_queries_ex": "Optional",
                        "var_onion_optin": "Mandatory",
                        "payment_secret": "Mandatory",
                        "basic_mpp": "Optional",
                        "option_support_large_channel": "Optional",
                        "option_static_remotekey": "Mandatory",
                        "option_anchor_outputs": "Mandatory",
                        "option_channel_type": "Mandatory",
                        "option_payment_metadata": "Optional",
                        "trampoline_payment_experimental": "Optional",
                        "wake_up_notification_provider": "Optional",
                        "pay_to_open_provider": "Optional",
                        "trusted_swap_in_provider": "Optional",
                        "channel_backup_provider": "Optional"
                    },
                    "unknown": [
                    ]
                }
            },
            "remoteParams": {
                "nodeId": "0362b19a83930389b4468be40308efb3f352b23142ae25e6aba0465a8220f95b06",
                "dustLimit": 1000,
                "maxHtlcValueInFlightMsat": 1500000000,
                "htlcMinimum": 1000,
                "toSelfDelay": 144,
                "maxAcceptedHtlcs": 100,
                "revocationBasepoint": "03a42aef6d1c860caffa6c71a6f8ac2b16eec25bab0c3950cdb1fad7fb38a5f2a5",
                "paymentBasepoint": "02508e1845b8bbe0773f6bf8f3f04f59a5896426765c7b6b23e6e466c95381182b",
                "delayedPaymentBasepoint": "02d62233b7c33f8fd0911922461a651007f1de09d8c474029caa8f2c229c10de26",
                "htlcBasepoint": "03d05c8245bdc12efd8b070b22b276e7db4254f4693e22b3f7c978c08e67b36236",
                "features": {
                    "activated": {
                        "option_data_loss_protect": "Optional",
                        "initial_routing_sync": "Optional",
                        "gossip_queries": "Optional",
                        "var_onion_optin": "Mandatory",
                        "gossip_queries_ex": "Optional",
                        "option_static_remotekey": "Mandatory",
                        "payment_secret": "Mandatory",
                        "basic_mpp": "Optional",
                        "option_support_large_channel": "Optional",
                        "option_anchor_outputs": "Mandatory",
                        "option_channel_type": "Mandatory",
                        "option_payment_metadata": "Optional",
                        "wake_up_notification_client": "Optional",
                        "pay_to_open_client": "Optional",
                        "trusted_swap_in_client": "Optional",
                        "channel_backup_client": "Optional",
                        "trampoline_payment_experimental": "Optional"
                    },
                    "unknown": [
                    ]
                }
            },
            "channelFlags": 0
        },
        "changes": {
            "localChanges": {
                "proposed": [
                ],
                "signed": [
                ],
                "acked": [
                ]
            },
            "remoteChanges": {
                "proposed": [
                ],
                "acked": [
                    {
                        "type": "fr.acinq.lightning.wire.UpdateAddHtlc",
                        "channelId": "2f7c825b61cbbf0e685aef20f8923a8cd28943346e59301b629cc89b4e27cdbd",
                        "id": 0,
                        "amountMsat": 300000,
                        "paymentHash": "6b61226257ee70b198904c0ec5177495e856438051efba7baebcdc528782967d",
                        "cltvExpiry": 400144,
                        "onionRoutingPacket": "<redacted>"
                    },
                    {
                        "type": "fr.acinq.lightning.wire.UpdateAddHtlc",
                        "channelId": "2f7c825b61cbbf0e685aef20f8923a8cd28943346e59301b629cc89b4e27cdbd",
                        "id": 1,
                        "amountMsat": 50000000,
                        "paymentHash": "31ee886646d6c55841f87b3978f6eb92eb7a3e3532ffa0207aad5a6c25dd6559",
                        "cltvExpiry": 400144,
                        "onionRoutingPacket": "<redacted>"
                    },
                    {
                        "type": "fr.acinq.lightning.wire.UpdateAddHtlc",
                        "channelId": "2f7c825b61cbbf0e685aef20f8923a8cd28943346e59301b629cc89b4e27cdbd",
                        "id": 2,
                        "amountMsat": 4000000,
                        "paymentHash": "dfe0669321cf183422618fcd3f27bc2c7aa736c66d2c47ea5047f907890723d7",
                        "cltvExpiry": 400144,
                        "onionRoutingPacket": "<redacted>"
                    }
                ],
                "signed": [
                ]
            },
            "localNextHtlcId": 4,
            "remoteNextHtlcId": 3
        },
        "active": [
            {
                "fundingTxIndex": 0,
                "remoteFundingPubkey": "0385cfd7d8850e4cb8fcbed57310911218e5d5e1fd34f92ef5d9db14d56418caa4",
                "localFundingStatus": {
                    "status": "unconfirmed",
                    "txId": "bdcd274e9bc89c621b30596e344389d28c3a92f820ef5a680ebfcb615b827c2f"
                },
                "remoteFundingStatus": {
                    "status": "locked"
                },
                "localCommit": {
                    "index": 1,
                    "spec": {
                        "htlcsIn": [
                            {
                                "channelId": "2f7c825b61cbbf0e685aef20f8923a8cd28943346e59301b629cc89b4e27cdbd",
                                "id": 0,
                                "amountMsat": 300000,
                                "paymentHash": "6b61226257ee70b198904c0ec5177495e856438051efba7baebcdc528782967d",
                                "cltvExpiry": 400144,
                                "onionRoutingPacket": "<redacted>"
                            },
                            {
                                "channelId": "2f7c825b61cbbf0e685aef20f8923a8cd28943346e59301b629cc89b4e27cdbd",
                                "id": 1,
                                "amountMsat": 50000000,
                                "paymentHash": "31ee886646d6c55841f87b3978f6eb92eb7a3e3532ffa0207aad5a6c25dd6559",
                                "cltvExpiry": 400144,
                                "onionRoutingPacket": "<redacted>"
                            },
                            {
                                "channelId": "2f7c825b61cbbf0e685aef20f8923a8cd28943346e59301b629cc89b4e27cdbd",
                                "id": 2,
                                "amountMsat": 4000000,
                                "paymentHash": "dfe0669321cf183422618fcd3f27bc2c7aa736c66d2c47ea5047f907890723d7",
                                "cltvExpiry": 400144,
                                "onionRoutingPacket": "<redacted>"
                            }
                        ],
                        "htlcsOut": [
                            {
                                "channelId": "2f7c825b61cbbf0e685aef20f8923a8cd28943346e59301b629cc89b4e27cdbd",
                                "id": 0,
                                "amountMsat": 50000000,
                                "paymentHash": "f73e3549be28dea0a905affb32a94f935eb5df20a4366f564d851f5a3da6b562",
                                "cltvExpiry": 400144,
                                "onionRoutingPacket": "<redacted>"
                            },
                            {
                                "channelId": "2f7c825b61cbbf0e685aef20f8923a8cd28943346e59301b629cc89b4e27cdbd",
                                "id": 1,
                                "amountMsat": 8000000,
                                "paymentHash": "0e0a51de262852c8cd55c92d2f4befa0fc6e584d0328af533ed6f4e1362fc3db",
                                "cltvExpiry": 400144,
                                "onionRoutingPacket": "<redacted>"
                            },
                            {
                                "channelId": "2f7c825b61cbbf0e685aef20f8923a8cd28943346e59301b629cc89b4e27cdbd",
                                "id": 2,
                                "amountMsat": 1000000,
                                "paymentHash": "fb22254abd9621229fe6971c0627beddb01569817f701dbf31f5fe0a32714a1e",
                                "cltvExpiry": 400144,
                                "onionRoutingPacket": "<redacted>"
                            },
                            {
                                "channelId": "2f7c825b61cbbf0e685aef20f8923a8cd28943346e59301b629cc89b4e27cdbd",
                                "id": 3,
                                "amountMsat": 500000,
                                "paymentHash": "b654bd9eccb1a84213b6880dcbbed7a53278ca5c48092dd360805886049c16db",
                                "cltvExpiry": 400144,
                                "onionRoutingPacket": "<redacted>"
                            }
                        ],
                        "feerate": 5000,
                        "toLocal": 740500000,
                        "toRemote": 145700000
                    },
                    "publishableTxs": {
                        "commitTx": {
                            "input": {
                                "outPoint": "bdcd274e9bc89c621b30596e344389d28c3a92f820ef5a680ebfcb615b827c2f:0",
                                "txOut": {
                                    "amount": 1000000,
                                    "publicKeyScript": "00204ba42b50e089764e60e9e0c76c57e41d252d6beb976332f14a7b255bbb5322b8"
                                },
                                "redeemScript": "522102b6eaf304d966a6df90f3b3df7af7be6b1625854bbc096cb8b3507b2a37c2bf9c210385cfd7d8850e4cb8fcbed57310911218e5d5e1fd34f92ef5d9db14d56418caa452ae"
                            },
                            "tx": "020000000001012f7c825b61cbbf0e685aef20f8923a8cd28943346e59301b629cc89b4e27cdbd000000000000b77080074a0100000000000022002046672803839d10e21d43eafb532bc37cd21bd97dec7f9b50d45380cd1cce69654a01000000000000220020bbd7f17366848d8f624c28438128ce4dc8c72ea21deb0ccf25bee110920da032401f0000000000002200206520f0c1ce76af1efb00c648cbb90fd645c162b0f5e4b2b750967644352f71dd50c30000000000002200202a9429e3863a2ef776e475172706053ac34fd5e459a9a2a108797a49614f0ace50c30000000000002200206f9fef6a1c60ac312c4889117dccbb62809ca95476afcf1faa89071109ff4c662439020000000000220020cb93e3adb8d213704e9a07ea2a6ce91dca51a9b76fcb6bef3cc9b5b7e10a7990f8290b00000000002200206aae960776a0a9f526c5ea6841c28baa16a7ae997313ed417dbc55e38fe1c17304004830450221008669f29b67dc5ed41573e218bea0e5bec8195144d064b9f94505208f7986c80102205b1c6714872bce2128b7601cc6d9efe5bd4e1f1215529467ee0e0b310f6eae5b014830450221008065c3eef26d7f1ce10533458d34871d8ae1f1097569b089c4ce87274efda9b6022071f088e2488d6c81e01e3d0b3491f2a5637a99f727d38f0a23f477e23605e9870147522102b6eaf304d966a6df90f3b3df7af7be6b1625854bbc096cb8b3507b2a37c2bf9c210385cfd7d8850e4cb8fcbed57310911218e5d5e1fd34f92ef5d9db14d56418caa452aedf99dc20"
                        },
                        "htlcTxsAndSigs": [
                            {
                                "txinfo": {
                                    "type": "fr.acinq.lightning.transactions.Transactions.TransactionWithInputInfo.HtlcTx.HtlcTimeoutTx",
                                    "input": {
                                        "outPoint": "9cc4da8281ede5c3eb2f4d06752524a2b4483e61931deb8c88bdf9120a925534:2",
                                        "txOut": {
                                            "amount": 8000,
                                            "publicKeyScript": "00206520f0c1ce76af1efb00c648cbb90fd645c162b0f5e4b2b750967644352f71dd"
                                        },
                                        "redeemScript": "76a9149166a758c8ce2d9f0c36df15d8624a3c2d0e01b08763ac67210212f485e05882dc6abe5ca535a3880a1c8b2fb10261ba27c56110d926775d73fc7c820120876475527c210202381f64b9573d9410b135c8f3e9ec876233af900152d2e42211a6aa73835ad952ae67a91465f865edf5b4b3dd8a9ed58605115e43513cc93a88ac6851b27568"
                                    },
                                    "tx": "02000000013455920a12f9bd888ceb1d93613e48b4a2242575064d2febc3e5ed8182dac49c020000000001000000013e120000000000002200206aae960776a0a9f526c5ea6841c28baa16a7ae997313ed417dbc55e38fe1c173101b0600",
                                    "htlcId": 1
                                },
                                "localSig": "74bba8e50d5ed3e335f12f4447ee37149528fbd1122402ce861cb9f721c77a844c03ba7902e70d0ce10264611a005aef5c9beeb850bdac18cef097e35fef3b9f",
                                "remoteSig": "4f6dd32b93928582f463dfcad55e7fa88b2d64ae5dfbae145a863e796e064f125cc447909812ec3227533a6bcde6f6bb1634a7a276cabd4df8f2b49c7108097f"
                            },
                            {
                                "txinfo": {
                                    "type": "fr.acinq.lightning.transactions.Transactions.TransactionWithInputInfo.HtlcTx.HtlcSuccessTx",
                                    "input": {
                                        "outPoint": "9cc4da8281ede5c3eb2f4d06752524a2b4483e61931deb8c88bdf9120a925534:3",
                                        "txOut": {
                                            "amount": 50000,
                                            "publicKeyScript": "00202a9429e3863a2ef776e475172706053ac34fd5e459a9a2a108797a49614f0ace"
                                        },
                                        "redeemScript": "76a9149166a758c8ce2d9f0c36df15d8624a3c2d0e01b08763ac67210212f485e05882dc6abe5ca535a3880a1c8b2fb10261ba27c56110d926775d73fc7c8201208763a914e53b2faa6ce43549d6e8685a8b7e3bc459ebf64c88527c210202381f64b9573d9410b135c8f3e9ec876233af900152d2e42211a6aa73835ad952ae677503101b06b175ac6851b27568"
                                    },
                                    "tx": "02000000013455920a12f9bd888ceb1d93613e48b4a2242575064d2febc3e5ed8182dac49c0300000000010000000186b50000000000002200206aae960776a0a9f526c5ea6841c28baa16a7ae997313ed417dbc55e38fe1c17300000000",
                                    "paymentHash": "31ee886646d6c55841f87b3978f6eb92eb7a3e3532ffa0207aad5a6c25dd6559",
                                    "htlcId": 1
                                },
                                "localSig": "0ca57059edcd8dede992661dd33a3ea0f202e65e36f1db90ee2799d22364db942177bd5855c27cbdf46eb92d40274b2d55e1f1f79cd8efdfb9d6619ea26d8936",
                                "remoteSig": "68f36e3658a730868bd2d4e41a06b7dc0a531ab3af0abe6e7e992e338a809a2e11207db9a81559761b1a70888a34c168382c57e4056950a6465064d75b622f6b"
                            },
                            {
                                "txinfo": {
                                    "type": "fr.acinq.lightning.transactions.Transactions.TransactionWithInputInfo.HtlcTx.HtlcTimeoutTx",
                                    "input": {
                                        "outPoint": "9cc4da8281ede5c3eb2f4d06752524a2b4483e61931deb8c88bdf9120a925534:4",
                                        "txOut": {
                                            "amount": 50000,
                                            "publicKeyScript": "00206f9fef6a1c60ac312c4889117dccbb62809ca95476afcf1faa89071109ff4c66"
                                        },
                                        "redeemScript": "76a9149166a758c8ce2d9f0c36df15d8624a3c2d0e01b08763ac67210212f485e05882dc6abe5ca535a3880a1c8b2fb10261ba27c56110d926775d73fc7c820120876475527c210202381f64b9573d9410b135c8f3e9ec876233af900152d2e42211a6aa73835ad952ae67a914a70d7cbdf2a845a86d8e9d024af809a7bae69dc388ac6851b27568"
                                    },
                                    "tx": "02000000013455920a12f9bd888ceb1d93613e48b4a2242575064d2febc3e5ed8182dac49c040000000001000000014eb60000000000002200206aae960776a0a9f526c5ea6841c28baa16a7ae997313ed417dbc55e38fe1c173101b0600",
                                    "htlcId": 0
                                },
                                "localSig": "4e65c9ae5f8cb18152abde6672cb59a05c037404234d0b97e061e2d3694ecba1330d0731679b8aca9f54074e4ec76b81d693f320f960efac7d00f65f95469587",
                                "remoteSig": "1e8a60f305efbde315e67e296656f1ae28cccae9ea28b2c65316be8e1f2ea8af59411e0fff1f7634622e7d21fbd8650201911caf0744e24ac0ca4c2d315e3c12"
                            }
                        ]
                    }
                },
                "remoteCommit": {
                    "index": 1,
                    "spec": {
                        "htlcsIn": [
                            {
                                "channelId": "2f7c825b61cbbf0e685aef20f8923a8cd28943346e59301b629cc89b4e27cdbd",
                                "id": 0,
                                "amountMsat": 50000000,
                                "paymentHash": "f73e3549be28dea0a905affb32a94f935eb5df20a4366f564d851f5a3da6b562",
                                "cltvExpiry": 400144,
                                "onionRoutingPacket": "<redacted>"
                            },
                            {
                                "channelId": "2f7c825b61cbbf0e685aef20f8923a8cd28943346e59301b629cc89b4e27cdbd",
                                "id": 1,
                                "amountMsat": 8000000,
                                "paymentHash": "0e0a51de262852c8cd55c92d2f4befa0fc6e584d0328af533ed6f4e1362fc3db",
                                "cltvExpiry": 400144,
                                "onionRoutingPacket": "<redacted>"
                            },
                            {
                                "channelId": "2f7c825b61cbbf0e685aef20f8923a8cd28943346e59301b629cc89b4e27cdbd",
                                "id": 2,
                                "amountMsat": 1000000,
                                "paymentHash": "fb22254abd9621229fe6971c0627beddb01569817f701dbf31f5fe0a32714a1e",
                                "cltvExpiry": 400144,
                                "onionRoutingPacket": "<redacted>"
                            },
                            {
                                "channelId": "2f7c825b61cbbf0e685aef20f8923a8cd28943346e59301b629cc89b4e27cdbd",
                                "id": 3,
                                "amountMsat": 500000,
                                "paymentHash": "b654bd9eccb1a84213b6880dcbbed7a53278ca5c48092dd360805886049c16db",
                                "cltvExpiry": 400144,
                                "onionRoutingPacket": "<redacted>"
                            }
                        ],
                        "htlcsOut": [
                        ],
                        "feerate": 5000,
                        "toLocal": 200000000,
                        "toRemote": 740500000
                    },
                    "txid": "b90aa4d67ddfca7b850711aa8f69c2b0309f7e36113360c6e42ff12f5824bfd6",
                    "remotePerCommitmentPoint": "03c57839fd412868a398bea05d01678a752661126a2d1357a0f7cb6f0c60311125"
                },
                "nextRemoteCommit": null
            }
        ],
        "inactive": [
        ],
        "payments": {
            "0": "fc04440c-9db0-4d12-98bc-ab3197ddd10a",
            "1": "cc5751b1-6c0a-4828-a26c-6a6e57fd4eaa",
            "2": "c747ac2e-a7bc-4483-afd9-e2f1c41fdf1c",
            "3": "96306260-38b0-436e-bdf2-1b21d9cebac3"
        },
        "remoteNextCommitInfo": {
            "left": null,
            "right": "026c604452e1a154575f1fd5966389c2c686c0b4b72370da0b33764c66b5a8f40e"
        },
        "remotePerCommitmentSecrets": "<redacted>",
        "remoteChannelData": {
            "data": "8feea322d066d4e3cd8858cfaf6ec9de1c51418af54140ebc5a99a4dc10fb098d7e97d0a0c44ac8a1e0de44f53f02a9b5a759cc4a1aae91391d80f459e4d5cc45c26f7eaa41871a4b083f7a8ee67b69157d517137d936b86b50f13cec26f136f79f1f9725b9d270fb455124ee2a7623a69f1610586351ffa281ab3de26a996e5047bdf09370e8672d1f7ad361f4e685a1270c9e4c10fc9d6ea3d0b3d83801f09880aa7716e7a3ddc7b5bddba5f7b818d714de9088ed769980564461394a6374b72fe347ac22a63143fd71ba51e4e4af6f9d51b4d8fa3f7627ad8d406672f016a1d94ac8152b34eb59b9e142e14ea553541440207fc268ee367ecbe7fe0053420fc28204c27db6ef42a29395e28625e3ec2a253d73d3a77a6cd847857fd20502e00d217653b994a8496f4b783842e36e68309985e4f8a06b33f13ae7ef12955495bbd48b127306e24f351f5021207f887e52efd3433eddf237606f92bf26a38c9480a2b2a95169a2e8a1d4fd575638bfda643d77609a08b4e083f1471d64e2e4337350942dff807db3530e4d96b00e33c95530506c743bcb5fd2248ce62c7dd0506fec42f21a4dc7153e06601075da0667f8d8de527758636c1140f2e5da640832111c1cd9efd4eb2b81d3c2a03e764fcffd9a5feddac08a9a734f895999203b16776baba5e52d367f45058762c510426270cea4ae89af0f88ee98ecd7b7f99092159071fce312f853a9e8ef78181fc312a4aeafc99d1fca74241330e0673fb9af4a3931a4fe54ec046b25a687cc85aa96b0f1193ff7d1d8d5b6a1f5ad2ca3ffebfa0dfa11418561189a32a323d171ddd233fa24de895ac21732de40927a71d12b552bd9095d9eb5d51ce62e6cb1859e697669fbd3e6d348ee52173a1de0a58abb4637011df5580b5a25e0f713f02255e9a7bc289b4cef8c3e1c98bdbace8770703ee0fe8e612cc3e82a696573ec930d94ab9ef7486d9788f1caedacbdcac7423a66d9074f65555080389a00b0c9c38ed41801062140d11701f997f7d31287e27420072ca52b46c5c98aa0b7a8ceb97f40c921049551d201e71d1ec40a9b479dc7814cdfaf894e8ac5aea35a86de722abf8948a48115d76ce411147f86d6f7013498acf884b4a0bb918df6856151e355c9969b0ffce04d62e96e308d35ad31f0ca0a1b3f8b4e9eaa4e94a7038d2e705c1fa759f4eba475dd3cc9c5843e19b5ad1c068633fe86d6e27b6c758ae4c4a40176a4af1f9bf7f358238128ecbca99eb231bd2eebc48a117b115d983811f032b22a93cf92ff8b09b8467821e8b14b16825b743bcfe6a7cf75e28661f5e35014370079e1f17abe62f23f396c3c1cf42992046a3a08d916d4ee61df67d732df0b3ae3060c4011d5dbe59f80c8f7470a3803b0d0d756ac1891d76aae887e2462407ce5b2402968845d9fda3fffcc325f46ff5857beed116d766f1580a2d9c3ca30d907df050daf8751df72be14d01fe4e48132bc3a386a4962949088d2e3fe34d344be3b64f99503c9d02117bfd4424631828043da39d5c4b8516c38bb2a5adf44cf7ccc0618b167053d45d187a88b4ace66086d5c25912aae249b3648da2734285dc05f87e4f1aa11d4aa120d1129467953388e7036f41a95d4d30d872a120979ef6293186cc0e5cf9c33f04d98a32cc6f7f131ef452ceeaf05349bac43a455e88e1e5229c6cdcabb0dff4e14a7e039ef83bb43d04057a00a20b34f144981c87d0eb5b165f62313acda8ef24b4ec87599a61d7ec83275f3bc948d93684182d4c27cb52b301400e4ae7770b0c53e1f93a12e526279f65f42e5258072350e463d73dbbd2773417e28ee30250ff2009eab8d5413ff284190549a92bc5359ea32ce3a1a33e6530de5f0522eedf1f6f21fe26b830fd12be3be35874ef167b7503987c71af02c33eeac46dc7da0e4892907a5134a5d84db4450d50e0c8d4aca999e7248432177a62229558e2043fd0a2b9a9634562e75bfc5fdf2e489310adbeedbdf6f02e9a0c7edc0c008e5e232c938260bb65c156bba17b6e500b97f2f7d5df5879d8e062af132ebd3afdb0054007e91049824a9d61f1d23d9f1025df017e6b9703482d23159bc73f4882ae43fab47b6ed8020d2d5be8c137669e9f7695f5890dad5008b734f7dd46885cd5412403c3d5043140b6ee1d3cbe444b77bd4c830161c37bc22580f349f99a25861ae30924567e27e5f438087619224073d95de422406b236fbe9ff13c4fe199bde6b6b1028ba891e2ef921996af01e2ea4ac389b9d7670a25a7b614786b6c18a863a56a35f86aa2f00ce785d5a2454f4c6cb6d0bdad70c8b4eacd3e129dbbe600effbbed0157f23cbf401254a6cbdbe4c6bd1d2e799ba3627fefca8b01eb4757ca0b92ab8138dacb3aa292f010332e6d64f5a71974e5d3685d23708b644476383fd61a091292766fc83f5c497734535e56355579a90cfcbec0e3422d68c3c63875a9931af3e9b2fdaa6746df659ad4dfa596f8a6881703a8a918157a204f7b21c81fdfb7195455bea4018d6f74a39ab8ac4530a7bbb3add963ed9161e04c5fafe9b93299acec3f9c6006f428a2eba8c9f9abe16ea45f5926188ff026a645bad92fb67c0b48d15f79a3cbb5fe7efd46f72b2c3d91904716c841e4daa39fcf6e070958b29745b8a6bd1aaa56d15f20604038a32b004b11d8af1fa13969aacb0dc131f2e33922845ffb41f5daa6436050891e86e67f7c76f46412de8907e687554e44f08c840730a926129ab3f2a4aa3a7800e18b4438d16c1e3debaa227a826df5c4e0a8ff22fbb8363fdaf3b48e2be0490dde382c491d32407d66043785f8a8184baea18c28b4b80903a9d5efb98018300c3ad849f2c432075a677874f74fc27d24b684b775c741afb98eaf7af851b9327c12f5606f0db1be5d8bc5412bbc0dd32b1ed775c6a72de4a3f3959eab60359591ccab4baa85d9f667a232d164d2232edbcd32108816b5c0cfd7cee1e4d7127cae44b69f9d53b2394be83f7bd670618a4ee936eeae98b9d1ab47dae58791285085d1781acff37bf291970862c8af1d2fe12790cc963a6c7f3e81442976a1784c8f69b3f571be717490e7d84945ef8589e684358d3c885ab03282ea2f1d32bc455d0e85544c845a4447c360b4192afa56406fcee9242f6fdca24b78590db51e23924d97728d054ee27838f5f5501eddf29c7e87881c88e5cdcbde75cf1a60d0b5dd4be93b7bab8b85199d047d99e78ed7f38ac930742d34bb97647c4692d9bd2e8fddd0b4eeec1482bcd823f3d4ef9fb995a3c0585d86e0e87fa265708e48594d428e2b71f25094f10b5ff262cafa1c2efbfd13a0e69933e3cc76bc4b7ba30f7f07762390e8df3afb9e79315f018011c39faa6fae56c4404da01bdb8c62eaf63549444a153495ecc4d74a57be34e605cc5751d8e66072786d314616b6519a76beebdcbc42e730172450282dddac8b3b1cdeeecdbb6e558efb17da91a47f8cad09e50120ce6cab38544c9e31fcc24ed93afb73625140c7711f07f76078aa7b0b456e548b2f2aef829e3a60717c941d4e0115bdd934f5e4197e1688323e941e48b0b8d0dd8f9f5728c7f0b12db3d6011660f770cb43af8e40a1d1faf5b7bf95be996ddad7a4e2145c35b13185f0ba2b4b8e87b3ed6238c9615c8751e55d1d190a9ac1df0c80d3d985e18a6c0727e613989092a8c03319349e16aae3fc68d887fa05c9cf062143c416939e02fb7a46c559793aa78706f6b1a546988fa6d23067f6b84cec84678bc1afab65b7194cdb09eaf1be84d5020d048664f56b4d22c424af6058bb3bbe9b3a5fd9d96faa5b32adba90f04e86b4ea44e942bacf764becc490c8e5d772ec83b66faf646aa3373db4c30048de42787deb0a0abb59c54263620735499a44ba91eeb3228fc302e566995c1fecfdd12f7d275ae41801b9bf017fef5ea3cd2b89bb53a55951a9c2b2b793b87e40c059e573b66b1f1ba6545d2a49296aeaed26f4a1b20af094578ac8f1e47ee97c2f3bea13e813361368121f3304d125df7cd7163a8513ce0eaa55b1bc9e8454b4bc015e910d5b645d0c8d99e933efc9c57d21a481f03919bb38a8f763011ee75fb149d7be22ebe9863dfe6088ec3325f49b936a1e33a580e65ee66dc099a961bb991f1192ef008f7c3b0d2e3934efbd6ffe2abe5219adac1dba7e39592909fc727f4d0ecf73ad23151eacec893a48bfd6540a731ee89a8439a1c3017f7c215da4f216d32cd9b46161b311a677aa8cff37253ec0e922ff6663e75f79200fc2dd676782b2b0326251711e2a62d98580bf5c25a2834bdbaddc58dc0d8a7f1a0eae6efdaa9ec1316b48a18ed3418574b6c565a2272b3f95902df9907a611b90b2e99f77326fa0e9539d9da8f02dbb4a5d1f3840edb4f6ce23d1cd7baa9377c989a2946fdbf114c44012abc828871b5e5a2574a2ca3ed41d08bf90b0c55c3b79760ea7a4faa6ffc9a6dc644a812c7a003859b9911e22ecb9dbeabdc21008d95b226154024834b885534f6af8d6c599ed664d7c6253311d6debba2e3062db5d4f884adf2c08ee4dd3541cbfa0dfed8cdb8f87aa7083eaec22ee5f8d4984e24d9afd9f6859d1a5b6c2e0a255126abc3bab846d78a4263da1c8f436e08ccb66240da88a27e712faf128b780e62816523544b7a1f6faf9b31ae02505a04ba8897428c636028481249fd9f8642cec85a9244e98c35036f59f02c348b224a159ac15fd65032ed7eb17b0206ec4ca452eb10a8a710b82f84dc18ae033480f8c4252c9ab6a4e9b12e77c14800ad7bec8f24c3499fffb70a585eb0787563e11f4ec14ad6c205e800c08dd5444e0b6dc7e9c8e7a7c54ab4bdce78be0dfb12b9cf30b293775aac78a48c0c78b3588456541fc0b58e487c5559a70a39ba06c7511286595c3ccb32e53b1e8a1afeb49b144e311ba2fa1f8ff4fec02c50ce8bb2efcfafe506ea963185d72f1608460185492ac409a4a95ae1ea82ea318f0e4edeabb223b1c2b3486d582ffd482323566f0c15cc8bbab3b6bbec54cb35b0f12098103176022e08ff07e664e54ecb5f85155e19b02e91840d506fee36df7ab28c86d4a6b0c067898dfa579f6d357242761124c3a8f58b2a399922f1d6b60ff549e3b45e9a9734ef1c7501d07b5d1fd1fd63dc662b0da3d1a9bb5c5c584039891795ed02d4b69aca515299a2ab8938ca9c8a2d38a98a63f1dd1e9c073558deef9c015d30d77ef7830f9324"
        }
    },
    "shortChannelId": "400144x1x0",
    "channelUpdate": {
        "signature": "11bf3cb610e8089d89d10b1e5e3e95d306add9daefa38527fdf8294fb8a9eb3c2537093ad8a63f2c2461ca4207da31e65087db30ccc823bc944313216bb95fa6",
        "chainHash": "06226e46111a0b59caaf126043eb5bbf28c34f3a5e332a1fc7b2b73cf188910f",
        "shortChannelId": "400144x1x0",
        "timestampSeconds": 1666878663,
        "messageFlags": 1,
        "channelFlags": 1,
        "cltvExpiryDelta": 144,
        "htlcMinimumMsat": 1000,
        "feeBaseMsat": 100,
        "feeProportionalMillionths": 10,
        "htlcMaximumMsat": 1000000000
    },
    "remoteChannelUpdate": null,
    "localShutdown": null,
    "remoteShutdown": null,
    "closingFeerates": null,
    "spliceStatus": "None",
    "liquidityPurchases": [
    ]
}