{
    "type": "fr.acinq.lightning.channel.states.Closing",
    "commitments": {
        "params": {
            "channelId": "d469132750e7d041f2fd990e8f9da39810e931c6e43a74d9cd4fe462a8376627",
            "channelConfig": [
                "funding_pubkey_based_channel_keypath"
            ],
            "channelFeatures": [
                "option_static_remotekey",
                "option_anchor_outputs",
                "option_dual_fund"
            ],
            "localParams": {
                "nodeId": "037108815ff0128f7ed22640485c226d9ad64a9fd6d8b41b6623565aed6b34812c",
                "fundingKeyPath": "m/464799359'/1844920236/1205338618'/1049864060'/776185252'/1994944773'/188152197/1162311989'/1'",
                "dustLimit": 1100,
                "maxHtlcValueInFlightMsat": 1500000000,
                "htlcMinimum": 0,
                "toSelfDelay": 144,
                "maxAcceptedHtlcs": 100,
                "isChannelOpener": true,
                "paysCommitTxFees": false,
                "defaultFinalScriptPubKey": "001405e0104aa726e34ff5cd3a6320d05c0862b5b01c",
                "features": {
                    "activated": {
                        "option_data_loss_protect": "Optional",
                        "var_onion_optin": "Mandatory",
                        "option_static_remotekey": "Mandatory",
                        "payment_secret": "Mandatory",
                        "basic_mpp": "Optional",
                        "option_support_large_channel": "Optional",
                        "option_anchor_outputs": "Mandatory",
                        "option_route_blinding": "Optional",
                        "option_dual_fund": "Mandatory",
                        "option_channel_type": "Mandatory",
                        "wake_up_notification_provider": "Optional",
                        "channel_backup_provider": "Optional"
                    },
                    "unknown": [
                        139,
                        149
                    ]
                }
            },
            "remoteParams": {
                "nodeId": "0362b19a83930389b4468be40308efb3f352b23142ae25e6aba0465a8220f95b06",
                "dustLimit": 1000,
                "maxHtlcValueInFlightMsat": 1500000000,
                "htlcMinimum": 1000,
                "toSelfDelay": 144,
                "maxAcceptedHtlcs": 100,
                "revocationBasepoint": "033d473f96bd80933245a7b9ff4c3ee3045b9293b7bf5b98eb72197057ed8ec34a",
                "paymentBasepoint": "034584173fcd85590bb878bc0833c8b0b200ea2fb0f353d8046ad37717f1a783c4",
                "delayedPaymentBasepoint": "02a5764c14a0371a53391d3d7a84faaa0b0922cb8fb1194e67482a6467be37d004",
                "htlcBasepoint": "037e2bd21c30c1f266d7aaef7826cf454e40d8e6ed690b7ef55c6237ae5b95af88",
                "features": {
                    "activated": {
                        "option_data_loss_protect": "Optional",
                        "var_onion_optin": "Mandatory",
                        "option_static_remotekey": "Mandatory",
                        "payment_secret": "Mandatory",
                        "basic_mpp": "Optional",
                        "option_support_large_channel": "Optional",
                        "option_anchor_outputs": "Optional",
                        "option_route_blinding": "Optional",
                        "option_shutdown_anysegwit": "Mandatory",
                        "option_dual_fund": "Mandatory",
                        "option_quiescence": "Mandatory",
                        "option_channel_type": "Mandatory",
                        "zero_reserve_channels": "Optional",
                        "wake_up_notification_client": "Optional",
                        "channel_backup_client": "Optional",
                        "splice_experimental": "Optional"
                    },
                    "unknown": [
                        137,
                        149
                    ]
                }
            },
            "channelFlags": {
                "announceChannel": false,
                "nonInitiatorPaysCommitFees": false
            }
        },
        "changes": {
            "localChanges": {
                "proposed": [],
                "signed": [],
                "acked": []
            },
            "remoteChanges": {
                "proposed": [],
                "acked": [],
                "signed": []
            },
            "localNextHtlcId": 0,
            "remoteNextHtlcId": 0
        },
        "active": [
            {
                "fundingTxIndex": 0,
                "remoteFundingPubkey": "02a73d5523148f33b473419816e41c58bfec5cb332ec86b9a80ce6f1825bca170c",
                "localFundingStatus": {
                    "status": "confirmed",
                    "txId": "fb3eaf9e0d57440b02c0a7f8b221e5628c567651e14912ad32f478d795c4e33b"
                },
                "remoteFundingStatus": {
                    "status": "not-locked"
                },
                "localCommit": {
                    "index": 0,
                    "spec": {
                        "htlcsIn": [],
                        "htlcsOut": [],
                        "feerate": 5000,
                        "toLocal": 800000000,
                        "toRemote": 200000000
                    },
                    "publishableTxs": {
                        "commitTx": {
                            "input": {
                                "outPoint": "fb3eaf9e0d57440b02c0a7f8b221e5628c567651e14912ad32f478d795c4e33b:0",
                                "txOut": {
                                    "amount": 1000000,
                                    "publicKeyScript": "002057ca65f637bc83aaa046335b1aa7ef3b5347c2b40aef1c83c7831202a32cf73e"
                                },
                                "redeemScript": "522102a73d5523148f33b473419816e41c58bfec5cb332ec86b9a80ce6f1825bca170c2102ef967c443519718449a9c9b60a85def8c99e0ea8a0da33273a7c18775e7eb91b52ae"
                            },
                            "tx": "020000000001013be3c495d778f432ad1249e15176568c62e521b2f8a7c0020b44570d9eaf3efb00000000000abbb380044a01000000000000220020a0ca67609d8f4d1c580f41451ac9f40ac8e4942f2ee1fb39253c89dec7f830f34a01000000000000220020c8809c3b9a97354b8c155d027966ef185e86c19bde823ab9429b5d02b2000650400d0300000000002200205311eef80c15717d4dbd16822f8bee49d1ddc5707f9240f1ff20c11091c1dfa3781c0c0000000000220020c1f2b1ac55b4bd727e85af80fdcdbfff0ea17156126175034b784878cb0bb80f0400483045022100dc0d6153f56f4fb1238325ce8b38de8d2196f015e337502198ffaa43e15c3ff602205ac254766dcab049e16bbd40bac3438fc3e0274c853bfc1eb88e7260b0f7fe1101473044022006483d50cd4ea6ada8d6bb059cfeba406d5ba0c8e2edfe6b56996ef1ab61cacf022019ece48b729dc967c7c20c3299781641f3c38e1870b82ec3f17efd6fbe4221570147522102a73d5523148f33b473419816e41c58bfec5cb332ec86b9a80ce6f1825bca170c2102ef967c443519718449a9c9b60a85def8c99e0ea8a0da33273a7c18775e7eb91b52ae106ace20"
                        },
                        "htlcTxsAndSigs": []
                    }
                },
                "remoteCommit": {
                    "index": 0,
                    "spec": {
                        "htlcsIn": [],
                        "htlcsOut": [],
                        "feerate": 5000,
                        "toLocal": 200000000,
                        "toRemote": 800000000
                    },
                    "txid": "e02977658b0c599e5a60dc05f1107d4fe977615271a30526657d6306d7d0c99d",
                    "remotePerCommitmentPoint": "03af235cc768457d004d8ae5402e85bbd799454a9f6c7f45adbb9dd0aff90cd7da"
                },
                "nextRemoteCommit": null
            }
        ],
        "inactive": [],
        "payments": {},
        "remoteNextCommitInfo": {
            "left": null,
            "right": "02f6a89614de7797f9f1183766862e0b05a0ff29ad74179b99d422770a56fca105"
        },
        "remotePerCommitmentSecrets": "<redacted>",
        "remoteChannelData": {
            "data": "0404fa9d45207eaefdb430e198a03821e55ce0be0b938f90139c20b21818463838254a748a4251bebefa7c5d5ffd3f7858337bb778bd2e6a163fe290f230847c2084ac0c26d526fb7ed83e34385abcaa2c34214cc5367dc654e0368453896181e36cbf227b5cc24e233113ddd5c1d5295e4817171de3c7b7e559f87fead6c1c3df6e1d8746c1380c2aeaa91d57ba7b7ec06452ad07137c4a4cf86ada61ae29ac5154d255d648f63749243fea1be3bed067d9485937d6f9544b0f4f22c56384c4678370453db9a4958d3a32438b71c59f04060efcba94f6a0c45c79ff29cafefc924bebe93c584e001c8b44351d6f6a2fee179c74c13cc54ab0da128881fb1649536c391d0fefd8435308692ac339f48b5767a37226b8dfa4efbe6066f80461fd394d97d6ef038d569aa6191a6133b519c5669352be488c9994d3601f2a5889b1fcf84de6b0a83d0244f39bc4ff796877f5cbfc369d33f21219de4f053126b3f6f1840939feea82eea85f1df1daa3896046e126cb95daf58337da30783eadd90aa14b73fd3781ddd32fde9b16beb7538a6834c0c0ca9e087137a86b4bd0428f0591a551a03460409a373397a794dcb15a3036d6733fb3d10db2aeb9e05cfeb4425408dba68356f5ccef7014656cf279fd6ac7075bf146191468e3b87e2ecb96eeda5f66d18f8f4e80e4919f28850bc4942130503c5d9e7038518f4cb0a71b39f39fe1d1d06541d7b859896c7ac444a6e1a3658d5c5ab376c299328f5b78ceaeee8606ff1d06eb9ef3c4ba4677d18cb32f8652df366dbfba8be6a8ea64fdee57217bd53a3ac7d9394205f7eb312f560edeafffc68d0d46b215abaaf7328b807e42361091ee5f51da6773ec7de3e4796797858358b372295f772e93f4c37dd8a2003932b6145e8c86236c90d63e24ecc3ec2a960b4832e46ae0d7c919391d037c6f828d515de33cea3546ba5deef0373fe6a8a86cc887548ffde1155e5d63d42e42bd2c965ea52aa7f0bfebcec558d122e8bdc2f392c40fe9250b851e3645e61cec7276b49f884cca0ece0710e4f41833d042931fb1fe9dabed9d9461a0a3931892875f5b34b4abf473c924a1008417a6e862f03d8e1eb799295667ec7ea110395bbb2887006551c39941cbdf34e6f2b327f50288df84fab80ef0863b54d3b8a286d1c1b3379437bf900969e017a7e4af5dce48f1f3c87e4ef458709c6ec94997228500f0faf08f9870926b487e7067d2a63fabfe54492c1f87624286d67ecc7a070e4579ae1e1739cbbd04c4326b9e9d9617fb9267cacb1113f6a2a56dbf9502c940ad178ffda38386b6d6615067173aab59b2d388f7e4190948e2df1740041ff5d1ca740f78de827c8b9f3b4ea772af7d73c4f57a521e66adc0116ecefe17437cf2a9f29971fbeca7c25bd04913c8f026f7daf63bc9a5621aebc811b406a79e331c3f0a67316448223193fceb19af0f90b1f780afa662c20480f3b03ccea3e112551b88c77d36c035e3da140214a88e062a9bc18446388b0178ced60cbce02cdb5c50b68ba94270c4f15a0db494e12c965ae5392afb20c51de961c65b805bc33f70e929458f974ff39e01a5ff1167a27e98a712e4f288f33e7c5c5c50bcbcad8c773a4dd3f02a537e8c33a455f41471cb11976a206f8523682d36a33d274cd0e3ac9e8ddd12b443f931ad432f5ddb156f3fcd8e5dc1344bc7ad6f442b4660e647070bc0fb90d1e735c7784e8c4665001015c1eac16cc481dba71220eefdfccd4c9b5ca7e23dfc580e0a339f476e2d66b2821e794a2f6d73bec45c3ef4884c581f729acb6e9c01f31728f0a5df2f75237274ef03b8a548f22189e9ffdbde5da659a0ce42f12ca46a48da44a4beb5c33a7c9a6db581a61aa6ecfbb31ad8cc8cca6398aea89d1fb6e9242a8b930b2468be33c3863a2bc319c32baaebd05f3dacbca9b994c252aed62e6d98a02970ad03e41c3b6e94776705cc7397a7bd42ee5ca42a4c9cdb66dec0645226fe923e9d9a8805571c3fb7a6e2d8b633436977cda1036009704e3a21dc9ce7a29bebb136293b954cd697c8700ec9433f3bf9bc076ef1d5680c0ae6cc5cf449daec82a67983a238684b994abc512e87c3f54b18a74ef1fb4bfb2c6e0f34fa1b09ce31aec117230fdc37ad67da5262b2059f8d1564a7d5665700f17edbdd12f329577cb3c87013d0659422e9a89200628d187fc6632c89944555db88c74c83b302bf78db1fa22fb5e868bdb27d5723b481349a222b166e9e59f42f1705bad1c381bfe5130882d3e7a0345258e3201abebf2cd81d0028ee3f6bf25b066118a50f01d1875096b19f4a2e34da23423a1e4ec50fe26f1c6d0cec7500d1053736710a4688a0c10c808dc1f99f10d47b783a9be79713e8479a503a4148b734ec49203083973e7b1076146481c96362b9c35fe681004890489c5ad7d0009182cea191a6ebe07b0a2ed1d72f655f58e6126f5592fb2854c1cc9863c505c7dace5b7803024f2799011efdaebd4652a6d46caee8be1104b482b304093d382e739980ed85b6e937d9a0e521bcba359a397738e7321d1352fb2c81d2abcf44f17f954ea84d0828150d0f5cbffdd4f327946697482e2a5ac3fe493b85b79313355e0a9c226b8b9dc526b59081e3395d797c7e5c212902eb02275917539b01483adbbb69068247f3550225b8d3d4b3458be461694a00efbc75a20e92501f11dca0e6f9257587c1a651c6240a9152b8ef292cf55997d9c10aa186e0aece574d4fe72a5e5cb4a89337cf1578f7fee514cd5b5ade631a1ddbf2e522c2a9aacd4880d8b23087e8811f"
        }
    },
    "waitingSinceBlock": 400000,
    "mutualCloseProposed": [
        {
            "input": {
                "outPoint": "fb3eaf9e0d57440b02c0a7f8b221e5628c567651e14912ad32f478d795c4e33b:0",
                "txOut": {
                    "amount": 1000000,
                    "publicKeyScript": "002057ca65f637bc83aaa046335b1aa7ef3b5347c2b40aef1c83c7831202a32cf73e"
                },
                "redeemScript": "522102a73d5523148f33b473419816e41c58bfec5cb332ec86b9a80ce6f1825bca170c2102ef967c443519718449a9c9b60a85def8c99e0ea8a0da33273a7c18775e7eb91b52ae"
            },
            "tx": "02000000013be3c495d778f432ad1249e15176568c62e521b2f8a7c0020b44570d9eaf3efb0000000000ffffffff02400d03000000000016001434947cfb2e8f6054ddf12daed4308cbe342580d1d6270c000000000016001405e0104aa726e34ff5cd3a6320d05c0862b5b01c00000000",
            "toLocalIndex": 1
        }
    ],
    "mutualClosePublished": [
        {
            "input": {
                "outPoint": "fb3eaf9e0d57440b02c0a7f8b221e5628c567651e14912ad32f478d795c4e33b:0",
                "txOut": {
                    "amount": 1000000,
                    "publicKeyScript": "002057ca65f637bc83aaa046335b1aa7ef3b5347c2b40aef1c83c7831202a32cf73e"
                },
                "redeemScript": "522102a73d5523148f33b473419816e41c58bfec5cb332ec86b9a80ce6f1825bca170c2102ef967c443519718449a9c9b60a85def8c99e0ea8a0da33273a7c18775e7eb91b52ae"
            },
            "tx": "020000000001013be3c495d778f432ad1249e15176568c62e521b2f8a7c0020b44570d9eaf3efb0000000000ffffffff02400d03000000000016001434947cfb2e8f6054ddf12daed4308cbe342580d1d6270c000000000016001405e0104aa726e34ff5cd3a6320d05c0862b5b01c0400483045022100832a2fef23d4aa781be1ccd6658a49265bac6b70698e21ec675229ae3c0c2f2e02205510f59e68438fe94ec559917bceae19456af6c65609f4f8c4e435374515f3e9014730440220169b63c09d0f0e6ea76740fa024c327886e6f4b4c19c7ec79e535523e71bbc55022061d9ac0db36cbd6af8703846f49a2d5850d4a8a68e6eef306e5bdb1ab3d31b280147522102a73d5523148f33b473419816e41c58bfec5cb332ec86b9a80ce6f1825bca170c2102ef967c443519718449a9c9b60a85def8c99e0ea8a0da33273a7c18775e7eb91b52ae00000000",
            "toLocalIndex": 1
        }
    ]
}